{
  "contractName": "ExchangeProposal",
  "abi": [
    {
      "inputs": [
        {
          "internalType": "address",
          "name": "_creator",
          "type": "address"
        },
        {
          "internalType": "string",
          "name": "description_",
          "type": "string"
        },
        {
          "internalType": "string",
          "name": "title_",
          "type": "string"
        },
        {
          "internalType": "uint256",
          "name": "debatingPeriod_",
          "type": "uint256"
        },
        {
          "internalType": "address",
          "name": "fromTokenAddress_",
          "type": "address"
        },
        {
          "internalType": "address",
          "name": "toTokenAddress_",
          "type": "address"
        }
      ],
      "stateMutability": "nonpayable",
      "type": "constructor"
    },
    {
      "anonymous": false,
      "inputs": [
        {
          "indexed": true,
          "internalType": "address",
          "name": "previousOwner",
          "type": "address"
        },
        {
          "indexed": true,
          "internalType": "address",
          "name": "newOwner",
          "type": "address"
        }
      ],
      "name": "OwnershipTransferred",
      "type": "event"
    },
    {
      "anonymous": false,
      "inputs": [
        {
          "indexed": true,
          "internalType": "address",
          "name": "proposalAddress",
          "type": "address"
        },
        {
          "indexed": false,
          "internalType": "uint256",
          "name": "timestamp",
          "type": "uint256"
        }
      ],
      "name": "ProposalClosed",
      "type": "event"
    },
    {
      "anonymous": false,
      "inputs": [
        {
          "indexed": true,
          "internalType": "address",
          "name": "proposalAddress",
          "type": "address"
        },
        {
          "indexed": true,
          "internalType": "address",
          "name": "voter",
          "type": "address"
        }
      ],
      "name": "ProposalUnvoted",
      "type": "event"
    },
    {
      "anonymous": false,
      "inputs": [
        {
          "indexed": true,
          "internalType": "address",
          "name": "proposalAddress",
          "type": "address"
        },
        {
          "indexed": true,
          "internalType": "address",
          "name": "voter",
          "type": "address"
        },
        {
          "indexed": false,
          "internalType": "bool",
          "name": "isVotedYes",
          "type": "bool"
        }
      ],
      "name": "ProposalVoted",
      "type": "event"
    },
    {
      "inputs": [],
      "name": "checkApprovalStatus",
      "outputs": [
        {
          "internalType": "uint64",
          "name": "approvalPercentage",
          "type": "uint64"
        }
      ],
      "stateMutability": "view",
      "type": "function"
    },
    {
      "inputs": [],
      "name": "close",
      "outputs": [],
      "stateMutability": "nonpayable",
      "type": "function"
    },
    {
      "inputs": [],
      "name": "createdAt",
      "outputs": [
        {
          "internalType": "uint256",
          "name": "",
          "type": "uint256"
        }
      ],
      "stateMutability": "view",
      "type": "function"
    },
    {
      "inputs": [],
      "name": "creator",
      "outputs": [
        {
          "internalType": "address",
          "name": "",
          "type": "address"
        }
      ],
      "stateMutability": "view",
      "type": "function"
    },
    {
      "inputs": [],
      "name": "description",
      "outputs": [
        {
          "internalType": "string",
          "name": "",
          "type": "string"
        }
      ],
      "stateMutability": "view",
      "type": "function"
    },
    {
      "inputs": [],
      "name": "numberOfNoVote",
      "outputs": [
        {
          "internalType": "uint64",
          "name": "",
          "type": "uint64"
        }
      ],
      "stateMutability": "view",
      "type": "function"
    },
    {
      "inputs": [],
      "name": "numberOfYesVote",
      "outputs": [
        {
          "internalType": "uint64",
          "name": "",
          "type": "uint64"
        }
      ],
      "stateMutability": "view",
      "type": "function"
    },
    {
      "inputs": [],
      "name": "open",
      "outputs": [
        {
          "internalType": "enum Proposal.Status",
          "name": "",
          "type": "uint8"
        }
      ],
      "stateMutability": "view",
      "type": "function"
    },
    {
      "inputs": [],
      "name": "owner",
      "outputs": [
        {
          "internalType": "address",
          "name": "",
          "type": "address"
        }
      ],
      "stateMutability": "view",
      "type": "function"
    },
    {
      "inputs": [],
      "name": "proposalPassed",
      "outputs": [
        {
          "internalType": "bool",
          "name": "",
          "type": "bool"
        }
      ],
      "stateMutability": "view",
      "type": "function"
    },
    {
      "inputs": [],
      "name": "renounceOwnership",
      "outputs": [],
      "stateMutability": "nonpayable",
      "type": "function"
    },
    {
      "inputs": [],
      "name": "title",
      "outputs": [
        {
          "internalType": "string",
          "name": "",
          "type": "string"
        }
      ],
      "stateMutability": "view",
      "type": "function"
    },
    {
      "inputs": [
        {
          "internalType": "address",
          "name": "newOwner",
          "type": "address"
        }
      ],
      "name": "transferOwnership",
      "outputs": [],
      "stateMutability": "nonpayable",
      "type": "function"
    },
    {
      "inputs": [],
      "name": "unvote",
      "outputs": [],
      "stateMutability": "nonpayable",
      "type": "function"
    },
    {
      "inputs": [],
      "name": "voteNo",
      "outputs": [],
      "stateMutability": "nonpayable",
      "type": "function"
    },
    {
      "inputs": [],
      "name": "voteYes",
      "outputs": [],
      "stateMutability": "nonpayable",
      "type": "function"
    },
    {
      "inputs": [
        {
          "internalType": "address",
          "name": "",
          "type": "address"
        }
      ],
      "name": "votedNo",
      "outputs": [
        {
          "internalType": "bool",
          "name": "",
          "type": "bool"
        }
      ],
      "stateMutability": "view",
      "type": "function"
    },
    {
      "inputs": [
        {
          "internalType": "address",
          "name": "",
          "type": "address"
        }
      ],
      "name": "votedYes",
      "outputs": [
        {
          "internalType": "bool",
          "name": "",
          "type": "bool"
        }
      ],
      "stateMutability": "view",
      "type": "function"
    },
    {
      "inputs": [],
      "name": "votingDeadline",
      "outputs": [
        {
          "internalType": "uint256",
          "name": "",
          "type": "uint256"
        }
      ],
      "stateMutability": "view",
      "type": "function"
    }
  ],
  "bytecode": "0x60806040523480156200001157600080fd5b5060405162000eb238038062000eb28339810160408190526200003491620002ee565b858585856200005e6200004f640100000000620000f1810204565b640100000000620000f5810204565b60018054600160a060020a031916600160a060020a03861617905582516200008e90600290602086019062000145565b508151620000a490600390602085019062000145565b5060045550506005805461ffff191690555042600a55600b8054600160a060020a03938416600160a060020a031991821617909155600c805492909316911617905550620003ee92505050565b3390565b60008054600160a060020a03838116600160a060020a0319831681178455604051919092169283917f8be0079c531659141344cd1fd0a4f28419497f9722a3daafe3b4186f6b6457e09190a35050565b828054620001539062000398565b90600052602060002090601f016020900481019282620001775760008555620001c2565b82601f106200019257805160ff1916838001178555620001c2565b82800160010185558215620001c2579182015b82811115620001c2578251825591602001919060010190620001a5565b50620001d0929150620001d4565b5090565b5b80821115620001d05760008155600101620001d5565b8051600160a060020a03811681146200020357600080fd5b919050565b7f4e487b7100000000000000000000000000000000000000000000000000000000600052604160045260246000fd5b600082601f8301126200024957600080fd5b81516001604060020a038082111562000266576200026662000208565b604051601f8301601f19908116603f0116810190828211818310171562000291576200029162000208565b81604052838152602092508683858801011115620002ae57600080fd5b600091505b83821015620002d25785820183015181830184015290820190620002b3565b83821115620002e45760008385830101525b9695505050505050565b60008060008060008060c087890312156200030857600080fd5b6200031387620001eb565b955060208701516001604060020a03808211156200033057600080fd5b6200033e8a838b0162000237565b965060408901519150808211156200035557600080fd5b506200036489828a0162000237565b945050606087015192506200037c60808801620001eb565b91506200038c60a08801620001eb565b90509295509295509295565b600281046001821680620003ad57607f821691505b60208210811415620003e8577f4e487b7100000000000000000000000000000000000000000000000000000000600052602260045260246000fd5b50919050565b610ab480620003fe6000396000f3fe608060405234801561001057600080fd5b50600436106100f45760e060020a600035046302d05d3f81146100f9578063036ee850146101295780631626fe6414610140578063227326b11461016057806324033674146101825780633174b6891461019557806341c12a701461019f57806343d726d6146101a75780634a79d50c146101af5780635351a3c8146101c4578063655b737f146101e7578063715018a61461020a5780637284e416146102125780638da5cb5b1461021a57806390cf581c14610222578063cf09e0d01461022a578063e2c3b12214610233578063f2fde38b14610246578063fcfff16f14610259575b600080fd5b60015461010c90600160a060020a031681565b604051600160a060020a0390911681526020015b60405180910390f35b61013260045481565b604051908152602001610120565b610148610273565b6040516001604060020a039091168152602001610120565b60055461017290610100900460ff1681565b6040519015158152602001610120565b600754610148906001604060020a031681565b61019d6102b8565b005b61019d61042d565b61019d610503565b6101b7610596565b604051610120919061084e565b6101726101d23660046108a3565b60086020526000908152604090205460ff1681565b6101726101f53660046108a3565b60066020526000908152604090205460ff1681565b61019d610624565b6101b7610662565b61010c61066f565b61019d61067e565b610132600a5481565b600954610148906001604060020a031681565b61019d6102543660046108a3565b6106de565b6005546102669060ff1681565b60405161012091906108d3565b600954600754600091610292916001604060020a039182169116610919565b6007546102a9906001604060020a03166064610944565b6102b39190610973565b905090565b6102c0610787565b6103145760405160e560020a62461bcd02815260206004820152601c60248201527f746865206164647265737320646964206e6f7420766f7465207965740000000060448201526064015b60405180910390fd5b3360009081526006602052604090205460ff1615156001141561038957336000908152600660205260408120805460ff1916905560078054600192906103649084906001604060020a03166109ab565b92506101000a8154816001604060020a0302191690836001604060020a031602179055505b3360009081526008602052604090205460ff161515600114156103fe57336000908152600860205260408120805460ff1916905560098054600192906103d99084906001604060020a03166109ab565b92506101000a8154816001604060020a0302191690836001604060020a031602179055505b604051339030907f2817372c62bc3cdb73b84b6412d5ce40c6e73c30ef5fac6558d0c4cb3da410b790600090a3565b6104356107c1565b6104545760405160e560020a62461bcd02815260040161030b906109d3565b336000908152600860205260408120805460ff19166001908117909155600980549192909161048d9084906001604060020a0316610919565b92506101000a8154816001604060020a0302191690836001604060020a0316021790555033600160a060020a031630600160a060020a03167fbbcca6f8778ffd7765644921c17ed2de4add7a9b4ca1a29614a6295edd4a208960016040516104f9911515815260200190565b60405180910390a3565b600154600160a060020a031633146105525760405160e560020a62461bcd02815260206004820152600c602482015260a160020a6b3737ba1030b71037bbb732b902604482015260640161030b565b6005805460ff1916600117905560405142815230907f6944894ba716aadf69fcd57834d5d2cc2e808f6a144c75d956068efa727e2a7e9060200160405180910390a2565b600380546105a390610a0a565b80601f01602080910402602001604051908101604052809291908181526020018280546105cf90610a0a565b801561061c5780601f106105f15761010080835404028352916020019161061c565b820191906000526020600020905b8154815290600101906020018083116105ff57829003601f168201915b505050505081565b3361062d61066f565b600160a060020a0316146106565760405160e560020a62461bcd02815260040161030b90610a49565b61066060006107fe565b565b600280546105a390610a0a565b600054600160a060020a031690565b6106866107c1565b6106a55760405160e560020a62461bcd02815260040161030b906109d3565b336000908152600660205260408120805460ff19166001908117909155600780549192909161048d9084906001604060020a0316610919565b336106e761066f565b600160a060020a0316146107105760405160e560020a62461bcd02815260040161030b90610a49565b600160a060020a03811661077b5760405160e560020a62461bcd02815260206004820152602660248201527f4f776e61626c653a206e6577206f776e657220697320746865207a65726f2061604482015260d060020a6564647265737302606482015260840161030b565b610784816107fe565b50565b3360009081526006602052604081205460ff161515600114806102b35750503360009081526008602052604090205460ff16151560011490565b3360009081526006602052604081205460ff1615156001148015906102b35750503360009081526008602052604090205460ff1615156001141590565b60008054600160a060020a03838116600160a060020a0319831681178455604051919092169283917f8be0079c531659141344cd1fd0a4f28419497f9722a3daafe3b4186f6b6457e09190a35050565b600060208083528351808285015260005b8181101561087b5785810183015185820160400152820161085f565b8181111561088d576000604083870101525b50601f01601f1916929092016040019392505050565b6000602082840312156108b557600080fd5b8135600160a060020a03811681146108cc57600080fd5b9392505050565b60208101600283106108f95760e060020a634e487b710260009081526021600452602490fd5b91905290565b60e060020a634e487b710260009081526011600452602490fd5b60006001604060020a0382811684821680830382111561093b5761093b6108ff565b01949350505050565b60006001604060020a038281168482168115158284048211161561096a5761096a6108ff565b02949350505050565b60006001604060020a038381168061099f5760e060020a634e487b710260009081526012600452602490fd5b92169190910492915050565b60006001604060020a03838116908316818110156109cb576109cb6108ff565b039392505050565b6020808252601d908201527f74686520616464726573732068617320766f74656420616c7265616479000000604082015260600190565b600281046001821680610a1e57607f821691505b60208210811415610a435760e060020a634e487b710260009081526022600452602490fd5b50919050565b6020808252818101527f4f776e61626c653a2063616c6c6572206973206e6f7420746865206f776e657260408201526060019056fea264697066735822122011e510af30abe6553180292acee5ec3973854229f5e88f0d0970d2713df1abc264736f6c63430008090033",
  "immutableReferences": {},
  "source": "// SPDX-License-Identifier: MIT\npragma solidity >=0.4.0;\n\nimport \"./Proposal.sol\";\n\ncontract ExchangeProposal is Proposal {\n  address private _fromTokenAddress;\n  address private _toTokenAddress;\n  ProposalType constant proposalType = ProposalType.EXCHANGE;\n\n  constructor(\n    address _creator,\n    string memory description_,\n    string memory title_,\n    uint256 debatingPeriod_,\n    address fromTokenAddress_,\n    address toTokenAddress_\n  ) Proposal(_creator, description_, title_, debatingPeriod_) {\n    _fromTokenAddress = fromTokenAddress_;\n    _toTokenAddress = toTokenAddress_;\n  }\n}\n",
  "sourcePath": "/Users/chungquantin/Desktop/Projects/DecentralizedOpenSource/smart-bay/contracts/features/dao/proposal/ExchangeProposal.sol",
  "compiler": {
    "name": "solc",
    "version": "0.8.9+commit.e5eed63a.Emscripten.clang"
  },
  "schemaVersion": "3.4.3",
  "updatedAt": "2021-11-17T03:08:21.763Z",
  "devdoc": {
    "kind": "dev",
    "methods": {
      "owner()": {
        "details": "Returns the address of the current owner."
      },
      "renounceOwnership()": {
        "details": "Leaves the contract without owner. It will not be possible to call `onlyOwner` functions anymore. Can only be called by the current owner. NOTE: Renouncing ownership will leave the contract without an owner, thereby removing any functionality that is only available to the owner."
      },
      "transferOwnership(address)": {
        "details": "Transfers ownership of the contract to a new account (`newOwner`). Can only be called by the current owner."
      }
    },
    "version": 1
  },
  "userdoc": {
    "kind": "user",
    "methods": {},
    "version": 1
  }
}