{
  "contractName": "ExchangeProposal",
  "abi": [
    {
      "inputs": [
        {
          "internalType": "address",
          "name": "_creator",
          "type": "address"
        },
        {
          "internalType": "string",
          "name": "description_",
          "type": "string"
        },
        {
          "internalType": "string",
          "name": "title_",
          "type": "string"
        },
        {
          "internalType": "uint256",
          "name": "debatingPeriod_",
          "type": "uint256"
        },
        {
          "internalType": "address",
          "name": "fromTokenAddress_",
          "type": "address"
        },
        {
          "internalType": "address",
          "name": "toTokenAddress_",
          "type": "address"
        }
      ],
      "stateMutability": "nonpayable",
      "type": "constructor"
    },
    {
      "anonymous": false,
      "inputs": [
        {
          "indexed": true,
          "internalType": "address",
          "name": "previousOwner",
          "type": "address"
        },
        {
          "indexed": true,
          "internalType": "address",
          "name": "newOwner",
          "type": "address"
        }
      ],
      "name": "OwnershipTransferred",
      "type": "event"
    },
    {
      "anonymous": false,
      "inputs": [
        {
          "indexed": true,
          "internalType": "address",
          "name": "proposalAddress",
          "type": "address"
        },
        {
          "indexed": false,
          "internalType": "uint256",
          "name": "timestamp",
          "type": "uint256"
        }
      ],
      "name": "ProposalClosed",
      "type": "event"
    },
    {
      "anonymous": false,
      "inputs": [
        {
          "indexed": true,
          "internalType": "address",
          "name": "proposalAddress",
          "type": "address"
        },
        {
          "indexed": true,
          "internalType": "address",
          "name": "voter",
          "type": "address"
        }
      ],
      "name": "ProposalUnvoted",
      "type": "event"
    },
    {
      "anonymous": false,
      "inputs": [
        {
          "indexed": true,
          "internalType": "address",
          "name": "proposalAddress",
          "type": "address"
        },
        {
          "indexed": true,
          "internalType": "address",
          "name": "voter",
          "type": "address"
        },
        {
          "indexed": false,
          "internalType": "bool",
          "name": "isVotedYes",
          "type": "bool"
        }
      ],
      "name": "ProposalVoted",
      "type": "event"
    },
    {
      "inputs": [],
      "name": "checkApprovalStatus",
      "outputs": [
        {
          "internalType": "uint64",
          "name": "approvalPercentage",
          "type": "uint64"
        }
      ],
      "stateMutability": "view",
      "type": "function"
    },
    {
      "inputs": [],
      "name": "close",
      "outputs": [],
      "stateMutability": "nonpayable",
      "type": "function"
    },
    {
      "inputs": [],
      "name": "creator",
      "outputs": [
        {
          "internalType": "address",
          "name": "",
          "type": "address"
        }
      ],
      "stateMutability": "view",
      "type": "function"
    },
    {
      "inputs": [],
      "name": "description",
      "outputs": [
        {
          "internalType": "string",
          "name": "",
          "type": "string"
        }
      ],
      "stateMutability": "view",
      "type": "function"
    },
    {
      "inputs": [],
      "name": "numberOfNoVote",
      "outputs": [
        {
          "internalType": "uint64",
          "name": "",
          "type": "uint64"
        }
      ],
      "stateMutability": "view",
      "type": "function"
    },
    {
      "inputs": [],
      "name": "numberOfYesVote",
      "outputs": [
        {
          "internalType": "uint64",
          "name": "",
          "type": "uint64"
        }
      ],
      "stateMutability": "view",
      "type": "function"
    },
    {
      "inputs": [],
      "name": "open",
      "outputs": [
        {
          "internalType": "enum Proposal.Status",
          "name": "",
          "type": "uint8"
        }
      ],
      "stateMutability": "view",
      "type": "function"
    },
    {
      "inputs": [],
      "name": "owner",
      "outputs": [
        {
          "internalType": "address",
          "name": "",
          "type": "address"
        }
      ],
      "stateMutability": "view",
      "type": "function"
    },
    {
      "inputs": [],
      "name": "proposalPassed",
      "outputs": [
        {
          "internalType": "bool",
          "name": "",
          "type": "bool"
        }
      ],
      "stateMutability": "view",
      "type": "function"
    },
    {
      "inputs": [],
      "name": "renounceOwnership",
      "outputs": [],
      "stateMutability": "nonpayable",
      "type": "function"
    },
    {
      "inputs": [],
      "name": "title",
      "outputs": [
        {
          "internalType": "string",
          "name": "",
          "type": "string"
        }
      ],
      "stateMutability": "view",
      "type": "function"
    },
    {
      "inputs": [
        {
          "internalType": "address",
          "name": "newOwner",
          "type": "address"
        }
      ],
      "name": "transferOwnership",
      "outputs": [],
      "stateMutability": "nonpayable",
      "type": "function"
    },
    {
      "inputs": [],
      "name": "unvote",
      "outputs": [],
      "stateMutability": "nonpayable",
      "type": "function"
    },
    {
      "inputs": [],
      "name": "voteNo",
      "outputs": [],
      "stateMutability": "nonpayable",
      "type": "function"
    },
    {
      "inputs": [],
      "name": "voteYes",
      "outputs": [],
      "stateMutability": "nonpayable",
      "type": "function"
    },
    {
      "inputs": [
        {
          "internalType": "address",
          "name": "",
          "type": "address"
        }
      ],
      "name": "votedNo",
      "outputs": [
        {
          "internalType": "bool",
          "name": "",
          "type": "bool"
        }
      ],
      "stateMutability": "view",
      "type": "function"
    },
    {
      "inputs": [
        {
          "internalType": "address",
          "name": "",
          "type": "address"
        }
      ],
      "name": "votedYes",
      "outputs": [
        {
          "internalType": "bool",
          "name": "",
          "type": "bool"
        }
      ],
      "stateMutability": "view",
      "type": "function"
    },
    {
      "inputs": [],
      "name": "votingDeadline",
      "outputs": [
        {
          "internalType": "uint256",
          "name": "",
          "type": "uint256"
        }
      ],
      "stateMutability": "view",
      "type": "function"
    }
  ],
  "bytecode": "0x60806040523480156200001157600080fd5b5060405162001d6438038062001d64833981810160405281019062000037919062000569565b858585856200005b6200004f620001b060201b60201c565b620001b860201b60201c565b83600160006101000a81548173ffffffffffffffffffffffffffffffffffffffff021916908373ffffffffffffffffffffffffffffffffffffffff1602179055508260029080519060200190620000b49291906200027c565b508160039080519060200190620000cd9291906200027c565b50806004819055506000600560006101000a81548160ff02191690836001811115620000fe57620000fd62000643565b5b02179055506000600560016101000a81548160ff0219169083151502179055505050505081600960086101000a81548173ffffffffffffffffffffffffffffffffffffffff021916908373ffffffffffffffffffffffffffffffffffffffff16021790555080600a60006101000a81548173ffffffffffffffffffffffffffffffffffffffff021916908373ffffffffffffffffffffffffffffffffffffffff160217905550505050505050620006d7565b600033905090565b60008060009054906101000a900473ffffffffffffffffffffffffffffffffffffffff169050816000806101000a81548173ffffffffffffffffffffffffffffffffffffffff021916908373ffffffffffffffffffffffffffffffffffffffff1602179055508173ffffffffffffffffffffffffffffffffffffffff168173ffffffffffffffffffffffffffffffffffffffff167f8be0079c531659141344cd1fd0a4f28419497f9722a3daafe3b4186f6b6457e060405160405180910390a35050565b8280546200028a90620006a1565b90600052602060002090601f016020900481019282620002ae5760008555620002fa565b82601f10620002c957805160ff1916838001178555620002fa565b82800160010185558215620002fa579182015b82811115620002f9578251825591602001919060010190620002dc565b5b5090506200030991906200030d565b5090565b5b80821115620003285760008160009055506001016200030e565b5090565b6000604051905090565b600080fd5b600080fd5b600073ffffffffffffffffffffffffffffffffffffffff82169050919050565b60006200036d8262000340565b9050919050565b6200037f8162000360565b81146200038b57600080fd5b50565b6000815190506200039f8162000374565b92915050565b600080fd5b600080fd5b6000601f19601f8301169050919050565b7f4e487b7100000000000000000000000000000000000000000000000000000000600052604160045260246000fd5b620003fa82620003af565b810181811067ffffffffffffffff821117156200041c576200041b620003c0565b5b80604052505050565b6000620004316200032c565b90506200043f8282620003ef565b919050565b600067ffffffffffffffff821115620004625762000461620003c0565b5b6200046d82620003af565b9050602081019050919050565b60005b838110156200049a5780820151818401526020810190506200047d565b83811115620004aa576000848401525b50505050565b6000620004c7620004c18462000444565b62000425565b905082815260208101848484011115620004e657620004e5620003aa565b5b620004f38482856200047a565b509392505050565b600082601f830112620005135762000512620003a5565b5b815162000525848260208601620004b0565b91505092915050565b6000819050919050565b62000543816200052e565b81146200054f57600080fd5b50565b600081519050620005638162000538565b92915050565b60008060008060008060c0878903121562000589576200058862000336565b5b60006200059989828a016200038e565b965050602087015167ffffffffffffffff811115620005bd57620005bc6200033b565b5b620005cb89828a01620004fb565b955050604087015167ffffffffffffffff811115620005ef57620005ee6200033b565b5b620005fd89828a01620004fb565b94505060606200061089828a0162000552565b93505060806200062389828a016200038e565b92505060a06200063689828a016200038e565b9150509295509295509295565b7f4e487b7100000000000000000000000000000000000000000000000000000000600052602160045260246000fd5b7f4e487b7100000000000000000000000000000000000000000000000000000000600052602260045260246000fd5b60006002820490506001821680620006ba57607f821691505b60208210811415620006d157620006d062000672565b5b50919050565b61167d80620006e76000396000f3fe608060405234801561001057600080fd5b50600436106101165760003560e01c80635351a3c8116100a25780638da5cb5b116100715780638da5cb5b1461027557806390cf581c14610293578063e2c3b1221461029d578063f2fde38b146102bb578063fcfff16f146102d757610116565b80635351a3c8146101ed578063655b737f1461021d578063715018a61461024d5780637284e4161461025757610116565b806324033674116100e957806324033674146101935780633174b689146101b157806341c12a70146101bb57806343d726d6146101c55780634a79d50c146101cf57610116565b806302d05d3f1461011b578063036ee850146101395780631626fe6414610157578063227326b114610175575b600080fd5b6101236102f5565b6040516101309190610ff3565b60405180910390f35b61014161031b565b60405161014e9190611027565b60405180910390f35b61015f610321565b60405161016c9190611065565b60405180910390f35b61017d61038d565b60405161018a919061109b565b60405180910390f35b61019b6103a0565b6040516101a89190611065565b60405180910390f35b6101b96103ba565b005b6101c3610663565b005b6101cd6107bd565b005b6101d76108cf565b6040516101e4919061114f565b60405180910390f35b610207600480360381019061020291906111a2565b61095d565b604051610214919061109b565b60405180910390f35b610237600480360381019061023291906111a2565b61097d565b604051610244919061109b565b60405180910390f35b61025561099d565b005b61025f610a25565b60405161026c919061114f565b60405180910390f35b61027d610ab3565b60405161028a9190610ff3565b60405180910390f35b61029b610adc565b005b6102a5610c36565b6040516102b29190611065565b60405180910390f35b6102d560048036038101906102d091906111a2565b610c50565b005b6102df610d48565b6040516102ec9190611246565b60405180910390f35b600160009054906101000a900473ffffffffffffffffffffffffffffffffffffffff1681565b60045481565b6000600960009054906101000a900467ffffffffffffffff16600760009054906101000a900467ffffffffffffffff1661035b9190611290565b6064600760009054906101000a900467ffffffffffffffff1661037e91906112ce565b610388919061133f565b905090565b600560019054906101000a900460ff1681565b600760009054906101000a900467ffffffffffffffff1681565b6103c2610d5b565b610401576040517f08c379a00000000000000000000000000000000000000000000000000000000081526004016103f8906113bc565b60405180910390fd5b6001151560066000610411610e1f565b73ffffffffffffffffffffffffffffffffffffffff1673ffffffffffffffffffffffffffffffffffffffff16815260200190815260200160002060009054906101000a900460ff1615151415610504576006600061046d610e1f565b73ffffffffffffffffffffffffffffffffffffffff1673ffffffffffffffffffffffffffffffffffffffff16815260200190815260200160002060006101000a81549060ff02191690556001600760008282829054906101000a900467ffffffffffffffff166104dd91906113dc565b92506101000a81548167ffffffffffffffff021916908367ffffffffffffffff1602179055505b6001151560086000610514610e1f565b73ffffffffffffffffffffffffffffffffffffffff1673ffffffffffffffffffffffffffffffffffffffff16815260200190815260200160002060009054906101000a900460ff16151514156106075760086000610570610e1f565b73ffffffffffffffffffffffffffffffffffffffff1673ffffffffffffffffffffffffffffffffffffffff16815260200190815260200160002060006101000a81549060ff02191690556001600960008282829054906101000a900467ffffffffffffffff166105e091906113dc565b92506101000a81548167ffffffffffffffff021916908367ffffffffffffffff1602179055505b3373ffffffffffffffffffffffffffffffffffffffff163073ffffffffffffffffffffffffffffffffffffffff167f2817372c62bc3cdb73b84b6412d5ce40c6e73c30ef5fac6558d0c4cb3da410b760405160405180910390a3565b61066b610e27565b6106aa576040517f08c379a00000000000000000000000000000000000000000000000000000000081526004016106a19061145c565b60405180910390fd5b6001600860006106b8610e1f565b73ffffffffffffffffffffffffffffffffffffffff1673ffffffffffffffffffffffffffffffffffffffff16815260200190815260200160002060006101000a81548160ff0219169083151502179055506001600960008282829054906101000a900467ffffffffffffffff1661072f9190611290565b92506101000a81548167ffffffffffffffff021916908367ffffffffffffffff1602179055503373ffffffffffffffffffffffffffffffffffffffff163073ffffffffffffffffffffffffffffffffffffffff167fbbcca6f8778ffd7765644921c17ed2de4add7a9b4ca1a29614a6295edd4a208960016040516107b3919061109b565b60405180910390a3565b6107c5610e1f565b73ffffffffffffffffffffffffffffffffffffffff16600160009054906101000a900473ffffffffffffffffffffffffffffffffffffffff1673ffffffffffffffffffffffffffffffffffffffff1614610854576040517f08c379a000000000000000000000000000000000000000000000000000000000815260040161084b906114c8565b60405180910390fd5b6001600560006101000a81548160ff0219169083600181111561087a576108796111cf565b5b02179055503073ffffffffffffffffffffffffffffffffffffffff167f6944894ba716aadf69fcd57834d5d2cc2e808f6a144c75d956068efa727e2a7e426040516108c59190611027565b60405180910390a2565b600380546108dc90611517565b80601f016020809104026020016040519081016040528092919081815260200182805461090890611517565b80156109555780601f1061092a57610100808354040283529160200191610955565b820191906000526020600020905b81548152906001019060200180831161093857829003601f168201915b505050505081565b60086020528060005260406000206000915054906101000a900460ff1681565b60066020528060005260406000206000915054906101000a900460ff1681565b6109a5610e1f565b73ffffffffffffffffffffffffffffffffffffffff166109c3610ab3565b73ffffffffffffffffffffffffffffffffffffffff1614610a19576040517f08c379a0000000000000000000000000000000000000000000000000000000008152600401610a1090611595565b60405180910390fd5b610a236000610eee565b565b60028054610a3290611517565b80601f0160208091040260200160405190810160405280929190818152602001828054610a5e90611517565b8015610aab5780601f10610a8057610100808354040283529160200191610aab565b820191906000526020600020905b815481529060010190602001808311610a8e57829003601f168201915b505050505081565b60008060009054906101000a900473ffffffffffffffffffffffffffffffffffffffff16905090565b610ae4610e27565b610b23576040517f08c379a0000000000000000000000000000000000000000000000000000000008152600401610b1a9061145c565b60405180910390fd5b600160066000610b31610e1f565b73ffffffffffffffffffffffffffffffffffffffff1673ffffffffffffffffffffffffffffffffffffffff16815260200190815260200160002060006101000a81548160ff0219169083151502179055506001600760008282829054906101000a900467ffffffffffffffff16610ba89190611290565b92506101000a81548167ffffffffffffffff021916908367ffffffffffffffff1602179055503373ffffffffffffffffffffffffffffffffffffffff163073ffffffffffffffffffffffffffffffffffffffff167fbbcca6f8778ffd7765644921c17ed2de4add7a9b4ca1a29614a6295edd4a20896001604051610c2c919061109b565b60405180910390a3565b600960009054906101000a900467ffffffffffffffff1681565b610c58610e1f565b73ffffffffffffffffffffffffffffffffffffffff16610c76610ab3565b73ffffffffffffffffffffffffffffffffffffffff1614610ccc576040517f08c379a0000000000000000000000000000000000000000000000000000000008152600401610cc390611595565b60405180910390fd5b600073ffffffffffffffffffffffffffffffffffffffff168173ffffffffffffffffffffffffffffffffffffffff161415610d3c576040517f08c379a0000000000000000000000000000000000000000000000000000000008152600401610d3390611627565b60405180910390fd5b610d4581610eee565b50565b600560009054906101000a900460ff1681565b60006001151560066000610d6d610e1f565b73ffffffffffffffffffffffffffffffffffffffff1673ffffffffffffffffffffffffffffffffffffffff16815260200190815260200160002060009054906101000a900460ff1615151480610e1a57506001151560086000610dce610e1f565b73ffffffffffffffffffffffffffffffffffffffff1673ffffffffffffffffffffffffffffffffffffffff16815260200190815260200160002060009054906101000a900460ff161515145b905090565b600033905090565b60006001151560066000610e39610e1f565b73ffffffffffffffffffffffffffffffffffffffff1673ffffffffffffffffffffffffffffffffffffffff16815260200190815260200160002060009054906101000a900460ff16151514158015610ee957506001151560086000610e9c610e1f565b73ffffffffffffffffffffffffffffffffffffffff1673ffffffffffffffffffffffffffffffffffffffff16815260200190815260200160002060009054906101000a900460ff16151514155b905090565b60008060009054906101000a900473ffffffffffffffffffffffffffffffffffffffff169050816000806101000a81548173ffffffffffffffffffffffffffffffffffffffff021916908373ffffffffffffffffffffffffffffffffffffffff1602179055508173ffffffffffffffffffffffffffffffffffffffff168173ffffffffffffffffffffffffffffffffffffffff167f8be0079c531659141344cd1fd0a4f28419497f9722a3daafe3b4186f6b6457e060405160405180910390a35050565b600073ffffffffffffffffffffffffffffffffffffffff82169050919050565b6000610fdd82610fb2565b9050919050565b610fed81610fd2565b82525050565b60006020820190506110086000830184610fe4565b92915050565b6000819050919050565b6110218161100e565b82525050565b600060208201905061103c6000830184611018565b92915050565b600067ffffffffffffffff82169050919050565b61105f81611042565b82525050565b600060208201905061107a6000830184611056565b92915050565b60008115159050919050565b61109581611080565b82525050565b60006020820190506110b0600083018461108c565b92915050565b600081519050919050565b600082825260208201905092915050565b60005b838110156110f05780820151818401526020810190506110d5565b838111156110ff576000848401525b50505050565b6000601f19601f8301169050919050565b6000611121826110b6565b61112b81856110c1565b935061113b8185602086016110d2565b61114481611105565b840191505092915050565b600060208201905081810360008301526111698184611116565b905092915050565b600080fd5b61117f81610fd2565b811461118a57600080fd5b50565b60008135905061119c81611176565b92915050565b6000602082840312156111b8576111b7611171565b5b60006111c68482850161118d565b91505092915050565b7f4e487b7100000000000000000000000000000000000000000000000000000000600052602160045260246000fd5b6002811061120f5761120e6111cf565b5b50565b6000819050611220826111fe565b919050565b600061123082611212565b9050919050565b61124081611225565b82525050565b600060208201905061125b6000830184611237565b92915050565b7f4e487b7100000000000000000000000000000000000000000000000000000000600052601160045260246000fd5b600061129b82611042565b91506112a683611042565b92508267ffffffffffffffff038211156112c3576112c2611261565b5b828201905092915050565b60006112d982611042565b91506112e483611042565b92508167ffffffffffffffff048311821515161561130557611304611261565b5b828202905092915050565b7f4e487b7100000000000000000000000000000000000000000000000000000000600052601260045260246000fd5b600061134a82611042565b915061135583611042565b92508261136557611364611310565b5b828204905092915050565b7f746865206164647265737320646964206e6f7420766f74652079657400000000600082015250565b60006113a6601c836110c1565b91506113b182611370565b602082019050919050565b600060208201905081810360008301526113d581611399565b9050919050565b60006113e782611042565b91506113f283611042565b92508282101561140557611404611261565b5b828203905092915050565b7f74686520616464726573732068617320766f74656420616c7265616479000000600082015250565b6000611446601d836110c1565b915061145182611410565b602082019050919050565b6000602082019050818103600083015261147581611439565b9050919050565b7f6e6f7420616e206f776e65720000000000000000000000000000000000000000600082015250565b60006114b2600c836110c1565b91506114bd8261147c565b602082019050919050565b600060208201905081810360008301526114e1816114a5565b9050919050565b7f4e487b7100000000000000000000000000000000000000000000000000000000600052602260045260246000fd5b6000600282049050600182168061152f57607f821691505b60208210811415611543576115426114e8565b5b50919050565b7f4f776e61626c653a2063616c6c6572206973206e6f7420746865206f776e6572600082015250565b600061157f6020836110c1565b915061158a82611549565b602082019050919050565b600060208201905081810360008301526115ae81611572565b9050919050565b7f4f776e61626c653a206e6577206f776e657220697320746865207a65726f206160008201527f6464726573730000000000000000000000000000000000000000000000000000602082015250565b60006116116026836110c1565b915061161c826115b5565b604082019050919050565b6000602082019050818103600083015261164081611604565b905091905056fea26469706673582212208b3724f80e0955aca95231dee2dfc8f66c3d6a9f81555cdea2fe270d1f662b5064736f6c63430008090033",
  "immutableReferences": {},
  "source": "// SPDX-License-Identifier: MIT\npragma solidity >=0.4.0;\n\nimport \"./Proposal.sol\";\n\ncontract ExchangeProposal is Proposal {\n  address private _fromTokenAddress;\n  address private _toTokenAddress;\n  ProposalType constant proposalType = ProposalType.EXCHANGE;\n\n  constructor(\n    address _creator,\n    string memory description_,\n    string memory title_,\n    uint256 debatingPeriod_,\n    address fromTokenAddress_,\n    address toTokenAddress_\n  ) Proposal(_creator, description_, title_, debatingPeriod_) {\n    _fromTokenAddress = fromTokenAddress_;\n    _toTokenAddress = toTokenAddress_;\n  }\n}\n",
  "sourcePath": "/Users/chungquantin/Desktop/Projects/DecentralizedOpenSource/smart-bay/contracts/features/dao/proposal/ExchangeProposal.sol",
  "compiler": {
    "name": "solc",
    "version": "0.8.9+commit.e5eed63a.Emscripten.clang"
  },
  "schemaVersion": "3.4.3",
  "updatedAt": "2021-11-14T12:36:39.941Z",
  "devdoc": {
    "kind": "dev",
    "methods": {
      "owner()": {
        "details": "Returns the address of the current owner."
      },
      "renounceOwnership()": {
        "details": "Leaves the contract without owner. It will not be possible to call `onlyOwner` functions anymore. Can only be called by the current owner. NOTE: Renouncing ownership will leave the contract without an owner, thereby removing any functionality that is only available to the owner."
      },
      "transferOwnership(address)": {
        "details": "Transfers ownership of the contract to a new account (`newOwner`). Can only be called by the current owner."
      }
    },
    "version": 1
  },
  "userdoc": {
    "kind": "user",
    "methods": {},
    "version": 1
  }
}