{
  "contractName": "ObayTreasury",
  "abi": [
    {
      "inputs": [],
      "stateMutability": "nonpayable",
      "type": "constructor"
    },
    {
      "anonymous": false,
      "inputs": [
        {
          "indexed": false,
          "internalType": "address",
          "name": "owner",
          "type": "address"
        },
        {
          "indexed": false,
          "internalType": "uint256",
          "name": "lockedAmount",
          "type": "uint256"
        }
      ],
      "name": "NewPoolCreated",
      "type": "event"
    },
    {
      "anonymous": false,
      "inputs": [
        {
          "indexed": false,
          "internalType": "string",
          "name": "_title",
          "type": "string"
        },
        {
          "indexed": false,
          "internalType": "address",
          "name": "_sourceAddress",
          "type": "address"
        }
      ],
      "name": "NewProposalAdded",
      "type": "event"
    },
    {
      "anonymous": false,
      "inputs": [
        {
          "indexed": false,
          "internalType": "address",
          "name": "stakeholder",
          "type": "address"
        }
      ],
      "name": "NewStakeholder",
      "type": "event"
    },
    {
      "anonymous": false,
      "inputs": [
        {
          "indexed": true,
          "internalType": "address",
          "name": "previousOwner",
          "type": "address"
        },
        {
          "indexed": true,
          "internalType": "address",
          "name": "newOwner",
          "type": "address"
        }
      ],
      "name": "OwnershipTransferred",
      "type": "event"
    },
    {
      "anonymous": false,
      "inputs": [
        {
          "indexed": false,
          "internalType": "address",
          "name": "stakeholder",
          "type": "address"
        }
      ],
      "name": "RemoveStakeholder",
      "type": "event"
    },
    {
      "anonymous": false,
      "inputs": [
        {
          "indexed": false,
          "internalType": "address",
          "name": "stakeholder",
          "type": "address"
        },
        {
          "indexed": false,
          "internalType": "uint256",
          "name": "amount",
          "type": "uint256"
        }
      ],
      "name": "Stake",
      "type": "event"
    },
    {
      "anonymous": false,
      "inputs": [
        {
          "indexed": false,
          "internalType": "address",
          "name": "stakeholder",
          "type": "address"
        },
        {
          "indexed": false,
          "internalType": "uint256",
          "name": "amount",
          "type": "uint256"
        }
      ],
      "name": "Unstake",
      "type": "event"
    },
    {
      "inputs": [],
      "name": "admin",
      "outputs": [
        {
          "internalType": "address",
          "name": "",
          "type": "address"
        }
      ],
      "stateMutability": "view",
      "type": "function"
    },
    {
      "inputs": [],
      "name": "claim",
      "outputs": [],
      "stateMutability": "payable",
      "type": "function"
    },
    {
      "inputs": [],
      "name": "createStakeholder",
      "outputs": [
        {
          "components": [
            {
              "internalType": "uint256",
              "name": "balance",
              "type": "uint256"
            },
            {
              "internalType": "address",
              "name": "contractAddress",
              "type": "address"
            },
            {
              "internalType": "uint256",
              "name": "claimedInterval",
              "type": "uint256"
            },
            {
              "internalType": "uint256",
              "name": "joinedAt",
              "type": "uint256"
            }
          ],
          "internalType": "struct TreasurePool.Stakeholder",
          "name": "",
          "type": "tuple"
        }
      ],
      "stateMutability": "nonpayable",
      "type": "function"
    },
    {
      "inputs": [],
      "name": "getAllProposals",
      "outputs": [
        {
          "internalType": "contract Proposal[]",
          "name": "",
          "type": "address[]"
        }
      ],
      "stateMutability": "view",
      "type": "function"
    },
    {
      "inputs": [
        {
          "internalType": "address",
          "name": "_proposalAddress",
          "type": "address"
        }
      ],
      "name": "getProposal",
      "outputs": [
        {
          "internalType": "contract Proposal",
          "name": "",
          "type": "address"
        }
      ],
      "stateMutability": "view",
      "type": "function"
    },
    {
      "inputs": [],
      "name": "limitNumberOfStakeholders",
      "outputs": [
        {
          "internalType": "uint64",
          "name": "",
          "type": "uint64"
        }
      ],
      "stateMutability": "view",
      "type": "function"
    },
    {
      "inputs": [],
      "name": "listOfStakeholders",
      "outputs": [
        {
          "components": [
            {
              "internalType": "uint256",
              "name": "balance",
              "type": "uint256"
            },
            {
              "internalType": "address",
              "name": "contractAddress",
              "type": "address"
            },
            {
              "internalType": "uint256",
              "name": "claimedInterval",
              "type": "uint256"
            },
            {
              "internalType": "uint256",
              "name": "joinedAt",
              "type": "uint256"
            }
          ],
          "internalType": "struct TreasurePool.Stakeholder[]",
          "name": "",
          "type": "tuple[]"
        }
      ],
      "stateMutability": "view",
      "type": "function"
    },
    {
      "inputs": [],
      "name": "minimumStakedAmount",
      "outputs": [
        {
          "internalType": "uint64",
          "name": "",
          "type": "uint64"
        }
      ],
      "stateMutability": "view",
      "type": "function"
    },
    {
      "inputs": [],
      "name": "numberOfStakeholders",
      "outputs": [
        {
          "internalType": "uint64",
          "name": "",
          "type": "uint64"
        }
      ],
      "stateMutability": "view",
      "type": "function"
    },
    {
      "inputs": [],
      "name": "owner",
      "outputs": [
        {
          "internalType": "address",
          "name": "",
          "type": "address"
        }
      ],
      "stateMutability": "view",
      "type": "function"
    },
    {
      "inputs": [
        {
          "internalType": "address",
          "name": "stakeholder",
          "type": "address"
        }
      ],
      "name": "removeStakeholder",
      "outputs": [],
      "stateMutability": "nonpayable",
      "type": "function"
    },
    {
      "inputs": [],
      "name": "renounceOwnership",
      "outputs": [],
      "stateMutability": "nonpayable",
      "type": "function"
    },
    {
      "inputs": [],
      "name": "stake",
      "outputs": [],
      "stateMutability": "payable",
      "type": "function"
    },
    {
      "inputs": [
        {
          "internalType": "address",
          "name": "",
          "type": "address"
        }
      ],
      "name": "stakeholders",
      "outputs": [
        {
          "internalType": "uint256",
          "name": "balance",
          "type": "uint256"
        },
        {
          "internalType": "address",
          "name": "contractAddress",
          "type": "address"
        },
        {
          "internalType": "uint256",
          "name": "claimedInterval",
          "type": "uint256"
        },
        {
          "internalType": "uint256",
          "name": "joinedAt",
          "type": "uint256"
        }
      ],
      "stateMutability": "view",
      "type": "function"
    },
    {
      "inputs": [],
      "name": "token",
      "outputs": [
        {
          "internalType": "contract IERC20",
          "name": "",
          "type": "address"
        }
      ],
      "stateMutability": "view",
      "type": "function"
    },
    {
      "inputs": [],
      "name": "totalNumberOfStakeholders",
      "outputs": [
        {
          "internalType": "uint64",
          "name": "",
          "type": "uint64"
        }
      ],
      "stateMutability": "view",
      "type": "function"
    },
    {
      "inputs": [],
      "name": "totalStakedAmount",
      "outputs": [
        {
          "internalType": "uint256",
          "name": "",
          "type": "uint256"
        }
      ],
      "stateMutability": "view",
      "type": "function"
    },
    {
      "inputs": [
        {
          "internalType": "address",
          "name": "newOwner",
          "type": "address"
        }
      ],
      "name": "transferOwnership",
      "outputs": [],
      "stateMutability": "nonpayable",
      "type": "function"
    },
    {
      "inputs": [],
      "name": "unstake",
      "outputs": [],
      "stateMutability": "payable",
      "type": "function"
    },
    {
      "inputs": [
        {
          "internalType": "string",
          "name": "_title",
          "type": "string"
        },
        {
          "internalType": "string",
          "name": "_description",
          "type": "string"
        },
        {
          "internalType": "uint64",
          "name": "_debatingPeriod",
          "type": "uint64"
        }
      ],
      "name": "createNewProposal",
      "outputs": [
        {
          "internalType": "uint256",
          "name": "",
          "type": "uint256"
        }
      ],
      "stateMutability": "nonpayable",
      "type": "function"
    },
    {
      "inputs": [],
      "name": "stakeNative",
      "outputs": [],
      "stateMutability": "payable",
      "type": "function"
    },
    {
      "inputs": [],
      "name": "unstakeNative",
      "outputs": [],
      "stateMutability": "payable",
      "type": "function"
    }
  ],
  "bytecode": "0x6080604052600480546001608060020a03167a03f4800000000000093a80000000000000000000000000000000001790556008805460a060020a60e060020a03191676093a800000000000000000000000000000000000000000179055600980546203f4806001604060020a03199091161790553480156200008057600080fd5b506200009464010000000062000150810204565b60028054600160a060020a03929092166801000000000000000002604060020a60e060020a0319909216919091179055620000ea620000db64010000000062000150810204565b64010000000062000154810204565b600480546001604060020a0319166127101790556040516200010c90620001b7565b604051809103906000f08015801562000129573d6000803e3d6000fd5b5060088054600160a060020a031916600160a060020a0392909216919091179055620001c5565b3390565b60058054600160a060020a0383811668010000000000000000818102604060020a60e060020a031985161790945560405193909204169182907f8be0079c531659141344cd1fd0a4f28419497f9722a3daafe3b4186f6b6457e090600090a35050565b6112918062002abd83390190565b6128e880620001d56000396000f3fe6080604052600436106200011f5760e060020a60003504631e3ab98381146200012457806328cd149414620001635780632def662014620001855780633a4b66f114620001915780634653f1d1146200019b5780634e71d92d14620001c2578063567e98f914620001cc578063590fcdda14620001f3578063715018a614620001fd57806374e9e3e8146200021557806384780fd2146200023a5780638da5cb5b1462000263578063968eed8c146200028a578063b898e6011462000294578063bcb0c2d714620002b6578063c07cfca914620002db578063cceb68f51462000355578063eb8b9811146200037c578063f2fde38b14620003b9578063f851a44014620003de578063f8d41b961462000407578063fc0c546a146200042e575b600080fd5b3480156200013157600080fd5b5060025462000146906001604060020a031681565b6040516001604060020a0390911681526020015b60405180910390f35b3480156200017057600080fd5b5060045462000146906001604060020a031681565b6200018f62000450565b005b6200018f620005e9565b348015620001a857600080fd5b50620001b3620006ca565b6040516200015a919062001294565b6200018f62000756565b348015620001d957600080fd5b50620001e460035481565b6040519081526020016200015a565b6200018f620007f8565b3480156200020a57600080fd5b506200018f620008fe565b3480156200022257600080fd5b50620001e46200023436600462001394565b62000943565b3480156200024757600080fd5b506004546200014690604060020a90046001604060020a031681565b3480156200027057600080fd5b506200027b6200099a565b6040516200015a919062001419565b6200018f620009b0565b348015620002a157600080fd5b5060055462000146906001604060020a031681565b348015620002c357600080fd5b506200018f620002d53660046200142d565b62000afc565b348015620002e857600080fd5b506200032c620002fa3660046200142d565b60016020819052600091825260409091208054918101546002820154600390920154600160a060020a03909116919084565b60408051948552600160a060020a0390931660208501529183015260608201526080016200015a565b3480156200036257600080fd5b506200036d62000cfe565b6040516200015a91906200145f565b3480156200038957600080fd5b506200027b6200039b3660046200142d565b600160a060020a039081166000908152600760205260409020541690565b348015620003c657600080fd5b506200018f620003d83660046200142d565b62000d62565b348015620003eb57600080fd5b506002546200027b90604060020a9004600160a060020a031681565b3480156200041457600080fd5b506200041f62000e14565b6040516200015a9190620014a2565b3480156200043b57600080fd5b506008546200027b90600160a060020a031681565b336000908152600160205260409020546200048b5760405160e560020a62461bcd0281526004016200048290620014b8565b60405180910390fd5b60045433600090815260016020526040902060030154620004bd91608060020a90046001604060020a03169062001500565b4211620004e15760405160e560020a62461bcd02815260040162000482906200151b565b33600090815260016020526040902054341115620005165760405160e560020a62461bcd028152600401620004829062001565565b60405133903480156108fc02916000818181858888f1935050505015801562000543573d6000803e3d6000fd5b5033600090815260016020526040812080543492906200056590849062001500565b9091555050336000908152600160205260409020546200058a576200058a3362000afc565b34600360008282546200059e91906200159c565b909155507f85082129d87b2fe11527cb1b3b7a520aeb5aa6913f88a3d8757fe40d1db02fdd9050335b60408051600160a060020a0390921682523460208301520160405180910390a1565b600034116200060f5760405160e560020a62461bcd0281526004016200048290620015b6565b6005546001604060020a031634116200063f5760405160e560020a62461bcd0281526004016200048290620015b6565b3360009081526001602052604090205462000660576200065e62000e14565b505b33600090815260016020526040812080543492906200068190849062001500565b9250508190555034600360008282546200069c919062001500565b909155507febedb8b3c678666e7f36970bc8f57abf6d8fa2e828c0da91ea5b75bf68ed101a905033620005c7565b60606000805480602002602001604051908101604052809291908181526020016000905b828210156200074d576000848152602090819020604080516080810182526004860290920180548352600180820154600160a060020a0316848601526002820154928401929092526003015460608301529083529092019101620006ee565b50505050905090565b33600090815260016020526040902054620007885760405160e560020a62461bcd0281526004016200048290620014b8565b336000908152600160205260409020600201544211620007dd5760405160e560020a62461bcd028152602060048201526009602482015260b860020a68546f6f206561726c7902604482015260640162000482565b3360009081526001602052604090206203f480600290910155565b600034116200081e5760405160e560020a62461bcd0281526004016200048290620015b6565b6005546001604060020a031634116200084e5760405160e560020a62461bcd0281526004016200048290620015b6565b336000908152600160205260409020546200086f576200086d62000e14565b505b60085460405160e060020a6323b872dd028152600160a060020a03909116906323b872dd90620008a890339030903490600401620015e8565b602060405180830381600087803b158015620008c357600080fd5b505af1158015620008d8573d6000803e3d6000fd5b505050506040513d601f19601f820116820180604052508101906200065e91906200160c565b33620009096200099a565b600160a060020a031614620009355760405160e560020a62461bcd028152600401620004829062001630565b6200094160006200110d565b565b600033620009506200099a565b600160a060020a0316146200097c5760405160e560020a62461bcd028152600401620004829062001630565b620009928484846001604060020a03166200116b565b949350505050565b600554604060020a9004600160a060020a031690565b33600090815260016020526040902054620009e25760405160e560020a62461bcd0281526004016200048290620014b8565b6008543360009081526001602052604090206003015462000a149160a060020a90046001604060020a03169062001500565b421162000a385760405160e560020a62461bcd02815260040162000482906200151b565b3360009081526001602052604090205434111562000a6d5760405160e560020a62461bcd028152600401620004829062001565565b60085460405160e060020a6323b872dd028152600160a060020a03909116906323b872dd9062000aa690309033903490600401620015e8565b602060405180830381600087803b15801562000ac157600080fd5b505af115801562000ad6573d6000803e3d6000fd5b505050506040513d601f19601f820116820180604052508101906200054391906200160c565b60005b60005481101562000c435733600160a060020a03166000828154811062000b2a5762000b2a62001665565b6000918252602090912060016004909202010154600160a060020a0316141562000c2e57600062000b5d82600162001500565b8154811062000b705762000b7062001665565b90600052602060002090600402016000828154811062000b945762000b9462001665565b60009182526020822083546004909202019081556001808401549082018054600160a060020a031916600160a060020a039092169190911790556002808401549082015560039283015492019190915580548062000bf65762000bf66200167f565b600082815260208120600460001990930192830201818155600181018054600160a060020a0319169055600281018290556003015590555b8062000c3a8162001699565b91505062000aff565b50600160a060020a038116600090815260016020819052604082208281558082018054600160a060020a03191690556002808201849055600390910183905580549192909162000c9e9084906001604060020a0316620016b7565b92506101000a8154816001604060020a0302191690836001604060020a031602179055507f6f1eb9379ef97a9fc8efe5b92a387d1291f5c65d0929df551aea69371e05403c8160405162000cf3919062001419565b60405180910390a150565b6060600680548060200260200160405190810160405280929190818152602001828054801562000d5857602002820191906000526020600020905b8154600160a060020a0316815260019091019060200180831162000d39575b5050505050905090565b3362000d6d6200099a565b600160a060020a03161462000d995760405160e560020a62461bcd028152600401620004829062001630565b600160a060020a03811662000e065760405160e560020a62461bcd02815260206004820152602660248201527f4f776e61626c653a206e6577206f776e657220697320746865207a65726f2061604482015260d060020a6564647265737302606482015260840162000482565b62000e11816200110d565b50565b62000e496040518060800160405280600081526020016000600160a060020a0316815260200160008152602001600081525090565b6004546002546001604060020a039182169116111562000ebe5760405160e560020a62461bcd028152602060048201526024808201527f73757270617373206c696d6974206e756d626572206f66207374616b65686f6c604482015260e060020a636465727302606482015260840162000482565b60405180608001604052806000815260200162000ed83390565b600160a060020a0316815260045460209091019062000f089060c060020a90046001604060020a03164262001500565b8152426020918201523360009081526001808352604080832085518155938501518483018054600160a060020a0319908116600160a060020a03938416178255928701516002808801918255606090980151600388019081558654808701885587805297547f290decd9548b62a8d60345a988386fc84ba6bc95484008f6362f93160ef3e56360049099029889015591547f290decd9548b62a8d60345a988386fc84ba6bc95484008f6362f93160ef3e56488018054909516931692909217909255547f290decd9548b62a8d60345a988386fc84ba6bc95484008f6362f93160ef3e565850155547f290decd9548b62a8d60345a988386fc84ba6bc95484008f6362f93160ef3e566909301929092558254919291620010339084906001604060020a0316620016e2565b92506101000a8154816001604060020a0302191690836001604060020a031602179055507f45353ebbf1c4a0468ba13a94bc212a3b8fc4b624385aa0e9c3fa07045d7d827d60016000620010843390565b600160a060020a03908116825260208201929092526040908101600020600101549051620010b792919091169062001419565b60405180910390a1503360009081526001602081815260409283902083516080810185528154815292810154600160a060020a031691830191909152600281015492820192909252600390910154606082015290565b60058054600160a060020a03838116604060020a818102604060020a60e060020a031985161790945560405193909204169182907f8be0079c531659141344cd1fd0a4f28419497f9722a3daafe3b4186f6b6457e090600090a35050565b6000803384868560405162001180906200125a565b6200118f949392919062001760565b604051809103906000f080158015620011ac573d6000803e3d6000fd5b5060068054600181019091557ff652222313e28459528d920b65115c16c04f3efc82aaedc97be59f3f377c0d3f018054600160a060020a038316600160a060020a031991821681179092556000828152600760205260409081902080549092169092179055519091507faa646ef9a37bf6f24a0b2a531a109dfcd8282bc13e44b0d8ec80d42a59b155a490620012469087903390620017ac565b60405180910390a150506006549392505050565b6110d980620017da83390190565b80518252602080820151600160a060020a03169083015260408082015190830152606090810151910152565b6020808252825182820181905260009190848201906040850190845b81811015620012da57620012c683855162001268565b9284019260809290920191600101620012b0565b50909695505050505050565b60e060020a634e487b710260009081526041600452602490fd5b600082601f8301126200131257600080fd5b81356001604060020a03808211156200132f576200132f620012e6565b604051601f8301601f19908116603f011681019082821181831017156200135a576200135a620012e6565b816040528381528660208588010111156200137457600080fd5b836020870160208301376000602085830101528094505050505092915050565b600080600060608486031215620013aa57600080fd5b83356001604060020a0380821115620013c257600080fd5b620013d08783880162001300565b94506020860135915080821115620013e757600080fd5b620013f58783880162001300565b93506040860135915080821682146200140d57600080fd5b50809150509250925092565b600160a060020a0391909116815260200190565b6000602082840312156200144057600080fd5b8135600160a060020a03811681146200145857600080fd5b9392505050565b6020808252825182820181905260009190848201906040850190845b81811015620012da578351600160a060020a0316835292840192918401916001016200147b565b60808101620014b2828462001268565b92915050565b6020808252601190820152607960020a702737ba10309039ba30b5b2b437b63232b902604082015260600190565b60e060020a634e487b710260009081526011600452602490fd5b60008219821115620015165762001516620014e6565b500190565b60208082526027908201527f4d757374207374616b656420666f7220372064617973206265666f726520756e604082015260c860020a667374616b696e6702606082015260800190565b6020808252601a908201527f496e73756666696369656e74207374616b656420616d6f756e74000000000000604082015260600190565b600082821015620015b157620015b1620014e6565b500390565b6020808252601590820152605a60020a741a5b9d985b1a59081cdd185ad95908185b5bdd5b9d02604082015260600190565b600160a060020a039384168152919092166020820152604081019190915260600190565b6000602082840312156200161f57600080fd5b815180151581146200145857600080fd5b6020808252818101527f4f776e61626c653a2063616c6c6572206973206e6f7420746865206f776e6572604082015260600190565b60e060020a634e487b710260009081526032600452602490fd5b60e060020a634e487b710260009081526031600452602490fd5b6000600019821415620016b057620016b0620014e6565b5060010190565b60006001604060020a0383811690831681811015620016da57620016da620014e6565b039392505050565b60006001604060020a03828116848216808303821115620017075762001707620014e6565b01949350505050565b6000815180845260005b8181101562001738576020818501810151868301820152016200171a565b818111156200174b576000602083870101525b50601f01601f19169290920160200192915050565b600160a060020a0385168152608060208201819052600090620017869083018662001710565b82810360408401526200179a818662001710565b91505082606083015295945050505050565b604081526000620017c1604083018562001710565b9050600160a060020a0383166020830152939250505056fe60806040523480156200001157600080fd5b50604051620010d9380380620010d983398101604081905262000034916200029c565b6200005a6200004b640100000000620000bc810204565b640100000000620000c0810204565b60028054600160a060020a031916600160a060020a03861617905582516200008a90600390602086019062000110565b508151620000a090600490602085019062000110565b5060055550506006805461ffff191690555042600b5562000384565b3390565b60008054600160a060020a03838116600160a060020a0319831681178455604051919092169283917f8be0079c531659141344cd1fd0a4f28419497f9722a3daafe3b4186f6b6457e09190a35050565b8280546200011e906200032e565b90600052602060002090601f0160209004810192826200014257600085556200018d565b82601f106200015d57805160ff19168380011785556200018d565b828001600101855582156200018d579182015b828111156200018d57825182559160200191906001019062000170565b506200019b9291506200019f565b5090565b5b808211156200019b5760008155600101620001a0565b7f4e487b7100000000000000000000000000000000000000000000000000000000600052604160045260246000fd5b600082601f830112620001f757600080fd5b81516001604060020a0380821115620002145762000214620001b6565b604051601f8301601f19908116603f011681019082821181831017156200023f576200023f620001b6565b816040528381526020925086838588010111156200025c57600080fd5b600091505b8382101562000280578582018301518183018401529082019062000261565b83821115620002925760008385830101525b9695505050505050565b60008060008060808587031215620002b357600080fd5b8451600160a060020a0381168114620002cb57600080fd5b60208601519094506001604060020a0380821115620002e957600080fd5b620002f788838901620001e5565b945060408701519150808211156200030e57600080fd5b506200031d87828801620001e5565b606096909601519497939650505050565b6002810460018216806200034357607f821691505b602082108114156200037e577f4e487b7100000000000000000000000000000000000000000000000000000000600052602260045260246000fd5b50919050565b610d4580620003946000396000f3fe608060405234801561001057600080fd5b50600436106100ff5760e060020a600035046302d05d3f8114610104578063036ee850146101345780631626fe641461014b578063227326b11461016b578063240336741461018d5780633174b689146101a057806341c12a70146101aa57806343d726d6146101b25780634a79d50c146101ba5780635351a3c8146101cf578063655b737f146101f2578063715018a6146102155780637284e4161461021d5780638da5cb5b1461022557806390cf581c1461022d578063cdd7225314610235578063cf09e0d01461024a578063e2c3b12214610253578063f2fde38b14610266578063fcfff16f14610279575b600080fd5b60025461011790600160a060020a031681565b604051600160a060020a0390911681526020015b60405180910390f35b61013d60055481565b60405190815260200161012b565b610153610293565b6040516001604060020a03909116815260200161012b565b60065461017d90610100900460ff1681565b604051901515815260200161012b565b600854610153906001604060020a031681565b6101a86102d8565b005b6101a861044d565b6101a86105b6565b6101c2610649565b60405161012b9190610a1b565b61017d6101dd366004610a70565b60096020526000908152604090205460ff1681565b61017d610200366004610a70565b60076020526000908152604090205460ff1681565b6101a86106d7565b6101c2610715565b610117610722565b6101a8610731565b61023d610824565b60405161012b9190610aa0565b61013d600b5481565b600a54610153906001604060020a031681565b6101a8610274366004610a70565b6108ab565b6006546102869060ff1681565b60405161012b9190610b04565b600a546008546000916102b2916001604060020a039182169116610b4a565b6008546102c9906001604060020a03166064610b75565b6102d39190610ba4565b905090565b6102e0610954565b6103345760405160e560020a62461bcd02815260206004820152601c60248201527f746865206164647265737320646964206e6f7420766f7465207965740000000060448201526064015b60405180910390fd5b3360009081526007602052604090205460ff161515600114156103a957336000908152600760205260408120805460ff1916905560088054600192906103849084906001604060020a0316610bdc565b92506101000a8154816001604060020a0302191690836001604060020a031602179055505b3360009081526009602052604090205460ff1615156001141561041e57336000908152600960205260408120805460ff19169055600a8054600192906103f99084906001604060020a0316610bdc565b92506101000a8154816001604060020a0302191690836001604060020a031602179055505b604051339030907f2817372c62bc3cdb73b84b6412d5ce40c6e73c30ef5fac6558d0c4cb3da410b790600090a3565b61045561098e565b6104745760405160e560020a62461bcd02815260040161032b90610c04565b336000818152600960209081526040808320805460ff199081166001908117909255825160608101845295865242938601938452918501848152815480830183558286529551600080516020610cd083398151915260039097029687018054600160a060020a031916600160a060020a039092169190911790559251600080516020610cf08339815191528601559151600080516020610cb0833981519152909401805490911693151593909317909255600a80549091906105409084906001604060020a0316610b4a565b92506101000a8154816001604060020a0302191690836001604060020a0316021790555033600160a060020a031630600160a060020a03167fbbcca6f8778ffd7765644921c17ed2de4add7a9b4ca1a29614a6295edd4a208960016040516105ac911515815260200190565b60405180910390a3565b600254600160a060020a031633146106055760405160e560020a62461bcd02815260206004820152600c602482015260a160020a6b3737ba1030b71037bbb732b902604482015260640161032b565b6006805460ff1916600117905560405142815230907f6944894ba716aadf69fcd57834d5d2cc2e808f6a144c75d956068efa727e2a7e9060200160405180910390a2565b6004805461065690610c3b565b80601f016020809104026020016040519081016040528092919081815260200182805461068290610c3b565b80156106cf5780601f106106a4576101008083540402835291602001916106cf565b820191906000526020600020905b8154815290600101906020018083116106b257829003601f168201915b505050505081565b336106e0610722565b600160a060020a0316146107095760405160e560020a62461bcd02815260040161032b90610c7a565b61071360006109cb565b565b6003805461065690610c3b565b600054600160a060020a031690565b61073961098e565b6107585760405160e560020a62461bcd02815260040161032b90610c04565b336000818152600760209081526040808320805460ff199081166001908117909255825160608101845295865242938601938452918501818152815480830183558286529551600080516020610cd083398151915260039097029687018054600160a060020a031916600160a060020a039092169190911790559251600080516020610cf08339815191528601559151600080516020610cb0833981519152909401805490911693151593909317909255600880549091906105409084906001604060020a0316610b4a565b60606001805480602002602001604051908101604052809291908181526020016000905b828210156108a257600084815260209081902060408051606081018252600386029092018054600160a060020a031683526001808201548486015260029091015460ff161515918301919091529083529092019101610848565b50505050905090565b336108b4610722565b600160a060020a0316146108dd5760405160e560020a62461bcd02815260040161032b90610c7a565b600160a060020a0381166109485760405160e560020a62461bcd02815260206004820152602660248201527f4f776e61626c653a206e6577206f776e657220697320746865207a65726f2061604482015260d060020a6564647265737302606482015260840161032b565b610951816109cb565b50565b3360009081526007602052604081205460ff161515600114806102d35750503360009081526009602052604090205460ff16151560011490565b3360009081526007602052604081205460ff1615156001148015906102d35750503360009081526009602052604090205460ff1615156001141590565b60008054600160a060020a03838116600160a060020a0319831681178455604051919092169283917f8be0079c531659141344cd1fd0a4f28419497f9722a3daafe3b4186f6b6457e09190a35050565b600060208083528351808285015260005b81811015610a4857858101830151858201604001528201610a2c565b81811115610a5a576000604083870101525b50601f01601f1916929092016040019392505050565b600060208284031215610a8257600080fd5b8135600160a060020a0381168114610a9957600080fd5b9392505050565b602080825282518282018190526000919060409081850190868401855b82811015610af75781518051600160a060020a03168552868101518786015285015115158585015260609093019290850190600101610abd565b5091979650505050505050565b6020810160028310610b2a5760e060020a634e487b710260009081526021600452602490fd5b91905290565b60e060020a634e487b710260009081526011600452602490fd5b60006001604060020a03828116848216808303821115610b6c57610b6c610b30565b01949350505050565b60006001604060020a0382811684821681151582840482111615610b9b57610b9b610b30565b02949350505050565b60006001604060020a0383811680610bd05760e060020a634e487b710260009081526012600452602490fd5b92169190910492915050565b60006001604060020a0383811690831681811015610bfc57610bfc610b30565b039392505050565b6020808252601d908201527f74686520616464726573732068617320766f74656420616c7265616479000000604082015260600190565b600281046001821680610c4f57607f821691505b60208210811415610c745760e060020a634e487b710260009081526022600452602490fd5b50919050565b6020808252818101527f4f776e61626c653a2063616c6c6572206973206e6f7420746865206f776e657260408201526060019056feb10e2d527612073b26eecdfd717e6a320cf44b4afac2b0732d9fcbe2b7fa0cf8b10e2d527612073b26eecdfd717e6a320cf44b4afac2b0732d9fcbe2b7fa0cf6b10e2d527612073b26eecdfd717e6a320cf44b4afac2b0732d9fcbe2b7fa0cf7a26469706673582212206ea4f64bb1859693d61d93517bc943c57127b62a186e3c31db3f5681bd442b4e64736f6c63430008090033a26469706673582212209ffe47331b8ee80cef1706bc956c3c29fd438dd8df5b0d788833adc79306e07f64736f6c6343000809003360806040523480156200001157600080fd5b50604080518082018252600981527f4f626179546f6b656e000000000000000000000000000000000000000000000060208083019182528351808501909452600484527f4f424159000000000000000000000000000000000000000000000000000000009084015281519192916200008c9160039162000280565b508051620000a290600490602084019062000280565b505050620000d1620000c2620000f5640100000000026401000000009004565b640100000000620000f9810204565b620000ef3368056bc75e2d631000006401000000006200014b810204565b620003bc565b3390565b60058054600160a060020a03838116600160a060020a0319831681179093556040519116919082907f8be0079c531659141344cd1fd0a4f28419497f9722a3daafe3b4186f6b6457e090600090a35050565b600160a060020a038216620001c0576040517f08c379a000000000000000000000000000000000000000000000000000000000815260206004820152601f60248201527f45524332303a206d696e7420746f20746865207a65726f206164647265737300604482015260640160405180910390fd5b620001d7600083836401000000006200027b810204565b8060026000828254620001eb919062000326565b9091555050600160a060020a038216600090815260208190526040812080548392906200021a90849062000326565b9091555050604051818152600160a060020a038316906000907fddf252ad1be2c89b69c2b068fc378daa952ba7f163c4a11628f55a4df523b3ef9060200160405180910390a362000277600083836401000000006200027b810204565b5050565b505050565b8280546200028e9062000366565b90600052602060002090601f016020900481019282620002b25760008555620002fd565b82601f10620002cd57805160ff1916838001178555620002fd565b82800160010185558215620002fd579182015b82811115620002fd578251825591602001919060010190620002e0565b506200030b9291506200030f565b5090565b5b808211156200030b576000815560010162000310565b6000821982111562000361577f4e487b7100000000000000000000000000000000000000000000000000000000600052601160045260246000fd5b500190565b6002810460018216806200037b57607f821691505b60208210811415620003b6577f4e487b7100000000000000000000000000000000000000000000000000000000600052602260045260246000fd5b50919050565b610ec580620003cc6000396000f3fe608060405234801561001057600080fd5b50600436106100de5760e060020a600035046306fdde0381146100e3578063095ea7b31461010157806310fe9ae81461012457806318160ddd1461013e57806323b872dd14610150578063313ce56714610163578063395093511461017257806340c10f191461018557806370a082311461019a578063715018a6146101c35780638da5cb5b146101cb57806395d89b41146101d35780639dc29fac146101db578063a457c2d7146101ee578063a9059cbb14610201578063dd62ed3e14610214578063f2fde38b1461024d575b600080fd5b6100eb610260565b6040516100f89190610c86565b60405180910390f35b61011461010f366004610cf7565b6102f2565b60405190151581526020016100f8565b305b604051600160a060020a0390911681526020016100f8565b6002545b6040519081526020016100f8565b61011461015e366004610d21565b610308565b604051601281526020016100f8565b610114610180366004610cf7565b6103bd565b610198610193366004610cf7565b6103f9565b005b6101426101a8366004610d5d565b600160a060020a031660009081526020819052604090205490565b6101986104b8565b6101266104f6565b6100eb610505565b6101986101e9366004610cf7565b610514565b6101146101fc366004610cf7565b6105cf565b61011461020f366004610cf7565b61066e565b610142610222366004610d7f565b600160a060020a03918216600090815260016020908152604080832093909416825291909152205490565b61019861025b366004610d5d565b61067b565b60606003805461026f90610db2565b80601f016020809104026020016040519081016040528092919081815260200182805461029b90610db2565b80156102e85780601f106102bd576101008083540402835291602001916102e8565b820191906000526020600020905b8154815290600101906020018083116102cb57829003601f168201915b5050505050905090565b60006102ff338484610724565b50600192915050565b6000610315848484610855565b600160a060020a0384166000908152600160209081526040808320338452909152902054828110156103a55760405160e560020a62461bcd02815260206004820152602860248201527f45524332303a207472616e7366657220616d6f756e7420657863656564732061604482015260c060020a676c6c6f77616e63650260648201526084015b60405180910390fd5b6103b28533858403610724565b506001949350505050565b336000818152600160209081526040808320600160a060020a038716845290915281205490916102ff9185906103f4908690610e0b565b610724565b336104026104f6565b600160a060020a03161461042b5760405160e560020a62461bcd02815260040161039c90610e23565b6104336104f6565b600160a060020a031682600160a060020a0316146104aa5760405160e560020a62461bcd02815260206004820152602860248201527f5b4f4241595f4552524f525d204e4f205045524d495353494f4e20544f204d49604482015260c160020a67272a102a27a5a2a702606482015260840161039c565b6104b48282610a24565b5050565b336104c16104f6565b600160a060020a0316146104ea5760405160e560020a62461bcd02815260040161039c90610e23565b6104f46000610af4565b565b600554600160a060020a031690565b60606004805461026f90610db2565b3361051d6104f6565b600160a060020a0316146105465760405160e560020a62461bcd02815260040161039c90610e23565b61054e6104f6565b600160a060020a031682600160a060020a0316146105c55760405160e560020a62461bcd02815260206004820152602860248201527f5b4f4241595f4552524f525d204e4f205045524d495353494f4e20544f204255604482015260c160020a672927102a27a5a2a702606482015260840161039c565b6104b48282610b46565b336000908152600160209081526040808320600160a060020a0386168452909152812054828110156106575760405160e560020a62461bcd02815260206004820152602560248201527f45524332303a2064656372656173656420616c6c6f77616e63652062656c6f77604482015260d860020a64207a65726f02606482015260840161039c565b6106643385858403610724565b5060019392505050565b60006102ff338484610855565b336106846104f6565b600160a060020a0316146106ad5760405160e560020a62461bcd02815260040161039c90610e23565b600160a060020a0381166107185760405160e560020a62461bcd02815260206004820152602660248201527f4f776e61626c653a206e6577206f776e657220697320746865207a65726f2061604482015260d060020a6564647265737302606482015260840161039c565b61072181610af4565b50565b600160a060020a03831661078c5760405160e560020a62461bcd028152602060048201526024808201527f45524332303a20617070726f76652066726f6d20746865207a65726f20616464604482015260e060020a637265737302606482015260840161039c565b600160a060020a0382166107f35760405160e560020a62461bcd02815260206004820152602260248201527f45524332303a20617070726f766520746f20746865207a65726f206164647265604482015260f060020a61737302606482015260840161039c565b600160a060020a0383811660008181526001602090815260408083209487168084529482529182902085905590518481527f8c5be1e5ebec7d5bd14f71427d1e84f3dd0314c0f7b2291e5b200ac8c7c3b92591015b60405180910390a3505050565b600160a060020a0383166108bf5760405160e560020a62461bcd02815260206004820152602560248201527f45524332303a207472616e736665722066726f6d20746865207a65726f206164604482015260d860020a64647265737302606482015260840161039c565b600160a060020a0382166109275760405160e560020a62461bcd02815260206004820152602360248201527f45524332303a207472616e7366657220746f20746865207a65726f2061646472604482015260e860020a6265737302606482015260840161039c565b600160a060020a038316600090815260208190526040902054818110156109a55760405160e560020a62461bcd02815260206004820152602660248201527f45524332303a207472616e7366657220616d6f756e7420657863656564732062604482015260d060020a65616c616e636502606482015260840161039c565b600160a060020a038085166000908152602081905260408082208585039055918516815290812080548492906109dc908490610e0b565b9250508190555082600160a060020a031684600160a060020a0316600080516020610e7083398151915284604051610a1691815260200190565b60405180910390a350505050565b600160a060020a038216610a7d5760405160e560020a62461bcd02815260206004820152601f60248201527f45524332303a206d696e7420746f20746865207a65726f206164647265737300604482015260640161039c565b8060026000828254610a8f9190610e0b565b9091555050600160a060020a03821660009081526020819052604081208054839290610abc908490610e0b565b9091555050604051818152600160a060020a03831690600090600080516020610e708339815191529060200160405180910390a35050565b60058054600160a060020a03838116600160a060020a0319831681179093556040519116919082907f8be0079c531659141344cd1fd0a4f28419497f9722a3daafe3b4186f6b6457e090600090a35050565b600160a060020a038216610bac5760405160e560020a62461bcd02815260206004820152602160248201527f45524332303a206275726e2066726f6d20746865207a65726f20616464726573604482015260f860020a607302606482015260840161039c565b600160a060020a03821660009081526020819052604090205481811015610c265760405160e560020a62461bcd02815260206004820152602260248201527f45524332303a206275726e20616d6f756e7420657863656564732062616c616e604482015260f060020a61636502606482015260840161039c565b600160a060020a0383166000908152602081905260408120838303905560028054849290610c55908490610e58565b9091555050604051828152600090600160a060020a03851690600080516020610e7083398151915290602001610848565b600060208083528351808285015260005b81811015610cb357858101830151858201604001528201610c97565b81811115610cc5576000604083870101525b50601f01601f1916929092016040019392505050565b8035600160a060020a0381168114610cf257600080fd5b919050565b60008060408385031215610d0a57600080fd5b610d1383610cdb565b946020939093013593505050565b600080600060608486031215610d3657600080fd5b610d3f84610cdb565b9250610d4d60208501610cdb565b9150604084013590509250925092565b600060208284031215610d6f57600080fd5b610d7882610cdb565b9392505050565b60008060408385031215610d9257600080fd5b610d9b83610cdb565b9150610da960208401610cdb565b90509250929050565b600281046001821680610dc657607f821691505b60208210811415610deb5760e060020a634e487b710260009081526022600452602490fd5b50919050565b60e060020a634e487b710260009081526011600452602490fd5b60008219821115610e1e57610e1e610df1565b500190565b6020808252818101527f4f776e61626c653a2063616c6c6572206973206e6f7420746865206f776e6572604082015260600190565b600082821015610e6a57610e6a610df1565b50039056feddf252ad1be2c89b69c2b068fc378daa952ba7f163c4a11628f55a4df523b3efa264697066735822122014202550e051284c62bc6bba57c5c8721465731e3d293d41b925ca2fc5bcdf4764736f6c63430008090033",
  "immutableReferences": {},
  "source": "// SPDX-License-Identifier: MIT\npragma solidity >=0.8.0;\n\nimport \"@openzeppelin/contracts/token/ERC20/IERC20.sol\";\nimport \"./TreasurePool.sol\";\nimport \"./proposal/TreasureWoodyChest.sol\";\nimport \"../token/ObayToken.sol\";\n\ncontract ObayTreasury is TreasurePool, TreasureWoodyChest {\n  IERC20 public token;\n  uint64 private _lockedDuration = 7 days;\n  uint64 private _defaultClaimedInterval = 3 days;\n\n  constructor() {\n    limitNumberOfStakeholders = 10000;\n    token = new ObayToken();\n  }\n\n  function createNewProposal(\n    string memory _title,\n    string memory _description,\n    uint64 _debatingPeriod\n  ) public onlyOwner returns (uint256) {\n    return _newProposal(_title, _description, _debatingPeriod);\n  }\n\n  function stakeNative() public payable {\n    require(msg.value > 0, \"invalid staked amount\");\n    require(msg.value > minimumStakedAmount, \"invalid staked amount\");\n\n    // Check if the stakeholder is added or not\n    if (stakeholders[_msgSender()].balance == 0) {\n      createStakeholder();\n    }\n    token.transferFrom(msg.sender, address(this), msg.value);\n    stakeholders[_msgSender()].balance += msg.value;\n    totalStakedAmount += msg.value;\n    emit Stake(_msgSender(), msg.value);\n  }\n\n  function unstakeNative() public payable isStakeholder {\n    require(\n      block.timestamp > stakeholders[_msgSender()].joinedAt + _lockedDuration,\n      \"Must staked for 7 days before unstaking\"\n    );\n    require(\n      msg.value <= stakeholders[_msgSender()].balance,\n      \"Insufficient staked amount\"\n    );\n    token.transferFrom(address(this), msg.sender, msg.value);\n    stakeholders[_msgSender()].balance += msg.value;\n    if (stakeholders[_msgSender()].balance == 0) {\n      removeStakeholder(_msgSender());\n    }\n    totalStakedAmount -= msg.value;\n    emit Unstake(_msgSender(), msg.value);\n  }\n}\n",
  "sourcePath": "/Users/chungquantin/Desktop/Projects/DecentralizedOpenSource/smart-bay/contracts/features/dao/ObayTreasury.sol",
  "compiler": {
    "name": "solc",
    "version": "0.8.9+commit.e5eed63a.Emscripten.clang"
  },
  "schemaVersion": "3.4.3",
  "updatedAt": "2021-11-27T09:45:48.738Z",
  "devdoc": {
    "kind": "dev",
    "methods": {
      "owner()": {
        "details": "Returns the address of the current owner."
      },
      "renounceOwnership()": {
        "details": "Leaves the contract without owner. It will not be possible to call `onlyOwner` functions anymore. Can only be called by the current owner. NOTE: Renouncing ownership will leave the contract without an owner, thereby removing any functionality that is only available to the owner."
      },
      "transferOwnership(address)": {
        "details": "Transfers ownership of the contract to a new account (`newOwner`). Can only be called by the current owner."
      }
    },
    "version": 1
  },
  "userdoc": {
    "kind": "user",
    "methods": {},
    "version": 1
  }
}