{
  "contractName": "ObayToken",
  "abi": [
    {
      "inputs": [],
      "stateMutability": "nonpayable",
      "type": "constructor"
    },
    {
      "anonymous": false,
      "inputs": [
        {
          "indexed": true,
          "internalType": "address",
          "name": "owner",
          "type": "address"
        },
        {
          "indexed": true,
          "internalType": "address",
          "name": "spender",
          "type": "address"
        },
        {
          "indexed": false,
          "internalType": "uint256",
          "name": "value",
          "type": "uint256"
        }
      ],
      "name": "Approval",
      "type": "event"
    },
    {
      "anonymous": false,
      "inputs": [
        {
          "indexed": true,
          "internalType": "address",
          "name": "previousOwner",
          "type": "address"
        },
        {
          "indexed": true,
          "internalType": "address",
          "name": "newOwner",
          "type": "address"
        }
      ],
      "name": "OwnershipTransferred",
      "type": "event"
    },
    {
      "anonymous": false,
      "inputs": [
        {
          "indexed": true,
          "internalType": "address",
          "name": "from",
          "type": "address"
        },
        {
          "indexed": true,
          "internalType": "address",
          "name": "to",
          "type": "address"
        },
        {
          "indexed": false,
          "internalType": "uint256",
          "name": "value",
          "type": "uint256"
        }
      ],
      "name": "Transfer",
      "type": "event"
    },
    {
      "inputs": [
        {
          "internalType": "address",
          "name": "owner",
          "type": "address"
        },
        {
          "internalType": "address",
          "name": "spender",
          "type": "address"
        }
      ],
      "name": "allowance",
      "outputs": [
        {
          "internalType": "uint256",
          "name": "",
          "type": "uint256"
        }
      ],
      "stateMutability": "view",
      "type": "function"
    },
    {
      "inputs": [
        {
          "internalType": "address",
          "name": "spender",
          "type": "address"
        },
        {
          "internalType": "uint256",
          "name": "amount",
          "type": "uint256"
        }
      ],
      "name": "approve",
      "outputs": [
        {
          "internalType": "bool",
          "name": "",
          "type": "bool"
        }
      ],
      "stateMutability": "nonpayable",
      "type": "function"
    },
    {
      "inputs": [
        {
          "internalType": "address",
          "name": "account",
          "type": "address"
        }
      ],
      "name": "balanceOf",
      "outputs": [
        {
          "internalType": "uint256",
          "name": "",
          "type": "uint256"
        }
      ],
      "stateMutability": "view",
      "type": "function"
    },
    {
      "inputs": [],
      "name": "decimals",
      "outputs": [
        {
          "internalType": "uint8",
          "name": "",
          "type": "uint8"
        }
      ],
      "stateMutability": "view",
      "type": "function"
    },
    {
      "inputs": [
        {
          "internalType": "address",
          "name": "spender",
          "type": "address"
        },
        {
          "internalType": "uint256",
          "name": "subtractedValue",
          "type": "uint256"
        }
      ],
      "name": "decreaseAllowance",
      "outputs": [
        {
          "internalType": "bool",
          "name": "",
          "type": "bool"
        }
      ],
      "stateMutability": "nonpayable",
      "type": "function"
    },
    {
      "inputs": [
        {
          "internalType": "address",
          "name": "spender",
          "type": "address"
        },
        {
          "internalType": "uint256",
          "name": "addedValue",
          "type": "uint256"
        }
      ],
      "name": "increaseAllowance",
      "outputs": [
        {
          "internalType": "bool",
          "name": "",
          "type": "bool"
        }
      ],
      "stateMutability": "nonpayable",
      "type": "function"
    },
    {
      "inputs": [],
      "name": "name",
      "outputs": [
        {
          "internalType": "string",
          "name": "",
          "type": "string"
        }
      ],
      "stateMutability": "view",
      "type": "function"
    },
    {
      "inputs": [],
      "name": "owner",
      "outputs": [
        {
          "internalType": "address",
          "name": "",
          "type": "address"
        }
      ],
      "stateMutability": "view",
      "type": "function"
    },
    {
      "inputs": [],
      "name": "renounceOwnership",
      "outputs": [],
      "stateMutability": "nonpayable",
      "type": "function"
    },
    {
      "inputs": [],
      "name": "symbol",
      "outputs": [
        {
          "internalType": "string",
          "name": "",
          "type": "string"
        }
      ],
      "stateMutability": "view",
      "type": "function"
    },
    {
      "inputs": [],
      "name": "totalSupply",
      "outputs": [
        {
          "internalType": "uint256",
          "name": "",
          "type": "uint256"
        }
      ],
      "stateMutability": "view",
      "type": "function"
    },
    {
      "inputs": [
        {
          "internalType": "address",
          "name": "recipient",
          "type": "address"
        },
        {
          "internalType": "uint256",
          "name": "amount",
          "type": "uint256"
        }
      ],
      "name": "transfer",
      "outputs": [
        {
          "internalType": "bool",
          "name": "",
          "type": "bool"
        }
      ],
      "stateMutability": "nonpayable",
      "type": "function"
    },
    {
      "inputs": [
        {
          "internalType": "address",
          "name": "sender",
          "type": "address"
        },
        {
          "internalType": "address",
          "name": "recipient",
          "type": "address"
        },
        {
          "internalType": "uint256",
          "name": "amount",
          "type": "uint256"
        }
      ],
      "name": "transferFrom",
      "outputs": [
        {
          "internalType": "bool",
          "name": "",
          "type": "bool"
        }
      ],
      "stateMutability": "nonpayable",
      "type": "function"
    },
    {
      "inputs": [
        {
          "internalType": "address",
          "name": "newOwner",
          "type": "address"
        }
      ],
      "name": "transferOwnership",
      "outputs": [],
      "stateMutability": "nonpayable",
      "type": "function"
    },
    {
      "inputs": [],
      "name": "getTokenAddress",
      "outputs": [
        {
          "internalType": "address",
          "name": "",
          "type": "address"
        }
      ],
      "stateMutability": "view",
      "type": "function"
    },
    {
      "inputs": [
        {
          "internalType": "address",
          "name": "_to",
          "type": "address"
        },
        {
          "internalType": "uint256",
          "name": "_amount",
          "type": "uint256"
        }
      ],
      "name": "mint",
      "outputs": [],
      "stateMutability": "nonpayable",
      "type": "function"
    },
    {
      "inputs": [
        {
          "internalType": "address",
          "name": "_to",
          "type": "address"
        },
        {
          "internalType": "uint256",
          "name": "_amount",
          "type": "uint256"
        }
      ],
      "name": "burn",
      "outputs": [],
      "stateMutability": "nonpayable",
      "type": "function"
    }
  ],
  "bytecode": "0x60806040523480156200001157600080fd5b50604080518082018252600981527f4f626179546f6b656e000000000000000000000000000000000000000000000060208083019182528351808501909452600484527f4f424159000000000000000000000000000000000000000000000000000000009084015281519192916200008c9160039162000280565b508051620000a290600490602084019062000280565b505050620000d1620000c2620000f5640100000000026401000000009004565b640100000000620000f9810204565b620000ef3368056bc75e2d631000006401000000006200014b810204565b620003bc565b3390565b60058054600160a060020a03838116600160a060020a0319831681179093556040519116919082907f8be0079c531659141344cd1fd0a4f28419497f9722a3daafe3b4186f6b6457e090600090a35050565b600160a060020a038216620001c0576040517f08c379a000000000000000000000000000000000000000000000000000000000815260206004820152601f60248201527f45524332303a206d696e7420746f20746865207a65726f206164647265737300604482015260640160405180910390fd5b620001d7600083836401000000006200027b810204565b8060026000828254620001eb919062000326565b9091555050600160a060020a038216600090815260208190526040812080548392906200021a90849062000326565b9091555050604051818152600160a060020a038316906000907fddf252ad1be2c89b69c2b068fc378daa952ba7f163c4a11628f55a4df523b3ef9060200160405180910390a362000277600083836401000000006200027b810204565b5050565b505050565b8280546200028e9062000366565b90600052602060002090601f016020900481019282620002b25760008555620002fd565b82601f10620002cd57805160ff1916838001178555620002fd565b82800160010185558215620002fd579182015b82811115620002fd578251825591602001919060010190620002e0565b506200030b9291506200030f565b5090565b5b808211156200030b576000815560010162000310565b6000821982111562000361577f4e487b7100000000000000000000000000000000000000000000000000000000600052601160045260246000fd5b500190565b6002810460018216806200037b57607f821691505b60208210811415620003b6577f4e487b7100000000000000000000000000000000000000000000000000000000600052602260045260246000fd5b50919050565b610ec580620003cc6000396000f3fe608060405234801561001057600080fd5b50600436106100de5760e060020a600035046306fdde0381146100e3578063095ea7b31461010157806310fe9ae81461012457806318160ddd1461013e57806323b872dd14610150578063313ce56714610163578063395093511461017257806340c10f191461018557806370a082311461019a578063715018a6146101c35780638da5cb5b146101cb57806395d89b41146101d35780639dc29fac146101db578063a457c2d7146101ee578063a9059cbb14610201578063dd62ed3e14610214578063f2fde38b1461024d575b600080fd5b6100eb610260565b6040516100f89190610c86565b60405180910390f35b61011461010f366004610cf7565b6102f2565b60405190151581526020016100f8565b305b604051600160a060020a0390911681526020016100f8565b6002545b6040519081526020016100f8565b61011461015e366004610d21565b610308565b604051601281526020016100f8565b610114610180366004610cf7565b6103bd565b610198610193366004610cf7565b6103f9565b005b6101426101a8366004610d5d565b600160a060020a031660009081526020819052604090205490565b6101986104b8565b6101266104f6565b6100eb610505565b6101986101e9366004610cf7565b610514565b6101146101fc366004610cf7565b6105cf565b61011461020f366004610cf7565b61066e565b610142610222366004610d7f565b600160a060020a03918216600090815260016020908152604080832093909416825291909152205490565b61019861025b366004610d5d565b61067b565b60606003805461026f90610db2565b80601f016020809104026020016040519081016040528092919081815260200182805461029b90610db2565b80156102e85780601f106102bd576101008083540402835291602001916102e8565b820191906000526020600020905b8154815290600101906020018083116102cb57829003601f168201915b5050505050905090565b60006102ff338484610724565b50600192915050565b6000610315848484610855565b600160a060020a0384166000908152600160209081526040808320338452909152902054828110156103a55760405160e560020a62461bcd02815260206004820152602860248201527f45524332303a207472616e7366657220616d6f756e7420657863656564732061604482015260c060020a676c6c6f77616e63650260648201526084015b60405180910390fd5b6103b28533858403610724565b506001949350505050565b336000818152600160209081526040808320600160a060020a038716845290915281205490916102ff9185906103f4908690610e0b565b610724565b336104026104f6565b600160a060020a03161461042b5760405160e560020a62461bcd02815260040161039c90610e23565b6104336104f6565b600160a060020a031682600160a060020a0316146104aa5760405160e560020a62461bcd02815260206004820152602860248201527f5b4f4241595f4552524f525d204e4f205045524d495353494f4e20544f204d49604482015260c160020a67272a102a27a5a2a702606482015260840161039c565b6104b48282610a24565b5050565b336104c16104f6565b600160a060020a0316146104ea5760405160e560020a62461bcd02815260040161039c90610e23565b6104f46000610af4565b565b600554600160a060020a031690565b60606004805461026f90610db2565b3361051d6104f6565b600160a060020a0316146105465760405160e560020a62461bcd02815260040161039c90610e23565b61054e6104f6565b600160a060020a031682600160a060020a0316146105c55760405160e560020a62461bcd02815260206004820152602860248201527f5b4f4241595f4552524f525d204e4f205045524d495353494f4e20544f204255604482015260c160020a672927102a27a5a2a702606482015260840161039c565b6104b48282610b46565b336000908152600160209081526040808320600160a060020a0386168452909152812054828110156106575760405160e560020a62461bcd02815260206004820152602560248201527f45524332303a2064656372656173656420616c6c6f77616e63652062656c6f77604482015260d860020a64207a65726f02606482015260840161039c565b6106643385858403610724565b5060019392505050565b60006102ff338484610855565b336106846104f6565b600160a060020a0316146106ad5760405160e560020a62461bcd02815260040161039c90610e23565b600160a060020a0381166107185760405160e560020a62461bcd02815260206004820152602660248201527f4f776e61626c653a206e6577206f776e657220697320746865207a65726f2061604482015260d060020a6564647265737302606482015260840161039c565b61072181610af4565b50565b600160a060020a03831661078c5760405160e560020a62461bcd028152602060048201526024808201527f45524332303a20617070726f76652066726f6d20746865207a65726f20616464604482015260e060020a637265737302606482015260840161039c565b600160a060020a0382166107f35760405160e560020a62461bcd02815260206004820152602260248201527f45524332303a20617070726f766520746f20746865207a65726f206164647265604482015260f060020a61737302606482015260840161039c565b600160a060020a0383811660008181526001602090815260408083209487168084529482529182902085905590518481527f8c5be1e5ebec7d5bd14f71427d1e84f3dd0314c0f7b2291e5b200ac8c7c3b92591015b60405180910390a3505050565b600160a060020a0383166108bf5760405160e560020a62461bcd02815260206004820152602560248201527f45524332303a207472616e736665722066726f6d20746865207a65726f206164604482015260d860020a64647265737302606482015260840161039c565b600160a060020a0382166109275760405160e560020a62461bcd02815260206004820152602360248201527f45524332303a207472616e7366657220746f20746865207a65726f2061646472604482015260e860020a6265737302606482015260840161039c565b600160a060020a038316600090815260208190526040902054818110156109a55760405160e560020a62461bcd02815260206004820152602660248201527f45524332303a207472616e7366657220616d6f756e7420657863656564732062604482015260d060020a65616c616e636502606482015260840161039c565b600160a060020a038085166000908152602081905260408082208585039055918516815290812080548492906109dc908490610e0b565b9250508190555082600160a060020a031684600160a060020a0316600080516020610e7083398151915284604051610a1691815260200190565b60405180910390a350505050565b600160a060020a038216610a7d5760405160e560020a62461bcd02815260206004820152601f60248201527f45524332303a206d696e7420746f20746865207a65726f206164647265737300604482015260640161039c565b8060026000828254610a8f9190610e0b565b9091555050600160a060020a03821660009081526020819052604081208054839290610abc908490610e0b565b9091555050604051818152600160a060020a03831690600090600080516020610e708339815191529060200160405180910390a35050565b60058054600160a060020a03838116600160a060020a0319831681179093556040519116919082907f8be0079c531659141344cd1fd0a4f28419497f9722a3daafe3b4186f6b6457e090600090a35050565b600160a060020a038216610bac5760405160e560020a62461bcd02815260206004820152602160248201527f45524332303a206275726e2066726f6d20746865207a65726f20616464726573604482015260f860020a607302606482015260840161039c565b600160a060020a03821660009081526020819052604090205481811015610c265760405160e560020a62461bcd02815260206004820152602260248201527f45524332303a206275726e20616d6f756e7420657863656564732062616c616e604482015260f060020a61636502606482015260840161039c565b600160a060020a0383166000908152602081905260408120838303905560028054849290610c55908490610e58565b9091555050604051828152600090600160a060020a03851690600080516020610e7083398151915290602001610848565b600060208083528351808285015260005b81811015610cb357858101830151858201604001528201610c97565b81811115610cc5576000604083870101525b50601f01601f1916929092016040019392505050565b8035600160a060020a0381168114610cf257600080fd5b919050565b60008060408385031215610d0a57600080fd5b610d1383610cdb565b946020939093013593505050565b600080600060608486031215610d3657600080fd5b610d3f84610cdb565b9250610d4d60208501610cdb565b9150604084013590509250925092565b600060208284031215610d6f57600080fd5b610d7882610cdb565b9392505050565b60008060408385031215610d9257600080fd5b610d9b83610cdb565b9150610da960208401610cdb565b90509250929050565b600281046001821680610dc657607f821691505b60208210811415610deb5760e060020a634e487b710260009081526022600452602490fd5b50919050565b60e060020a634e487b710260009081526011600452602490fd5b60008219821115610e1e57610e1e610df1565b500190565b6020808252818101527f4f776e61626c653a2063616c6c6572206973206e6f7420746865206f776e6572604082015260600190565b600082821015610e6a57610e6a610df1565b50039056feddf252ad1be2c89b69c2b068fc378daa952ba7f163c4a11628f55a4df523b3efa264697066735822122014202550e051284c62bc6bba57c5c8721465731e3d293d41b925ca2fc5bcdf4764736f6c63430008090033",
  "immutableReferences": {},
  "source": "// SPDX-License-Identifier: MIT\npragma solidity >=0.8.0;\n\nimport \"@openzeppelin/contracts/token/ERC20/ERC20.sol\";\nimport \"@openzeppelin/contracts/access/Ownable.sol\";\n\ncontract ObayToken is ERC20(\"ObayToken\", \"OBAY\"), Ownable {\n  constructor() {\n    _mint(msg.sender, 100 ether);\n  }\n\n  function getTokenAddress() public view returns (address) {\n    return address(this);\n  }\n\n  /// @notice Creates `_amount` token to `_to`. Must only be called by the owner (Bayer).\n  function mint(address _to, uint256 _amount) public onlyOwner {\n    require(_to == owner(), \"[OBAY_ERROR] NO PERMISSION TO MINT TOKEN\");\n    _mint(_to, _amount);\n  }\n\n  function burn(address _to, uint256 _amount) public onlyOwner {\n    require(_to == owner(), \"[OBAY_ERROR] NO PERMISSION TO BURN TOKEN\");\n    _burn(_to, _amount);\n  }\n}\n",
  "sourcePath": "/Users/chungquantin/Desktop/Projects/DecentralizedOpenSource/smart-bay/contracts/features/token/ObayToken.sol",
  "compiler": {
    "name": "solc",
    "version": "0.8.9+commit.e5eed63a.Emscripten.clang"
  },
  "schemaVersion": "3.4.3",
  "updatedAt": "2021-11-27T09:45:48.731Z",
  "devdoc": {
    "kind": "dev",
    "methods": {
      "allowance(address,address)": {
        "details": "See {IERC20-allowance}."
      },
      "approve(address,uint256)": {
        "details": "See {IERC20-approve}. Requirements: - `spender` cannot be the zero address."
      },
      "balanceOf(address)": {
        "details": "See {IERC20-balanceOf}."
      },
      "decimals()": {
        "details": "Returns the number of decimals used to get its user representation. For example, if `decimals` equals `2`, a balance of `505` tokens should be displayed to a user as `5.05` (`505 / 10 ** 2`). Tokens usually opt for a value of 18, imitating the relationship between Ether and Wei. This is the value {ERC20} uses, unless this function is overridden; NOTE: This information is only used for _display_ purposes: it in no way affects any of the arithmetic of the contract, including {IERC20-balanceOf} and {IERC20-transfer}."
      },
      "decreaseAllowance(address,uint256)": {
        "details": "Atomically decreases the allowance granted to `spender` by the caller. This is an alternative to {approve} that can be used as a mitigation for problems described in {IERC20-approve}. Emits an {Approval} event indicating the updated allowance. Requirements: - `spender` cannot be the zero address. - `spender` must have allowance for the caller of at least `subtractedValue`."
      },
      "increaseAllowance(address,uint256)": {
        "details": "Atomically increases the allowance granted to `spender` by the caller. This is an alternative to {approve} that can be used as a mitigation for problems described in {IERC20-approve}. Emits an {Approval} event indicating the updated allowance. Requirements: - `spender` cannot be the zero address."
      },
      "name()": {
        "details": "Returns the name of the token."
      },
      "owner()": {
        "details": "Returns the address of the current owner."
      },
      "renounceOwnership()": {
        "details": "Leaves the contract without owner. It will not be possible to call `onlyOwner` functions anymore. Can only be called by the current owner. NOTE: Renouncing ownership will leave the contract without an owner, thereby removing any functionality that is only available to the owner."
      },
      "symbol()": {
        "details": "Returns the symbol of the token, usually a shorter version of the name."
      },
      "totalSupply()": {
        "details": "See {IERC20-totalSupply}."
      },
      "transfer(address,uint256)": {
        "details": "See {IERC20-transfer}. Requirements: - `recipient` cannot be the zero address. - the caller must have a balance of at least `amount`."
      },
      "transferFrom(address,address,uint256)": {
        "details": "See {IERC20-transferFrom}. Emits an {Approval} event indicating the updated allowance. This is not required by the EIP. See the note at the beginning of {ERC20}. Requirements: - `sender` and `recipient` cannot be the zero address. - `sender` must have a balance of at least `amount`. - the caller must have allowance for ``sender``'s tokens of at least `amount`."
      },
      "transferOwnership(address)": {
        "details": "Transfers ownership of the contract to a new account (`newOwner`). Can only be called by the current owner."
      }
    },
    "version": 1
  },
  "userdoc": {
    "kind": "user",
    "methods": {
      "mint(address,uint256)": {
        "notice": "Creates `_amount` token to `_to`. Must only be called by the owner (Bayer)."
      }
    },
    "version": 1
  }
}