{
  "contractName": "Proposal",
  "abi": [
    {
      "inputs": [
        {
          "internalType": "address",
          "name": "_creator",
          "type": "address"
        },
        {
          "internalType": "string",
          "name": "_description",
          "type": "string"
        },
        {
          "internalType": "string",
          "name": "_title",
          "type": "string"
        },
        {
          "internalType": "uint256",
          "name": "_debatingPeriod",
          "type": "uint256"
        }
      ],
      "stateMutability": "nonpayable",
      "type": "constructor"
    },
    {
      "anonymous": false,
      "inputs": [
        {
          "indexed": true,
          "internalType": "address",
          "name": "previousOwner",
          "type": "address"
        },
        {
          "indexed": true,
          "internalType": "address",
          "name": "newOwner",
          "type": "address"
        }
      ],
      "name": "OwnershipTransferred",
      "type": "event"
    },
    {
      "anonymous": false,
      "inputs": [
        {
          "indexed": true,
          "internalType": "address",
          "name": "proposalAddress",
          "type": "address"
        },
        {
          "indexed": false,
          "internalType": "uint256",
          "name": "timestamp",
          "type": "uint256"
        }
      ],
      "name": "ProposalClosed",
      "type": "event"
    },
    {
      "anonymous": false,
      "inputs": [
        {
          "indexed": true,
          "internalType": "address",
          "name": "proposalAddress",
          "type": "address"
        },
        {
          "indexed": true,
          "internalType": "address",
          "name": "voter",
          "type": "address"
        }
      ],
      "name": "ProposalUnvoted",
      "type": "event"
    },
    {
      "anonymous": false,
      "inputs": [
        {
          "indexed": true,
          "internalType": "address",
          "name": "proposalAddress",
          "type": "address"
        },
        {
          "indexed": true,
          "internalType": "address",
          "name": "voter",
          "type": "address"
        },
        {
          "indexed": false,
          "internalType": "bool",
          "name": "isVotedYes",
          "type": "bool"
        }
      ],
      "name": "ProposalVoted",
      "type": "event"
    },
    {
      "inputs": [],
      "name": "createdAt",
      "outputs": [
        {
          "internalType": "uint256",
          "name": "",
          "type": "uint256"
        }
      ],
      "stateMutability": "view",
      "type": "function"
    },
    {
      "inputs": [],
      "name": "creator",
      "outputs": [
        {
          "internalType": "address",
          "name": "",
          "type": "address"
        }
      ],
      "stateMutability": "view",
      "type": "function"
    },
    {
      "inputs": [],
      "name": "description",
      "outputs": [
        {
          "internalType": "string",
          "name": "",
          "type": "string"
        }
      ],
      "stateMutability": "view",
      "type": "function"
    },
    {
      "inputs": [],
      "name": "numberOfNoVote",
      "outputs": [
        {
          "internalType": "uint64",
          "name": "",
          "type": "uint64"
        }
      ],
      "stateMutability": "view",
      "type": "function"
    },
    {
      "inputs": [],
      "name": "numberOfYesVote",
      "outputs": [
        {
          "internalType": "uint64",
          "name": "",
          "type": "uint64"
        }
      ],
      "stateMutability": "view",
      "type": "function"
    },
    {
      "inputs": [],
      "name": "open",
      "outputs": [
        {
          "internalType": "enum Proposal.Status",
          "name": "",
          "type": "uint8"
        }
      ],
      "stateMutability": "view",
      "type": "function"
    },
    {
      "inputs": [],
      "name": "owner",
      "outputs": [
        {
          "internalType": "address",
          "name": "",
          "type": "address"
        }
      ],
      "stateMutability": "view",
      "type": "function"
    },
    {
      "inputs": [],
      "name": "proposalPassed",
      "outputs": [
        {
          "internalType": "bool",
          "name": "",
          "type": "bool"
        }
      ],
      "stateMutability": "view",
      "type": "function"
    },
    {
      "inputs": [],
      "name": "renounceOwnership",
      "outputs": [],
      "stateMutability": "nonpayable",
      "type": "function"
    },
    {
      "inputs": [],
      "name": "title",
      "outputs": [
        {
          "internalType": "string",
          "name": "",
          "type": "string"
        }
      ],
      "stateMutability": "view",
      "type": "function"
    },
    {
      "inputs": [
        {
          "internalType": "address",
          "name": "newOwner",
          "type": "address"
        }
      ],
      "name": "transferOwnership",
      "outputs": [],
      "stateMutability": "nonpayable",
      "type": "function"
    },
    {
      "inputs": [
        {
          "internalType": "address",
          "name": "",
          "type": "address"
        }
      ],
      "name": "votedNo",
      "outputs": [
        {
          "internalType": "bool",
          "name": "",
          "type": "bool"
        }
      ],
      "stateMutability": "view",
      "type": "function"
    },
    {
      "inputs": [
        {
          "internalType": "address",
          "name": "",
          "type": "address"
        }
      ],
      "name": "votedYes",
      "outputs": [
        {
          "internalType": "bool",
          "name": "",
          "type": "bool"
        }
      ],
      "stateMutability": "view",
      "type": "function"
    },
    {
      "inputs": [],
      "name": "votingDeadline",
      "outputs": [
        {
          "internalType": "uint256",
          "name": "",
          "type": "uint256"
        }
      ],
      "stateMutability": "view",
      "type": "function"
    },
    {
      "inputs": [],
      "name": "getVoters",
      "outputs": [
        {
          "components": [
            {
              "internalType": "address",
              "name": "voterAddress",
              "type": "address"
            },
            {
              "internalType": "uint256",
              "name": "votedAt",
              "type": "uint256"
            },
            {
              "internalType": "bool",
              "name": "approved",
              "type": "bool"
            }
          ],
          "internalType": "struct Proposal.Voter[]",
          "name": "",
          "type": "tuple[]"
        }
      ],
      "stateMutability": "view",
      "type": "function"
    },
    {
      "inputs": [],
      "name": "checkApprovalStatus",
      "outputs": [
        {
          "internalType": "uint64",
          "name": "approvalPercentage",
          "type": "uint64"
        }
      ],
      "stateMutability": "view",
      "type": "function"
    },
    {
      "inputs": [],
      "name": "close",
      "outputs": [],
      "stateMutability": "nonpayable",
      "type": "function"
    },
    {
      "inputs": [],
      "name": "voteYes",
      "outputs": [],
      "stateMutability": "nonpayable",
      "type": "function"
    },
    {
      "inputs": [],
      "name": "voteNo",
      "outputs": [],
      "stateMutability": "nonpayable",
      "type": "function"
    },
    {
      "inputs": [],
      "name": "unvote",
      "outputs": [],
      "stateMutability": "nonpayable",
      "type": "function"
    }
  ],
  "bytecode": "0x60806040523480156200001157600080fd5b50604051620010d9380380620010d983398101604081905262000034916200029c565b6200005a6200004b640100000000620000bc810204565b640100000000620000c0810204565b60028054600160a060020a031916600160a060020a03861617905582516200008a90600390602086019062000110565b508151620000a090600490602085019062000110565b5060055550506006805461ffff191690555042600b5562000384565b3390565b60008054600160a060020a03838116600160a060020a0319831681178455604051919092169283917f8be0079c531659141344cd1fd0a4f28419497f9722a3daafe3b4186f6b6457e09190a35050565b8280546200011e906200032e565b90600052602060002090601f0160209004810192826200014257600085556200018d565b82601f106200015d57805160ff19168380011785556200018d565b828001600101855582156200018d579182015b828111156200018d57825182559160200191906001019062000170565b506200019b9291506200019f565b5090565b5b808211156200019b5760008155600101620001a0565b7f4e487b7100000000000000000000000000000000000000000000000000000000600052604160045260246000fd5b600082601f830112620001f757600080fd5b81516001604060020a0380821115620002145762000214620001b6565b604051601f8301601f19908116603f011681019082821181831017156200023f576200023f620001b6565b816040528381526020925086838588010111156200025c57600080fd5b600091505b8382101562000280578582018301518183018401529082019062000261565b83821115620002925760008385830101525b9695505050505050565b60008060008060808587031215620002b357600080fd5b8451600160a060020a0381168114620002cb57600080fd5b60208601519094506001604060020a0380821115620002e957600080fd5b620002f788838901620001e5565b945060408701519150808211156200030e57600080fd5b506200031d87828801620001e5565b606096909601519497939650505050565b6002810460018216806200034357607f821691505b602082108114156200037e577f4e487b7100000000000000000000000000000000000000000000000000000000600052602260045260246000fd5b50919050565b610d4580620003946000396000f3fe608060405234801561001057600080fd5b50600436106100ff5760e060020a600035046302d05d3f8114610104578063036ee850146101345780631626fe641461014b578063227326b11461016b578063240336741461018d5780633174b689146101a057806341c12a70146101aa57806343d726d6146101b25780634a79d50c146101ba5780635351a3c8146101cf578063655b737f146101f2578063715018a6146102155780637284e4161461021d5780638da5cb5b1461022557806390cf581c1461022d578063cdd7225314610235578063cf09e0d01461024a578063e2c3b12214610253578063f2fde38b14610266578063fcfff16f14610279575b600080fd5b60025461011790600160a060020a031681565b604051600160a060020a0390911681526020015b60405180910390f35b61013d60055481565b60405190815260200161012b565b610153610293565b6040516001604060020a03909116815260200161012b565b60065461017d90610100900460ff1681565b604051901515815260200161012b565b600854610153906001604060020a031681565b6101a86102d8565b005b6101a861044d565b6101a86105b6565b6101c2610649565b60405161012b9190610a1b565b61017d6101dd366004610a70565b60096020526000908152604090205460ff1681565b61017d610200366004610a70565b60076020526000908152604090205460ff1681565b6101a86106d7565b6101c2610715565b610117610722565b6101a8610731565b61023d610824565b60405161012b9190610aa0565b61013d600b5481565b600a54610153906001604060020a031681565b6101a8610274366004610a70565b6108ab565b6006546102869060ff1681565b60405161012b9190610b04565b600a546008546000916102b2916001604060020a039182169116610b4a565b6008546102c9906001604060020a03166064610b75565b6102d39190610ba4565b905090565b6102e0610954565b6103345760405160e560020a62461bcd02815260206004820152601c60248201527f746865206164647265737320646964206e6f7420766f7465207965740000000060448201526064015b60405180910390fd5b3360009081526007602052604090205460ff161515600114156103a957336000908152600760205260408120805460ff1916905560088054600192906103849084906001604060020a0316610bdc565b92506101000a8154816001604060020a0302191690836001604060020a031602179055505b3360009081526009602052604090205460ff1615156001141561041e57336000908152600960205260408120805460ff19169055600a8054600192906103f99084906001604060020a0316610bdc565b92506101000a8154816001604060020a0302191690836001604060020a031602179055505b604051339030907f2817372c62bc3cdb73b84b6412d5ce40c6e73c30ef5fac6558d0c4cb3da410b790600090a3565b61045561098e565b6104745760405160e560020a62461bcd02815260040161032b90610c04565b336000818152600960209081526040808320805460ff199081166001908117909255825160608101845295865242938601938452918501848152815480830183558286529551600080516020610cd083398151915260039097029687018054600160a060020a031916600160a060020a039092169190911790559251600080516020610cf08339815191528601559151600080516020610cb0833981519152909401805490911693151593909317909255600a80549091906105409084906001604060020a0316610b4a565b92506101000a8154816001604060020a0302191690836001604060020a0316021790555033600160a060020a031630600160a060020a03167fbbcca6f8778ffd7765644921c17ed2de4add7a9b4ca1a29614a6295edd4a208960016040516105ac911515815260200190565b60405180910390a3565b600254600160a060020a031633146106055760405160e560020a62461bcd02815260206004820152600c602482015260a160020a6b3737ba1030b71037bbb732b902604482015260640161032b565b6006805460ff1916600117905560405142815230907f6944894ba716aadf69fcd57834d5d2cc2e808f6a144c75d956068efa727e2a7e9060200160405180910390a2565b6004805461065690610c3b565b80601f016020809104026020016040519081016040528092919081815260200182805461068290610c3b565b80156106cf5780601f106106a4576101008083540402835291602001916106cf565b820191906000526020600020905b8154815290600101906020018083116106b257829003601f168201915b505050505081565b336106e0610722565b600160a060020a0316146107095760405160e560020a62461bcd02815260040161032b90610c7a565b61071360006109cb565b565b6003805461065690610c3b565b600054600160a060020a031690565b61073961098e565b6107585760405160e560020a62461bcd02815260040161032b90610c04565b336000818152600760209081526040808320805460ff199081166001908117909255825160608101845295865242938601938452918501818152815480830183558286529551600080516020610cd083398151915260039097029687018054600160a060020a031916600160a060020a039092169190911790559251600080516020610cf08339815191528601559151600080516020610cb0833981519152909401805490911693151593909317909255600880549091906105409084906001604060020a0316610b4a565b60606001805480602002602001604051908101604052809291908181526020016000905b828210156108a257600084815260209081902060408051606081018252600386029092018054600160a060020a031683526001808201548486015260029091015460ff161515918301919091529083529092019101610848565b50505050905090565b336108b4610722565b600160a060020a0316146108dd5760405160e560020a62461bcd02815260040161032b90610c7a565b600160a060020a0381166109485760405160e560020a62461bcd02815260206004820152602660248201527f4f776e61626c653a206e6577206f776e657220697320746865207a65726f2061604482015260d060020a6564647265737302606482015260840161032b565b610951816109cb565b50565b3360009081526007602052604081205460ff161515600114806102d35750503360009081526009602052604090205460ff16151560011490565b3360009081526007602052604081205460ff1615156001148015906102d35750503360009081526009602052604090205460ff1615156001141590565b60008054600160a060020a03838116600160a060020a0319831681178455604051919092169283917f8be0079c531659141344cd1fd0a4f28419497f9722a3daafe3b4186f6b6457e09190a35050565b600060208083528351808285015260005b81811015610a4857858101830151858201604001528201610a2c565b81811115610a5a576000604083870101525b50601f01601f1916929092016040019392505050565b600060208284031215610a8257600080fd5b8135600160a060020a0381168114610a9957600080fd5b9392505050565b602080825282518282018190526000919060409081850190868401855b82811015610af75781518051600160a060020a03168552868101518786015285015115158585015260609093019290850190600101610abd565b5091979650505050505050565b6020810160028310610b2a5760e060020a634e487b710260009081526021600452602490fd5b91905290565b60e060020a634e487b710260009081526011600452602490fd5b60006001604060020a03828116848216808303821115610b6c57610b6c610b30565b01949350505050565b60006001604060020a0382811684821681151582840482111615610b9b57610b9b610b30565b02949350505050565b60006001604060020a0383811680610bd05760e060020a634e487b710260009081526012600452602490fd5b92169190910492915050565b60006001604060020a0383811690831681811015610bfc57610bfc610b30565b039392505050565b6020808252601d908201527f74686520616464726573732068617320766f74656420616c7265616479000000604082015260600190565b600281046001821680610c4f57607f821691505b60208210811415610c745760e060020a634e487b710260009081526022600452602490fd5b50919050565b6020808252818101527f4f776e61626c653a2063616c6c6572206973206e6f7420746865206f776e657260408201526060019056feb10e2d527612073b26eecdfd717e6a320cf44b4afac2b0732d9fcbe2b7fa0cf8b10e2d527612073b26eecdfd717e6a320cf44b4afac2b0732d9fcbe2b7fa0cf6b10e2d527612073b26eecdfd717e6a320cf44b4afac2b0732d9fcbe2b7fa0cf7a26469706673582212206ea4f64bb1859693d61d93517bc943c57127b62a186e3c31db3f5681bd442b4e64736f6c63430008090033",
  "immutableReferences": {},
  "source": "// SPDX-License-Identifier: MIT\npragma solidity >=0.4.0;\n\nimport \"@openzeppelin/contracts/access/Ownable.sol\";\n\ncontract Proposal is Ownable {\n  // EXCHANGE : 1, TRANSFER : 2\n  enum ProposalType {\n    EXCHANGE,\n    TRANSFER\n  }\n\n  struct Voter {\n    address voterAddress;\n    uint256 votedAt;\n    bool approved;\n  }\n\n  enum Status {\n    ON,\n    OFF\n  }\n\n  Voter[] private _voters;\n  address public creator; // Address of the shareholder who created the proposal\n  string public description; // A plain text description of the proposal\n  string public title;\n  uint256 public votingDeadline; // A unix timestamp, denoting the end of the voting period\n  Status public open; // True if the proposal's votes have yet to be counted, otherwise False\n  bool public proposalPassed; // True if quorum has been reached, the votes have been counted, and the majority said yes\n  mapping(address => bool) public votedYes;\n  uint64 public numberOfYesVote;\n  mapping(address => bool) public votedNo;\n  uint64 public numberOfNoVote;\n  uint256 public createdAt;\n\n  event ProposalClosed(address indexed proposalAddress, uint256 timestamp);\n  event ProposalVoted(\n    address indexed proposalAddress,\n    address indexed voter,\n    bool isVotedYes\n  );\n  event ProposalUnvoted(address indexed proposalAddress, address indexed voter);\n\n  constructor(\n    address _creator,\n    string memory _description,\n    string memory _title,\n    uint256 _debatingPeriod\n  ) {\n    creator = _creator;\n    description = _description;\n    title = _title;\n    votingDeadline = _debatingPeriod;\n    open = Status.ON;\n    proposalPassed = false;\n    createdAt = block.timestamp;\n  }\n\n  function getVoters() external view returns (Voter[] memory) {\n    return _voters;\n  }\n\n  function checkApprovalStatus()\n    external\n    view\n    returns (uint64 approvalPercentage)\n  {\n    return (numberOfYesVote * 100) / (numberOfYesVote + numberOfNoVote);\n  }\n\n  function _checkIsVoted() private view returns (bool) {\n    return votedYes[_msgSender()] == true || votedNo[_msgSender()] == true;\n  }\n\n  function _checkIsNotVoted() private view returns (bool) {\n    return votedYes[_msgSender()] != true && votedNo[_msgSender()] != true;\n  }\n\n  function close() public {\n    require(creator == _msgSender(), \"not an owner\");\n    open = Status.OFF;\n    emit ProposalClosed(address(this), block.timestamp);\n  }\n\n  function voteYes() public {\n    require(_checkIsNotVoted(), \"the address has voted already\");\n    votedYes[_msgSender()] = true;\n    _voters.push(Voter(_msgSender(), block.timestamp, true));\n    numberOfYesVote += 1;\n    emit ProposalVoted(address(this), msg.sender, true);\n  }\n\n  function voteNo() public {\n    require(_checkIsNotVoted(), \"the address has voted already\");\n    votedNo[_msgSender()] = true;\n    _voters.push(Voter(_msgSender(), block.timestamp, false));\n    numberOfNoVote += 1;\n    emit ProposalVoted(address(this), msg.sender, true);\n  }\n\n  function unvote() public {\n    require(_checkIsVoted(), \"the address did not vote yet\");\n    if (votedYes[_msgSender()] == true) {\n      delete votedYes[_msgSender()];\n      numberOfYesVote -= 1;\n    }\n    if (votedNo[_msgSender()] == true) {\n      delete votedNo[_msgSender()];\n      numberOfNoVote -= 1;\n    }\n    emit ProposalUnvoted(address(this), msg.sender);\n  }\n}\n",
  "sourcePath": "/Users/chungquantin/Desktop/Projects/DecentralizedOpenSource/smart-bay/contracts/features/dao/proposal/Proposal.sol",
  "compiler": {
    "name": "solc",
    "version": "0.8.9+commit.e5eed63a.Emscripten.clang"
  },
  "schemaVersion": "3.4.3",
  "updatedAt": "2021-11-27T09:45:48.778Z",
  "devdoc": {
    "kind": "dev",
    "methods": {
      "owner()": {
        "details": "Returns the address of the current owner."
      },
      "renounceOwnership()": {
        "details": "Leaves the contract without owner. It will not be possible to call `onlyOwner` functions anymore. Can only be called by the current owner. NOTE: Renouncing ownership will leave the contract without an owner, thereby removing any functionality that is only available to the owner."
      },
      "transferOwnership(address)": {
        "details": "Transfers ownership of the contract to a new account (`newOwner`). Can only be called by the current owner."
      }
    },
    "version": 1
  },
  "userdoc": {
    "kind": "user",
    "methods": {},
    "version": 1
  }
}