{
  "contractName": "TransferProposal",
  "abi": [
    {
      "inputs": [
        {
          "internalType": "address",
          "name": "_creator",
          "type": "address"
        },
        {
          "internalType": "string",
          "name": "_description",
          "type": "string"
        },
        {
          "internalType": "string",
          "name": "_title",
          "type": "string"
        },
        {
          "internalType": "uint256",
          "name": "_debatingPeriod",
          "type": "uint256"
        },
        {
          "internalType": "address",
          "name": "_recipient",
          "type": "address"
        },
        {
          "internalType": "uint256",
          "name": "_amount",
          "type": "uint256"
        }
      ],
      "stateMutability": "nonpayable",
      "type": "constructor"
    },
    {
      "anonymous": false,
      "inputs": [
        {
          "indexed": true,
          "internalType": "address",
          "name": "previousOwner",
          "type": "address"
        },
        {
          "indexed": true,
          "internalType": "address",
          "name": "newOwner",
          "type": "address"
        }
      ],
      "name": "OwnershipTransferred",
      "type": "event"
    },
    {
      "anonymous": false,
      "inputs": [
        {
          "indexed": true,
          "internalType": "address",
          "name": "proposalAddress",
          "type": "address"
        },
        {
          "indexed": false,
          "internalType": "uint256",
          "name": "timestamp",
          "type": "uint256"
        }
      ],
      "name": "ProposalClosed",
      "type": "event"
    },
    {
      "anonymous": false,
      "inputs": [
        {
          "indexed": true,
          "internalType": "address",
          "name": "proposalAddress",
          "type": "address"
        },
        {
          "indexed": true,
          "internalType": "address",
          "name": "voter",
          "type": "address"
        }
      ],
      "name": "ProposalUnvoted",
      "type": "event"
    },
    {
      "anonymous": false,
      "inputs": [
        {
          "indexed": true,
          "internalType": "address",
          "name": "proposalAddress",
          "type": "address"
        },
        {
          "indexed": true,
          "internalType": "address",
          "name": "voter",
          "type": "address"
        },
        {
          "indexed": false,
          "internalType": "bool",
          "name": "isVotedYes",
          "type": "bool"
        }
      ],
      "name": "ProposalVoted",
      "type": "event"
    },
    {
      "inputs": [],
      "name": "amount",
      "outputs": [
        {
          "internalType": "uint256",
          "name": "",
          "type": "uint256"
        }
      ],
      "stateMutability": "view",
      "type": "function"
    },
    {
      "inputs": [],
      "name": "checkApprovalStatus",
      "outputs": [
        {
          "internalType": "uint64",
          "name": "approvalPercentage",
          "type": "uint64"
        }
      ],
      "stateMutability": "view",
      "type": "function"
    },
    {
      "inputs": [],
      "name": "close",
      "outputs": [],
      "stateMutability": "nonpayable",
      "type": "function"
    },
    {
      "inputs": [],
      "name": "createdAt",
      "outputs": [
        {
          "internalType": "uint256",
          "name": "",
          "type": "uint256"
        }
      ],
      "stateMutability": "view",
      "type": "function"
    },
    {
      "inputs": [],
      "name": "creator",
      "outputs": [
        {
          "internalType": "address",
          "name": "",
          "type": "address"
        }
      ],
      "stateMutability": "view",
      "type": "function"
    },
    {
      "inputs": [],
      "name": "description",
      "outputs": [
        {
          "internalType": "string",
          "name": "",
          "type": "string"
        }
      ],
      "stateMutability": "view",
      "type": "function"
    },
    {
      "inputs": [],
      "name": "numberOfNoVote",
      "outputs": [
        {
          "internalType": "uint64",
          "name": "",
          "type": "uint64"
        }
      ],
      "stateMutability": "view",
      "type": "function"
    },
    {
      "inputs": [],
      "name": "numberOfYesVote",
      "outputs": [
        {
          "internalType": "uint64",
          "name": "",
          "type": "uint64"
        }
      ],
      "stateMutability": "view",
      "type": "function"
    },
    {
      "inputs": [],
      "name": "open",
      "outputs": [
        {
          "internalType": "enum Proposal.Status",
          "name": "",
          "type": "uint8"
        }
      ],
      "stateMutability": "view",
      "type": "function"
    },
    {
      "inputs": [],
      "name": "owner",
      "outputs": [
        {
          "internalType": "address",
          "name": "",
          "type": "address"
        }
      ],
      "stateMutability": "view",
      "type": "function"
    },
    {
      "inputs": [],
      "name": "proposalPassed",
      "outputs": [
        {
          "internalType": "bool",
          "name": "",
          "type": "bool"
        }
      ],
      "stateMutability": "view",
      "type": "function"
    },
    {
      "inputs": [],
      "name": "recipient",
      "outputs": [
        {
          "internalType": "address",
          "name": "",
          "type": "address"
        }
      ],
      "stateMutability": "view",
      "type": "function"
    },
    {
      "inputs": [],
      "name": "renounceOwnership",
      "outputs": [],
      "stateMutability": "nonpayable",
      "type": "function"
    },
    {
      "inputs": [],
      "name": "title",
      "outputs": [
        {
          "internalType": "string",
          "name": "",
          "type": "string"
        }
      ],
      "stateMutability": "view",
      "type": "function"
    },
    {
      "inputs": [
        {
          "internalType": "address",
          "name": "newOwner",
          "type": "address"
        }
      ],
      "name": "transferOwnership",
      "outputs": [],
      "stateMutability": "nonpayable",
      "type": "function"
    },
    {
      "inputs": [],
      "name": "unvote",
      "outputs": [],
      "stateMutability": "nonpayable",
      "type": "function"
    },
    {
      "inputs": [],
      "name": "voteNo",
      "outputs": [],
      "stateMutability": "nonpayable",
      "type": "function"
    },
    {
      "inputs": [],
      "name": "voteYes",
      "outputs": [],
      "stateMutability": "nonpayable",
      "type": "function"
    },
    {
      "inputs": [
        {
          "internalType": "address",
          "name": "",
          "type": "address"
        }
      ],
      "name": "votedNo",
      "outputs": [
        {
          "internalType": "bool",
          "name": "",
          "type": "bool"
        }
      ],
      "stateMutability": "view",
      "type": "function"
    },
    {
      "inputs": [
        {
          "internalType": "address",
          "name": "",
          "type": "address"
        }
      ],
      "name": "votedYes",
      "outputs": [
        {
          "internalType": "bool",
          "name": "",
          "type": "bool"
        }
      ],
      "stateMutability": "view",
      "type": "function"
    },
    {
      "inputs": [],
      "name": "votingDeadline",
      "outputs": [
        {
          "internalType": "uint256",
          "name": "",
          "type": "uint256"
        }
      ],
      "stateMutability": "view",
      "type": "function"
    }
  ],
  "bytecode": "0x60806040523480156200001157600080fd5b5060405162000ed338038062000ed38339810160408190526200003491620002e6565b858585856200005e6200004f640100000000620000e9810204565b640100000000620000ed810204565b60018054600160a060020a031916600160a060020a03861617905582516200008e9060029060208601906200013d565b508151620000a49060039060208501906200013d565b5060045550506005805461ffff191690555042600a55600b8054600160a060020a031916600160a060020a039390931692909217909155600c5550620003dd92505050565b3390565b60008054600160a060020a03838116600160a060020a0319831681178455604051919092169283917f8be0079c531659141344cd1fd0a4f28419497f9722a3daafe3b4186f6b6457e09190a35050565b8280546200014b9062000387565b90600052602060002090601f0160209004810192826200016f5760008555620001ba565b82601f106200018a57805160ff1916838001178555620001ba565b82800160010185558215620001ba579182015b82811115620001ba5782518255916020019190600101906200019d565b50620001c8929150620001cc565b5090565b5b80821115620001c85760008155600101620001cd565b8051600160a060020a0381168114620001fb57600080fd5b919050565b7f4e487b7100000000000000000000000000000000000000000000000000000000600052604160045260246000fd5b600082601f8301126200024157600080fd5b81516001604060020a03808211156200025e576200025e62000200565b604051601f8301601f19908116603f0116810190828211818310171562000289576200028962000200565b81604052838152602092508683858801011115620002a657600080fd5b600091505b83821015620002ca5785820183015181830184015290820190620002ab565b83821115620002dc5760008385830101525b9695505050505050565b60008060008060008060c087890312156200030057600080fd5b6200030b87620001e3565b955060208701516001604060020a03808211156200032857600080fd5b620003368a838b016200022f565b965060408901519150808211156200034d57600080fd5b506200035c89828a016200022f565b945050606087015192506200037460808801620001e3565b915060a087015190509295509295509295565b6002810460018216806200039c57607f821691505b60208210811415620003d7577f4e487b7100000000000000000000000000000000000000000000000000000000600052602260045260246000fd5b50919050565b610ae680620003ed6000396000f3fe608060405234801561001057600080fd5b506004361061010a5760e060020a600035046302d05d3f811461010f578063036ee8501461013f5780631626fe6414610156578063227326b11461017657806324033674146101985780633174b689146101ab57806341c12a70146101b557806343d726d6146101bd5780634a79d50c146101c55780635351a3c8146101da578063655b737f146101fd57806366d003ac14610220578063715018a6146102335780637284e4161461023b5780638da5cb5b1461024357806390cf581c1461024b578063aa8c217c14610253578063cf09e0d01461025c578063e2c3b12214610265578063f2fde38b14610278578063fcfff16f1461028b575b600080fd5b60015461012290600160a060020a031681565b604051600160a060020a0390911681526020015b60405180910390f35b61014860045481565b604051908152602001610136565b61015e6102a5565b6040516001604060020a039091168152602001610136565b60055461018890610100900460ff1681565b6040519015158152602001610136565b60075461015e906001604060020a031681565b6101b36102ea565b005b6101b361045f565b6101b3610535565b6101cd6105c8565b6040516101369190610880565b6101886101e83660046108d5565b60086020526000908152604090205460ff1681565b61018861020b3660046108d5565b60066020526000908152604090205460ff1681565b600b5461012290600160a060020a031681565b6101b3610656565b6101cd610694565b6101226106a1565b6101b36106b0565b610148600c5481565b610148600a5481565b60095461015e906001604060020a031681565b6101b36102863660046108d5565b610710565b6005546102989060ff1681565b6040516101369190610905565b6009546007546000916102c4916001604060020a03918216911661094b565b6007546102db906001604060020a03166064610976565b6102e591906109a5565b905090565b6102f26107b9565b6103465760405160e560020a62461bcd02815260206004820152601c60248201527f746865206164647265737320646964206e6f7420766f7465207965740000000060448201526064015b60405180910390fd5b3360009081526006602052604090205460ff161515600114156103bb57336000908152600660205260408120805460ff1916905560078054600192906103969084906001604060020a03166109dd565b92506101000a8154816001604060020a0302191690836001604060020a031602179055505b3360009081526008602052604090205460ff1615156001141561043057336000908152600860205260408120805460ff19169055600980546001929061040b9084906001604060020a03166109dd565b92506101000a8154816001604060020a0302191690836001604060020a031602179055505b604051339030907f2817372c62bc3cdb73b84b6412d5ce40c6e73c30ef5fac6558d0c4cb3da410b790600090a3565b6104676107f3565b6104865760405160e560020a62461bcd02815260040161033d90610a05565b336000908152600860205260408120805460ff1916600190811790915560098054919290916104bf9084906001604060020a031661094b565b92506101000a8154816001604060020a0302191690836001604060020a0316021790555033600160a060020a031630600160a060020a03167fbbcca6f8778ffd7765644921c17ed2de4add7a9b4ca1a29614a6295edd4a2089600160405161052b911515815260200190565b60405180910390a3565b600154600160a060020a031633146105845760405160e560020a62461bcd02815260206004820152600c602482015260a160020a6b3737ba1030b71037bbb732b902604482015260640161033d565b6005805460ff1916600117905560405142815230907f6944894ba716aadf69fcd57834d5d2cc2e808f6a144c75d956068efa727e2a7e9060200160405180910390a2565b600380546105d590610a3c565b80601f016020809104026020016040519081016040528092919081815260200182805461060190610a3c565b801561064e5780601f106106235761010080835404028352916020019161064e565b820191906000526020600020905b81548152906001019060200180831161063157829003601f168201915b505050505081565b3361065f6106a1565b600160a060020a0316146106885760405160e560020a62461bcd02815260040161033d90610a7b565b6106926000610830565b565b600280546105d590610a3c565b600054600160a060020a031690565b6106b86107f3565b6106d75760405160e560020a62461bcd02815260040161033d90610a05565b336000908152600660205260408120805460ff1916600190811790915560078054919290916104bf9084906001604060020a031661094b565b336107196106a1565b600160a060020a0316146107425760405160e560020a62461bcd02815260040161033d90610a7b565b600160a060020a0381166107ad5760405160e560020a62461bcd02815260206004820152602660248201527f4f776e61626c653a206e6577206f776e657220697320746865207a65726f2061604482015260d060020a6564647265737302606482015260840161033d565b6107b681610830565b50565b3360009081526006602052604081205460ff161515600114806102e55750503360009081526008602052604090205460ff16151560011490565b3360009081526006602052604081205460ff1615156001148015906102e55750503360009081526008602052604090205460ff1615156001141590565b60008054600160a060020a03838116600160a060020a0319831681178455604051919092169283917f8be0079c531659141344cd1fd0a4f28419497f9722a3daafe3b4186f6b6457e09190a35050565b600060208083528351808285015260005b818110156108ad57858101830151858201604001528201610891565b818111156108bf576000604083870101525b50601f01601f1916929092016040019392505050565b6000602082840312156108e757600080fd5b8135600160a060020a03811681146108fe57600080fd5b9392505050565b602081016002831061092b5760e060020a634e487b710260009081526021600452602490fd5b91905290565b60e060020a634e487b710260009081526011600452602490fd5b60006001604060020a0382811684821680830382111561096d5761096d610931565b01949350505050565b60006001604060020a038281168482168115158284048211161561099c5761099c610931565b02949350505050565b60006001604060020a03838116806109d15760e060020a634e487b710260009081526012600452602490fd5b92169190910492915050565b60006001604060020a03838116908316818110156109fd576109fd610931565b039392505050565b6020808252601d908201527f74686520616464726573732068617320766f74656420616c7265616479000000604082015260600190565b600281046001821680610a5057607f821691505b60208210811415610a755760e060020a634e487b710260009081526022600452602490fd5b50919050565b6020808252818101527f4f776e61626c653a2063616c6c6572206973206e6f7420746865206f776e657260408201526060019056fea26469706673582212200148a84eb8c612ca346e3890539c61bcdd130cb58cc74f3e86db57cb1eca63aa64736f6c63430008090033",
  "immutableReferences": {},
  "source": "// SPDX-License-Identifier: MIT\npragma solidity >=0.4.0;\n\nimport \"./Proposal.sol\";\n\ncontract TransferProposal is Proposal {\n  address public recipient; // The address where the `amount` will go to if the proposal is accepted\n  uint256 public amount; // The amount to transfer to `recipient` if the proposal is accepted.\n  ProposalType constant proposalType = ProposalType.TRANSFER;\n\n  constructor(\n    address _creator,\n    string memory _description,\n    string memory _title,\n    uint256 _debatingPeriod,\n    address _recipient,\n    uint256 _amount\n  ) Proposal(_creator, _description, _title, _debatingPeriod) {\n    recipient = _recipient;\n    amount = _amount;\n  }\n}\n",
  "sourcePath": "/Users/chungquantin/Desktop/Projects/DecentralizedOpenSource/smart-bay/contracts/features/dao/proposal/TransferProposal.sol",
  "compiler": {
    "name": "solc",
    "version": "0.8.9+commit.e5eed63a.Emscripten.clang"
  },
  "schemaVersion": "3.4.3",
  "updatedAt": "2021-11-17T03:08:21.771Z",
  "devdoc": {
    "kind": "dev",
    "methods": {
      "owner()": {
        "details": "Returns the address of the current owner."
      },
      "renounceOwnership()": {
        "details": "Leaves the contract without owner. It will not be possible to call `onlyOwner` functions anymore. Can only be called by the current owner. NOTE: Renouncing ownership will leave the contract without an owner, thereby removing any functionality that is only available to the owner."
      },
      "transferOwnership(address)": {
        "details": "Transfers ownership of the contract to a new account (`newOwner`). Can only be called by the current owner."
      }
    },
    "version": 1
  },
  "userdoc": {
    "kind": "user",
    "methods": {},
    "version": 1
  }
}