{
  "contractName": "TransferProposal",
  "abi": [
    {
      "inputs": [
        {
          "internalType": "address",
          "name": "_creator",
          "type": "address"
        },
        {
          "internalType": "string",
          "name": "_description",
          "type": "string"
        },
        {
          "internalType": "string",
          "name": "_title",
          "type": "string"
        },
        {
          "internalType": "uint256",
          "name": "_debatingPeriod",
          "type": "uint256"
        },
        {
          "internalType": "address",
          "name": "_recipient",
          "type": "address"
        },
        {
          "internalType": "uint256",
          "name": "_amount",
          "type": "uint256"
        }
      ],
      "stateMutability": "nonpayable",
      "type": "constructor"
    },
    {
      "anonymous": false,
      "inputs": [
        {
          "indexed": true,
          "internalType": "address",
          "name": "previousOwner",
          "type": "address"
        },
        {
          "indexed": true,
          "internalType": "address",
          "name": "newOwner",
          "type": "address"
        }
      ],
      "name": "OwnershipTransferred",
      "type": "event"
    },
    {
      "anonymous": false,
      "inputs": [
        {
          "indexed": true,
          "internalType": "address",
          "name": "proposalAddress",
          "type": "address"
        },
        {
          "indexed": false,
          "internalType": "uint256",
          "name": "timestamp",
          "type": "uint256"
        }
      ],
      "name": "ProposalClosed",
      "type": "event"
    },
    {
      "anonymous": false,
      "inputs": [
        {
          "indexed": true,
          "internalType": "address",
          "name": "proposalAddress",
          "type": "address"
        },
        {
          "indexed": true,
          "internalType": "address",
          "name": "voter",
          "type": "address"
        }
      ],
      "name": "ProposalUnvoted",
      "type": "event"
    },
    {
      "anonymous": false,
      "inputs": [
        {
          "indexed": true,
          "internalType": "address",
          "name": "proposalAddress",
          "type": "address"
        },
        {
          "indexed": true,
          "internalType": "address",
          "name": "voter",
          "type": "address"
        },
        {
          "indexed": false,
          "internalType": "bool",
          "name": "isVotedYes",
          "type": "bool"
        }
      ],
      "name": "ProposalVoted",
      "type": "event"
    },
    {
      "inputs": [],
      "name": "amount",
      "outputs": [
        {
          "internalType": "uint256",
          "name": "",
          "type": "uint256"
        }
      ],
      "stateMutability": "view",
      "type": "function"
    },
    {
      "inputs": [],
      "name": "checkApprovalStatus",
      "outputs": [
        {
          "internalType": "uint64",
          "name": "approvalPercentage",
          "type": "uint64"
        }
      ],
      "stateMutability": "view",
      "type": "function"
    },
    {
      "inputs": [],
      "name": "close",
      "outputs": [],
      "stateMutability": "nonpayable",
      "type": "function"
    },
    {
      "inputs": [],
      "name": "creator",
      "outputs": [
        {
          "internalType": "address",
          "name": "",
          "type": "address"
        }
      ],
      "stateMutability": "view",
      "type": "function"
    },
    {
      "inputs": [],
      "name": "description",
      "outputs": [
        {
          "internalType": "string",
          "name": "",
          "type": "string"
        }
      ],
      "stateMutability": "view",
      "type": "function"
    },
    {
      "inputs": [],
      "name": "numberOfNoVote",
      "outputs": [
        {
          "internalType": "uint64",
          "name": "",
          "type": "uint64"
        }
      ],
      "stateMutability": "view",
      "type": "function"
    },
    {
      "inputs": [],
      "name": "numberOfYesVote",
      "outputs": [
        {
          "internalType": "uint64",
          "name": "",
          "type": "uint64"
        }
      ],
      "stateMutability": "view",
      "type": "function"
    },
    {
      "inputs": [],
      "name": "open",
      "outputs": [
        {
          "internalType": "enum Proposal.Status",
          "name": "",
          "type": "uint8"
        }
      ],
      "stateMutability": "view",
      "type": "function"
    },
    {
      "inputs": [],
      "name": "owner",
      "outputs": [
        {
          "internalType": "address",
          "name": "",
          "type": "address"
        }
      ],
      "stateMutability": "view",
      "type": "function"
    },
    {
      "inputs": [],
      "name": "proposalPassed",
      "outputs": [
        {
          "internalType": "bool",
          "name": "",
          "type": "bool"
        }
      ],
      "stateMutability": "view",
      "type": "function"
    },
    {
      "inputs": [],
      "name": "recipient",
      "outputs": [
        {
          "internalType": "address",
          "name": "",
          "type": "address"
        }
      ],
      "stateMutability": "view",
      "type": "function"
    },
    {
      "inputs": [],
      "name": "renounceOwnership",
      "outputs": [],
      "stateMutability": "nonpayable",
      "type": "function"
    },
    {
      "inputs": [],
      "name": "title",
      "outputs": [
        {
          "internalType": "string",
          "name": "",
          "type": "string"
        }
      ],
      "stateMutability": "view",
      "type": "function"
    },
    {
      "inputs": [
        {
          "internalType": "address",
          "name": "newOwner",
          "type": "address"
        }
      ],
      "name": "transferOwnership",
      "outputs": [],
      "stateMutability": "nonpayable",
      "type": "function"
    },
    {
      "inputs": [],
      "name": "unvote",
      "outputs": [],
      "stateMutability": "nonpayable",
      "type": "function"
    },
    {
      "inputs": [],
      "name": "voteNo",
      "outputs": [],
      "stateMutability": "nonpayable",
      "type": "function"
    },
    {
      "inputs": [],
      "name": "voteYes",
      "outputs": [],
      "stateMutability": "nonpayable",
      "type": "function"
    },
    {
      "inputs": [
        {
          "internalType": "address",
          "name": "",
          "type": "address"
        }
      ],
      "name": "votedNo",
      "outputs": [
        {
          "internalType": "bool",
          "name": "",
          "type": "bool"
        }
      ],
      "stateMutability": "view",
      "type": "function"
    },
    {
      "inputs": [
        {
          "internalType": "address",
          "name": "",
          "type": "address"
        }
      ],
      "name": "votedYes",
      "outputs": [
        {
          "internalType": "bool",
          "name": "",
          "type": "bool"
        }
      ],
      "stateMutability": "view",
      "type": "function"
    },
    {
      "inputs": [],
      "name": "votingDeadline",
      "outputs": [
        {
          "internalType": "uint256",
          "name": "",
          "type": "uint256"
        }
      ],
      "stateMutability": "view",
      "type": "function"
    }
  ],
  "bytecode": "0x60806040523480156200001157600080fd5b5060405162000ee738038062000ee7833981016040819052620000349162000307565b858585856200005e6200004f6401000000006200010a810204565b6401000000006200010e810204565b60018054600160a060020a031916600160a060020a03861617905582516200008e9060029060208601906200015e565b508151620000a49060039060208501906200015e565b5060045550506005805461ffff191690555060098054600160a060020a039390931668010000000000000000027fffffffff0000000000000000000000000000000000000000ffffffffffffffff90931692909217909155600a5550620003fe92505050565b3390565b60008054600160a060020a03838116600160a060020a0319831681178455604051919092169283917f8be0079c531659141344cd1fd0a4f28419497f9722a3daafe3b4186f6b6457e09190a35050565b8280546200016c90620003a8565b90600052602060002090601f016020900481019282620001905760008555620001db565b82601f10620001ab57805160ff1916838001178555620001db565b82800160010185558215620001db579182015b82811115620001db578251825591602001919060010190620001be565b50620001e9929150620001ed565b5090565b5b80821115620001e95760008155600101620001ee565b8051600160a060020a03811681146200021c57600080fd5b919050565b7f4e487b7100000000000000000000000000000000000000000000000000000000600052604160045260246000fd5b600082601f8301126200026257600080fd5b81516001604060020a03808211156200027f576200027f62000221565b604051601f8301601f19908116603f01168101908282118183101715620002aa57620002aa62000221565b81604052838152602092508683858801011115620002c757600080fd5b600091505b83821015620002eb5785820183015181830184015290820190620002cc565b83821115620002fd5760008385830101525b9695505050505050565b60008060008060008060c087890312156200032157600080fd5b6200032c8762000204565b955060208701516001604060020a03808211156200034957600080fd5b620003578a838b0162000250565b965060408901519150808211156200036e57600080fd5b506200037d89828a0162000250565b94505060608701519250620003956080880162000204565b915060a087015190509295509295509295565b600281046001821680620003bd57607f821691505b60208210811415620003f8577f4e487b7100000000000000000000000000000000000000000000000000000000600052602260045260246000fd5b50919050565b610ad9806200040e6000396000f3fe608060405234801561001057600080fd5b50600436106100ff5760e060020a600035046302d05d3f8114610104578063036ee850146101345780631626fe641461014b578063227326b11461016b578063240336741461018d5780633174b689146101a057806341c12a70146101aa57806343d726d6146101b25780634a79d50c146101ba5780635351a3c8146101cf578063655b737f146101f257806366d003ac14610215578063715018a61461022f5780637284e416146102375780638da5cb5b1461023f57806390cf581c14610247578063aa8c217c1461024f578063e2c3b12214610258578063f2fde38b1461026b578063fcfff16f1461027e575b600080fd5b60015461011790600160a060020a031681565b604051600160a060020a0390911681526020015b60405180910390f35b61013d60045481565b60405190815260200161012b565b610153610298565b6040516001604060020a03909116815260200161012b565b60055461017d90610100900460ff1681565b604051901515815260200161012b565b600754610153906001604060020a031681565b6101a86102dd565b005b6101a8610452565b6101a8610528565b6101c26105bb565b60405161012b9190610873565b61017d6101dd3660046108c8565b60086020526000908152604090205460ff1681565b61017d6102003660046108c8565b60066020526000908152604090205460ff1681565b60095461011790604060020a9004600160a060020a031681565b6101a8610649565b6101c2610687565b610117610694565b6101a86106a3565b61013d600a5481565b600954610153906001604060020a031681565b6101a86102793660046108c8565b610703565b60055461028b9060ff1681565b60405161012b91906108f8565b6009546007546000916102b7916001604060020a03918216911661093e565b6007546102ce906001604060020a03166064610969565b6102d89190610998565b905090565b6102e56107ac565b6103395760405160e560020a62461bcd02815260206004820152601c60248201527f746865206164647265737320646964206e6f7420766f7465207965740000000060448201526064015b60405180910390fd5b3360009081526006602052604090205460ff161515600114156103ae57336000908152600660205260408120805460ff1916905560078054600192906103899084906001604060020a03166109d0565b92506101000a8154816001604060020a0302191690836001604060020a031602179055505b3360009081526008602052604090205460ff1615156001141561042357336000908152600860205260408120805460ff1916905560098054600192906103fe9084906001604060020a03166109d0565b92506101000a8154816001604060020a0302191690836001604060020a031602179055505b604051339030907f2817372c62bc3cdb73b84b6412d5ce40c6e73c30ef5fac6558d0c4cb3da410b790600090a3565b61045a6107e6565b6104795760405160e560020a62461bcd028152600401610330906109f8565b336000908152600860205260408120805460ff1916600190811790915560098054919290916104b29084906001604060020a031661093e565b92506101000a8154816001604060020a0302191690836001604060020a0316021790555033600160a060020a031630600160a060020a03167fbbcca6f8778ffd7765644921c17ed2de4add7a9b4ca1a29614a6295edd4a2089600160405161051e911515815260200190565b60405180910390a3565b600154600160a060020a031633146105775760405160e560020a62461bcd02815260206004820152600c602482015260a160020a6b3737ba1030b71037bbb732b9026044820152606401610330565b6005805460ff1916600117905560405142815230907f6944894ba716aadf69fcd57834d5d2cc2e808f6a144c75d956068efa727e2a7e9060200160405180910390a2565b600380546105c890610a2f565b80601f01602080910402602001604051908101604052809291908181526020018280546105f490610a2f565b80156106415780601f1061061657610100808354040283529160200191610641565b820191906000526020600020905b81548152906001019060200180831161062457829003601f168201915b505050505081565b33610652610694565b600160a060020a03161461067b5760405160e560020a62461bcd02815260040161033090610a6e565b6106856000610823565b565b600280546105c890610a2f565b600054600160a060020a031690565b6106ab6107e6565b6106ca5760405160e560020a62461bcd028152600401610330906109f8565b336000908152600660205260408120805460ff1916600190811790915560078054919290916104b29084906001604060020a031661093e565b3361070c610694565b600160a060020a0316146107355760405160e560020a62461bcd02815260040161033090610a6e565b600160a060020a0381166107a05760405160e560020a62461bcd02815260206004820152602660248201527f4f776e61626c653a206e6577206f776e657220697320746865207a65726f2061604482015260d060020a65646472657373026064820152608401610330565b6107a981610823565b50565b3360009081526006602052604081205460ff161515600114806102d85750503360009081526008602052604090205460ff16151560011490565b3360009081526006602052604081205460ff1615156001148015906102d85750503360009081526008602052604090205460ff1615156001141590565b60008054600160a060020a03838116600160a060020a0319831681178455604051919092169283917f8be0079c531659141344cd1fd0a4f28419497f9722a3daafe3b4186f6b6457e09190a35050565b600060208083528351808285015260005b818110156108a057858101830151858201604001528201610884565b818111156108b2576000604083870101525b50601f01601f1916929092016040019392505050565b6000602082840312156108da57600080fd5b8135600160a060020a03811681146108f157600080fd5b9392505050565b602081016002831061091e5760e060020a634e487b710260009081526021600452602490fd5b91905290565b60e060020a634e487b710260009081526011600452602490fd5b60006001604060020a0382811684821680830382111561096057610960610924565b01949350505050565b60006001604060020a038281168482168115158284048211161561098f5761098f610924565b02949350505050565b60006001604060020a03838116806109c45760e060020a634e487b710260009081526012600452602490fd5b92169190910492915050565b60006001604060020a03838116908316818110156109f0576109f0610924565b039392505050565b6020808252601d908201527f74686520616464726573732068617320766f74656420616c7265616479000000604082015260600190565b600281046001821680610a4357607f821691505b60208210811415610a685760e060020a634e487b710260009081526022600452602490fd5b50919050565b6020808252818101527f4f776e61626c653a2063616c6c6572206973206e6f7420746865206f776e657260408201526060019056fea264697066735822122084aad59b03e31fe4beb83f19a422962082751b7cb61ea51271b43f55f357829464736f6c63430008090033",
  "immutableReferences": {},
  "source": "// SPDX-License-Identifier: MIT\npragma solidity >=0.4.0;\n\nimport \"./Proposal.sol\";\n\ncontract TransferProposal is Proposal {\n  address public recipient; // The address where the `amount` will go to if the proposal is accepted\n  uint256 public amount; // The amount to transfer to `recipient` if the proposal is accepted.\n  ProposalType constant proposalType = ProposalType.TRANSFER;\n\n  constructor(\n    address _creator,\n    string memory _description,\n    string memory _title,\n    uint256 _debatingPeriod,\n    address _recipient,\n    uint256 _amount\n  ) Proposal(_creator, _description, _title, _debatingPeriod) {\n    recipient = _recipient;\n    amount = _amount;\n  }\n}\n",
  "sourcePath": "/Users/chungquantin/Desktop/Projects/DecentralizedOpenSource/smart-bay/contracts/features/dao/proposal/TransferProposal.sol",
  "compiler": {
    "name": "solc",
    "version": "0.8.9+commit.e5eed63a.Emscripten.clang"
  },
  "schemaVersion": "3.4.3",
  "updatedAt": "2021-11-16T03:48:32.079Z",
  "devdoc": {
    "kind": "dev",
    "methods": {
      "owner()": {
        "details": "Returns the address of the current owner."
      },
      "renounceOwnership()": {
        "details": "Leaves the contract without owner. It will not be possible to call `onlyOwner` functions anymore. Can only be called by the current owner. NOTE: Renouncing ownership will leave the contract without an owner, thereby removing any functionality that is only available to the owner."
      },
      "transferOwnership(address)": {
        "details": "Transfers ownership of the contract to a new account (`newOwner`). Can only be called by the current owner."
      }
    },
    "version": 1
  },
  "userdoc": {
    "kind": "user",
    "methods": {},
    "version": 1
  }
}