{
  "contractName": "TreasurePool",
  "abi": [
    {
      "inputs": [],
      "stateMutability": "nonpayable",
      "type": "constructor"
    },
    {
      "anonymous": false,
      "inputs": [
        {
          "indexed": false,
          "internalType": "address",
          "name": "owner",
          "type": "address"
        },
        {
          "indexed": false,
          "internalType": "uint256",
          "name": "lockedAmount",
          "type": "uint256"
        }
      ],
      "name": "NewPoolCreated",
      "type": "event"
    },
    {
      "anonymous": false,
      "inputs": [
        {
          "indexed": false,
          "internalType": "address",
          "name": "stakeholder",
          "type": "address"
        }
      ],
      "name": "NewStakeholder",
      "type": "event"
    },
    {
      "anonymous": false,
      "inputs": [
        {
          "indexed": false,
          "internalType": "address",
          "name": "stakeholder",
          "type": "address"
        }
      ],
      "name": "RemoveStakeholder",
      "type": "event"
    },
    {
      "anonymous": false,
      "inputs": [
        {
          "indexed": false,
          "internalType": "address",
          "name": "stakeholder",
          "type": "address"
        },
        {
          "indexed": false,
          "internalType": "uint256",
          "name": "amount",
          "type": "uint256"
        }
      ],
      "name": "Stake",
      "type": "event"
    },
    {
      "anonymous": false,
      "inputs": [
        {
          "indexed": false,
          "internalType": "address",
          "name": "stakeholder",
          "type": "address"
        },
        {
          "indexed": false,
          "internalType": "uint256",
          "name": "amount",
          "type": "uint256"
        }
      ],
      "name": "Unstake",
      "type": "event"
    },
    {
      "inputs": [],
      "name": "admin",
      "outputs": [
        {
          "internalType": "address",
          "name": "",
          "type": "address"
        }
      ],
      "stateMutability": "view",
      "type": "function"
    },
    {
      "inputs": [],
      "name": "daoAddress",
      "outputs": [
        {
          "internalType": "address",
          "name": "",
          "type": "address"
        }
      ],
      "stateMutability": "view",
      "type": "function"
    },
    {
      "inputs": [],
      "name": "limitNumberOfStakeholders",
      "outputs": [
        {
          "internalType": "uint64",
          "name": "",
          "type": "uint64"
        }
      ],
      "stateMutability": "view",
      "type": "function"
    },
    {
      "inputs": [
        {
          "internalType": "uint256",
          "name": "",
          "type": "uint256"
        }
      ],
      "name": "listOfStakeholders",
      "outputs": [
        {
          "internalType": "uint256",
          "name": "balance",
          "type": "uint256"
        },
        {
          "internalType": "address",
          "name": "contractAddress",
          "type": "address"
        },
        {
          "internalType": "uint256",
          "name": "claimedInterval",
          "type": "uint256"
        },
        {
          "internalType": "uint256",
          "name": "joinedAt",
          "type": "uint256"
        }
      ],
      "stateMutability": "view",
      "type": "function"
    },
    {
      "inputs": [],
      "name": "minimumStakedAmount",
      "outputs": [
        {
          "internalType": "uint64",
          "name": "",
          "type": "uint64"
        }
      ],
      "stateMutability": "view",
      "type": "function"
    },
    {
      "inputs": [],
      "name": "numberOfStakeholders",
      "outputs": [
        {
          "internalType": "uint64",
          "name": "",
          "type": "uint64"
        }
      ],
      "stateMutability": "view",
      "type": "function"
    },
    {
      "inputs": [
        {
          "internalType": "address",
          "name": "",
          "type": "address"
        }
      ],
      "name": "stakeholders",
      "outputs": [
        {
          "internalType": "uint256",
          "name": "balance",
          "type": "uint256"
        },
        {
          "internalType": "address",
          "name": "contractAddress",
          "type": "address"
        },
        {
          "internalType": "uint256",
          "name": "claimedInterval",
          "type": "uint256"
        },
        {
          "internalType": "uint256",
          "name": "joinedAt",
          "type": "uint256"
        }
      ],
      "stateMutability": "view",
      "type": "function"
    },
    {
      "inputs": [],
      "name": "totalNumberOfStakeholders",
      "outputs": [
        {
          "internalType": "uint64",
          "name": "",
          "type": "uint64"
        }
      ],
      "stateMutability": "view",
      "type": "function"
    },
    {
      "inputs": [],
      "name": "totalStakedAmount",
      "outputs": [
        {
          "internalType": "uint256",
          "name": "",
          "type": "uint256"
        }
      ],
      "stateMutability": "view",
      "type": "function"
    },
    {
      "inputs": [],
      "name": "createStakeholder",
      "outputs": [
        {
          "components": [
            {
              "internalType": "uint256",
              "name": "balance",
              "type": "uint256"
            },
            {
              "internalType": "address",
              "name": "contractAddress",
              "type": "address"
            },
            {
              "internalType": "uint256",
              "name": "claimedInterval",
              "type": "uint256"
            },
            {
              "internalType": "uint256",
              "name": "joinedAt",
              "type": "uint256"
            }
          ],
          "internalType": "struct TreasurePool.Stakeholder",
          "name": "",
          "type": "tuple"
        }
      ],
      "stateMutability": "nonpayable",
      "type": "function"
    },
    {
      "inputs": [],
      "name": "stake",
      "outputs": [],
      "stateMutability": "payable",
      "type": "function"
    },
    {
      "inputs": [],
      "name": "unstake",
      "outputs": [],
      "stateMutability": "payable",
      "type": "function"
    },
    {
      "inputs": [],
      "name": "claim",
      "outputs": [],
      "stateMutability": "payable",
      "type": "function"
    }
  ],
  "bytecode": "0x608060405262093a80600560106101000a81548167ffffffffffffffff021916908367ffffffffffffffff1602179055506203f480600560186101000a81548167ffffffffffffffff021916908367ffffffffffffffff16021790555034801561006857600080fd5b506100776100bc60201b60201c565b600260086101000a81548173ffffffffffffffffffffffffffffffffffffffff021916908373ffffffffffffffffffffffffffffffffffffffff1602179055506100c4565b600033905090565b6116d8806100d36000396000f3fe6080604052600436106100c25760003560e01c80634f9ca7091161007f578063b898e60111610059578063b898e601146101fc578063c07cfca914610227578063f851a44014610267578063f8d41b9614610292576100c2565b80634f9ca70914610166578063567e98f9146101a657806384780fd2146101d1576100c2565b80631e3ab983146100c75780632131c68c146100f257806328cd14941461011d5780632def6620146101485780633a4b66f1146101525780634e71d92d1461015c575b600080fd5b3480156100d357600080fd5b506100dc6102bd565b6040516100e99190611034565b60405180910390f35b3480156100fe57600080fd5b506101076102d7565b6040516101149190611090565b60405180910390f35b34801561012957600080fd5b506101326102fd565b60405161013f9190611034565b60405180910390f35b610150610317565b005b61015a61074d565b005b610164610907565b005b34801561017257600080fd5b5061018d600480360381019061018891906110e6565b610a6e565b60405161019d9493929190611122565b60405180910390f35b3480156101b257600080fd5b506101bb610ace565b6040516101c89190611167565b60405180910390f35b3480156101dd57600080fd5b506101e6610ad4565b6040516101f39190611034565b60405180910390f35b34801561020857600080fd5b50610211610aee565b60405161021e9190611034565b60405180910390f35b34801561023357600080fd5b5061024e600480360381019061024991906111ae565b610b08565b60405161025e9493929190611122565b60405180910390f35b34801561027357600080fd5b5061027c610b58565b6040516102899190611090565b60405180910390f35b34801561029e57600080fd5b506102a7610b7e565b6040516102b4919061124e565b60405180910390f35b600260009054906101000a900467ffffffffffffffff1681565b600360009054906101000a900473ffffffffffffffffffffffffffffffffffffffff1681565b600560009054906101000a900467ffffffffffffffff1681565b6000806000610324610fcb565b73ffffffffffffffffffffffffffffffffffffffff1673ffffffffffffffffffffffffffffffffffffffff16815260200190815260200160002060000154116103a2576040517f08c379a0000000000000000000000000000000000000000000000000000000008152600401610399906112c6565b60405180910390fd5b600560109054906101000a900467ffffffffffffffff1667ffffffffffffffff166000806103ce610fcb565b73ffffffffffffffffffffffffffffffffffffffff1673ffffffffffffffffffffffffffffffffffffffff168152602001908152602001600020600301546104169190611315565b4211610457576040517f08c379a000000000000000000000000000000000000000000000000000000000815260040161044e906113dd565b60405180910390fd5b600080610462610fcb565b73ffffffffffffffffffffffffffffffffffffffff1673ffffffffffffffffffffffffffffffffffffffff168152602001908152602001600020600001543411156104e2576040517f08c379a00000000000000000000000000000000000000000000000000000000081526004016104d990611449565b60405180910390fd5b6104ea610fcb565b73ffffffffffffffffffffffffffffffffffffffff166108fc349081150290604051600060405180830381858888f1935050505015801561052f573d6000803e3d6000fd5b503460008061053c610fcb565b73ffffffffffffffffffffffffffffffffffffffff1673ffffffffffffffffffffffffffffffffffffffff16815260200190815260200160002060000160008282546105889190611315565b92505081905550600080600061059c610fcb565b73ffffffffffffffffffffffffffffffffffffffff1673ffffffffffffffffffffffffffffffffffffffff1681526020019081526020016000206000015414156106f2576000806105eb610fcb565b73ffffffffffffffffffffffffffffffffffffffff1673ffffffffffffffffffffffffffffffffffffffff1681526020019081526020016000206000808201600090556001820160006101000a81549073ffffffffffffffffffffffffffffffffffffffff02191690556002820160009055600382016000905550506001600260008282829054906101000a900467ffffffffffffffff1661068d9190611469565b92506101000a81548167ffffffffffffffff021916908367ffffffffffffffff1602179055507f6f1eb9379ef97a9fc8efe5b92a387d1291f5c65d0929df551aea69371e05403c6106dc610fcb565b6040516106e99190611090565b60405180910390a15b3460046000828254610704919061149d565b925050819055507f85082129d87b2fe11527cb1b3b7a520aeb5aa6913f88a3d8757fe40d1db02fdd610734610fcb565b346040516107439291906114d1565b60405180910390a1565b60003411610790576040517f08c379a000000000000000000000000000000000000000000000000000000000815260040161078790611546565b60405180910390fd5b600660009054906101000a900467ffffffffffffffff1667ffffffffffffffff1634116107f2576040517f08c379a00000000000000000000000000000000000000000000000000000000081526004016107e990611546565b60405180910390fd5b60008060006107ff610fcb565b73ffffffffffffffffffffffffffffffffffffffff1673ffffffffffffffffffffffffffffffffffffffff16815260200190815260200160002060000154141561084d5761084b610b7e565b505b34600080610859610fcb565b73ffffffffffffffffffffffffffffffffffffffff1673ffffffffffffffffffffffffffffffffffffffff16815260200190815260200160002060000160008282546108a59190611315565b9250508190555034600460008282546108be9190611315565b925050819055507febedb8b3c678666e7f36970bc8f57abf6d8fa2e828c0da91ea5b75bf68ed101a6108ee610fcb565b346040516108fd9291906114d1565b60405180910390a1565b6000806000610914610fcb565b73ffffffffffffffffffffffffffffffffffffffff1673ffffffffffffffffffffffffffffffffffffffff1681526020019081526020016000206000015411610992576040517f08c379a0000000000000000000000000000000000000000000000000000000008152600401610989906112c6565b60405180910390fd5b60008061099d610fcb565b73ffffffffffffffffffffffffffffffffffffffff1673ffffffffffffffffffffffffffffffffffffffff168152602001908152602001600020600201544211610a1c576040517f08c379a0000000000000000000000000000000000000000000000000000000008152600401610a13906115b2565b60405180910390fd5b6203f480600080610a2b610fcb565b73ffffffffffffffffffffffffffffffffffffffff1673ffffffffffffffffffffffffffffffffffffffff16815260200190815260200160002060020181905550565b60018181548110610a7e57600080fd5b90600052602060002090600402016000915090508060000154908060010160009054906101000a900473ffffffffffffffffffffffffffffffffffffffff16908060020154908060030154905084565b60045481565b600560089054906101000a900467ffffffffffffffff1681565b600660009054906101000a900467ffffffffffffffff1681565b60006020528060005260406000206000915090508060000154908060010160009054906101000a900473ffffffffffffffffffffffffffffffffffffffff16908060020154908060030154905084565b600260089054906101000a900473ffffffffffffffffffffffffffffffffffffffff1681565b610b86610fd3565b600560009054906101000a900467ffffffffffffffff1667ffffffffffffffff16600260009054906101000a900467ffffffffffffffff1667ffffffffffffffff161115610c09576040517f08c379a0000000000000000000000000000000000000000000000000000000008152600401610c0090611644565b60405180910390fd5b604051806080016040528060008152602001610c23610fcb565b73ffffffffffffffffffffffffffffffffffffffff168152602001600560189054906101000a900467ffffffffffffffff1667ffffffffffffffff1642610c6a9190611315565b815260200142815250600080610c7e610fcb565b73ffffffffffffffffffffffffffffffffffffffff1673ffffffffffffffffffffffffffffffffffffffff1681526020019081526020016000206000820151816000015560208201518160010160006101000a81548173ffffffffffffffffffffffffffffffffffffffff021916908373ffffffffffffffffffffffffffffffffffffffff16021790555060408201518160020155606082015181600301559050506001600080610d2d610fcb565b73ffffffffffffffffffffffffffffffffffffffff1673ffffffffffffffffffffffffffffffffffffffff1681526020019081526020016000209080600181540180825580915050600190039060005260206000209060040201600090919091909150600082015481600001556001820160009054906101000a900473ffffffffffffffffffffffffffffffffffffffff168160010160006101000a81548173ffffffffffffffffffffffffffffffffffffffff021916908373ffffffffffffffffffffffffffffffffffffffff160217905550600282015481600201556003820154816003015550506001600260008282829054906101000a900467ffffffffffffffff16610e3d9190611664565b92506101000a81548167ffffffffffffffff021916908367ffffffffffffffff1602179055507f45353ebbf1c4a0468ba13a94bc212a3b8fc4b624385aa0e9c3fa07045d7d827d600080610e8f610fcb565b73ffffffffffffffffffffffffffffffffffffffff1673ffffffffffffffffffffffffffffffffffffffff16815260200190815260200160002060010160009054906101000a900473ffffffffffffffffffffffffffffffffffffffff16604051610efa9190611090565b60405180910390a1600080610f0d610fcb565b73ffffffffffffffffffffffffffffffffffffffff1673ffffffffffffffffffffffffffffffffffffffff168152602001908152602001600020604051806080016040529081600082015481526020016001820160009054906101000a900473ffffffffffffffffffffffffffffffffffffffff1673ffffffffffffffffffffffffffffffffffffffff1673ffffffffffffffffffffffffffffffffffffffff16815260200160028201548152602001600382015481525050905090565b600033905090565b604051806080016040528060008152602001600073ffffffffffffffffffffffffffffffffffffffff16815260200160008152602001600081525090565b600067ffffffffffffffff82169050919050565b61102e81611011565b82525050565b60006020820190506110496000830184611025565b92915050565b600073ffffffffffffffffffffffffffffffffffffffff82169050919050565b600061107a8261104f565b9050919050565b61108a8161106f565b82525050565b60006020820190506110a56000830184611081565b92915050565b600080fd5b6000819050919050565b6110c3816110b0565b81146110ce57600080fd5b50565b6000813590506110e0816110ba565b92915050565b6000602082840312156110fc576110fb6110ab565b5b600061110a848285016110d1565b91505092915050565b61111c816110b0565b82525050565b60006080820190506111376000830187611113565b6111446020830186611081565b6111516040830185611113565b61115e6060830184611113565b95945050505050565b600060208201905061117c6000830184611113565b92915050565b61118b8161106f565b811461119657600080fd5b50565b6000813590506111a881611182565b92915050565b6000602082840312156111c4576111c36110ab565b5b60006111d284828501611199565b91505092915050565b6111e4816110b0565b82525050565b6111f38161106f565b82525050565b60808201600082015161120f60008501826111db565b50602082015161122260208501826111ea565b50604082015161123560408501826111db565b50606082015161124860608501826111db565b50505050565b600060808201905061126360008301846111f9565b92915050565b600082825260208201905092915050565b7f4e6f742061207374616b65686f6c646572000000000000000000000000000000600082015250565b60006112b0601183611269565b91506112bb8261127a565b602082019050919050565b600060208201905081810360008301526112df816112a3565b9050919050565b7f4e487b7100000000000000000000000000000000000000000000000000000000600052601160045260246000fd5b6000611320826110b0565b915061132b836110b0565b9250827fffffffffffffffffffffffffffffffffffffffffffffffffffffffffffffffff038211156113605761135f6112e6565b5b828201905092915050565b7f4d757374207374616b656420666f7220372064617973206265666f726520756e60008201527f7374616b696e6700000000000000000000000000000000000000000000000000602082015250565b60006113c7602783611269565b91506113d28261136b565b604082019050919050565b600060208201905081810360008301526113f6816113ba565b9050919050565b7f496e73756666696369656e74207374616b656420616d6f756e74000000000000600082015250565b6000611433601a83611269565b915061143e826113fd565b602082019050919050565b6000602082019050818103600083015261146281611426565b9050919050565b600061147482611011565b915061147f83611011565b925082821015611492576114916112e6565b5b828203905092915050565b60006114a8826110b0565b91506114b3836110b0565b9250828210156114c6576114c56112e6565b5b828203905092915050565b60006040820190506114e66000830185611081565b6114f36020830184611113565b9392505050565b7f696e76616c6964207374616b656420616d6f756e740000000000000000000000600082015250565b6000611530601583611269565b915061153b826114fa565b602082019050919050565b6000602082019050818103600083015261155f81611523565b9050919050565b7f546f6f206561726c790000000000000000000000000000000000000000000000600082015250565b600061159c600983611269565b91506115a782611566565b602082019050919050565b600060208201905081810360008301526115cb8161158f565b9050919050565b7f73757270617373206c696d6974206e756d626572206f66207374616b65686f6c60008201527f6465727300000000000000000000000000000000000000000000000000000000602082015250565b600061162e602483611269565b9150611639826115d2565b604082019050919050565b6000602082019050818103600083015261165d81611621565b9050919050565b600061166f82611011565b915061167a83611011565b92508267ffffffffffffffff03821115611697576116966112e6565b5b82820190509291505056fea264697066735822122015506c78eb365149558fc9d0b09b02debdc7ac77be85b211aed324f9960406cf64736f6c63430008090033",
  "immutableReferences": {},
  "source": "// SPDX-License-Identifier: MIT\npragma solidity >=0.4.0;\n\nimport \"@openzeppelin/contracts/utils/Context.sol\";\n\ncontract TreasurePool is Context {\n  struct Stakeholder {\n    uint256 balance;\n    address contractAddress;\n    uint256 claimedInterval;\n    uint256 joinedAt;\n  }\n  mapping(address => Stakeholder) public stakeholders;\n  Stakeholder[] public listOfStakeholders;\n  uint64 public numberOfStakeholders;\n  address public admin;\n  address public daoAddress;\n  uint256 public totalStakedAmount;\n  uint64 public limitNumberOfStakeholders;\n  uint64 public totalNumberOfStakeholders;\n  uint64 private _lockedDuration = 7 days;\n  uint64 private _defaultClaimedInterval = 3 days;\n  uint64 public minimumStakedAmount;\n\n  event NewStakeholder(address stakeholder);\n  event RemoveStakeholder(address stakeholder);\n  event Stake(address stakeholder, uint256 amount);\n  event Unstake(address stakeholder, uint256 amount);\n  event NewPoolCreated(address owner, uint256 lockedAmount);\n\n  constructor() {\n    admin = _msgSender();\n  }\n\n  modifier isStakeholder() {\n    require(stakeholders[_msgSender()].balance > 0, \"Not a stakeholder\");\n    _;\n  }\n\n  function createStakeholder() public returns (Stakeholder memory) {\n    require(\n      numberOfStakeholders <= limitNumberOfStakeholders,\n      \"surpass limit number of stakeholders\"\n    );\n    stakeholders[_msgSender()] = Stakeholder(\n      0,\n      _msgSender(),\n      block.timestamp + _defaultClaimedInterval,\n      block.timestamp\n    );\n    listOfStakeholders.push(stakeholders[_msgSender()]);\n    numberOfStakeholders += 1;\n    emit NewStakeholder(stakeholders[_msgSender()].contractAddress);\n    return stakeholders[_msgSender()];\n  }\n\n  function stake() public payable {\n    require(msg.value > 0, \"invalid staked amount\");\n    require(msg.value > minimumStakedAmount, \"invalid staked amount\");\n\n    // Check if the stakeholder is added or not\n    if (stakeholders[_msgSender()].balance == 0) {\n      createStakeholder();\n    }\n    stakeholders[_msgSender()].balance += msg.value;\n    totalStakedAmount += msg.value;\n    emit Stake(_msgSender(), msg.value);\n  }\n\n  function unstake() public payable isStakeholder {\n    require(\n      block.timestamp > stakeholders[_msgSender()].joinedAt + _lockedDuration,\n      \"Must staked for 7 days before unstaking\"\n    );\n    require(\n      msg.value <= stakeholders[_msgSender()].balance,\n      \"Insufficient staked amount\"\n    );\n    payable(_msgSender()).transfer(msg.value);\n    stakeholders[_msgSender()].balance += msg.value;\n    if (stakeholders[_msgSender()].balance == 0) {\n      delete stakeholders[_msgSender()];\n      numberOfStakeholders -= 1;\n      emit RemoveStakeholder(_msgSender());\n    }\n    totalStakedAmount -= msg.value;\n    emit Unstake(_msgSender(), msg.value);\n  }\n\n  function claim() public payable isStakeholder {\n    require(\n      block.timestamp > stakeholders[_msgSender()].claimedInterval,\n      \"Too early\"\n    );\n    stakeholders[_msgSender()].claimedInterval = 3 days;\n    // TODO Handle interest rate and claimable tokens\n  }\n\n  // function listOfStakeholders()\n  //   public\n  //   view\n  //   virtual\n  //   returns (Stakeholder[] memory)\n  // {\n  //   return _listOfStakeholders;\n  // }\n}\n",
  "sourcePath": "/Users/chungquantin/Desktop/Projects/DecentralizedOpenSource/smart-bay/contracts/features/dao/TreasurePool.sol",
  "compiler": {
    "name": "solc",
    "version": "0.8.9+commit.e5eed63a.Emscripten.clang"
  },
  "schemaVersion": "3.4.3",
  "updatedAt": "2021-11-15T09:25:49.389Z",
  "devdoc": {
    "kind": "dev",
    "methods": {},
    "version": 1
  },
  "userdoc": {
    "kind": "user",
    "methods": {},
    "version": 1
  }
}