{
  "contractName": "TreasurePool",
  "abi": [
    {
      "inputs": [],
      "stateMutability": "nonpayable",
      "type": "constructor"
    },
    {
      "anonymous": false,
      "inputs": [
        {
          "indexed": false,
          "internalType": "address",
          "name": "owner",
          "type": "address"
        },
        {
          "indexed": false,
          "internalType": "uint256",
          "name": "lockedAmount",
          "type": "uint256"
        }
      ],
      "name": "NewPoolCreated",
      "type": "event"
    },
    {
      "anonymous": false,
      "inputs": [
        {
          "indexed": false,
          "internalType": "address",
          "name": "stakeholder",
          "type": "address"
        }
      ],
      "name": "NewStakeholder",
      "type": "event"
    },
    {
      "anonymous": false,
      "inputs": [
        {
          "indexed": false,
          "internalType": "address",
          "name": "stakeholder",
          "type": "address"
        }
      ],
      "name": "RemoveStakeholder",
      "type": "event"
    },
    {
      "anonymous": false,
      "inputs": [
        {
          "indexed": false,
          "internalType": "address",
          "name": "stakeholder",
          "type": "address"
        },
        {
          "indexed": false,
          "internalType": "uint256",
          "name": "amount",
          "type": "uint256"
        }
      ],
      "name": "Stake",
      "type": "event"
    },
    {
      "anonymous": false,
      "inputs": [
        {
          "indexed": false,
          "internalType": "address",
          "name": "stakeholder",
          "type": "address"
        },
        {
          "indexed": false,
          "internalType": "uint256",
          "name": "amount",
          "type": "uint256"
        }
      ],
      "name": "Unstake",
      "type": "event"
    },
    {
      "inputs": [],
      "name": "admin",
      "outputs": [
        {
          "internalType": "address",
          "name": "",
          "type": "address"
        }
      ],
      "stateMutability": "view",
      "type": "function"
    },
    {
      "inputs": [],
      "name": "daoAddress",
      "outputs": [
        {
          "internalType": "address",
          "name": "",
          "type": "address"
        }
      ],
      "stateMutability": "view",
      "type": "function"
    },
    {
      "inputs": [],
      "name": "limitNumberOfStakeholders",
      "outputs": [
        {
          "internalType": "uint64",
          "name": "",
          "type": "uint64"
        }
      ],
      "stateMutability": "view",
      "type": "function"
    },
    {
      "inputs": [],
      "name": "minimumStakedAmount",
      "outputs": [
        {
          "internalType": "uint64",
          "name": "",
          "type": "uint64"
        }
      ],
      "stateMutability": "view",
      "type": "function"
    },
    {
      "inputs": [],
      "name": "numberOfStakeholders",
      "outputs": [
        {
          "internalType": "uint64",
          "name": "",
          "type": "uint64"
        }
      ],
      "stateMutability": "view",
      "type": "function"
    },
    {
      "inputs": [
        {
          "internalType": "address",
          "name": "",
          "type": "address"
        }
      ],
      "name": "stakeholders",
      "outputs": [
        {
          "internalType": "uint256",
          "name": "balance",
          "type": "uint256"
        },
        {
          "internalType": "address",
          "name": "contractAddress",
          "type": "address"
        },
        {
          "internalType": "uint256",
          "name": "claimedInterval",
          "type": "uint256"
        },
        {
          "internalType": "uint256",
          "name": "joinedAt",
          "type": "uint256"
        }
      ],
      "stateMutability": "view",
      "type": "function"
    },
    {
      "inputs": [],
      "name": "totalNumberOfStakeholders",
      "outputs": [
        {
          "internalType": "uint64",
          "name": "",
          "type": "uint64"
        }
      ],
      "stateMutability": "view",
      "type": "function"
    },
    {
      "inputs": [],
      "name": "totalStakedAmount",
      "outputs": [
        {
          "internalType": "uint256",
          "name": "",
          "type": "uint256"
        }
      ],
      "stateMutability": "view",
      "type": "function"
    },
    {
      "inputs": [],
      "name": "createStakeholder",
      "outputs": [
        {
          "components": [
            {
              "internalType": "uint256",
              "name": "balance",
              "type": "uint256"
            },
            {
              "internalType": "address",
              "name": "contractAddress",
              "type": "address"
            },
            {
              "internalType": "uint256",
              "name": "claimedInterval",
              "type": "uint256"
            },
            {
              "internalType": "uint256",
              "name": "joinedAt",
              "type": "uint256"
            }
          ],
          "internalType": "struct TreasurePool.Stakeholder",
          "name": "",
          "type": "tuple"
        }
      ],
      "stateMutability": "nonpayable",
      "type": "function"
    },
    {
      "inputs": [],
      "name": "stake",
      "outputs": [],
      "stateMutability": "payable",
      "type": "function"
    },
    {
      "inputs": [],
      "name": "unstake",
      "outputs": [],
      "stateMutability": "payable",
      "type": "function"
    },
    {
      "inputs": [],
      "name": "claim",
      "outputs": [],
      "stateMutability": "payable",
      "type": "function"
    }
  ],
  "bytecode": "0x608060405262093a80600460106101000a81548167ffffffffffffffff021916908367ffffffffffffffff1602179055506203f480600460186101000a81548167ffffffffffffffff021916908367ffffffffffffffff16021790555034801561006857600080fd5b506100776100bc60201b60201c565b600160086101000a81548173ffffffffffffffffffffffffffffffffffffffff021916908373ffffffffffffffffffffffffffffffffffffffff1602179055506100c4565b600033905090565b6114cb806100d36000396000f3fe6080604052600436106100a75760003560e01c8063567e98f911610064578063567e98f91461014b57806384780fd214610176578063b898e601146101a1578063c07cfca9146101cc578063f851a4401461020c578063f8d41b9614610237576100a7565b80631e3ab983146100ac5780632131c68c146100d757806328cd1494146101025780632def66201461012d5780633a4b66f1146101375780634e71d92d14610141575b600080fd5b3480156100b857600080fd5b506100c1610262565b6040516100ce9190610e80565b60405180910390f35b3480156100e357600080fd5b506100ec61027c565b6040516100f99190610edc565b60405180910390f35b34801561010e57600080fd5b506101176102a2565b6040516101249190610e80565b60405180910390f35b6101356102bc565b005b61013f6106f1565b005b6101496108ab565b005b34801561015757600080fd5b50610160610a12565b60405161016d9190610f10565b60405180910390f35b34801561018257600080fd5b5061018b610a18565b6040516101989190610e80565b60405180910390f35b3480156101ad57600080fd5b506101b6610a32565b6040516101c39190610e80565b60405180910390f35b3480156101d857600080fd5b506101f360048036038101906101ee9190610f5c565b610a4c565b6040516102039493929190610f89565b60405180910390f35b34801561021857600080fd5b50610221610a9c565b60405161022e9190610edc565b60405180910390f35b34801561024357600080fd5b5061024c610ac2565b6040516102599190611041565b60405180910390f35b600160009054906101000a900467ffffffffffffffff1681565b600260009054906101000a900473ffffffffffffffffffffffffffffffffffffffff1681565b600460009054906101000a900467ffffffffffffffff1681565b60008060006102c9610e17565b73ffffffffffffffffffffffffffffffffffffffff1673ffffffffffffffffffffffffffffffffffffffff1681526020019081526020016000206000015411610347576040517f08c379a000000000000000000000000000000000000000000000000000000000815260040161033e906110b9565b60405180910390fd5b600460109054906101000a900467ffffffffffffffff1667ffffffffffffffff16600080610373610e17565b73ffffffffffffffffffffffffffffffffffffffff1673ffffffffffffffffffffffffffffffffffffffff168152602001908152602001600020600301546103bb9190611108565b42116103fc576040517f08c379a00000000000000000000000000000000000000000000000000000000081526004016103f3906111d0565b60405180910390fd5b600080610407610e17565b73ffffffffffffffffffffffffffffffffffffffff1673ffffffffffffffffffffffffffffffffffffffff16815260200190815260200160002060000154341115610487576040517f08c379a000000000000000000000000000000000000000000000000000000000815260040161047e9061123c565b60405180910390fd5b61048f610e17565b73ffffffffffffffffffffffffffffffffffffffff166108fc349081150290604051600060405180830381858888f193505050501580156104d4573d6000803e3d6000fd5b50346000806104e1610e17565b73ffffffffffffffffffffffffffffffffffffffff1673ffffffffffffffffffffffffffffffffffffffff168152602001908152602001600020600001600082825461052d9190611108565b925050819055506000806000610541610e17565b73ffffffffffffffffffffffffffffffffffffffff1673ffffffffffffffffffffffffffffffffffffffff16815260200190815260200160002060000154141561069657600080610590610e17565b73ffffffffffffffffffffffffffffffffffffffff1673ffffffffffffffffffffffffffffffffffffffff1681526020019081526020016000206000808201600090556001820160006101000a81549073ffffffffffffffffffffffffffffffffffffffff021916905560028201600090556003820160009055505060018060008282829054906101000a900467ffffffffffffffff16610631919061125c565b92506101000a81548167ffffffffffffffff021916908367ffffffffffffffff1602179055507f6f1eb9379ef97a9fc8efe5b92a387d1291f5c65d0929df551aea69371e05403c610680610e17565b60405161068d9190610edc565b60405180910390a15b34600360008282546106a89190611290565b925050819055507f85082129d87b2fe11527cb1b3b7a520aeb5aa6913f88a3d8757fe40d1db02fdd6106d8610e17565b346040516106e79291906112c4565b60405180910390a1565b60003411610734576040517f08c379a000000000000000000000000000000000000000000000000000000000815260040161072b90611339565b60405180910390fd5b600560009054906101000a900467ffffffffffffffff1667ffffffffffffffff163411610796576040517f08c379a000000000000000000000000000000000000000000000000000000000815260040161078d90611339565b60405180910390fd5b60008060006107a3610e17565b73ffffffffffffffffffffffffffffffffffffffff1673ffffffffffffffffffffffffffffffffffffffff1681526020019081526020016000206000015414156107f1576107ef610ac2565b505b346000806107fd610e17565b73ffffffffffffffffffffffffffffffffffffffff1673ffffffffffffffffffffffffffffffffffffffff16815260200190815260200160002060000160008282546108499190611108565b9250508190555034600360008282546108629190611108565b925050819055507febedb8b3c678666e7f36970bc8f57abf6d8fa2e828c0da91ea5b75bf68ed101a610892610e17565b346040516108a19291906112c4565b60405180910390a1565b60008060006108b8610e17565b73ffffffffffffffffffffffffffffffffffffffff1673ffffffffffffffffffffffffffffffffffffffff1681526020019081526020016000206000015411610936576040517f08c379a000000000000000000000000000000000000000000000000000000000815260040161092d906110b9565b60405180910390fd5b600080610941610e17565b73ffffffffffffffffffffffffffffffffffffffff1673ffffffffffffffffffffffffffffffffffffffff1681526020019081526020016000206002015442116109c0576040517f08c379a00000000000000000000000000000000000000000000000000000000081526004016109b7906113a5565b60405180910390fd5b6203f4806000806109cf610e17565b73ffffffffffffffffffffffffffffffffffffffff1673ffffffffffffffffffffffffffffffffffffffff16815260200190815260200160002060020181905550565b60035481565b600460089054906101000a900467ffffffffffffffff1681565b600560009054906101000a900467ffffffffffffffff1681565b60006020528060005260406000206000915090508060000154908060010160009054906101000a900473ffffffffffffffffffffffffffffffffffffffff16908060020154908060030154905084565b600160089054906101000a900473ffffffffffffffffffffffffffffffffffffffff1681565b610aca610e1f565b600460009054906101000a900467ffffffffffffffff1667ffffffffffffffff16600160009054906101000a900467ffffffffffffffff1667ffffffffffffffff161115610b4d576040517f08c379a0000000000000000000000000000000000000000000000000000000008152600401610b4490611437565b60405180910390fd5b604051806080016040528060008152602001610b67610e17565b73ffffffffffffffffffffffffffffffffffffffff168152602001600460189054906101000a900467ffffffffffffffff1667ffffffffffffffff1642610bae9190611108565b815260200142815250600080610bc2610e17565b73ffffffffffffffffffffffffffffffffffffffff1673ffffffffffffffffffffffffffffffffffffffff1681526020019081526020016000206000820151816000015560208201518160010160006101000a81548173ffffffffffffffffffffffffffffffffffffffff021916908373ffffffffffffffffffffffffffffffffffffffff160217905550604082015181600201556060820151816003015590505060018060008282829054906101000a900467ffffffffffffffff16610c899190611457565b92506101000a81548167ffffffffffffffff021916908367ffffffffffffffff1602179055507f45353ebbf1c4a0468ba13a94bc212a3b8fc4b624385aa0e9c3fa07045d7d827d600080610cdb610e17565b73ffffffffffffffffffffffffffffffffffffffff1673ffffffffffffffffffffffffffffffffffffffff16815260200190815260200160002060010160009054906101000a900473ffffffffffffffffffffffffffffffffffffffff16604051610d469190610edc565b60405180910390a1600080610d59610e17565b73ffffffffffffffffffffffffffffffffffffffff1673ffffffffffffffffffffffffffffffffffffffff168152602001908152602001600020604051806080016040529081600082015481526020016001820160009054906101000a900473ffffffffffffffffffffffffffffffffffffffff1673ffffffffffffffffffffffffffffffffffffffff1673ffffffffffffffffffffffffffffffffffffffff16815260200160028201548152602001600382015481525050905090565b600033905090565b604051806080016040528060008152602001600073ffffffffffffffffffffffffffffffffffffffff16815260200160008152602001600081525090565b600067ffffffffffffffff82169050919050565b610e7a81610e5d565b82525050565b6000602082019050610e956000830184610e71565b92915050565b600073ffffffffffffffffffffffffffffffffffffffff82169050919050565b6000610ec682610e9b565b9050919050565b610ed681610ebb565b82525050565b6000602082019050610ef16000830184610ecd565b92915050565b6000819050919050565b610f0a81610ef7565b82525050565b6000602082019050610f256000830184610f01565b92915050565b600080fd5b610f3981610ebb565b8114610f4457600080fd5b50565b600081359050610f5681610f30565b92915050565b600060208284031215610f7257610f71610f2b565b5b6000610f8084828501610f47565b91505092915050565b6000608082019050610f9e6000830187610f01565b610fab6020830186610ecd565b610fb86040830185610f01565b610fc56060830184610f01565b95945050505050565b610fd781610ef7565b82525050565b610fe681610ebb565b82525050565b6080820160008201516110026000850182610fce565b5060208201516110156020850182610fdd565b5060408201516110286040850182610fce565b50606082015161103b6060850182610fce565b50505050565b60006080820190506110566000830184610fec565b92915050565b600082825260208201905092915050565b7f4e6f742061207374616b65686f6c646572000000000000000000000000000000600082015250565b60006110a360118361105c565b91506110ae8261106d565b602082019050919050565b600060208201905081810360008301526110d281611096565b9050919050565b7f4e487b7100000000000000000000000000000000000000000000000000000000600052601160045260246000fd5b600061111382610ef7565b915061111e83610ef7565b9250827fffffffffffffffffffffffffffffffffffffffffffffffffffffffffffffffff03821115611153576111526110d9565b5b828201905092915050565b7f4d757374207374616b656420666f7220372064617973206265666f726520756e60008201527f7374616b696e6700000000000000000000000000000000000000000000000000602082015250565b60006111ba60278361105c565b91506111c58261115e565b604082019050919050565b600060208201905081810360008301526111e9816111ad565b9050919050565b7f496e73756666696369656e74207374616b656420616d6f756e74000000000000600082015250565b6000611226601a8361105c565b9150611231826111f0565b602082019050919050565b6000602082019050818103600083015261125581611219565b9050919050565b600061126782610e5d565b915061127283610e5d565b925082821015611285576112846110d9565b5b828203905092915050565b600061129b82610ef7565b91506112a683610ef7565b9250828210156112b9576112b86110d9565b5b828203905092915050565b60006040820190506112d96000830185610ecd565b6112e66020830184610f01565b9392505050565b7f696e76616c6964207374616b656420616d6f756e740000000000000000000000600082015250565b600061132360158361105c565b915061132e826112ed565b602082019050919050565b6000602082019050818103600083015261135281611316565b9050919050565b7f546f6f206561726c790000000000000000000000000000000000000000000000600082015250565b600061138f60098361105c565b915061139a82611359565b602082019050919050565b600060208201905081810360008301526113be81611382565b9050919050565b7f73757270617373206c696d6974206e756d626572206f66207374616b65686f6c60008201527f6465727300000000000000000000000000000000000000000000000000000000602082015250565b600061142160248361105c565b915061142c826113c5565b604082019050919050565b6000602082019050818103600083015261145081611414565b9050919050565b600061146282610e5d565b915061146d83610e5d565b92508267ffffffffffffffff0382111561148a576114896110d9565b5b82820190509291505056fea2646970667358221220c20fddc490aa5363f234ce54cdad2cc17bab451cf6368b8f2af2550ba0dde72b64736f6c63430008090033",
  "immutableReferences": {},
  "source": "// SPDX-License-Identifier: MIT\npragma solidity >=0.4.0;\n\nimport \"@openzeppelin/contracts/utils/Context.sol\";\n\ncontract TreasurePool is Context {\n  struct Stakeholder {\n    uint256 balance;\n    address contractAddress;\n    uint256 claimedInterval;\n    uint256 joinedAt;\n  }\n  mapping(address => Stakeholder) public stakeholders;\n  uint64 public numberOfStakeholders;\n  address public admin;\n  address public daoAddress;\n  uint256 public totalStakedAmount;\n  uint64 public limitNumberOfStakeholders;\n  uint64 public totalNumberOfStakeholders;\n  uint64 private _lockedDuration = 7 days;\n  uint64 private _defaultClaimedInterval = 3 days;\n  uint64 public minimumStakedAmount;\n\n  event NewStakeholder(address stakeholder);\n  event RemoveStakeholder(address stakeholder);\n  event Stake(address stakeholder, uint256 amount);\n  event Unstake(address stakeholder, uint256 amount);\n  event NewPoolCreated(address owner, uint256 lockedAmount);\n\n  constructor() {\n    admin = _msgSender();\n  }\n\n  modifier isStakeholder() {\n    require(stakeholders[_msgSender()].balance > 0, \"Not a stakeholder\");\n    _;\n  }\n\n  function createStakeholder() public returns (Stakeholder memory) {\n    require(\n      numberOfStakeholders <= limitNumberOfStakeholders,\n      \"surpass limit number of stakeholders\"\n    );\n    stakeholders[_msgSender()] = Stakeholder(\n      0,\n      _msgSender(),\n      block.timestamp + _defaultClaimedInterval,\n      block.timestamp\n    );\n    numberOfStakeholders += 1;\n    emit NewStakeholder(stakeholders[_msgSender()].contractAddress);\n    return stakeholders[_msgSender()];\n  }\n\n  function stake() public payable {\n    require(msg.value > 0, \"invalid staked amount\");\n    require(msg.value > minimumStakedAmount, \"invalid staked amount\");\n\n    // Check if the stakeholder is added or not\n    if (stakeholders[_msgSender()].balance == 0) {\n      createStakeholder();\n    }\n    stakeholders[_msgSender()].balance += msg.value;\n    totalStakedAmount += msg.value;\n    emit Stake(_msgSender(), msg.value);\n  }\n\n  function unstake() public payable isStakeholder {\n    require(\n      block.timestamp > stakeholders[_msgSender()].joinedAt + _lockedDuration,\n      \"Must staked for 7 days before unstaking\"\n    );\n    require(\n      msg.value <= stakeholders[_msgSender()].balance,\n      \"Insufficient staked amount\"\n    );\n    payable(_msgSender()).transfer(msg.value);\n    stakeholders[_msgSender()].balance += msg.value;\n    if (stakeholders[_msgSender()].balance == 0) {\n      delete stakeholders[_msgSender()];\n      numberOfStakeholders -= 1;\n      emit RemoveStakeholder(_msgSender());\n    }\n    totalStakedAmount -= msg.value;\n    emit Unstake(_msgSender(), msg.value);\n  }\n\n  function claim() public payable isStakeholder {\n    require(\n      block.timestamp > stakeholders[_msgSender()].claimedInterval,\n      \"Too early\"\n    );\n    stakeholders[_msgSender()].claimedInterval = 3 days;\n    // TODO Handle interest rate and claimable tokens\n  }\n}\n",
  "sourcePath": "/Users/chungquantin/Desktop/Projects/DecentralizedOpenSource/smart-bay/contracts/features/dao/TreasurePool.sol",
  "compiler": {
    "name": "solc",
    "version": "0.8.9+commit.e5eed63a.Emscripten.clang"
  },
  "schemaVersion": "3.4.3",
  "updatedAt": "2021-11-14T12:36:39.925Z",
  "devdoc": {
    "kind": "dev",
    "methods": {},
    "version": 1
  },
  "userdoc": {
    "kind": "user",
    "methods": {},
    "version": 1
  }
}