{
  "contractName": "TreasureBayFactory",
  "abi": [
    {
      "anonymous": false,
      "inputs": [
        {
          "indexed": true,
          "internalType": "string",
          "name": "name",
          "type": "string"
        },
        {
          "indexed": true,
          "internalType": "address",
          "name": "creator",
          "type": "address"
        },
        {
          "indexed": true,
          "internalType": "address",
          "name": "bayAddress",
          "type": "address"
        }
      ],
      "name": "NewBayCreated",
      "type": "event"
    },
    {
      "inputs": [
        {
          "internalType": "string",
          "name": "name_",
          "type": "string"
        },
        {
          "internalType": "uint64",
          "name": "limitNumberOfMembers_",
          "type": "uint64"
        },
        {
          "internalType": "uint64",
          "name": "limitNumberOfTreasureHunters_",
          "type": "uint64"
        }
      ],
      "name": "createNewBay",
      "outputs": [
        {
          "internalType": "bool",
          "name": "",
          "type": "bool"
        }
      ],
      "stateMutability": "nonpayable",
      "type": "function"
    },
    {
      "inputs": [],
      "name": "getAllBays",
      "outputs": [
        {
          "internalType": "contract ITreasureBay[]",
          "name": "",
          "type": "address[]"
        }
      ],
      "stateMutability": "view",
      "type": "function",
      "constant": true
    },
    {
      "inputs": [
        {
          "internalType": "address",
          "name": "bayAddress",
          "type": "address"
        }
      ],
      "name": "getBay",
      "outputs": [
        {
          "internalType": "contract ITreasureBay",
          "name": "",
          "type": "address"
        }
      ],
      "stateMutability": "view",
      "type": "function",
      "constant": true
    }
  ],
  "bytecode": "0x608060405234801561001057600080fd5b50613143806100206000396000f3fe608060405234801561001057600080fd5b50600436106100445760e060020a60003504630579e25b811461004957806349c26440146100715780639a41e3ef14610086575b600080fd5b61005c61005736600461026a565b6100ca565b60405190151581526020015b60405180910390f35b6100796101c4565b604051610068919061033b565b6100b2610094366004610388565b600160a060020a039081166000908152600160205260409020541690565b604051600160a060020a039091168152602001610068565b6000808484846040516100dc90610226565b6100e8939291906103e8565b604051809103906000f080158015610104573d6000803e3d6000fd5b5060008054600181810183557f290decd9548b62a8d60345a988386fc84ba6bc95484008f6362f93160ef3e5639091018054600160a060020a038516600160a060020a0319918216811790925581845260209290925260409092208054909116821790559091506101723390565b600160a060020a0316866040516101899190610433565b604051908190038120907f31e76f752b66dd3322b05ee2c750c9cdd43aa32797450f4e05f8f0f6a62eb28e90600090a4506001949350505050565b6060600080548060200260200160405190810160405280929190818152602001828054801561021c57602002820191906000526020600020905b8154600160a060020a031681526001909101906020018083116101fe575b5050505050905090565b612cbe806200045083390190565b60e060020a634e487b710260009081526041600452602490fd5b80356001604060020a038116811461026557600080fd5b919050565b60008060006060848603121561027f57600080fd5b83356001604060020a038082111561029657600080fd5b818601915086601f8301126102aa57600080fd5b8135818111156102bc576102bc610234565b604051601f8201601f19908116603f011681019083821181831017156102e4576102e4610234565b816040528281528960208487010111156102fd57600080fd5b8260208601602083013760006020848301015280975050505050506103246020850161024e565b91506103326040850161024e565b90509250925092565b6020808252825182820181905260009190848201906040850190845b8181101561037c578351600160a060020a031683529284019291840191600101610357565b50909695505050505050565b60006020828403121561039a57600080fd5b8135600160a060020a03811681146103b157600080fd5b9392505050565b60005b838110156103d35781810151838201526020016103bb565b838111156103e2576000848401525b50505050565b60608152600084518060608401526104078160808501602089016103b8565b6001604060020a0394851660208401529290931660408201526080601f909201601f1916010192915050565b600082516104458184602087016103b8565b919091019291505056fe60806040819052600480546001608060020a03167a03f4800000000000093a8000000000000000000000000000000000179055600d805460ff1916905562002cbe388190039081908339810160408190526200005b91620002c5565b6200006e6401000000006200016c810204565b60028054600160a060020a03929092166801000000000000000002604060020a60e060020a0319909216919091179055620000c4620000b56401000000006200016c810204565b64010000000062000170810204565b6004805467ffffffffffffffff19166001604060020a0384811691909117909155600a805460a060020a60e060020a031916740100000000000000000000000000000000000000009284169290920291909117905582516200012e906009906020860190620001d3565b50620001426401000000006200016c810204565b600a8054600160a060020a031916600160a060020a0392909216919091179055506200041e915050565b3390565b60058054600160a060020a0383811668010000000000000000818102604060020a60e060020a031985161790945560405193909204169182907f8be0079c531659141344cd1fd0a4f28419497f9722a3daafe3b4186f6b6457e090600090a35050565b828054620001e190620003c8565b90600052602060002090601f01602090048101928262000205576000855562000250565b82601f106200022057805160ff191683800117855562000250565b8280016001018555821562000250579182015b828111156200025057825182559160200191906001019062000233565b506200025e92915062000262565b5090565b5b808211156200025e576000815560010162000263565b7f4e487b7100000000000000000000000000000000000000000000000000000000600052604160045260246000fd5b80516001604060020a0381168114620002c057600080fd5b919050565b600080600060608486031215620002db57600080fd5b83516001604060020a0380821115620002f357600080fd5b818601915086601f8301126200030857600080fd5b8151818111156200031d576200031d62000279565b604051601f8201601f19908116603f0116810190838211818310171562000348576200034862000279565b816040528281526020935089848487010111156200036557600080fd5b600091505b828210156200038957848201840151818301850152908301906200036a565b828211156200039b5760008484830101525b9650620003ad915050868201620002a8565b93505050620003bf60408501620002a8565b90509250925092565b600281046001821680620003dd57607f821691505b6020821081141562000418577f4e487b7100000000000000000000000000000000000000000000000000000000600052602260045260246000fd5b50919050565b612890806200042e6000396000f3fe6080604052600436106200014f5760e060020a600035046302d05d3f81146200015457806306fdde03146200018e5780631e3ab98314620001b5578063246d59af14620001f057806328cd149414620002445780632def662014620002665780633a4b66f114620002725780633b5b4f2c146200027c5780634653f1d114620002a15780634df6d6cc14620002c85780634e71d92d146200030d57806352d4aedc1462000317578063567e98f9146200034b5780635f9fed55146200036357806362c48ae714620003a0578063715018a614620003c75780637ddf5c0414620003df5780637f6f4e9c146200040657806384780fd2146200042d5780638da5cb5b1462000456578063b898e601146200046e578063c07cfca91462000490578063cd555bf1146200050a578063f2fde38b1462000533578063f851a4401462000558578063f8d41b961462000581575b600080fd5b3480156200016157600080fd5b50600a546200017690600160a060020a031681565b604051620001859190620013dc565b60405180910390f35b3480156200019b57600080fd5b50620001a6620005a8565b60405162000185919062001440565b348015620001c257600080fd5b50600254620001d7906001604060020a031681565b6040516001604060020a03909116815260200162000185565b348015620001fd57600080fd5b50620002346200020f36600462001479565b600c6020526000908152604090208054600190910154600160a060020a039091169082565b6040516200018592919062001497565b3480156200025157600080fd5b50600454620001d7906001604060020a031681565b620002706200063e565b005b62000270620008ec565b3480156200028957600080fd5b50620001766200029b366004620014b0565b620009cd565b348015620002ae57600080fd5b50620002b9620009f8565b604051620001859190620014f6565b348015620002d557600080fd5b50620002fc620002e736600462001479565b600e6020526000908152604090205460ff1681565b604051901515815260200162000185565b6200027062000a84565b3480156200032457600080fd5b506200033c62000336366004620015f6565b62000b26565b60405190815260200162000185565b3480156200035857600080fd5b506200033c60035481565b3480156200037057600080fd5b50620001766200038236600462001479565b600160a060020a039081166000908152600760205260409020541690565b348015620003ad57600080fd5b50620003b862000ba4565b604051620001859190620016ac565b348015620003d457600080fd5b506200027062000d9f565b348015620003ec57600080fd5b50620003f762000de4565b604051620001859190620016c2565b3480156200041357600080fd5b506200041e62000e48565b60405162000185919062001705565b3480156200043a57600080fd5b50600454620001d790604060020a90046001604060020a031681565b3480156200046357600080fd5b506200017662000eb6565b3480156200047b57600080fd5b50600554620001d7906001604060020a031681565b3480156200049d57600080fd5b50620004e1620004af36600462001479565b60016020819052600091825260409091208054918101546002820154600390920154600160a060020a03909116919084565b60408051948552600160a060020a03909316602085015291830152606082015260800162000185565b3480156200051757600080fd5b50600a54620001d79060a060020a90046001604060020a031681565b3480156200054057600080fd5b50620002706200055236600462001479565b62000ecc565b3480156200056557600080fd5b506002546200017690604060020a9004600160a060020a031681565b3480156200058e57600080fd5b506200059962000f7e565b60405162000185919062001756565b60098054620005b79062001766565b80601f0160208091040260200160405190810160405280929190818152602001828054620005e59062001766565b8015620006365780601f106200060a5761010080835404028352916020019162000636565b820191906000526020600020905b8154815290600101906020018083116200061857829003601f168201915b505050505081565b33600090815260016020526040902054620006795760405160e560020a62461bcd0281526004016200067090620017a7565b60405180910390fd5b60045433600090815260016020526040902060030154620006ab91608060020a90046001604060020a031690620017ef565b4211620007115760405160e560020a62461bcd02815260206004820152602760248201527f4d757374207374616b656420666f7220372064617973206265666f726520756e604482015260c860020a667374616b696e6702606482015260840162000670565b33600090815260016020526040902054341115620007755760405160e560020a62461bcd02815260206004820152601a60248201527f496e73756666696369656e74207374616b656420616d6f756e74000000000000604482015260640162000670565b60405133903480156108fc02916000818181858888f19350505050158015620007a2573d6000803e3d6000fd5b503360009081526001602052604081208054349290620007c4908490620017ef565b909155505033600090815260016020526040902054620008945733600090815260016020819052604082208281558082018054600160a060020a0319169055600280820184905560039091018390558054919290916200082f9084906001604060020a03166200180a565b92506101000a8154816001604060020a0302191690836001604060020a031602179055507f6f1eb9379ef97a9fc8efe5b92a387d1291f5c65d0929df551aea69371e05403c6200087c3390565b6040516200088b9190620013dc565b60405180910390a15b3460036000828254620008a8919062001835565b909155507f85082129d87b2fe11527cb1b3b7a520aeb5aa6913f88a3d8757fe40d1db02fdd9050335b34604051620008e292919062001497565b60405180910390a1565b60003411620009125760405160e560020a62461bcd02815260040162000670906200184f565b6005546001604060020a03163411620009425760405160e560020a62461bcd02815260040162000670906200184f565b3360009081526001602052604090205462000963576200096162000f7e565b505b336000908152600160205260408120805434929062000984908490620017ef565b9250508190555034600360008282546200099f9190620017ef565b909155507febedb8b3c678666e7f36970bc8f57abf6d8fa2e828c0da91ea5b75bf68ed101a905033620008d1565b60088181548110620009de57600080fd5b600091825260209091200154600160a060020a0316905081565b60606000805480602002602001604051908101604052809291908181526020016000905b8282101562000a7b576000848152602090819020604080516080810182526004860290920180548352600180820154600160a060020a031684860152600282015492840192909252600301546060830152908352909201910162000a1c565b50505050905090565b3360009081526001602052604090205462000ab65760405160e560020a62461bcd0281526004016200067090620017a7565b33600090815260016020526040902060020154421162000b0b5760405160e560020a62461bcd028152602060048201526009602482015260b860020a68546f6f206561726c7902604482015260640162000670565b3360009081526001602052604090206203f480600290910155565b3360009081526001602052604081205462000b825760405160e560020a62461bcd0281526020600482015260156024820152605960020a7436bab9ba10313290309039ba30b5b2b437b63232b902604482015260640162000670565b62000b9a8686866001604060020a0316868662001277565b9695505050505050565b6040805180820190915260008082526020820152600a54600b5460a060020a9091046001604060020a0316101562000c355760405160e560020a62461bcd02815260206004820152602760248201527f73757270617373206c696d6974206e756d626572206f66207472656173757265604482015260c860020a6648756e7465727302606482015260840162000670565b604051806040016040528062000c483390565b600160a060020a03908116825242602092830152336000908152600c83526040812084518154600160a060020a031990811691851691909117825594909301516001808501918255600b805491820181559283905293547f0175b7a638427703f0dbe7bb9bbf987a2551717b34e79f33b5b1008d1fa01db960029095029485018054909616931692909217909355547f0175b7a638427703f0dbe7bb9bbf987a2551717b34e79f33b5b1008d1fa01dba90910155546005101562000d1457600d805460ff191660011790555b336000908152600c6020526040908190205490517fef7dd88fd6e07a1960a539671612f14f6e19471ee795cade675fb83c942674159162000d6391600160a060020a0390911690429062001497565b60405180910390a150336000908152600c602090815260409182902082518084019093528054600160a060020a03168352600101549082015290565b3362000daa62000eb6565b600160a060020a03161462000dd65760405160e560020a62461bcd028152600401620006709062001881565b62000de2600062001370565b565b6060600680548060200260200160405190810160405280929190818152602001828054801562000e3e57602002820191906000526020600020905b8154600160a060020a0316815260019091019060200180831162000e1f575b5050505050905090565b6060600b805480602002602001604051908101604052809291908181526020016000905b8282101562000a7b57600084815260209081902060408051808201909152600285029091018054600160a060020a0316825260019081015482840152908352909201910162000e6c565b600554604060020a9004600160a060020a031690565b3362000ed762000eb6565b600160a060020a03161462000f035760405160e560020a62461bcd028152600401620006709062001881565b600160a060020a03811662000f705760405160e560020a62461bcd02815260206004820152602660248201527f4f776e61626c653a206e6577206f776e657220697320746865207a65726f2061604482015260d060020a6564647265737302606482015260840162000670565b62000f7b8162001370565b50565b62000fb36040518060800160405280600081526020016000600160a060020a0316815260200160008152602001600081525090565b6004546002546001604060020a0391821691161115620010285760405160e560020a62461bcd028152602060048201526024808201527f73757270617373206c696d6974206e756d626572206f66207374616b65686f6c604482015260e060020a636465727302606482015260840162000670565b604051806080016040528060008152602001620010423390565b600160a060020a03168152600454602090910190620010729060c060020a90046001604060020a031642620017ef565b8152426020918201523360009081526001808352604080832085518155938501518483018054600160a060020a0319908116600160a060020a03938416178255928701516002808801918255606090980151600388019081558654808701885587805297547f290decd9548b62a8d60345a988386fc84ba6bc95484008f6362f93160ef3e56360049099029889015591547f290decd9548b62a8d60345a988386fc84ba6bc95484008f6362f93160ef3e56488018054909516931692909217909255547f290decd9548b62a8d60345a988386fc84ba6bc95484008f6362f93160ef3e565850155547f290decd9548b62a8d60345a988386fc84ba6bc95484008f6362f93160ef3e5669093019290925582549192916200119d9084906001604060020a0316620018b6565b92506101000a8154816001604060020a0302191690836001604060020a031602179055507f45353ebbf1c4a0468ba13a94bc212a3b8fc4b624385aa0e9c3fa07045d7d827d60016000620011ee3390565b600160a060020a0390811682526020820192909252604090810160002060010154905162001221929190911690620013dc565b60405180910390a1503360009081526001602081815260409283902083516080810185528154815292810154600160a060020a031691830191909152600281015492820192909252600390910154606082015290565b6000803386888787876040516200128e90620013ce565b6200129f96959493929190620018e4565b604051809103906000f080158015620012bc573d6000803e3d6000fd5b5060068054600181019091557ff652222313e28459528d920b65115c16c04f3efc82aaedc97be59f3f377c0d3f018054600160a060020a038316600160a060020a031991821681179092556000828152600760205260409081902080549092169092179055519091507fa9a62b7c28d7da43010d6fdf373b4026f4156bc0402ee1b0bdf2acf13a741421906200135a9089903390889088906200193b565b60405180910390a1505060065495945050505050565b60058054600160a060020a03838116604060020a818102604060020a60e060020a031985161790945560405193909204169182907f8be0079c531659141344cd1fd0a4f28419497f9722a3daafe3b4186f6b6457e090600090a35050565b610ee7806200197483390190565b600160a060020a0391909116815260200190565b6000815180845260005b818110156200141857602081850181015186830182015201620013fa565b818111156200142b576000602083870101525b50601f01601f19169290920160200192915050565b602081526000620014556020830184620013f0565b9392505050565b8035600160a060020a03811681146200147457600080fd5b919050565b6000602082840312156200148c57600080fd5b62001455826200145c565b600160a060020a03929092168252602082015260400190565b600060208284031215620014c357600080fd5b5035919050565b80518252602080820151600160a060020a03169083015260408082015190830152606090810151910152565b6020808252825182820181905260009190848201906040850190845b818110156200153c5762001528838551620014ca565b928401926080929092019160010162001512565b50909695505050505050565b60e060020a634e487b710260009081526041600452602490fd5b600082601f8301126200157457600080fd5b81356001604060020a038082111562001591576200159162001548565b604051601f8301601f19908116603f01168101908282118183101715620015bc57620015bc62001548565b81604052838152866020858801011115620015d657600080fd5b836020870160208301376000602085830101528094505050505092915050565b600080600080600060a086880312156200160f57600080fd5b85356001604060020a03808211156200162757600080fd5b6200163589838a0162001562565b965060208801359150808211156200164c57600080fd5b6200165a89838a0162001562565b95506040880135915080821682146200167257600080fd5b50925062001683606087016200145c565b949793965091946080013592915050565b8051600160a060020a03168252602090810151910152565b60408101620016bc828462001694565b92915050565b6020808252825182820181905260009190848201906040850190845b818110156200153c578351600160a060020a031683529284019291840191600101620016de565b602080825282518282018190526000919060409081850190868401855b8281101562001749576200173884835162001694565b928401929085019060010162001722565b5091979650505050505050565b60808101620016bc8284620014ca565b6002810460018216806200177b57607f821691505b60208210811415620017a15760e060020a634e487b710260009081526022600452602490fd5b50919050565b6020808252601190820152607960020a702737ba10309039ba30b5b2b437b63232b902604082015260600190565b60e060020a634e487b710260009081526011600452602490fd5b60008219821115620018055762001805620017d5565b500190565b60006001604060020a03838116908316818110156200182d576200182d620017d5565b039392505050565b6000828210156200184a576200184a620017d5565b500390565b6020808252601590820152605a60020a741a5b9d985b1a59081cdd185ad95908185b5bdd5b9d02604082015260600190565b6020808252818101527f4f776e61626c653a2063616c6c6572206973206e6f7420746865206f776e6572604082015260600190565b60006001604060020a03828116848216808303821115620018db57620018db620017d5565b01949350505050565b6000600160a060020a03808916835260c060208401526200190960c0840189620013f0565b83810360408501526200191d8189620013f0565b60608501979097525093909316608082015260a00152509392505050565b608081526000620019506080830187620013f0565b600160a060020a039586166020840152939094166040820152606001529291505056fe60806040523480156200001157600080fd5b5060405162000ee738038062000ee7833981016040819052620000349162000307565b858585856200005e6200004f6401000000006200010a810204565b6401000000006200010e810204565b60018054600160a060020a031916600160a060020a03861617905582516200008e9060029060208601906200015e565b508151620000a49060039060208501906200015e565b5060045550506005805461ffff191690555060098054600160a060020a039390931668010000000000000000027fffffffff0000000000000000000000000000000000000000ffffffffffffffff90931692909217909155600a5550620003fe92505050565b3390565b60008054600160a060020a03838116600160a060020a0319831681178455604051919092169283917f8be0079c531659141344cd1fd0a4f28419497f9722a3daafe3b4186f6b6457e09190a35050565b8280546200016c90620003a8565b90600052602060002090601f016020900481019282620001905760008555620001db565b82601f10620001ab57805160ff1916838001178555620001db565b82800160010185558215620001db579182015b82811115620001db578251825591602001919060010190620001be565b50620001e9929150620001ed565b5090565b5b80821115620001e95760008155600101620001ee565b8051600160a060020a03811681146200021c57600080fd5b919050565b7f4e487b7100000000000000000000000000000000000000000000000000000000600052604160045260246000fd5b600082601f8301126200026257600080fd5b81516001604060020a03808211156200027f576200027f62000221565b604051601f8301601f19908116603f01168101908282118183101715620002aa57620002aa62000221565b81604052838152602092508683858801011115620002c757600080fd5b600091505b83821015620002eb5785820183015181830184015290820190620002cc565b83821115620002fd5760008385830101525b9695505050505050565b60008060008060008060c087890312156200032157600080fd5b6200032c8762000204565b955060208701516001604060020a03808211156200034957600080fd5b620003578a838b0162000250565b965060408901519150808211156200036e57600080fd5b506200037d89828a0162000250565b94505060608701519250620003956080880162000204565b915060a087015190509295509295509295565b600281046001821680620003bd57607f821691505b60208210811415620003f8577f4e487b7100000000000000000000000000000000000000000000000000000000600052602260045260246000fd5b50919050565b610ad9806200040e6000396000f3fe608060405234801561001057600080fd5b50600436106100ff5760e060020a600035046302d05d3f8114610104578063036ee850146101345780631626fe641461014b578063227326b11461016b578063240336741461018d5780633174b689146101a057806341c12a70146101aa57806343d726d6146101b25780634a79d50c146101ba5780635351a3c8146101cf578063655b737f146101f257806366d003ac14610215578063715018a61461022f5780637284e416146102375780638da5cb5b1461023f57806390cf581c14610247578063aa8c217c1461024f578063e2c3b12214610258578063f2fde38b1461026b578063fcfff16f1461027e575b600080fd5b60015461011790600160a060020a031681565b604051600160a060020a0390911681526020015b60405180910390f35b61013d60045481565b60405190815260200161012b565b610153610298565b6040516001604060020a03909116815260200161012b565b60055461017d90610100900460ff1681565b604051901515815260200161012b565b600754610153906001604060020a031681565b6101a86102dd565b005b6101a8610452565b6101a8610528565b6101c26105bb565b60405161012b9190610873565b61017d6101dd3660046108c8565b60086020526000908152604090205460ff1681565b61017d6102003660046108c8565b60066020526000908152604090205460ff1681565b60095461011790604060020a9004600160a060020a031681565b6101a8610649565b6101c2610687565b610117610694565b6101a86106a3565b61013d600a5481565b600954610153906001604060020a031681565b6101a86102793660046108c8565b610703565b60055461028b9060ff1681565b60405161012b91906108f8565b6009546007546000916102b7916001604060020a03918216911661093e565b6007546102ce906001604060020a03166064610969565b6102d89190610998565b905090565b6102e56107ac565b6103395760405160e560020a62461bcd02815260206004820152601c60248201527f746865206164647265737320646964206e6f7420766f7465207965740000000060448201526064015b60405180910390fd5b3360009081526006602052604090205460ff161515600114156103ae57336000908152600660205260408120805460ff1916905560078054600192906103899084906001604060020a03166109d0565b92506101000a8154816001604060020a0302191690836001604060020a031602179055505b3360009081526008602052604090205460ff1615156001141561042357336000908152600860205260408120805460ff1916905560098054600192906103fe9084906001604060020a03166109d0565b92506101000a8154816001604060020a0302191690836001604060020a031602179055505b604051339030907f2817372c62bc3cdb73b84b6412d5ce40c6e73c30ef5fac6558d0c4cb3da410b790600090a3565b61045a6107e6565b6104795760405160e560020a62461bcd028152600401610330906109f8565b336000908152600860205260408120805460ff1916600190811790915560098054919290916104b29084906001604060020a031661093e565b92506101000a8154816001604060020a0302191690836001604060020a0316021790555033600160a060020a031630600160a060020a03167fbbcca6f8778ffd7765644921c17ed2de4add7a9b4ca1a29614a6295edd4a2089600160405161051e911515815260200190565b60405180910390a3565b600154600160a060020a031633146105775760405160e560020a62461bcd02815260206004820152600c602482015260a160020a6b3737ba1030b71037bbb732b9026044820152606401610330565b6005805460ff1916600117905560405142815230907f6944894ba716aadf69fcd57834d5d2cc2e808f6a144c75d956068efa727e2a7e9060200160405180910390a2565b600380546105c890610a2f565b80601f01602080910402602001604051908101604052809291908181526020018280546105f490610a2f565b80156106415780601f1061061657610100808354040283529160200191610641565b820191906000526020600020905b81548152906001019060200180831161062457829003601f168201915b505050505081565b33610652610694565b600160a060020a03161461067b5760405160e560020a62461bcd02815260040161033090610a6e565b6106856000610823565b565b600280546105c890610a2f565b600054600160a060020a031690565b6106ab6107e6565b6106ca5760405160e560020a62461bcd028152600401610330906109f8565b336000908152600660205260408120805460ff1916600190811790915560078054919290916104b29084906001604060020a031661093e565b3361070c610694565b600160a060020a0316146107355760405160e560020a62461bcd02815260040161033090610a6e565b600160a060020a0381166107a05760405160e560020a62461bcd02815260206004820152602660248201527f4f776e61626c653a206e6577206f776e657220697320746865207a65726f2061604482015260d060020a65646472657373026064820152608401610330565b6107a981610823565b50565b3360009081526006602052604081205460ff161515600114806102d85750503360009081526008602052604090205460ff16151560011490565b3360009081526006602052604081205460ff1615156001148015906102d85750503360009081526008602052604090205460ff1615156001141590565b60008054600160a060020a03838116600160a060020a0319831681178455604051919092169283917f8be0079c531659141344cd1fd0a4f28419497f9722a3daafe3b4186f6b6457e09190a35050565b600060208083528351808285015260005b818110156108a057858101830151858201604001528201610884565b818111156108b2576000604083870101525b50601f01601f1916929092016040019392505050565b6000602082840312156108da57600080fd5b8135600160a060020a03811681146108f157600080fd5b9392505050565b602081016002831061091e5760e060020a634e487b710260009081526021600452602490fd5b91905290565b60e060020a634e487b710260009081526011600452602490fd5b60006001604060020a0382811684821680830382111561096057610960610924565b01949350505050565b60006001604060020a038281168482168115158284048211161561098f5761098f610924565b02949350505050565b60006001604060020a03838116806109c45760e060020a634e487b710260009081526012600452602490fd5b92169190910492915050565b60006001604060020a03838116908316818110156109f0576109f0610924565b039392505050565b6020808252601d908201527f74686520616464726573732068617320766f74656420616c7265616479000000604082015260600190565b600281046001821680610a4357607f821691505b60208210811415610a685760e060020a634e487b710260009081526022600452602490fd5b50919050565b6020808252818101527f4f776e61626c653a2063616c6c6572206973206e6f7420746865206f776e657260408201526060019056fea264697066735822122084aad59b03e31fe4beb83f19a422962082751b7cb61ea51271b43f55f357829464736f6c63430008090033a2646970667358221220cd89b957ef9912a5244f9fd67fec230cd1720467b60acf0e0662d21e5364ad4764736f6c63430008090033a26469706673582212207e90600ee6feb4d5961e91c71bc1b1aa947109a86de065ac70f7e0e2aea775e064736f6c63430008090033",
  "immutableReferences": {},
  "source": "// SPDX-License-Identifier: MIT\npragma solidity >=0.8.0;\n\nimport \"./ITreasureBayFactory.sol\";\nimport \"./TreasureBay.sol\";\nimport \"@openzeppelin/contracts/utils/Context.sol\";\n\ncontract TreasureBayFactory is ITreasureBayFactory, Context {\n  ITreasureBay[] private _listOfBays;\n  mapping(address => ITreasureBay) _mapOfBays;\n\n  function createNewBay(\n    string memory name_,\n    uint64 limitNumberOfMembers_,\n    uint64 limitNumberOfTreasureHunters_\n  ) external override returns (bool) {\n    TreasureBay bay = new TreasureBay(\n      name_,\n      limitNumberOfMembers_,\n      limitNumberOfTreasureHunters_\n    );\n    _listOfBays.push(bay);\n    _mapOfBays[address(bay)] = bay;\n\n    emit NewBayCreated(name_, _msgSender(), address(bay));\n    return true;\n  }\n\n  function getAllBays() external view override returns (ITreasureBay[] memory) {\n    return _listOfBays;\n  }\n\n  function getBay(address bayAddress)\n    external\n    view\n    override\n    returns (ITreasureBay)\n  {\n    return _mapOfBays[address(bayAddress)];\n  }\n}\n",
  "sourcePath": "/Users/chungquantin/Desktop/Projects/DecentralizedOpenSource/smart-bay/contracts/features/dao/TreasureBayFactory.sol",
  "compiler": {
    "name": "solc",
    "version": "0.8.9+commit.e5eed63a.Emscripten.clang"
  },
  "schemaVersion": "3.4.3",
  "updatedAt": "2021-11-16T12:40:57.176Z",
  "networkType": "ethereum",
  "devdoc": {
    "kind": "dev",
    "methods": {},
    "version": 1
  },
  "userdoc": {
    "kind": "user",
    "methods": {},
    "version": 1
  }
}