{
  "contractName": "TreasureBay",
  "abi": [
    {
      "inputs": [
        {
          "internalType": "string",
          "name": "name_",
          "type": "string"
        },
        {
          "internalType": "uint64",
          "name": "limitNumberOfStakeholders_",
          "type": "uint64"
        },
        {
          "internalType": "uint64",
          "name": "limitNumberOfTreasureHunters_",
          "type": "uint64"
        }
      ],
      "stateMutability": "payable",
      "type": "constructor"
    },
    {
      "anonymous": false,
      "inputs": [
        {
          "indexed": false,
          "internalType": "address",
          "name": "owner",
          "type": "address"
        },
        {
          "indexed": false,
          "internalType": "uint256",
          "name": "lockedAmount",
          "type": "uint256"
        }
      ],
      "name": "NewPoolCreated",
      "type": "event"
    },
    {
      "anonymous": false,
      "inputs": [
        {
          "indexed": false,
          "internalType": "address",
          "name": "stakeholder",
          "type": "address"
        }
      ],
      "name": "NewStakeholder",
      "type": "event"
    },
    {
      "anonymous": false,
      "inputs": [
        {
          "indexed": false,
          "internalType": "string",
          "name": "_title",
          "type": "string"
        },
        {
          "indexed": false,
          "internalType": "address",
          "name": "_sourceAddress",
          "type": "address"
        },
        {
          "indexed": false,
          "internalType": "address",
          "name": "_destinationAddress",
          "type": "address"
        },
        {
          "indexed": false,
          "internalType": "uint256",
          "name": "_amount",
          "type": "uint256"
        }
      ],
      "name": "NewTransferProposalAdded",
      "type": "event"
    },
    {
      "anonymous": false,
      "inputs": [
        {
          "indexed": false,
          "internalType": "address",
          "name": "treasureHunter",
          "type": "address"
        },
        {
          "indexed": false,
          "internalType": "uint256",
          "name": "timestamp",
          "type": "uint256"
        }
      ],
      "name": "NewTreasureHunter",
      "type": "event"
    },
    {
      "anonymous": false,
      "inputs": [
        {
          "indexed": true,
          "internalType": "address",
          "name": "previousOwner",
          "type": "address"
        },
        {
          "indexed": true,
          "internalType": "address",
          "name": "newOwner",
          "type": "address"
        }
      ],
      "name": "OwnershipTransferred",
      "type": "event"
    },
    {
      "anonymous": false,
      "inputs": [
        {
          "indexed": true,
          "internalType": "uint256",
          "name": "proposalID",
          "type": "uint256"
        },
        {
          "indexed": false,
          "internalType": "address",
          "name": "recipient",
          "type": "address"
        },
        {
          "indexed": false,
          "internalType": "uint256",
          "name": "amount",
          "type": "uint256"
        },
        {
          "indexed": false,
          "internalType": "string",
          "name": "description",
          "type": "string"
        }
      ],
      "name": "ProposalAdded",
      "type": "event"
    },
    {
      "anonymous": false,
      "inputs": [
        {
          "indexed": false,
          "internalType": "address",
          "name": "stakeholder",
          "type": "address"
        }
      ],
      "name": "RemoveStakeholder",
      "type": "event"
    },
    {
      "anonymous": false,
      "inputs": [
        {
          "indexed": false,
          "internalType": "address",
          "name": "stakeholder",
          "type": "address"
        },
        {
          "indexed": false,
          "internalType": "uint256",
          "name": "amount",
          "type": "uint256"
        }
      ],
      "name": "Stake",
      "type": "event"
    },
    {
      "anonymous": false,
      "inputs": [
        {
          "indexed": false,
          "internalType": "address",
          "name": "stakeholder",
          "type": "address"
        },
        {
          "indexed": false,
          "internalType": "uint256",
          "name": "amount",
          "type": "uint256"
        }
      ],
      "name": "Unstake",
      "type": "event"
    },
    {
      "anonymous": false,
      "inputs": [
        {
          "indexed": true,
          "internalType": "uint256",
          "name": "proposalID",
          "type": "uint256"
        },
        {
          "indexed": false,
          "internalType": "bool",
          "name": "position",
          "type": "bool"
        },
        {
          "indexed": true,
          "internalType": "address",
          "name": "voter",
          "type": "address"
        }
      ],
      "name": "Voted",
      "type": "event"
    },
    {
      "inputs": [],
      "name": "admin",
      "outputs": [
        {
          "internalType": "address",
          "name": "",
          "type": "address"
        }
      ],
      "stateMutability": "view",
      "type": "function"
    },
    {
      "inputs": [
        {
          "internalType": "address",
          "name": "",
          "type": "address"
        }
      ],
      "name": "allowedRecipients",
      "outputs": [
        {
          "internalType": "bool",
          "name": "",
          "type": "bool"
        }
      ],
      "stateMutability": "view",
      "type": "function"
    },
    {
      "inputs": [],
      "name": "claim",
      "outputs": [],
      "stateMutability": "payable",
      "type": "function"
    },
    {
      "inputs": [],
      "name": "createStakeholder",
      "outputs": [
        {
          "components": [
            {
              "internalType": "uint256",
              "name": "balance",
              "type": "uint256"
            },
            {
              "internalType": "address",
              "name": "contractAddress",
              "type": "address"
            },
            {
              "internalType": "uint256",
              "name": "claimedInterval",
              "type": "uint256"
            },
            {
              "internalType": "uint256",
              "name": "joinedAt",
              "type": "uint256"
            }
          ],
          "internalType": "struct TreasurePool.Stakeholder",
          "name": "",
          "type": "tuple"
        }
      ],
      "stateMutability": "nonpayable",
      "type": "function"
    },
    {
      "inputs": [],
      "name": "createdAt",
      "outputs": [
        {
          "internalType": "uint256",
          "name": "",
          "type": "uint256"
        }
      ],
      "stateMutability": "view",
      "type": "function"
    },
    {
      "inputs": [],
      "name": "creator",
      "outputs": [
        {
          "internalType": "address",
          "name": "",
          "type": "address"
        }
      ],
      "stateMutability": "view",
      "type": "function"
    },
    {
      "inputs": [
        {
          "internalType": "uint256",
          "name": "",
          "type": "uint256"
        }
      ],
      "name": "exchangeProposals",
      "outputs": [
        {
          "internalType": "contract ExchangeProposal",
          "name": "",
          "type": "address"
        }
      ],
      "stateMutability": "view",
      "type": "function"
    },
    {
      "inputs": [],
      "name": "getAllTransferProposals",
      "outputs": [
        {
          "internalType": "contract TransferProposal[]",
          "name": "",
          "type": "address[]"
        }
      ],
      "stateMutability": "view",
      "type": "function"
    },
    {
      "inputs": [
        {
          "internalType": "address",
          "name": "_proposalAddress",
          "type": "address"
        }
      ],
      "name": "getTransferProposal",
      "outputs": [
        {
          "internalType": "contract TransferProposal",
          "name": "",
          "type": "address"
        }
      ],
      "stateMutability": "view",
      "type": "function"
    },
    {
      "inputs": [],
      "name": "limitNumberOfStakeholders",
      "outputs": [
        {
          "internalType": "uint64",
          "name": "",
          "type": "uint64"
        }
      ],
      "stateMutability": "view",
      "type": "function"
    },
    {
      "inputs": [],
      "name": "limitNumberOfTreasureHunters",
      "outputs": [
        {
          "internalType": "uint64",
          "name": "",
          "type": "uint64"
        }
      ],
      "stateMutability": "view",
      "type": "function"
    },
    {
      "inputs": [],
      "name": "listOfStakeholders",
      "outputs": [
        {
          "components": [
            {
              "internalType": "uint256",
              "name": "balance",
              "type": "uint256"
            },
            {
              "internalType": "address",
              "name": "contractAddress",
              "type": "address"
            },
            {
              "internalType": "uint256",
              "name": "claimedInterval",
              "type": "uint256"
            },
            {
              "internalType": "uint256",
              "name": "joinedAt",
              "type": "uint256"
            }
          ],
          "internalType": "struct TreasurePool.Stakeholder[]",
          "name": "",
          "type": "tuple[]"
        }
      ],
      "stateMutability": "view",
      "type": "function"
    },
    {
      "inputs": [],
      "name": "minimumStakedAmount",
      "outputs": [
        {
          "internalType": "uint64",
          "name": "",
          "type": "uint64"
        }
      ],
      "stateMutability": "view",
      "type": "function"
    },
    {
      "inputs": [],
      "name": "name",
      "outputs": [
        {
          "internalType": "string",
          "name": "",
          "type": "string"
        }
      ],
      "stateMutability": "view",
      "type": "function"
    },
    {
      "inputs": [],
      "name": "numberOfStakeholders",
      "outputs": [
        {
          "internalType": "uint64",
          "name": "",
          "type": "uint64"
        }
      ],
      "stateMutability": "view",
      "type": "function"
    },
    {
      "inputs": [],
      "name": "owner",
      "outputs": [
        {
          "internalType": "address",
          "name": "",
          "type": "address"
        }
      ],
      "stateMutability": "view",
      "type": "function"
    },
    {
      "inputs": [],
      "name": "renounceOwnership",
      "outputs": [],
      "stateMutability": "nonpayable",
      "type": "function"
    },
    {
      "inputs": [],
      "name": "stake",
      "outputs": [],
      "stateMutability": "payable",
      "type": "function"
    },
    {
      "inputs": [
        {
          "internalType": "address",
          "name": "",
          "type": "address"
        }
      ],
      "name": "stakeholders",
      "outputs": [
        {
          "internalType": "uint256",
          "name": "balance",
          "type": "uint256"
        },
        {
          "internalType": "address",
          "name": "contractAddress",
          "type": "address"
        },
        {
          "internalType": "uint256",
          "name": "claimedInterval",
          "type": "uint256"
        },
        {
          "internalType": "uint256",
          "name": "joinedAt",
          "type": "uint256"
        }
      ],
      "stateMutability": "view",
      "type": "function"
    },
    {
      "inputs": [],
      "name": "totalNumberOfStakeholders",
      "outputs": [
        {
          "internalType": "uint64",
          "name": "",
          "type": "uint64"
        }
      ],
      "stateMutability": "view",
      "type": "function"
    },
    {
      "inputs": [],
      "name": "totalStakedAmount",
      "outputs": [
        {
          "internalType": "uint256",
          "name": "",
          "type": "uint256"
        }
      ],
      "stateMutability": "view",
      "type": "function"
    },
    {
      "inputs": [
        {
          "internalType": "address",
          "name": "newOwner",
          "type": "address"
        }
      ],
      "name": "transferOwnership",
      "outputs": [],
      "stateMutability": "nonpayable",
      "type": "function"
    },
    {
      "inputs": [
        {
          "internalType": "address",
          "name": "",
          "type": "address"
        }
      ],
      "name": "treasureHunters",
      "outputs": [
        {
          "internalType": "address",
          "name": "contractAddress",
          "type": "address"
        },
        {
          "internalType": "uint256",
          "name": "joinedAt",
          "type": "uint256"
        }
      ],
      "stateMutability": "view",
      "type": "function"
    },
    {
      "inputs": [],
      "name": "unstake",
      "outputs": [],
      "stateMutability": "payable",
      "type": "function"
    },
    {
      "inputs": [],
      "name": "listOfTreasureHunters",
      "outputs": [
        {
          "components": [
            {
              "internalType": "address",
              "name": "contractAddress",
              "type": "address"
            },
            {
              "internalType": "uint256",
              "name": "joinedAt",
              "type": "uint256"
            }
          ],
          "internalType": "struct TreasureBay.TreasureHunter[]",
          "name": "",
          "type": "tuple[]"
        }
      ],
      "stateMutability": "view",
      "type": "function"
    },
    {
      "inputs": [],
      "name": "createTreasureHunter",
      "outputs": [
        {
          "components": [
            {
              "internalType": "address",
              "name": "contractAddress",
              "type": "address"
            },
            {
              "internalType": "uint256",
              "name": "joinedAt",
              "type": "uint256"
            }
          ],
          "internalType": "struct TreasureBay.TreasureHunter",
          "name": "",
          "type": "tuple"
        }
      ],
      "stateMutability": "nonpayable",
      "type": "function"
    },
    {
      "inputs": [
        {
          "internalType": "string",
          "name": "_title",
          "type": "string"
        },
        {
          "internalType": "string",
          "name": "_description",
          "type": "string"
        },
        {
          "internalType": "uint64",
          "name": "_debatingPeriod",
          "type": "uint64"
        },
        {
          "internalType": "address",
          "name": "_recipient",
          "type": "address"
        },
        {
          "internalType": "uint256",
          "name": "_amount",
          "type": "uint256"
        }
      ],
      "name": "createNewTransferProposal",
      "outputs": [
        {
          "internalType": "uint256",
          "name": "",
          "type": "uint256"
        }
      ],
      "stateMutability": "nonpayable",
      "type": "function"
    }
  ],
  "bytecode": "0x60806040819052600480546001608060020a03167a03f4800000000000093a8000000000000000000000000000000000179055600d805460ff1916905562002cd1388190039081908339810160408190526200005b91620002c8565b6200006e6401000000006200016f810204565b60028054600160a060020a03929092166801000000000000000002604060020a60e060020a0319909216919091179055620000c4620000b56401000000006200016f810204565b64010000000062000173810204565b6004805467ffffffffffffffff19166001604060020a0384811691909117909155600a805460a060020a60e060020a031916740100000000000000000000000000000000000000009284169290920291909117905582516200012e906009906020860190620001d6565b50620001426401000000006200016f810204565b600a8054600160a060020a031916600160a060020a0392909216919091179055505042600f555062000421565b3390565b60058054600160a060020a0383811668010000000000000000818102604060020a60e060020a031985161790945560405193909204169182907f8be0079c531659141344cd1fd0a4f28419497f9722a3daafe3b4186f6b6457e090600090a35050565b828054620001e490620003cb565b90600052602060002090601f01602090048101928262000208576000855562000253565b82601f106200022357805160ff191683800117855562000253565b8280016001018555821562000253579182015b828111156200025357825182559160200191906001019062000236565b506200026192915062000265565b5090565b5b8082111562000261576000815560010162000266565b7f4e487b7100000000000000000000000000000000000000000000000000000000600052604160045260246000fd5b80516001604060020a0381168114620002c357600080fd5b919050565b600080600060608486031215620002de57600080fd5b83516001604060020a0380821115620002f657600080fd5b818601915086601f8301126200030b57600080fd5b8151818111156200032057620003206200027c565b604051601f8201601f19908116603f011681019083821181831017156200034b576200034b6200027c565b816040528281526020935089848487010111156200036857600080fd5b600091505b828210156200038c57848201840151818301850152908301906200036d565b828211156200039e5760008484830101525b9650620003b0915050868201620002ab565b93505050620003c260408501620002ab565b90509250925092565b600281046001821680620003e057607f821691505b602082108114156200041b577f4e487b7100000000000000000000000000000000000000000000000000000000600052602260045260246000fd5b50919050565b6128a080620004316000396000f3fe6080604052600436106200015b5760e060020a600035046302d05d3f81146200016057806306fdde03146200019a5780631e3ab98314620001c1578063246d59af14620001fc57806328cd149414620002505780632def662014620002725780633a4b66f1146200027e5780633b5b4f2c14620002885780634653f1d114620002ad5780634df6d6cc14620002d45780634e71d92d146200031957806352d4aedc1462000323578063567e98f914620003575780635f9fed55146200036f57806362c48ae714620003ac578063715018a614620003d35780637ddf5c0414620003eb5780637f6f4e9c146200041257806384780fd214620004395780638da5cb5b1462000462578063b898e601146200047a578063c07cfca9146200049c578063cd555bf11462000516578063cf09e0d0146200053f578063f2fde38b1462000557578063f851a440146200057c578063f8d41b9614620005a5575b600080fd5b3480156200016d57600080fd5b50600a546200018290600160a060020a031681565b60405162000191919062001400565b60405180910390f35b348015620001a757600080fd5b50620001b2620005cc565b60405162000191919062001464565b348015620001ce57600080fd5b50600254620001e3906001604060020a031681565b6040516001604060020a03909116815260200162000191565b3480156200020957600080fd5b50620002406200021b3660046200149d565b600c6020526000908152604090208054600190910154600160a060020a039091169082565b60405162000191929190620014bb565b3480156200025d57600080fd5b50600454620001e3906001604060020a031681565b6200027c62000662565b005b6200027c62000910565b3480156200029557600080fd5b5062000182620002a7366004620014d4565b620009f1565b348015620002ba57600080fd5b50620002c562000a1c565b6040516200019191906200151a565b348015620002e157600080fd5b5062000308620002f33660046200149d565b600e6020526000908152604090205460ff1681565b604051901515815260200162000191565b6200027c62000aa8565b3480156200033057600080fd5b5062000348620003423660046200161a565b62000b4a565b60405190815260200162000191565b3480156200036457600080fd5b506200034860035481565b3480156200037c57600080fd5b50620001826200038e3660046200149d565b600160a060020a039081166000908152600760205260409020541690565b348015620003b957600080fd5b50620003c462000bc8565b604051620001919190620016d0565b348015620003e057600080fd5b506200027c62000dc3565b348015620003f857600080fd5b506200040362000e08565b604051620001919190620016e6565b3480156200041f57600080fd5b506200042a62000e6c565b60405162000191919062001729565b3480156200044657600080fd5b50600454620001e390604060020a90046001604060020a031681565b3480156200046f57600080fd5b506200018262000eda565b3480156200048757600080fd5b50600554620001e3906001604060020a031681565b348015620004a957600080fd5b50620004ed620004bb3660046200149d565b60016020819052600091825260409091208054918101546002820154600390920154600160a060020a03909116919084565b60408051948552600160a060020a03909316602085015291830152606082015260800162000191565b3480156200052357600080fd5b50600a54620001e39060a060020a90046001604060020a031681565b3480156200054c57600080fd5b5062000348600f5481565b3480156200056457600080fd5b506200027c620005763660046200149d565b62000ef0565b3480156200058957600080fd5b506002546200018290604060020a9004600160a060020a031681565b348015620005b257600080fd5b50620005bd62000fa2565b6040516200019191906200177a565b60098054620005db906200178a565b80601f016020809104026020016040519081016040528092919081815260200182805462000609906200178a565b80156200065a5780601f106200062e576101008083540402835291602001916200065a565b820191906000526020600020905b8154815290600101906020018083116200063c57829003601f168201915b505050505081565b336000908152600160205260409020546200069d5760405160e560020a62461bcd0281526004016200069490620017cb565b60405180910390fd5b60045433600090815260016020526040902060030154620006cf91608060020a90046001604060020a03169062001813565b4211620007355760405160e560020a62461bcd02815260206004820152602760248201527f4d757374207374616b656420666f7220372064617973206265666f726520756e604482015260c860020a667374616b696e6702606482015260840162000694565b33600090815260016020526040902054341115620007995760405160e560020a62461bcd02815260206004820152601a60248201527f496e73756666696369656e74207374616b656420616d6f756e74000000000000604482015260640162000694565b60405133903480156108fc02916000818181858888f19350505050158015620007c6573d6000803e3d6000fd5b503360009081526001602052604081208054349290620007e890849062001813565b909155505033600090815260016020526040902054620008b85733600090815260016020819052604082208281558082018054600160a060020a031916905560028082018490556003909101839055805491929091620008539084906001604060020a03166200182e565b92506101000a8154816001604060020a0302191690836001604060020a031602179055507f6f1eb9379ef97a9fc8efe5b92a387d1291f5c65d0929df551aea69371e05403c620008a03390565b604051620008af919062001400565b60405180910390a15b3460036000828254620008cc919062001859565b909155507f85082129d87b2fe11527cb1b3b7a520aeb5aa6913f88a3d8757fe40d1db02fdd9050335b3460405162000906929190620014bb565b60405180910390a1565b60003411620009365760405160e560020a62461bcd028152600401620006949062001873565b6005546001604060020a03163411620009665760405160e560020a62461bcd028152600401620006949062001873565b3360009081526001602052604090205462000987576200098562000fa2565b505b3360009081526001602052604081208054349290620009a890849062001813565b925050819055503460036000828254620009c3919062001813565b909155507febedb8b3c678666e7f36970bc8f57abf6d8fa2e828c0da91ea5b75bf68ed101a905033620008f5565b6008818154811062000a0257600080fd5b600091825260209091200154600160a060020a0316905081565b60606000805480602002602001604051908101604052809291908181526020016000905b8282101562000a9f576000848152602090819020604080516080810182526004860290920180548352600180820154600160a060020a031684860152600282015492840192909252600301546060830152908352909201910162000a40565b50505050905090565b3360009081526001602052604090205462000ada5760405160e560020a62461bcd0281526004016200069490620017cb565b33600090815260016020526040902060020154421162000b2f5760405160e560020a62461bcd028152602060048201526009602482015260b860020a68546f6f206561726c7902604482015260640162000694565b3360009081526001602052604090206203f480600290910155565b3360009081526001602052604081205462000ba65760405160e560020a62461bcd0281526020600482015260156024820152605960020a7436bab9ba10313290309039ba30b5b2b437b63232b902604482015260640162000694565b62000bbe8686866001604060020a031686866200129b565b9695505050505050565b6040805180820190915260008082526020820152600a54600b5460a060020a9091046001604060020a0316101562000c595760405160e560020a62461bcd02815260206004820152602760248201527f73757270617373206c696d6974206e756d626572206f66207472656173757265604482015260c860020a6648756e7465727302606482015260840162000694565b604051806040016040528062000c6c3390565b600160a060020a03908116825242602092830152336000908152600c83526040812084518154600160a060020a031990811691851691909117825594909301516001808501918255600b805491820181559283905293547f0175b7a638427703f0dbe7bb9bbf987a2551717b34e79f33b5b1008d1fa01db960029095029485018054909616931692909217909355547f0175b7a638427703f0dbe7bb9bbf987a2551717b34e79f33b5b1008d1fa01dba90910155546005101562000d3857600d805460ff191660011790555b336000908152600c6020526040908190205490517fef7dd88fd6e07a1960a539671612f14f6e19471ee795cade675fb83c942674159162000d8791600160a060020a03909116904290620014bb565b60405180910390a150336000908152600c602090815260409182902082518084019093528054600160a060020a03168352600101549082015290565b3362000dce62000eda565b600160a060020a03161462000dfa5760405160e560020a62461bcd0281526004016200069490620018a5565b62000e06600062001394565b565b6060600680548060200260200160405190810160405280929190818152602001828054801562000e6257602002820191906000526020600020905b8154600160a060020a0316815260019091019060200180831162000e43575b5050505050905090565b6060600b805480602002602001604051908101604052809291908181526020016000905b8282101562000a9f57600084815260209081902060408051808201909152600285029091018054600160a060020a0316825260019081015482840152908352909201910162000e90565b600554604060020a9004600160a060020a031690565b3362000efb62000eda565b600160a060020a03161462000f275760405160e560020a62461bcd0281526004016200069490620018a5565b600160a060020a03811662000f945760405160e560020a62461bcd02815260206004820152602660248201527f4f776e61626c653a206e6577206f776e657220697320746865207a65726f2061604482015260d060020a6564647265737302606482015260840162000694565b62000f9f8162001394565b50565b62000fd76040518060800160405280600081526020016000600160a060020a0316815260200160008152602001600081525090565b6004546002546001604060020a03918216911611156200104c5760405160e560020a62461bcd028152602060048201526024808201527f73757270617373206c696d6974206e756d626572206f66207374616b65686f6c604482015260e060020a636465727302606482015260840162000694565b604051806080016040528060008152602001620010663390565b600160a060020a03168152600454602090910190620010969060c060020a90046001604060020a03164262001813565b8152426020918201523360009081526001808352604080832085518155938501518483018054600160a060020a0319908116600160a060020a03938416178255928701516002808801918255606090980151600388019081558654808701885587805297547f290decd9548b62a8d60345a988386fc84ba6bc95484008f6362f93160ef3e56360049099029889015591547f290decd9548b62a8d60345a988386fc84ba6bc95484008f6362f93160ef3e56488018054909516931692909217909255547f290decd9548b62a8d60345a988386fc84ba6bc95484008f6362f93160ef3e565850155547f290decd9548b62a8d60345a988386fc84ba6bc95484008f6362f93160ef3e566909301929092558254919291620011c19084906001604060020a0316620018da565b92506101000a8154816001604060020a0302191690836001604060020a031602179055507f45353ebbf1c4a0468ba13a94bc212a3b8fc4b624385aa0e9c3fa07045d7d827d60016000620012123390565b600160a060020a039081168252602082019290925260409081016000206001015490516200124592919091169062001400565b60405180910390a1503360009081526001602081815260409283902083516080810185528154815292810154600160a060020a031691830191909152600281015492820192909252600390910154606082015290565b600080338688878787604051620012b290620013f2565b620012c39695949392919062001908565b604051809103906000f080158015620012e0573d6000803e3d6000fd5b5060068054600181019091557ff652222313e28459528d920b65115c16c04f3efc82aaedc97be59f3f377c0d3f018054600160a060020a038316600160a060020a031991821681179092556000828152600760205260409081902080549092169092179055519091507fa9a62b7c28d7da43010d6fdf373b4026f4156bc0402ee1b0bdf2acf13a741421906200137e9089903390889088906200195f565b60405180910390a1505060065495945050505050565b60058054600160a060020a03838116604060020a818102604060020a60e060020a031985161790945560405193909204169182907f8be0079c531659141344cd1fd0a4f28419497f9722a3daafe3b4186f6b6457e090600090a35050565b610ed3806200199883390190565b600160a060020a0391909116815260200190565b6000815180845260005b818110156200143c576020818501810151868301820152016200141e565b818111156200144f576000602083870101525b50601f01601f19169290920160200192915050565b60208152600062001479602083018462001414565b9392505050565b8035600160a060020a03811681146200149857600080fd5b919050565b600060208284031215620014b057600080fd5b620014798262001480565b600160a060020a03929092168252602082015260400190565b600060208284031215620014e757600080fd5b5035919050565b80518252602080820151600160a060020a03169083015260408082015190830152606090810151910152565b6020808252825182820181905260009190848201906040850190845b8181101562001560576200154c838551620014ee565b928401926080929092019160010162001536565b50909695505050505050565b60e060020a634e487b710260009081526041600452602490fd5b600082601f8301126200159857600080fd5b81356001604060020a0380821115620015b557620015b56200156c565b604051601f8301601f19908116603f01168101908282118183101715620015e057620015e06200156c565b81604052838152866020858801011115620015fa57600080fd5b836020870160208301376000602085830101528094505050505092915050565b600080600080600060a086880312156200163357600080fd5b85356001604060020a03808211156200164b57600080fd5b6200165989838a0162001586565b965060208801359150808211156200167057600080fd5b6200167e89838a0162001586565b95506040880135915080821682146200169657600080fd5b509250620016a76060870162001480565b949793965091946080013592915050565b8051600160a060020a03168252602090810151910152565b60408101620016e08284620016b8565b92915050565b6020808252825182820181905260009190848201906040850190845b8181101562001560578351600160a060020a03168352928401929184019160010162001702565b602080825282518282018190526000919060409081850190868401855b828110156200176d576200175c848351620016b8565b928401929085019060010162001746565b5091979650505050505050565b60808101620016e08284620014ee565b6002810460018216806200179f57607f821691505b60208210811415620017c55760e060020a634e487b710260009081526022600452602490fd5b50919050565b6020808252601190820152607960020a702737ba10309039ba30b5b2b437b63232b902604082015260600190565b60e060020a634e487b710260009081526011600452602490fd5b60008219821115620018295762001829620017f9565b500190565b60006001604060020a0383811690831681811015620018515762001851620017f9565b039392505050565b6000828210156200186e576200186e620017f9565b500390565b6020808252601590820152605a60020a741a5b9d985b1a59081cdd185ad95908185b5bdd5b9d02604082015260600190565b6020808252818101527f4f776e61626c653a2063616c6c6572206973206e6f7420746865206f776e6572604082015260600190565b60006001604060020a03828116848216808303821115620018ff57620018ff620017f9565b01949350505050565b6000600160a060020a03808916835260c060208401526200192d60c084018962001414565b838103604085015262001941818962001414565b60608501979097525093909316608082015260a00152509392505050565b60808152600062001974608083018762001414565b600160a060020a039586166020840152939094166040820152606001529291505056fe60806040523480156200001157600080fd5b5060405162000ed338038062000ed38339810160408190526200003491620002e6565b858585856200005e6200004f640100000000620000e9810204565b640100000000620000ed810204565b60018054600160a060020a031916600160a060020a03861617905582516200008e9060029060208601906200013d565b508151620000a49060039060208501906200013d565b5060045550506005805461ffff191690555042600a55600b8054600160a060020a031916600160a060020a039390931692909217909155600c5550620003dd92505050565b3390565b60008054600160a060020a03838116600160a060020a0319831681178455604051919092169283917f8be0079c531659141344cd1fd0a4f28419497f9722a3daafe3b4186f6b6457e09190a35050565b8280546200014b9062000387565b90600052602060002090601f0160209004810192826200016f5760008555620001ba565b82601f106200018a57805160ff1916838001178555620001ba565b82800160010185558215620001ba579182015b82811115620001ba5782518255916020019190600101906200019d565b50620001c8929150620001cc565b5090565b5b80821115620001c85760008155600101620001cd565b8051600160a060020a0381168114620001fb57600080fd5b919050565b7f4e487b7100000000000000000000000000000000000000000000000000000000600052604160045260246000fd5b600082601f8301126200024157600080fd5b81516001604060020a03808211156200025e576200025e62000200565b604051601f8301601f19908116603f0116810190828211818310171562000289576200028962000200565b81604052838152602092508683858801011115620002a657600080fd5b600091505b83821015620002ca5785820183015181830184015290820190620002ab565b83821115620002dc5760008385830101525b9695505050505050565b60008060008060008060c087890312156200030057600080fd5b6200030b87620001e3565b955060208701516001604060020a03808211156200032857600080fd5b620003368a838b016200022f565b965060408901519150808211156200034d57600080fd5b506200035c89828a016200022f565b945050606087015192506200037460808801620001e3565b915060a087015190509295509295509295565b6002810460018216806200039c57607f821691505b60208210811415620003d7577f4e487b7100000000000000000000000000000000000000000000000000000000600052602260045260246000fd5b50919050565b610ae680620003ed6000396000f3fe608060405234801561001057600080fd5b506004361061010a5760e060020a600035046302d05d3f811461010f578063036ee8501461013f5780631626fe6414610156578063227326b11461017657806324033674146101985780633174b689146101ab57806341c12a70146101b557806343d726d6146101bd5780634a79d50c146101c55780635351a3c8146101da578063655b737f146101fd57806366d003ac14610220578063715018a6146102335780637284e4161461023b5780638da5cb5b1461024357806390cf581c1461024b578063aa8c217c14610253578063cf09e0d01461025c578063e2c3b12214610265578063f2fde38b14610278578063fcfff16f1461028b575b600080fd5b60015461012290600160a060020a031681565b604051600160a060020a0390911681526020015b60405180910390f35b61014860045481565b604051908152602001610136565b61015e6102a5565b6040516001604060020a039091168152602001610136565b60055461018890610100900460ff1681565b6040519015158152602001610136565b60075461015e906001604060020a031681565b6101b36102ea565b005b6101b361045f565b6101b3610535565b6101cd6105c8565b6040516101369190610880565b6101886101e83660046108d5565b60086020526000908152604090205460ff1681565b61018861020b3660046108d5565b60066020526000908152604090205460ff1681565b600b5461012290600160a060020a031681565b6101b3610656565b6101cd610694565b6101226106a1565b6101b36106b0565b610148600c5481565b610148600a5481565b60095461015e906001604060020a031681565b6101b36102863660046108d5565b610710565b6005546102989060ff1681565b6040516101369190610905565b6009546007546000916102c4916001604060020a03918216911661094b565b6007546102db906001604060020a03166064610976565b6102e591906109a5565b905090565b6102f26107b9565b6103465760405160e560020a62461bcd02815260206004820152601c60248201527f746865206164647265737320646964206e6f7420766f7465207965740000000060448201526064015b60405180910390fd5b3360009081526006602052604090205460ff161515600114156103bb57336000908152600660205260408120805460ff1916905560078054600192906103969084906001604060020a03166109dd565b92506101000a8154816001604060020a0302191690836001604060020a031602179055505b3360009081526008602052604090205460ff1615156001141561043057336000908152600860205260408120805460ff19169055600980546001929061040b9084906001604060020a03166109dd565b92506101000a8154816001604060020a0302191690836001604060020a031602179055505b604051339030907f2817372c62bc3cdb73b84b6412d5ce40c6e73c30ef5fac6558d0c4cb3da410b790600090a3565b6104676107f3565b6104865760405160e560020a62461bcd02815260040161033d90610a05565b336000908152600860205260408120805460ff1916600190811790915560098054919290916104bf9084906001604060020a031661094b565b92506101000a8154816001604060020a0302191690836001604060020a0316021790555033600160a060020a031630600160a060020a03167fbbcca6f8778ffd7765644921c17ed2de4add7a9b4ca1a29614a6295edd4a2089600160405161052b911515815260200190565b60405180910390a3565b600154600160a060020a031633146105845760405160e560020a62461bcd02815260206004820152600c602482015260a160020a6b3737ba1030b71037bbb732b902604482015260640161033d565b6005805460ff1916600117905560405142815230907f6944894ba716aadf69fcd57834d5d2cc2e808f6a144c75d956068efa727e2a7e9060200160405180910390a2565b600380546105d590610a3c565b80601f016020809104026020016040519081016040528092919081815260200182805461060190610a3c565b801561064e5780601f106106235761010080835404028352916020019161064e565b820191906000526020600020905b81548152906001019060200180831161063157829003601f168201915b505050505081565b3361065f6106a1565b600160a060020a0316146106885760405160e560020a62461bcd02815260040161033d90610a7b565b6106926000610830565b565b600280546105d590610a3c565b600054600160a060020a031690565b6106b86107f3565b6106d75760405160e560020a62461bcd02815260040161033d90610a05565b336000908152600660205260408120805460ff1916600190811790915560078054919290916104bf9084906001604060020a031661094b565b336107196106a1565b600160a060020a0316146107425760405160e560020a62461bcd02815260040161033d90610a7b565b600160a060020a0381166107ad5760405160e560020a62461bcd02815260206004820152602660248201527f4f776e61626c653a206e6577206f776e657220697320746865207a65726f2061604482015260d060020a6564647265737302606482015260840161033d565b6107b681610830565b50565b3360009081526006602052604081205460ff161515600114806102e55750503360009081526008602052604090205460ff16151560011490565b3360009081526006602052604081205460ff1615156001148015906102e55750503360009081526008602052604090205460ff1615156001141590565b60008054600160a060020a03838116600160a060020a0319831681178455604051919092169283917f8be0079c531659141344cd1fd0a4f28419497f9722a3daafe3b4186f6b6457e09190a35050565b600060208083528351808285015260005b818110156108ad57858101830151858201604001528201610891565b818111156108bf576000604083870101525b50601f01601f1916929092016040019392505050565b6000602082840312156108e757600080fd5b8135600160a060020a03811681146108fe57600080fd5b9392505050565b602081016002831061092b5760e060020a634e487b710260009081526021600452602490fd5b91905290565b60e060020a634e487b710260009081526011600452602490fd5b60006001604060020a0382811684821680830382111561096d5761096d610931565b01949350505050565b60006001604060020a038281168482168115158284048211161561099c5761099c610931565b02949350505050565b60006001604060020a03838116806109d15760e060020a634e487b710260009081526012600452602490fd5b92169190910492915050565b60006001604060020a03838116908316818110156109fd576109fd610931565b039392505050565b6020808252601d908201527f74686520616464726573732068617320766f74656420616c7265616479000000604082015260600190565b600281046001821680610a5057607f821691505b60208210811415610a755760e060020a634e487b710260009081526022600452602490fd5b50919050565b6020808252818101527f4f776e61626c653a2063616c6c6572206973206e6f7420746865206f776e657260408201526060019056fea26469706673582212200148a84eb8c612ca346e3890539c61bcdd130cb58cc74f3e86db57cb1eca63aa64736f6c63430008090033a2646970667358221220ad11922b25c9908658d25e37e0fcf05000c54dfef7be19bda87f59a2eaff598564736f6c63430008090033",
  "immutableReferences": {},
  "source": "// SPDX-License-Identifier: MIT\npragma solidity >=0.8.0;\n\nimport \"./ITreasureBay.sol\";\nimport \"./TreasurePool.sol\";\nimport \"./proposal/ExchangeProposal.sol\";\nimport \"./proposal/TransferProposal.sol\";\nimport \"./proposal/TreasureExchangeChest.sol\";\nimport \"./proposal/TreasureTransferChest.sol\";\nimport \"@openzeppelin/contracts/token/ERC20/IERC20.sol\";\nimport \"@openzeppelin/contracts/token/ERC20/ERC20.sol\";\n\ncontract TreasureBay is\n  ITreasureBay,\n  TreasurePool,\n  TreasureTransferChest,\n  TreasureExchangeChest\n{\n  struct TreasureHunter {\n    address contractAddress;\n    uint256 joinedAt;\n  }\n  string public name;\n  address public creator;\n  uint64 public limitNumberOfTreasureHunters;\n  TreasureHunter[] private _listOfTreasureHunters;\n  mapping(address => TreasureHunter) public treasureHunters;\n  bool private _isActivated = false; // If there are more than 3 members, activated\n  mapping(address => bool) public allowedRecipients;\n  uint256 public createdAt;\n\n  event NewTreasureHunter(address treasureHunter, uint256 timestamp);\n\n  modifier onlyStakeholder() {\n    require(stakeholders[msg.sender].balance > 0, \"must be a stakeholder\");\n    _;\n  }\n\n  modifier onlyTreasureHunter() {\n    require(\n      treasureHunters[msg.sender].contractAddress != address(0x0),\n      \"must be a treasureHunter\"\n    );\n    _;\n  }\n\n  constructor(\n    string memory name_,\n    uint64 limitNumberOfStakeholders_,\n    uint64 limitNumberOfTreasureHunters_\n  ) payable ITreasureBay() {\n    limitNumberOfStakeholders = limitNumberOfStakeholders_;\n    limitNumberOfTreasureHunters = limitNumberOfTreasureHunters_;\n    name = name_;\n    creator = _msgSender();\n    createdAt = block.timestamp;\n  }\n\n  function listOfTreasureHunters()\n    public\n    view\n    virtual\n    returns (TreasureHunter[] memory)\n  {\n    return _listOfTreasureHunters;\n  }\n\n  function createTreasureHunter() public returns (TreasureHunter memory) {\n    require(\n      _listOfTreasureHunters.length <= limitNumberOfTreasureHunters,\n      \"surpass limit number of treasureHunters\"\n    );\n    treasureHunters[_msgSender()] = TreasureHunter(\n      _msgSender(),\n      block.timestamp\n    );\n    _listOfTreasureHunters.push(treasureHunters[_msgSender()]);\n    if (_listOfTreasureHunters.length > 5) {\n      _isActivated = true;\n    }\n    emit NewTreasureHunter(\n      treasureHunters[_msgSender()].contractAddress,\n      block.timestamp\n    );\n    return treasureHunters[_msgSender()];\n  }\n\n  function createNewTransferProposal(\n    string memory _title,\n    string memory _description,\n    uint64 _debatingPeriod,\n    address _recipient,\n    uint256 _amount\n  ) public onlyStakeholder returns (uint256) {\n    return\n      _newTransferProposal(\n        _title,\n        _description,\n        _debatingPeriod,\n        _recipient,\n        _amount\n      );\n  }\n\n  // function executeProposal(uint256 _proposalID, bytes memory _transactionData)\n  //   external\n  //   override\n  //   returns (bool _success)\n  // {}\n\n  // function changeAllowedRecipients(address _recipient, bool _allowed)\n  //   external\n  //   override\n  //   returns (bool _success)\n  // {}\n}\n",
  "sourcePath": "/Users/chungquantin/Desktop/Projects/DecentralizedOpenSource/smart-bay/contracts/features/dao/TreasureBay.sol",
  "compiler": {
    "name": "solc",
    "version": "0.8.9+commit.e5eed63a.Emscripten.clang"
  },
  "schemaVersion": "3.4.3",
  "updatedAt": "2021-11-17T03:08:21.750Z",
  "devdoc": {
    "kind": "dev",
    "methods": {
      "owner()": {
        "details": "Returns the address of the current owner."
      },
      "renounceOwnership()": {
        "details": "Leaves the contract without owner. It will not be possible to call `onlyOwner` functions anymore. Can only be called by the current owner. NOTE: Renouncing ownership will leave the contract without an owner, thereby removing any functionality that is only available to the owner."
      },
      "transferOwnership(address)": {
        "details": "Transfers ownership of the contract to a new account (`newOwner`). Can only be called by the current owner."
      }
    },
    "version": 1
  },
  "userdoc": {
    "kind": "user",
    "methods": {},
    "version": 1
  }
}