{
  "contractName": "TreasurePool",
  "abi": [
    {
      "inputs": [],
      "stateMutability": "nonpayable",
      "type": "constructor"
    },
    {
      "anonymous": false,
      "inputs": [
        {
          "indexed": false,
          "internalType": "address",
          "name": "owner",
          "type": "address"
        },
        {
          "indexed": false,
          "internalType": "uint256",
          "name": "lockedAmount",
          "type": "uint256"
        }
      ],
      "name": "NewPoolCreated",
      "type": "event"
    },
    {
      "anonymous": false,
      "inputs": [
        {
          "indexed": false,
          "internalType": "address",
          "name": "stakeholder",
          "type": "address"
        }
      ],
      "name": "NewStakeholder",
      "type": "event"
    },
    {
      "anonymous": false,
      "inputs": [
        {
          "indexed": false,
          "internalType": "address",
          "name": "stakeholder",
          "type": "address"
        }
      ],
      "name": "RemoveStakeholder",
      "type": "event"
    },
    {
      "anonymous": false,
      "inputs": [
        {
          "indexed": false,
          "internalType": "address",
          "name": "stakeholder",
          "type": "address"
        },
        {
          "indexed": false,
          "internalType": "uint256",
          "name": "amount",
          "type": "uint256"
        }
      ],
      "name": "Stake",
      "type": "event"
    },
    {
      "anonymous": false,
      "inputs": [
        {
          "indexed": false,
          "internalType": "address",
          "name": "stakeholder",
          "type": "address"
        },
        {
          "indexed": false,
          "internalType": "uint256",
          "name": "amount",
          "type": "uint256"
        }
      ],
      "name": "Unstake",
      "type": "event"
    },
    {
      "inputs": [],
      "name": "admin",
      "outputs": [
        {
          "internalType": "address",
          "name": "",
          "type": "address"
        }
      ],
      "stateMutability": "view",
      "type": "function"
    },
    {
      "inputs": [],
      "name": "limitNumberOfStakeholders",
      "outputs": [
        {
          "internalType": "uint64",
          "name": "",
          "type": "uint64"
        }
      ],
      "stateMutability": "view",
      "type": "function"
    },
    {
      "inputs": [],
      "name": "minimumStakedAmount",
      "outputs": [
        {
          "internalType": "uint64",
          "name": "",
          "type": "uint64"
        }
      ],
      "stateMutability": "view",
      "type": "function"
    },
    {
      "inputs": [],
      "name": "numberOfStakeholders",
      "outputs": [
        {
          "internalType": "uint64",
          "name": "",
          "type": "uint64"
        }
      ],
      "stateMutability": "view",
      "type": "function"
    },
    {
      "inputs": [
        {
          "internalType": "address",
          "name": "",
          "type": "address"
        }
      ],
      "name": "stakeholders",
      "outputs": [
        {
          "internalType": "uint256",
          "name": "balance",
          "type": "uint256"
        },
        {
          "internalType": "address",
          "name": "contractAddress",
          "type": "address"
        },
        {
          "internalType": "uint256",
          "name": "claimedInterval",
          "type": "uint256"
        },
        {
          "internalType": "uint256",
          "name": "joinedAt",
          "type": "uint256"
        }
      ],
      "stateMutability": "view",
      "type": "function"
    },
    {
      "inputs": [],
      "name": "totalNumberOfStakeholders",
      "outputs": [
        {
          "internalType": "uint64",
          "name": "",
          "type": "uint64"
        }
      ],
      "stateMutability": "view",
      "type": "function"
    },
    {
      "inputs": [],
      "name": "totalStakedAmount",
      "outputs": [
        {
          "internalType": "uint256",
          "name": "",
          "type": "uint256"
        }
      ],
      "stateMutability": "view",
      "type": "function"
    },
    {
      "inputs": [],
      "name": "createStakeholder",
      "outputs": [
        {
          "components": [
            {
              "internalType": "uint256",
              "name": "balance",
              "type": "uint256"
            },
            {
              "internalType": "address",
              "name": "contractAddress",
              "type": "address"
            },
            {
              "internalType": "uint256",
              "name": "claimedInterval",
              "type": "uint256"
            },
            {
              "internalType": "uint256",
              "name": "joinedAt",
              "type": "uint256"
            }
          ],
          "internalType": "struct TreasurePool.Stakeholder",
          "name": "",
          "type": "tuple"
        }
      ],
      "stateMutability": "nonpayable",
      "type": "function"
    },
    {
      "inputs": [],
      "name": "stake",
      "outputs": [],
      "stateMutability": "payable",
      "type": "function"
    },
    {
      "inputs": [],
      "name": "unstake",
      "outputs": [],
      "stateMutability": "payable",
      "type": "function"
    },
    {
      "inputs": [
        {
          "internalType": "address",
          "name": "stakeholder",
          "type": "address"
        }
      ],
      "name": "removeStakeholder",
      "outputs": [],
      "stateMutability": "nonpayable",
      "type": "function"
    },
    {
      "inputs": [],
      "name": "claim",
      "outputs": [],
      "stateMutability": "payable",
      "type": "function"
    },
    {
      "inputs": [],
      "name": "listOfStakeholders",
      "outputs": [
        {
          "components": [
            {
              "internalType": "uint256",
              "name": "balance",
              "type": "uint256"
            },
            {
              "internalType": "address",
              "name": "contractAddress",
              "type": "address"
            },
            {
              "internalType": "uint256",
              "name": "claimedInterval",
              "type": "uint256"
            },
            {
              "internalType": "uint256",
              "name": "joinedAt",
              "type": "uint256"
            }
          ],
          "internalType": "struct TreasurePool.Stakeholder[]",
          "name": "",
          "type": "tuple[]"
        }
      ],
      "stateMutability": "view",
      "type": "function"
    }
  ],
  "bytecode": "0x6080604052600480546001608060020a03167a03f4800000000000093a800000000000000000000000000000000017905534801561003c57600080fd5b5061004e640100000000610079810204565b600260086101000a815481600160a060020a030219169083600160a060020a0316021790555061007d565b3390565b610db88061008c6000396000f3fe6080604052600436106100a55760e060020a60003504631e3ab98381146100aa57806328cd1494146100e75780632def6620146101075780633a4b66f1146101115780634653f1d1146101195780634e71d92d1461013b578063567e98f91461014357806384780fd214610167578063b898e6011461018e578063bcb0c2d7146101ae578063c07cfca9146101ce578063f851a44014610243578063f8d41b9614610277575b600080fd5b3480156100b657600080fd5b506002546100ca906001604060020a031681565b6040516001604060020a0390911681526020015b60405180910390f35b3480156100f357600080fd5b506004546100ca906001604060020a031681565b61010f610299565b005b61010f610492565b34801561012557600080fd5b5061012e610565565b6040516100de9190610b91565b61010f6105ef565b34801561014f57600080fd5b5061015960035481565b6040519081526020016100de565b34801561017357600080fd5b506004546100ca90604060020a90046001604060020a031681565b34801561019a57600080fd5b506005546100ca906001604060020a031681565b3480156101ba57600080fd5b5061010f6101c9366004610bdf565b61068c565b3480156101da57600080fd5b5061021b6101e9366004610bdf565b60016020819052600091825260409091208054918101546002820154600390920154600160a060020a03909116919084565b60408051948552600160a060020a0390931660208501529183015260608201526080016100de565b34801561024f57600080fd5b5060025461026a90604060020a9004600160a060020a031681565b6040516100de9190610c0f565b34801561028357600080fd5b5061028c610877565b6040516100de9190610c23565b336000908152600160205260409020546102d15760405160e560020a62461bcd0281526004016102c890610c37565b60405180910390fd5b6004543360009081526001602052604090206003015461030191608060020a90046001604060020a031690610c7f565b42116103655760405160e560020a62461bcd02815260206004820152602760248201527f4d757374207374616b656420666f7220372064617973206265666f726520756e604482015260c860020a667374616b696e670260648201526084016102c8565b336000908152600160205260409020543411156103c75760405160e560020a62461bcd02815260206004820152601a60248201527f496e73756666696369656e74207374616b656420616d6f756e7400000000000060448201526064016102c8565b60405133903480156108fc02916000818181858888f193505050501580156103f3573d6000803e3d6000fd5b503360009081526001602052604081208054349290610413908490610c7f565b909155505033600090815260016020526040902054610435576104353361068c565b34600360008282546104479190610c97565b909155507f85082129d87b2fe11527cb1b3b7a520aeb5aa6913f88a3d8757fe40d1db02fdd9050335b60408051600160a060020a0390921682523460208301520160405180910390a1565b600034116104b55760405160e560020a62461bcd0281526004016102c890610cae565b6005546001604060020a031634116104e25760405160e560020a62461bcd0281526004016102c890610cae565b33600090815260016020526040902054610500576104fe610877565b505b336000908152600160205260408120805434929061051f908490610c7f565b9250508190555034600360008282546105389190610c7f565b909155507febedb8b3c678666e7f36970bc8f57abf6d8fa2e828c0da91ea5b75bf68ed101a905033610470565b60606000805480602002602001604051908101604052809291908181526020016000905b828210156105e6576000848152602090819020604080516080810182526004860290920180548352600180820154600160a060020a0316848601526002820154928401929092526003015460608301529083529092019101610589565b50505050905090565b3360009081526001602052604090205461061e5760405160e560020a62461bcd0281526004016102c890610c37565b3360009081526001602052604090206002015442116106715760405160e560020a62461bcd028152602060048201526009602482015260b860020a68546f6f206561726c790260448201526064016102c8565b3360009081526001602052604090206203f480600290910155565b60005b6000548110156107c05733600160a060020a0316600082815481106106b6576106b6610ce0565b6000918252602090912060016004909202010154600160a060020a031614156107ae5760006106e6826001610c7f565b815481106106f6576106f6610ce0565b90600052602060002090600402016000828154811061071757610717610ce0565b60009182526020822083546004909202019081556001808401549082018054600160a060020a031916600160a060020a039092169190911790556002808401549082015560039283015492019190915580548061077657610776610cfa565b600082815260208120600460001990930192830201818155600181018054600160a060020a0319169055600281018290556003015590555b806107b881610d14565b91505061068f565b50600160a060020a038116600090815260016020819052604082208281558082018054600160a060020a0319169055600280820184905560039091018390558054919290916108199084906001604060020a0316610d2f565b92506101000a8154816001604060020a0302191690836001604060020a031602179055507f6f1eb9379ef97a9fc8efe5b92a387d1291f5c65d0929df551aea69371e05403c8160405161086c9190610c0f565b60405180910390a150565b6108ab6040518060800160405280600081526020016000600160a060020a0316815260200160008152602001600081525090565b6004546002546001604060020a039182169116111561091e5760405160e560020a62461bcd028152602060048201526024808201527f73757270617373206c696d6974206e756d626572206f66207374616b65686f6c604482015260e060020a63646572730260648201526084016102c8565b6040518060800160405280600081526020016109373390565b600160a060020a031681526004546020909101906109659060c060020a90046001604060020a031642610c7f565b8152426020918201523360009081526001808352604080832085518155938501518483018054600160a060020a0319908116600160a060020a03938416178255928701516002808801918255606090980151600388019081558654808701885587805297547f290decd9548b62a8d60345a988386fc84ba6bc95484008f6362f93160ef3e56360049099029889015591547f290decd9548b62a8d60345a988386fc84ba6bc95484008f6362f93160ef3e56488018054909516931692909217909255547f290decd9548b62a8d60345a988386fc84ba6bc95484008f6362f93160ef3e565850155547f290decd9548b62a8d60345a988386fc84ba6bc95484008f6362f93160ef3e566909301929092558254919291610a8e9084906001604060020a0316610d57565b92506101000a8154816001604060020a0302191690836001604060020a031602179055507f45353ebbf1c4a0468ba13a94bc212a3b8fc4b624385aa0e9c3fa07045d7d827d60016000610ade3390565b600160a060020a03908116825260208201929092526040908101600020600101549051610b0f929190911690610c0f565b60405180910390a1503360009081526001602081815260409283902083516080810185528154815292810154600160a060020a031691830191909152600281015492820192909252600390910154606082015290565b80518252602080820151600160a060020a03169083015260408082015190830152606090810151910152565b6020808252825182820181905260009190848201906040850190845b81811015610bd357610bc0838551610b65565b9284019260809290920191600101610bad565b50909695505050505050565b600060208284031215610bf157600080fd5b8135600160a060020a0381168114610c0857600080fd5b9392505050565b600160a060020a0391909116815260200190565b60808101610c318284610b65565b92915050565b6020808252601190820152607960020a702737ba10309039ba30b5b2b437b63232b902604082015260600190565b60e060020a634e487b710260009081526011600452602490fd5b60008219821115610c9257610c92610c65565b500190565b600082821015610ca957610ca9610c65565b500390565b6020808252601590820152605a60020a741a5b9d985b1a59081cdd185ad95908185b5bdd5b9d02604082015260600190565b60e060020a634e487b710260009081526032600452602490fd5b60e060020a634e487b710260009081526031600452602490fd5b6000600019821415610d2857610d28610c65565b5060010190565b60006001604060020a0383811690831681811015610d4f57610d4f610c65565b039392505050565b60006001604060020a03828116848216808303821115610d7957610d79610c65565b0194935050505056fea26469706673582212204d38b9ccf892a54d30ed39f50324a34710f5cc646dedc9b3ba43ab48bd8a531964736f6c63430008090033",
  "immutableReferences": {},
  "source": "// SPDX-License-Identifier: MIT\npragma solidity >=0.4.0;\n\nimport \"@openzeppelin/contracts/utils/Context.sol\";\n\ncontract TreasurePool is Context {\n  struct Stakeholder {\n    uint256 balance;\n    address contractAddress;\n    uint256 claimedInterval;\n    uint256 joinedAt;\n  }\n  Stakeholder[] private _listOfStakeholders;\n  mapping(address => Stakeholder) public stakeholders;\n  uint64 public numberOfStakeholders;\n  address public admin;\n  uint256 public totalStakedAmount;\n  uint64 public limitNumberOfStakeholders;\n  uint64 public totalNumberOfStakeholders;\n  uint64 private _lockedDuration = 7 days;\n  uint64 private _defaultClaimedInterval = 3 days;\n  uint64 public minimumStakedAmount;\n\n  event NewStakeholder(address stakeholder);\n  event RemoveStakeholder(address stakeholder);\n  event Stake(address stakeholder, uint256 amount);\n  event Unstake(address stakeholder, uint256 amount);\n  event NewPoolCreated(address owner, uint256 lockedAmount);\n\n  constructor() {\n    admin = _msgSender();\n  }\n\n  modifier isStakeholder() {\n    require(stakeholders[_msgSender()].balance > 0, \"Not a stakeholder\");\n    _;\n  }\n\n  function createStakeholder() public returns (Stakeholder memory) {\n    require(\n      numberOfStakeholders <= limitNumberOfStakeholders,\n      \"surpass limit number of stakeholders\"\n    );\n    stakeholders[_msgSender()] = Stakeholder(\n      0,\n      _msgSender(),\n      block.timestamp + _defaultClaimedInterval,\n      block.timestamp\n    );\n    _listOfStakeholders.push(stakeholders[_msgSender()]);\n    numberOfStakeholders += 1;\n    emit NewStakeholder(stakeholders[_msgSender()].contractAddress);\n    return stakeholders[_msgSender()];\n  }\n\n  function stake() public payable {\n    require(msg.value > 0, \"invalid staked amount\");\n    require(msg.value > minimumStakedAmount, \"invalid staked amount\");\n\n    // Check if the stakeholder is added or not\n    if (stakeholders[_msgSender()].balance == 0) {\n      createStakeholder();\n    }\n    stakeholders[_msgSender()].balance += msg.value;\n    totalStakedAmount += msg.value;\n    emit Stake(_msgSender(), msg.value);\n  }\n\n  function unstake() public payable isStakeholder {\n    require(\n      block.timestamp > stakeholders[_msgSender()].joinedAt + _lockedDuration,\n      \"Must staked for 7 days before unstaking\"\n    );\n    require(\n      msg.value <= stakeholders[_msgSender()].balance,\n      \"Insufficient staked amount\"\n    );\n    payable(_msgSender()).transfer(msg.value);\n    stakeholders[_msgSender()].balance += msg.value;\n    if (stakeholders[_msgSender()].balance == 0) {\n      removeStakeholder(_msgSender());\n    }\n    totalStakedAmount -= msg.value;\n    emit Unstake(_msgSender(), msg.value);\n  }\n\n  function removeStakeholder(address stakeholder) public {\n    for (uint256 index = 0; index < _listOfStakeholders.length; index++) {\n      if (_listOfStakeholders[index].contractAddress == _msgSender()) {\n        _listOfStakeholders[index] = _listOfStakeholders[index + 1];\n        _listOfStakeholders.pop();\n      }\n    }\n    delete stakeholders[stakeholder];\n    numberOfStakeholders -= 1;\n    emit RemoveStakeholder(stakeholder);\n  }\n\n  function claim() public payable isStakeholder {\n    require(\n      block.timestamp > stakeholders[_msgSender()].claimedInterval,\n      \"Too early\"\n    );\n    stakeholders[_msgSender()].claimedInterval = 3 days;\n    // TODO Handle interest rate and claimable tokens\n  }\n\n  function listOfStakeholders()\n    public\n    view\n    virtual\n    returns (Stakeholder[] memory)\n  {\n    return _listOfStakeholders;\n  }\n}\n",
  "sourcePath": "/Users/chungquantin/Desktop/Projects/DecentralizedOpenSource/smart-bay/contracts/features/dao/TreasurePool.sol",
  "compiler": {
    "name": "solc",
    "version": "0.8.9+commit.e5eed63a.Emscripten.clang"
  },
  "schemaVersion": "3.4.3",
  "updatedAt": "2021-11-17T17:08:43.599Z",
  "devdoc": {
    "kind": "dev",
    "methods": {},
    "version": 1
  },
  "userdoc": {
    "kind": "user",
    "methods": {},
    "version": 1
  }
}