{
  "contractName": "TreasureTransferChest",
  "abi": [
    {
      "anonymous": false,
      "inputs": [
        {
          "indexed": false,
          "internalType": "string",
          "name": "_title",
          "type": "string"
        },
        {
          "indexed": false,
          "internalType": "address",
          "name": "_sourceAddress",
          "type": "address"
        },
        {
          "indexed": false,
          "internalType": "address",
          "name": "_destinationAddress",
          "type": "address"
        },
        {
          "indexed": false,
          "internalType": "uint256",
          "name": "_amount",
          "type": "uint256"
        }
      ],
      "name": "NewTransferProposalAdded",
      "type": "event"
    },
    {
      "anonymous": false,
      "inputs": [
        {
          "indexed": true,
          "internalType": "address",
          "name": "previousOwner",
          "type": "address"
        },
        {
          "indexed": true,
          "internalType": "address",
          "name": "newOwner",
          "type": "address"
        }
      ],
      "name": "OwnershipTransferred",
      "type": "event"
    },
    {
      "inputs": [],
      "name": "owner",
      "outputs": [
        {
          "internalType": "address",
          "name": "",
          "type": "address"
        }
      ],
      "stateMutability": "view",
      "type": "function",
      "constant": true
    },
    {
      "inputs": [],
      "name": "renounceOwnership",
      "outputs": [],
      "stateMutability": "nonpayable",
      "type": "function"
    },
    {
      "inputs": [
        {
          "internalType": "address",
          "name": "newOwner",
          "type": "address"
        }
      ],
      "name": "transferOwnership",
      "outputs": [],
      "stateMutability": "nonpayable",
      "type": "function"
    },
    {
      "inputs": [],
      "name": "getAllTransferProposals",
      "outputs": [
        {
          "internalType": "contract TransferProposal[]",
          "name": "",
          "type": "address[]"
        }
      ],
      "stateMutability": "view",
      "type": "function",
      "constant": true
    },
    {
      "inputs": [
        {
          "internalType": "address",
          "name": "_proposalAddress",
          "type": "address"
        }
      ],
      "name": "getTransferProposal",
      "outputs": [
        {
          "internalType": "contract TransferProposal",
          "name": "",
          "type": "address"
        }
      ],
      "stateMutability": "view",
      "type": "function",
      "constant": true
    }
  ],
  "bytecode": "0x608060405234801561001057600080fd5b5061002d61002261003260201b60201c565b61003a60201b60201c565b6100fe565b600033905090565b60008060009054906101000a900473ffffffffffffffffffffffffffffffffffffffff169050816000806101000a81548173ffffffffffffffffffffffffffffffffffffffff021916908373ffffffffffffffffffffffffffffffffffffffff1602179055508173ffffffffffffffffffffffffffffffffffffffff168173ffffffffffffffffffffffffffffffffffffffff167f8be0079c531659141344cd1fd0a4f28419497f9722a3daafe3b4186f6b6457e060405160405180910390a35050565b6107b38061010d6000396000f3fe608060405234801561001057600080fd5b50600436106100575760003560e01c80635f9fed551461005c578063715018a61461008c5780637ddf5c04146100965780638da5cb5b146100b4578063f2fde38b146100d2575b600080fd5b610076600480360381019061007191906104bd565b6100ee565b6040516100839190610549565b60405180910390f35b610094610157565b005b61009e6101df565b6040516100ab9190610622565b60405180910390f35b6100bc61026d565b6040516100c99190610653565b60405180910390f35b6100ec60048036038101906100e791906104bd565b610296565b005b6000600260008373ffffffffffffffffffffffffffffffffffffffff1673ffffffffffffffffffffffffffffffffffffffff16815260200190815260200160002060009054906101000a900473ffffffffffffffffffffffffffffffffffffffff169050919050565b61015f61038e565b73ffffffffffffffffffffffffffffffffffffffff1661017d61026d565b73ffffffffffffffffffffffffffffffffffffffff16146101d3576040517f08c379a00000000000000000000000000000000000000000000000000000000081526004016101ca906106cb565b60405180910390fd5b6101dd6000610396565b565b6060600180548060200260200160405190810160405280929190818152602001828054801561026357602002820191906000526020600020905b8160009054906101000a900473ffffffffffffffffffffffffffffffffffffffff1673ffffffffffffffffffffffffffffffffffffffff1681526020019060010190808311610219575b5050505050905090565b60008060009054906101000a900473ffffffffffffffffffffffffffffffffffffffff16905090565b61029e61038e565b73ffffffffffffffffffffffffffffffffffffffff166102bc61026d565b73ffffffffffffffffffffffffffffffffffffffff1614610312576040517f08c379a0000000000000000000000000000000000000000000000000000000008152600401610309906106cb565b60405180910390fd5b600073ffffffffffffffffffffffffffffffffffffffff168173ffffffffffffffffffffffffffffffffffffffff161415610382576040517f08c379a00000000000000000000000000000000000000000000000000000000081526004016103799061075d565b60405180910390fd5b61038b81610396565b50565b600033905090565b60008060009054906101000a900473ffffffffffffffffffffffffffffffffffffffff169050816000806101000a81548173ffffffffffffffffffffffffffffffffffffffff021916908373ffffffffffffffffffffffffffffffffffffffff1602179055508173ffffffffffffffffffffffffffffffffffffffff168173ffffffffffffffffffffffffffffffffffffffff167f8be0079c531659141344cd1fd0a4f28419497f9722a3daafe3b4186f6b6457e060405160405180910390a35050565b600080fd5b600073ffffffffffffffffffffffffffffffffffffffff82169050919050565b600061048a8261045f565b9050919050565b61049a8161047f565b81146104a557600080fd5b50565b6000813590506104b781610491565b92915050565b6000602082840312156104d3576104d261045a565b5b60006104e1848285016104a8565b91505092915050565b6000819050919050565b600061050f61050a6105058461045f565b6104ea565b61045f565b9050919050565b6000610521826104f4565b9050919050565b600061053382610516565b9050919050565b61054381610528565b82525050565b600060208201905061055e600083018461053a565b92915050565b600081519050919050565b600082825260208201905092915050565b6000819050602082019050919050565b61059981610528565b82525050565b60006105ab8383610590565b60208301905092915050565b6000602082019050919050565b60006105cf82610564565b6105d9818561056f565b93506105e483610580565b8060005b838110156106155781516105fc888261059f565b9750610607836105b7565b9250506001810190506105e8565b5085935050505092915050565b6000602082019050818103600083015261063c81846105c4565b905092915050565b61064d8161047f565b82525050565b60006020820190506106686000830184610644565b92915050565b600082825260208201905092915050565b7f4f776e61626c653a2063616c6c6572206973206e6f7420746865206f776e6572600082015250565b60006106b560208361066e565b91506106c08261067f565b602082019050919050565b600060208201905081810360008301526106e4816106a8565b9050919050565b7f4f776e61626c653a206e6577206f776e657220697320746865207a65726f206160008201527f6464726573730000000000000000000000000000000000000000000000000000602082015250565b600061074760268361066e565b9150610752826106eb565b604082019050919050565b600060208201905081810360008301526107768161073a565b905091905056fea264697066735822122070773f4531a5b62c4508ae2d9f6599989b9523cab5213cb771eb7679821be3ff64736f6c63430008090033",
  "immutableReferences": {},
  "source": "// SPDX-License-Identifier: MIT\npragma solidity >=0.4.0;\n\nimport \"./TransferProposal.sol\";\nimport \"@openzeppelin/contracts/access/Ownable.sol\";\n\ncontract TreasureTransferChest is Ownable {\n  TransferProposal[] private _listOfTransferProposals;\n  mapping(address => TransferProposal) transferProposals;\n\n  event NewTransferProposalAdded(\n    string _title,\n    address _sourceAddress,\n    address _destinationAddress,\n    uint256 _amount\n  );\n\n  function _newTransferProposal(\n    string memory _title,\n    string memory _description,\n    uint256 _debatingPeriod,\n    address _recipient,\n    uint256 _amount\n  ) internal returns (uint256 proposalId) {\n    TransferProposal p = new TransferProposal(\n      _msgSender(),\n      _description,\n      _title,\n      _debatingPeriod,\n      _recipient,\n      _amount\n    );\n    _listOfTransferProposals.push(p);\n    transferProposals[address(p)] = p;\n\n    emit NewTransferProposalAdded(_title, msg.sender, _recipient, _amount);\n    return _listOfTransferProposals.length;\n  }\n\n  function getAllTransferProposals()\n    external\n    view\n    returns (TransferProposal[] memory)\n  {\n    return _listOfTransferProposals;\n  }\n\n  function getTransferProposal(address _proposalAddress)\n    external\n    view\n    returns (TransferProposal)\n  {\n    return transferProposals[_proposalAddress];\n  }\n}\n",
  "sourcePath": "/Users/chungquantin/Desktop/Projects/DecentralizedOpenSource/smart-bay/contracts/features/dao/proposal/TreasureTransferChest.sol",
  "compiler": {
    "name": "solc",
    "version": "0.8.9+commit.e5eed63a.Emscripten.clang"
  },
  "schemaVersion": "3.4.3",
  "updatedAt": "2021-11-15T00:45:51.329Z",
  "networkType": "ethereum",
  "devdoc": {
    "kind": "dev",
    "methods": {
      "owner()": {
        "details": "Returns the address of the current owner."
      },
      "renounceOwnership()": {
        "details": "Leaves the contract without owner. It will not be possible to call `onlyOwner` functions anymore. Can only be called by the current owner. NOTE: Renouncing ownership will leave the contract without an owner, thereby removing any functionality that is only available to the owner."
      },
      "transferOwnership(address)": {
        "details": "Transfers ownership of the contract to a new account (`newOwner`). Can only be called by the current owner."
      }
    },
    "version": 1
  },
  "userdoc": {
    "kind": "user",
    "methods": {},
    "version": 1
  }
}