{
  "contractName": "TreasureBayFactory",
  "abi": [
    {
      "anonymous": false,
      "inputs": [
        {
          "indexed": true,
          "internalType": "string",
          "name": "name",
          "type": "string"
        },
        {
          "indexed": true,
          "internalType": "address",
          "name": "creator",
          "type": "address"
        },
        {
          "indexed": true,
          "internalType": "address",
          "name": "bayAddress",
          "type": "address"
        }
      ],
      "name": "NewBayCreated",
      "type": "event"
    },
    {
      "anonymous": false,
      "inputs": [
        {
          "indexed": true,
          "internalType": "address",
          "name": "previousOwner",
          "type": "address"
        },
        {
          "indexed": true,
          "internalType": "address",
          "name": "newOwner",
          "type": "address"
        }
      ],
      "name": "OwnershipTransferred",
      "type": "event"
    },
    {
      "inputs": [],
      "name": "owner",
      "outputs": [
        {
          "internalType": "address",
          "name": "",
          "type": "address"
        }
      ],
      "stateMutability": "view",
      "type": "function"
    },
    {
      "inputs": [],
      "name": "renounceOwnership",
      "outputs": [],
      "stateMutability": "nonpayable",
      "type": "function"
    },
    {
      "inputs": [
        {
          "internalType": "address",
          "name": "newOwner",
          "type": "address"
        }
      ],
      "name": "transferOwnership",
      "outputs": [],
      "stateMutability": "nonpayable",
      "type": "function"
    },
    {
      "inputs": [
        {
          "internalType": "string",
          "name": "name_",
          "type": "string"
        },
        {
          "internalType": "uint64",
          "name": "limitNumberOfMembers_",
          "type": "uint64"
        },
        {
          "internalType": "uint64",
          "name": "limitNumberOfTreasureHunters_",
          "type": "uint64"
        }
      ],
      "name": "createNewBay",
      "outputs": [
        {
          "internalType": "bool",
          "name": "",
          "type": "bool"
        }
      ],
      "stateMutability": "nonpayable",
      "type": "function"
    },
    {
      "inputs": [
        {
          "internalType": "address",
          "name": "bayAddress",
          "type": "address"
        }
      ],
      "name": "deleteBay",
      "outputs": [],
      "stateMutability": "nonpayable",
      "type": "function"
    },
    {
      "inputs": [],
      "name": "getAllBays",
      "outputs": [
        {
          "internalType": "contract ITreasureBay[]",
          "name": "",
          "type": "address[]"
        }
      ],
      "stateMutability": "view",
      "type": "function"
    },
    {
      "inputs": [
        {
          "internalType": "address",
          "name": "bayAddress",
          "type": "address"
        }
      ],
      "name": "getBay",
      "outputs": [
        {
          "internalType": "contract ITreasureBay",
          "name": "",
          "type": "address"
        }
      ],
      "stateMutability": "view",
      "type": "function"
    }
  ],
  "bytecode": "0x608060405234801561001057600080fd5b50610033610025640100000000610038810204565b64010000000061003c810204565b61008c565b3390565b60008054600160a060020a03838116600160a060020a0319831681178455604051919092169283917f8be0079c531659141344cd1fd0a4f28419497f9722a3daafe3b4186f6b6457e09190a35050565b6138958061009b6000396000f3fe60806040523480156200001157600080fd5b5060043610620000795760e060020a60003504630579e25b81146200007e57806349c2644014620000aa57806361002e1014620000c3578063715018a614620000dc5780638da5cb5b14620000e65780639a41e3ef1462000109578063f2fde38b1462000138575b600080fd5b620000956200008f36600462000592565b6200014f565b60405190151581526020015b60405180910390f35b620000b46200024e565b604051620000a1919062000671565b620000da620000d4366004620006c0565b620002b2565b005b620000da620003ee565b620000f06200043c565b604051600160a060020a039091168152602001620000a1565b620000f06200011a366004620006c0565b600160a060020a039081166000908152600260205260409020541690565b620000da62000149366004620006c0565b6200044b565b60008084848460405162000163906200054d565b620001719392919062000725565b604051809103906000f0801580156200018e573d6000803e3d6000fd5b50600180548082019091557fb10e2d527612073b26eecdfd717e6a320cf44b4afac2b0732d9fcbe2b7fa0cf6018054600160a060020a038316600160a060020a031991821681179092556000828152600260205260409020805490911682179055909150620001fa3390565b600160a060020a03168660405162000213919062000772565b604051908190038120907f31e76f752b66dd3322b05ee2c750c9cdd43aa32797450f4e05f8f0f6a62eb28e90600090a4506001949350505050565b60606001805480602002602001604051908101604052809291908181526020018280548015620002a857602002820191906000526020600020905b8154600160a060020a0316815260019091019060200180831162000289575b5050505050905090565b60005b600154811015620003c65781600160a060020a031660018281548110620002e057620002e062000790565b600091825260209091200154600160a060020a03161415620003b15760016200030a8282620007c4565b815481106200031d576200031d62000790565b60009182526020909120015460018054600160a060020a0390921691839081106200034c576200034c62000790565b9060005260206000200160006101000a815481600160a060020a030219169083600160a060020a0316021790555060018054806200038e576200038e620007df565b60008281526020902081016000199081018054600160a060020a03191690550190555b80620003bd81620007f9565b915050620002b5565b50600160a060020a031660009081526002602052604090208054600160a060020a0319169055565b33620003f96200043c565b600160a060020a0316146200042e5760405160e560020a62461bcd028152600401620004259062000817565b60405180910390fd5b6200043a6000620004fd565b565b600054600160a060020a031690565b33620004566200043c565b600160a060020a031614620004825760405160e560020a62461bcd028152600401620004259062000817565b600160a060020a038116620004ef5760405160e560020a62461bcd02815260206004820152602660248201527f4f776e61626c653a206e6577206f776e657220697320746865207a65726f2061604482015260d060020a6564647265737302606482015260840162000425565b620004fa81620004fd565b50565b60008054600160a060020a03838116600160a060020a0319831681178455604051919092169283917f8be0079c531659141344cd1fd0a4f28419497f9722a3daafe3b4186f6b6457e09190a35050565b613013806200084d83390190565b60e060020a634e487b710260009081526041600452602490fd5b80356001604060020a03811681146200058d57600080fd5b919050565b600080600060608486031215620005a857600080fd5b83356001604060020a0380821115620005c057600080fd5b818601915086601f830112620005d557600080fd5b813581811115620005ea57620005ea6200055b565b604051601f8201601f19908116603f011681019083821181831017156200061557620006156200055b565b816040528281528960208487010111156200062f57600080fd5b826020860160208301376000602084830101528097505050505050620006586020850162000575565b9150620006686040850162000575565b90509250925092565b6020808252825182820181905260009190848201906040850190845b81811015620006b4578351600160a060020a0316835292840192918401916001016200068d565b50909695505050505050565b600060208284031215620006d357600080fd5b8135600160a060020a0381168114620006eb57600080fd5b9392505050565b60005b838110156200070f578181015183820152602001620006f5565b838111156200071f576000848401525b50505050565b606081526000845180606084015262000746816080850160208901620006f2565b6001604060020a0394851660208401529290931660408201526080601f909201601f1916010192915050565b6000825162000786818460208701620006f2565b9190910192915050565b60e060020a634e487b710260009081526032600452602490fd5b60e060020a634e487b710260009081526011600452602490fd5b60008219821115620007da57620007da620007aa565b500190565b60e060020a634e487b710260009081526031600452602490fd5b6000600019821415620008105762000810620007aa565b5060010190565b6020808252818101527f4f776e61626c653a2063616c6c6572206973206e6f7420746865206f776e657260408201526060019056fe60806040819052600480546001608060020a03167a03f4800000000000093a8000000000000000000000000000000000179055600d805460ff1916905562003013388190039081908339810160408190526200005b91620002c8565b6200006e6401000000006200016f810204565b60028054600160a060020a03929092166801000000000000000002604060020a60e060020a0319909216919091179055620000c4620000b56401000000006200016f810204565b64010000000062000173810204565b6004805467ffffffffffffffff19166001604060020a0384811691909117909155600a805460a060020a60e060020a031916740100000000000000000000000000000000000000009284169290920291909117905582516200012e906009906020860190620001d6565b50620001426401000000006200016f810204565b600a8054600160a060020a031916600160a060020a0392909216919091179055505042600f555062000421565b3390565b60058054600160a060020a0383811668010000000000000000818102604060020a60e060020a031985161790945560405193909204169182907f8be0079c531659141344cd1fd0a4f28419497f9722a3daafe3b4186f6b6457e090600090a35050565b828054620001e490620003cb565b90600052602060002090601f01602090048101928262000208576000855562000253565b82601f106200022357805160ff191683800117855562000253565b8280016001018555821562000253579182015b828111156200025357825182559160200191906001019062000236565b506200026192915062000265565b5090565b5b8082111562000261576000815560010162000266565b7f4e487b7100000000000000000000000000000000000000000000000000000000600052604160045260246000fd5b80516001604060020a0381168114620002c357600080fd5b919050565b600080600060608486031215620002de57600080fd5b83516001604060020a0380821115620002f657600080fd5b818601915086601f8301126200030b57600080fd5b8151818111156200032057620003206200027c565b604051601f8201601f19908116603f011681019083821181831017156200034b576200034b6200027c565b816040528281526020935089848487010111156200036857600080fd5b600091505b828210156200038c57848201840151818301850152908301906200036d565b828211156200039e5760008484830101525b9650620003b0915050868201620002ab565b93505050620003c260408501620002ab565b90509250925092565b600281046001821680620003e057607f821691505b602082108114156200041b577f4e487b7100000000000000000000000000000000000000000000000000000000600052602260045260246000fd5b50919050565b612be280620004316000396000f3fe608060405260043610620001735760e060020a600035046302d05d3f81146200017857806306fdde0314620001b25780631e3ab98314620001d9578063246d59af146200021457806328cd149414620002685780632def6620146200028a5780633a4b66f114620002965780633b5b4f2c14620002a05780634653f1d114620002c55780634df6d6cc14620002ec5780634e71d92d146200033157806352d4aedc146200033b578063567e98f9146200036f5780635f9fed55146200038757806362c48ae714620003c4578063715018a614620003eb5780637ddf5c0414620004035780637f6f4e9c146200042a57806384780fd214620004515780638b59ca1d146200047a5780638da5cb5b1462000492578063b898e60114620004aa578063bcb0c2d714620004cc578063c07cfca914620004f1578063cd555bf1146200056b578063cf09e0d01462000594578063f2fde38b14620005ac578063f851a44014620005d1578063f8d41b9614620005fa575b600080fd5b3480156200018557600080fd5b50600a546200019a90600160a060020a031681565b604051620001a99190620016f0565b60405180910390f35b348015620001bf57600080fd5b50620001ca62000621565b604051620001a9919062001754565b348015620001e657600080fd5b50600254620001fb906001604060020a031681565b6040516001604060020a039091168152602001620001a9565b3480156200022157600080fd5b5062000258620002333660046200178d565b600c6020526000908152604090208054600190910154600160a060020a039091169082565b604051620001a9929190620017ab565b3480156200027557600080fd5b50600454620001fb906001604060020a031681565b62000294620006b7565b005b62000294620008ba565b348015620002ad57600080fd5b506200019a620002bf366004620017c4565b6200099b565b348015620002d257600080fd5b50620002dd620009c6565b604051620001a991906200180a565b348015620002f957600080fd5b50620003206200030b3660046200178d565b600e6020526000908152604090205460ff1681565b6040519015158152602001620001a9565b6200029462000a52565b3480156200034857600080fd5b50620003606200035a3660046200190a565b62000af4565b604051908152602001620001a9565b3480156200037c57600080fd5b506200036060035481565b3480156200039457600080fd5b506200019a620003a63660046200178d565b600160a060020a039081166000908152600760205260409020541690565b348015620003d157600080fd5b50620003dc62000b72565b604051620001a99190620019c0565b348015620003f857600080fd5b506200029462000d6d565b3480156200041057600080fd5b506200041b62000db2565b604051620001a99190620019d6565b3480156200043757600080fd5b506200044262000e16565b604051620001a9919062001a19565b3480156200045e57600080fd5b50600454620001fb90604060020a90046001604060020a031681565b3480156200048757600080fd5b506200029462000e84565b3480156200049f57600080fd5b506200019a62000fc8565b348015620004b757600080fd5b50600554620001fb906001604060020a031681565b348015620004d957600080fd5b5062000294620004eb3660046200178d565b62000fde565b348015620004fe57600080fd5b5062000542620005103660046200178d565b60016020819052600091825260409091208054918101546002820154600390920154600160a060020a03909116919084565b60408051948552600160a060020a039093166020850152918301526060820152608001620001a9565b3480156200057857600080fd5b50600a54620001fb9060a060020a90046001604060020a031681565b348015620005a157600080fd5b5062000360600f5481565b348015620005b957600080fd5b5062000294620005cb3660046200178d565b620011e0565b348015620005de57600080fd5b506002546200019a90604060020a9004600160a060020a031681565b3480156200060757600080fd5b506200061262001292565b604051620001a9919062001a6a565b60098054620006309062001a7a565b80601f01602080910402602001604051908101604052809291908181526020018280546200065e9062001a7a565b8015620006af5780601f106200068357610100808354040283529160200191620006af565b820191906000526020600020905b8154815290600101906020018083116200069157829003601f168201915b505050505081565b33600090815260016020526040902054620006f25760405160e560020a62461bcd028152600401620006e99062001abb565b60405180910390fd5b600454336000908152600160205260409020600301546200072491608060020a90046001604060020a03169062001b03565b42116200078a5760405160e560020a62461bcd02815260206004820152602760248201527f4d757374207374616b656420666f7220372064617973206265666f726520756e604482015260c860020a667374616b696e67026064820152608401620006e9565b33600090815260016020526040902054341115620007ee5760405160e560020a62461bcd02815260206004820152601a60248201527f496e73756666696369656e74207374616b656420616d6f756e740000000000006044820152606401620006e9565b60405133903480156108fc02916000818181858888f193505050501580156200081b573d6000803e3d6000fd5b5033600090815260016020526040812080543492906200083d90849062001b03565b9091555050336000908152600160205260409020546200086257620008623362000fde565b346003600082825462000876919062001b1e565b909155507f85082129d87b2fe11527cb1b3b7a520aeb5aa6913f88a3d8757fe40d1db02fdd9050335b34604051620008b0929190620017ab565b60405180910390a1565b60003411620008e05760405160e560020a62461bcd028152600401620006e99062001b38565b6005546001604060020a03163411620009105760405160e560020a62461bcd028152600401620006e99062001b38565b3360009081526001602052604090205462000931576200092f62001292565b505b33600090815260016020526040812080543492906200095290849062001b03565b9250508190555034600360008282546200096d919062001b03565b909155507febedb8b3c678666e7f36970bc8f57abf6d8fa2e828c0da91ea5b75bf68ed101a9050336200089f565b60088181548110620009ac57600080fd5b600091825260209091200154600160a060020a0316905081565b60606000805480602002602001604051908101604052809291908181526020016000905b8282101562000a49576000848152602090819020604080516080810182526004860290920180548352600180820154600160a060020a0316848601526002820154928401929092526003015460608301529083529092019101620009ea565b50505050905090565b3360009081526001602052604090205462000a845760405160e560020a62461bcd028152600401620006e99062001abb565b33600090815260016020526040902060020154421162000ad95760405160e560020a62461bcd028152602060048201526009602482015260b860020a68546f6f206561726c79026044820152606401620006e9565b3360009081526001602052604090206203f480600290910155565b3360009081526001602052604081205462000b505760405160e560020a62461bcd0281526020600482015260156024820152605960020a7436bab9ba10313290309039ba30b5b2b437b63232b9026044820152606401620006e9565b62000b688686866001604060020a031686866200158b565b9695505050505050565b6040805180820190915260008082526020820152600a54600b5460a060020a9091046001604060020a0316101562000c035760405160e560020a62461bcd02815260206004820152602760248201527f73757270617373206c696d6974206e756d626572206f66207472656173757265604482015260c860020a6648756e74657273026064820152608401620006e9565b604051806040016040528062000c163390565b600160a060020a03908116825242602092830152336000908152600c83526040812084518154600160a060020a031990811691851691909117825594909301516001808501918255600b805491820181559283905293547f0175b7a638427703f0dbe7bb9bbf987a2551717b34e79f33b5b1008d1fa01db960029095029485018054909616931692909217909355547f0175b7a638427703f0dbe7bb9bbf987a2551717b34e79f33b5b1008d1fa01dba90910155546005101562000ce257600d805460ff191660011790555b336000908152600c6020526040908190205490517fef7dd88fd6e07a1960a539671612f14f6e19471ee795cade675fb83c942674159162000d3191600160a060020a03909116904290620017ab565b60405180910390a150336000908152600c602090815260409182902082518084019093528054600160a060020a03168352600101549082015290565b3362000d7862000fc8565b600160a060020a03161462000da45760405160e560020a62461bcd028152600401620006e99062001b6a565b62000db0600062001684565b565b6060600680548060200260200160405190810160405280929190818152602001828054801562000e0c57602002820191906000526020600020905b8154600160a060020a0316815260019091019060200180831162000ded575b5050505050905090565b6060600b805480602002602001604051908101604052809291908181526020016000905b8282101562000a4957600084815260209081902060408051808201909152600285029091018054600160a060020a0316825260019081015482840152908352909201910162000e3a565b60005b600b5481101562000fa45733600160a060020a0316600b828154811062000eb25762000eb262001b9f565b6000918252602090912060029091020154600160a060020a0316141562000f8f57600b62000ee282600162001b03565b8154811062000ef55762000ef562001b9f565b9060005260206000209060020201600b828154811062000f195762000f1962001b9f565b6000918252602090912082546002909202018054600160a060020a031916600160a060020a03909216919091178155600191820154910155600b80548062000f655762000f6562001bb9565b6000828152602081206002600019909301928302018054600160a060020a03191681556001015590555b8062000f9b8162001bd3565b91505062000e87565b50336000908152600c602052604081208054600160a060020a031916815560010155565b600554604060020a9004600160a060020a031690565b60005b600054811015620011255733600160a060020a0316600082815481106200100c576200100c62001b9f565b6000918252602090912060016004909202010154600160a060020a03161415620011105760006200103f82600162001b03565b8154811062001052576200105262001b9f565b90600052602060002090600402016000828154811062001076576200107662001b9f565b60009182526020822083546004909202019081556001808401549082018054600160a060020a031916600160a060020a0390921691909117905560028084015490820155600392830154920191909155805480620010d857620010d862001bb9565b600082815260208120600460001990930192830201818155600181018054600160a060020a0319169055600281018290556003015590555b806200111c8162001bd3565b91505062000fe1565b50600160a060020a038116600090815260016020819052604082208281558082018054600160a060020a031916905560028082018490556003909101839055805491929091620011809084906001604060020a031662001bf1565b92506101000a8154816001604060020a0302191690836001604060020a031602179055507f6f1eb9379ef97a9fc8efe5b92a387d1291f5c65d0929df551aea69371e05403c81604051620011d59190620016f0565b60405180910390a150565b33620011eb62000fc8565b600160a060020a031614620012175760405160e560020a62461bcd028152600401620006e99062001b6a565b600160a060020a038116620012845760405160e560020a62461bcd02815260206004820152602660248201527f4f776e61626c653a206e6577206f776e657220697320746865207a65726f2061604482015260d060020a65646472657373026064820152608401620006e9565b6200128f8162001684565b50565b620012c76040518060800160405280600081526020016000600160a060020a0316815260200160008152602001600081525090565b6004546002546001604060020a03918216911611156200133c5760405160e560020a62461bcd028152602060048201526024808201527f73757270617373206c696d6974206e756d626572206f66207374616b65686f6c604482015260e060020a6364657273026064820152608401620006e9565b604051806080016040528060008152602001620013563390565b600160a060020a03168152600454602090910190620013869060c060020a90046001604060020a03164262001b03565b8152426020918201523360009081526001808352604080832085518155938501518483018054600160a060020a0319908116600160a060020a03938416178255928701516002808801918255606090980151600388019081558654808701885587805297547f290decd9548b62a8d60345a988386fc84ba6bc95484008f6362f93160ef3e56360049099029889015591547f290decd9548b62a8d60345a988386fc84ba6bc95484008f6362f93160ef3e56488018054909516931692909217909255547f290decd9548b62a8d60345a988386fc84ba6bc95484008f6362f93160ef3e565850155547f290decd9548b62a8d60345a988386fc84ba6bc95484008f6362f93160ef3e566909301929092558254919291620014b19084906001604060020a031662001c1c565b92506101000a8154816001604060020a0302191690836001604060020a031602179055507f45353ebbf1c4a0468ba13a94bc212a3b8fc4b624385aa0e9c3fa07045d7d827d60016000620015023390565b600160a060020a0390811682526020820192909252604090810160002060010154905162001535929190911690620016f0565b60405180910390a1503360009081526001602081815260409283902083516080810185528154815292810154600160a060020a031691830191909152600281015492820192909252600390910154606082015290565b600080338688878787604051620015a290620016e2565b620015b39695949392919062001c4a565b604051809103906000f080158015620015d0573d6000803e3d6000fd5b5060068054600181019091557ff652222313e28459528d920b65115c16c04f3efc82aaedc97be59f3f377c0d3f018054600160a060020a038316600160a060020a031991821681179092556000828152600760205260409081902080549092169092179055519091507fa9a62b7c28d7da43010d6fdf373b4026f4156bc0402ee1b0bdf2acf13a741421906200166e90899033908890889062001ca1565b60405180910390a1505060065495945050505050565b60058054600160a060020a03838116604060020a818102604060020a60e060020a031985161790945560405193909204169182907f8be0079c531659141344cd1fd0a4f28419497f9722a3daafe3b4186f6b6457e090600090a35050565b610ed38062001cda83390190565b600160a060020a0391909116815260200190565b6000815180845260005b818110156200172c576020818501810151868301820152016200170e565b818111156200173f576000602083870101525b50601f01601f19169290920160200192915050565b60208152600062001769602083018462001704565b9392505050565b8035600160a060020a03811681146200178857600080fd5b919050565b600060208284031215620017a057600080fd5b620017698262001770565b600160a060020a03929092168252602082015260400190565b600060208284031215620017d757600080fd5b5035919050565b80518252602080820151600160a060020a03169083015260408082015190830152606090810151910152565b6020808252825182820181905260009190848201906040850190845b8181101562001850576200183c838551620017de565b928401926080929092019160010162001826565b50909695505050505050565b60e060020a634e487b710260009081526041600452602490fd5b600082601f8301126200188857600080fd5b81356001604060020a0380821115620018a557620018a56200185c565b604051601f8301601f19908116603f01168101908282118183101715620018d057620018d06200185c565b81604052838152866020858801011115620018ea57600080fd5b836020870160208301376000602085830101528094505050505092915050565b600080600080600060a086880312156200192357600080fd5b85356001604060020a03808211156200193b57600080fd5b6200194989838a0162001876565b965060208801359150808211156200196057600080fd5b6200196e89838a0162001876565b95506040880135915080821682146200198657600080fd5b509250620019976060870162001770565b949793965091946080013592915050565b8051600160a060020a03168252602090810151910152565b60408101620019d08284620019a8565b92915050565b6020808252825182820181905260009190848201906040850190845b8181101562001850578351600160a060020a031683529284019291840191600101620019f2565b602080825282518282018190526000919060409081850190868401855b8281101562001a5d5762001a4c848351620019a8565b928401929085019060010162001a36565b5091979650505050505050565b60808101620019d08284620017de565b60028104600182168062001a8f57607f821691505b6020821081141562001ab55760e060020a634e487b710260009081526022600452602490fd5b50919050565b6020808252601190820152607960020a702737ba10309039ba30b5b2b437b63232b902604082015260600190565b60e060020a634e487b710260009081526011600452602490fd5b6000821982111562001b195762001b1962001ae9565b500190565b60008282101562001b335762001b3362001ae9565b500390565b6020808252601590820152605a60020a741a5b9d985b1a59081cdd185ad95908185b5bdd5b9d02604082015260600190565b6020808252818101527f4f776e61626c653a2063616c6c6572206973206e6f7420746865206f776e6572604082015260600190565b60e060020a634e487b710260009081526032600452602490fd5b60e060020a634e487b710260009081526031600452602490fd5b600060001982141562001bea5762001bea62001ae9565b5060010190565b60006001604060020a038381169083168181101562001c145762001c1462001ae9565b039392505050565b60006001604060020a0382811684821680830382111562001c415762001c4162001ae9565b01949350505050565b6000600160a060020a03808916835260c0602084015262001c6f60c084018962001704565b838103604085015262001c83818962001704565b60608501979097525093909316608082015260a00152509392505050565b60808152600062001cb6608083018762001704565b600160a060020a039586166020840152939094166040820152606001529291505056fe60806040523480156200001157600080fd5b5060405162000ed338038062000ed38339810160408190526200003491620002e6565b858585856200005e6200004f640100000000620000e9810204565b640100000000620000ed810204565b60018054600160a060020a031916600160a060020a03861617905582516200008e9060029060208601906200013d565b508151620000a49060039060208501906200013d565b5060045550506005805461ffff191690555042600a55600b8054600160a060020a031916600160a060020a039390931692909217909155600c5550620003dd92505050565b3390565b60008054600160a060020a03838116600160a060020a0319831681178455604051919092169283917f8be0079c531659141344cd1fd0a4f28419497f9722a3daafe3b4186f6b6457e09190a35050565b8280546200014b9062000387565b90600052602060002090601f0160209004810192826200016f5760008555620001ba565b82601f106200018a57805160ff1916838001178555620001ba565b82800160010185558215620001ba579182015b82811115620001ba5782518255916020019190600101906200019d565b50620001c8929150620001cc565b5090565b5b80821115620001c85760008155600101620001cd565b8051600160a060020a0381168114620001fb57600080fd5b919050565b7f4e487b7100000000000000000000000000000000000000000000000000000000600052604160045260246000fd5b600082601f8301126200024157600080fd5b81516001604060020a03808211156200025e576200025e62000200565b604051601f8301601f19908116603f0116810190828211818310171562000289576200028962000200565b81604052838152602092508683858801011115620002a657600080fd5b600091505b83821015620002ca5785820183015181830184015290820190620002ab565b83821115620002dc5760008385830101525b9695505050505050565b60008060008060008060c087890312156200030057600080fd5b6200030b87620001e3565b955060208701516001604060020a03808211156200032857600080fd5b620003368a838b016200022f565b965060408901519150808211156200034d57600080fd5b506200035c89828a016200022f565b945050606087015192506200037460808801620001e3565b915060a087015190509295509295509295565b6002810460018216806200039c57607f821691505b60208210811415620003d7577f4e487b7100000000000000000000000000000000000000000000000000000000600052602260045260246000fd5b50919050565b610ae680620003ed6000396000f3fe608060405234801561001057600080fd5b506004361061010a5760e060020a600035046302d05d3f811461010f578063036ee8501461013f5780631626fe6414610156578063227326b11461017657806324033674146101985780633174b689146101ab57806341c12a70146101b557806343d726d6146101bd5780634a79d50c146101c55780635351a3c8146101da578063655b737f146101fd57806366d003ac14610220578063715018a6146102335780637284e4161461023b5780638da5cb5b1461024357806390cf581c1461024b578063aa8c217c14610253578063cf09e0d01461025c578063e2c3b12214610265578063f2fde38b14610278578063fcfff16f1461028b575b600080fd5b60015461012290600160a060020a031681565b604051600160a060020a0390911681526020015b60405180910390f35b61014860045481565b604051908152602001610136565b61015e6102a5565b6040516001604060020a039091168152602001610136565b60055461018890610100900460ff1681565b6040519015158152602001610136565b60075461015e906001604060020a031681565b6101b36102ea565b005b6101b361045f565b6101b3610535565b6101cd6105c8565b6040516101369190610880565b6101886101e83660046108d5565b60086020526000908152604090205460ff1681565b61018861020b3660046108d5565b60066020526000908152604090205460ff1681565b600b5461012290600160a060020a031681565b6101b3610656565b6101cd610694565b6101226106a1565b6101b36106b0565b610148600c5481565b610148600a5481565b60095461015e906001604060020a031681565b6101b36102863660046108d5565b610710565b6005546102989060ff1681565b6040516101369190610905565b6009546007546000916102c4916001604060020a03918216911661094b565b6007546102db906001604060020a03166064610976565b6102e591906109a5565b905090565b6102f26107b9565b6103465760405160e560020a62461bcd02815260206004820152601c60248201527f746865206164647265737320646964206e6f7420766f7465207965740000000060448201526064015b60405180910390fd5b3360009081526006602052604090205460ff161515600114156103bb57336000908152600660205260408120805460ff1916905560078054600192906103969084906001604060020a03166109dd565b92506101000a8154816001604060020a0302191690836001604060020a031602179055505b3360009081526008602052604090205460ff1615156001141561043057336000908152600860205260408120805460ff19169055600980546001929061040b9084906001604060020a03166109dd565b92506101000a8154816001604060020a0302191690836001604060020a031602179055505b604051339030907f2817372c62bc3cdb73b84b6412d5ce40c6e73c30ef5fac6558d0c4cb3da410b790600090a3565b6104676107f3565b6104865760405160e560020a62461bcd02815260040161033d90610a05565b336000908152600860205260408120805460ff1916600190811790915560098054919290916104bf9084906001604060020a031661094b565b92506101000a8154816001604060020a0302191690836001604060020a0316021790555033600160a060020a031630600160a060020a03167fbbcca6f8778ffd7765644921c17ed2de4add7a9b4ca1a29614a6295edd4a2089600160405161052b911515815260200190565b60405180910390a3565b600154600160a060020a031633146105845760405160e560020a62461bcd02815260206004820152600c602482015260a160020a6b3737ba1030b71037bbb732b902604482015260640161033d565b6005805460ff1916600117905560405142815230907f6944894ba716aadf69fcd57834d5d2cc2e808f6a144c75d956068efa727e2a7e9060200160405180910390a2565b600380546105d590610a3c565b80601f016020809104026020016040519081016040528092919081815260200182805461060190610a3c565b801561064e5780601f106106235761010080835404028352916020019161064e565b820191906000526020600020905b81548152906001019060200180831161063157829003601f168201915b505050505081565b3361065f6106a1565b600160a060020a0316146106885760405160e560020a62461bcd02815260040161033d90610a7b565b6106926000610830565b565b600280546105d590610a3c565b600054600160a060020a031690565b6106b86107f3565b6106d75760405160e560020a62461bcd02815260040161033d90610a05565b336000908152600660205260408120805460ff1916600190811790915560078054919290916104bf9084906001604060020a031661094b565b336107196106a1565b600160a060020a0316146107425760405160e560020a62461bcd02815260040161033d90610a7b565b600160a060020a0381166107ad5760405160e560020a62461bcd02815260206004820152602660248201527f4f776e61626c653a206e6577206f776e657220697320746865207a65726f2061604482015260d060020a6564647265737302606482015260840161033d565b6107b681610830565b50565b3360009081526006602052604081205460ff161515600114806102e55750503360009081526008602052604090205460ff16151560011490565b3360009081526006602052604081205460ff1615156001148015906102e55750503360009081526008602052604090205460ff1615156001141590565b60008054600160a060020a03838116600160a060020a0319831681178455604051919092169283917f8be0079c531659141344cd1fd0a4f28419497f9722a3daafe3b4186f6b6457e09190a35050565b600060208083528351808285015260005b818110156108ad57858101830151858201604001528201610891565b818111156108bf576000604083870101525b50601f01601f1916929092016040019392505050565b6000602082840312156108e757600080fd5b8135600160a060020a03811681146108fe57600080fd5b9392505050565b602081016002831061092b5760e060020a634e487b710260009081526021600452602490fd5b91905290565b60e060020a634e487b710260009081526011600452602490fd5b60006001604060020a0382811684821680830382111561096d5761096d610931565b01949350505050565b60006001604060020a038281168482168115158284048211161561099c5761099c610931565b02949350505050565b60006001604060020a03838116806109d15760e060020a634e487b710260009081526012600452602490fd5b92169190910492915050565b60006001604060020a03838116908316818110156109fd576109fd610931565b039392505050565b6020808252601d908201527f74686520616464726573732068617320766f74656420616c7265616479000000604082015260600190565b600281046001821680610a5057607f821691505b60208210811415610a755760e060020a634e487b710260009081526022600452602490fd5b50919050565b6020808252818101527f4f776e61626c653a2063616c6c6572206973206e6f7420746865206f776e657260408201526060019056fea26469706673582212200148a84eb8c612ca346e3890539c61bcdd130cb58cc74f3e86db57cb1eca63aa64736f6c63430008090033a26469706673582212206d5513e94aa27f938fe10a7551b5da143665c8756a4c9c699e5acf4c7a89d05f64736f6c63430008090033a2646970667358221220232c14d61f14114066ba080ca6bed8c5c85bf5a6340e36436a549ba68086a8b864736f6c63430008090033",
  "immutableReferences": {},
  "source": "// SPDX-License-Identifier: MIT\npragma solidity >=0.8.0;\n\nimport \"./ITreasureBayFactory.sol\";\nimport \"./TreasureBay.sol\";\nimport \"@openzeppelin/contracts/access/Ownable.sol\";\n\ncontract TreasureBayFactory is ITreasureBayFactory, Ownable {\n  ITreasureBay[] private _listOfBays;\n  mapping(address => ITreasureBay) _mapOfBays;\n\n  function createNewBay(\n    string memory name_,\n    uint64 limitNumberOfMembers_,\n    uint64 limitNumberOfTreasureHunters_\n  ) external override returns (bool) {\n    TreasureBay bay = new TreasureBay(\n      name_,\n      limitNumberOfMembers_,\n      limitNumberOfTreasureHunters_\n    );\n    _listOfBays.push(bay);\n    _mapOfBays[address(bay)] = bay;\n\n    emit NewBayCreated(name_, _msgSender(), address(bay));\n    return true;\n  }\n\n  function deleteBay(address bayAddress) external {\n    for (uint256 index = 0; index < _listOfBays.length; index++) {\n      if (address(_listOfBays[index]) == bayAddress) {\n        _listOfBays[index] = _listOfBays[index + 1];\n        _listOfBays.pop();\n      }\n    }\n    delete _mapOfBays[bayAddress];\n  }\n\n  function getAllBays() external view override returns (ITreasureBay[] memory) {\n    return _listOfBays;\n  }\n\n  function getBay(address bayAddress)\n    external\n    view\n    override\n    returns (ITreasureBay)\n  {\n    return _mapOfBays[address(bayAddress)];\n  }\n}\n",
  "sourcePath": "/Users/chungquantin/Desktop/Projects/DecentralizedOpenSource/smart-bay/contracts/features/dao/TreasureBayFactory.sol",
  "compiler": {
    "name": "solc",
    "version": "0.8.9+commit.e5eed63a.Emscripten.clang"
  },
  "schemaVersion": "3.4.3",
  "updatedAt": "2021-11-17T17:43:12.042Z",
  "devdoc": {
    "kind": "dev",
    "methods": {
      "owner()": {
        "details": "Returns the address of the current owner."
      },
      "renounceOwnership()": {
        "details": "Leaves the contract without owner. It will not be possible to call `onlyOwner` functions anymore. Can only be called by the current owner. NOTE: Renouncing ownership will leave the contract without an owner, thereby removing any functionality that is only available to the owner."
      },
      "transferOwnership(address)": {
        "details": "Transfers ownership of the contract to a new account (`newOwner`). Can only be called by the current owner."
      }
    },
    "version": 1
  },
  "userdoc": {
    "kind": "user",
    "methods": {},
    "version": 1
  }
}