{
  "contractName": "TreasureTransferChest",
  "abi": [
    {
      "anonymous": false,
      "inputs": [
        {
          "indexed": false,
          "internalType": "string",
          "name": "_title",
          "type": "string"
        },
        {
          "indexed": false,
          "internalType": "address",
          "name": "_sourceAddress",
          "type": "address"
        },
        {
          "indexed": false,
          "internalType": "address",
          "name": "_destinationAddress",
          "type": "address"
        },
        {
          "indexed": false,
          "internalType": "uint256",
          "name": "_amount",
          "type": "uint256"
        }
      ],
      "name": "NewTransferProposalAdded",
      "type": "event"
    },
    {
      "anonymous": false,
      "inputs": [
        {
          "indexed": true,
          "internalType": "address",
          "name": "previousOwner",
          "type": "address"
        },
        {
          "indexed": true,
          "internalType": "address",
          "name": "newOwner",
          "type": "address"
        }
      ],
      "name": "OwnershipTransferred",
      "type": "event"
    },
    {
      "inputs": [],
      "name": "owner",
      "outputs": [
        {
          "internalType": "address",
          "name": "",
          "type": "address"
        }
      ],
      "stateMutability": "view",
      "type": "function"
    },
    {
      "inputs": [],
      "name": "renounceOwnership",
      "outputs": [],
      "stateMutability": "nonpayable",
      "type": "function"
    },
    {
      "inputs": [
        {
          "internalType": "address",
          "name": "newOwner",
          "type": "address"
        }
      ],
      "name": "transferOwnership",
      "outputs": [],
      "stateMutability": "nonpayable",
      "type": "function"
    },
    {
      "inputs": [],
      "name": "getAllTransferProposals",
      "outputs": [
        {
          "internalType": "contract TransferProposal[]",
          "name": "",
          "type": "address[]"
        }
      ],
      "stateMutability": "view",
      "type": "function"
    },
    {
      "inputs": [
        {
          "internalType": "address",
          "name": "_proposalAddress",
          "type": "address"
        }
      ],
      "name": "getTransferProposal",
      "outputs": [
        {
          "internalType": "contract TransferProposal",
          "name": "",
          "type": "address"
        }
      ],
      "stateMutability": "view",
      "type": "function"
    }
  ],
  "bytecode": "0x608060405234801561001057600080fd5b50610033610025640100000000610038810204565b64010000000061003c810204565b61008c565b3390565b60008054600160a060020a03838116600160a060020a0319831681178455604051919092169283917f8be0079c531659141344cd1fd0a4f28419497f9722a3daafe3b4186f6b6457e09190a35050565b61037b8061009b6000396000f3fe608060405234801561001057600080fd5b506004361061005a5760e060020a60003504635f9fed55811461005f578063715018a6146100a85780637ddf5c04146100b25780638da5cb5b146100c7578063f2fde38b146100cf575b600080fd5b61008b61006d366004610293565b600160a060020a039081166000908152600260205260409020541690565b604051600160a060020a0390911681526020015b60405180910390f35b6100b06100e2565b005b6100ba610129565b60405161009f91906102c3565b61008b61018b565b6100b06100dd366004610293565b61019a565b336100eb61018b565b600160a060020a03161461011d5760405160e560020a62461bcd02815260040161011490610310565b60405180910390fd5b6101276000610243565b565b6060600180548060200260200160405190810160405280929190818152602001828054801561018157602002820191906000526020600020905b8154600160a060020a03168152600190910190602001808311610163575b5050505050905090565b600054600160a060020a031690565b336101a361018b565b600160a060020a0316146101cc5760405160e560020a62461bcd02815260040161011490610310565b600160a060020a0381166102375760405160e560020a62461bcd02815260206004820152602660248201527f4f776e61626c653a206e6577206f776e657220697320746865207a65726f2061604482015260d060020a65646472657373026064820152608401610114565b61024081610243565b50565b60008054600160a060020a03838116600160a060020a0319831681178455604051919092169283917f8be0079c531659141344cd1fd0a4f28419497f9722a3daafe3b4186f6b6457e09190a35050565b6000602082840312156102a557600080fd5b8135600160a060020a03811681146102bc57600080fd5b9392505050565b6020808252825182820181905260009190848201906040850190845b81811015610304578351600160a060020a0316835292840192918401916001016102df565b50909695505050505050565b6020808252818101527f4f776e61626c653a2063616c6c6572206973206e6f7420746865206f776e657260408201526060019056fea26469706673582212205836cfa6af6ff7e6522efe354159e11f49510a89292ff7471885fc50ba7a19ac64736f6c63430008090033",
  "immutableReferences": {},
  "source": "// SPDX-License-Identifier: MIT\npragma solidity >=0.4.0;\n\nimport \"./TransferProposal.sol\";\nimport \"@openzeppelin/contracts/access/Ownable.sol\";\n\ncontract TreasureTransferChest is Ownable {\n  TransferProposal[] private _listOfTransferProposals;\n  mapping(address => TransferProposal) transferProposals;\n\n  event NewTransferProposalAdded(\n    string _title,\n    address _sourceAddress,\n    address _destinationAddress,\n    uint256 _amount\n  );\n\n  function _newTransferProposal(\n    string memory _title,\n    string memory _description,\n    uint256 _debatingPeriod,\n    address _recipient,\n    uint256 _amount\n  ) internal returns (uint256 proposalId) {\n    TransferProposal p = new TransferProposal(\n      _msgSender(),\n      _description,\n      _title,\n      _debatingPeriod,\n      _recipient,\n      _amount\n    );\n    _listOfTransferProposals.push(p);\n    transferProposals[address(p)] = p;\n\n    emit NewTransferProposalAdded(_title, msg.sender, _recipient, _amount);\n    return _listOfTransferProposals.length;\n  }\n\n  function getAllTransferProposals()\n    external\n    view\n    returns (TransferProposal[] memory)\n  {\n    return _listOfTransferProposals;\n  }\n\n  function getTransferProposal(address _proposalAddress)\n    external\n    view\n    returns (TransferProposal)\n  {\n    return transferProposals[_proposalAddress];\n  }\n}\n",
  "sourcePath": "/Users/chungquantin/Desktop/Projects/DecentralizedOpenSource/smart-bay/contracts/features/dao/proposal/TreasureTransferChest.sol",
  "compiler": {
    "name": "solc",
    "version": "0.8.9+commit.e5eed63a.Emscripten.clang"
  },
  "schemaVersion": "3.4.3",
  "updatedAt": "2021-11-17T03:08:21.775Z",
  "devdoc": {
    "kind": "dev",
    "methods": {
      "owner()": {
        "details": "Returns the address of the current owner."
      },
      "renounceOwnership()": {
        "details": "Leaves the contract without owner. It will not be possible to call `onlyOwner` functions anymore. Can only be called by the current owner. NOTE: Renouncing ownership will leave the contract without an owner, thereby removing any functionality that is only available to the owner."
      },
      "transferOwnership(address)": {
        "details": "Transfers ownership of the contract to a new account (`newOwner`). Can only be called by the current owner."
      }
    },
    "version": 1
  },
  "userdoc": {
    "kind": "user",
    "methods": {},
    "version": 1
  }
}