{
  "contractName": "TreasureExchangeChest",
  "abi": [
    {
      "inputs": [
        {
          "internalType": "uint256",
          "name": "",
          "type": "uint256"
        }
      ],
      "name": "exchangeProposals",
      "outputs": [
        {
          "internalType": "contract ExchangeProposal",
          "name": "",
          "type": "address"
        }
      ],
      "stateMutability": "view",
      "type": "function"
    }
  ],
  "bytecode": "0x608060405234801561001057600080fd5b5060d28061001f6000396000f3fe6080604052348015600f57600080fd5b5060043610602b5760e060020a60003504633b5b4f2c81146030575b600080fd5b603f603b3660046084565b605b565b604051600160a060020a03909116815260200160405180910390f35b60008181548110606a57600080fd5b600091825260209091200154600160a060020a0316905081565b600060208284031215609557600080fd5b503591905056fea264697066735822122079f041bf8b787dcef2024fd634b1ee460928b79c8df23a20d32df761418167b464736f6c63430008090033",
  "immutableReferences": {},
  "source": "// SPDX-License-Identifier: MIT\npragma solidity >=0.4.0;\n\nimport \"./ExchangeProposal.sol\";\n\ncontract TreasureExchangeChest {\n  ExchangeProposal[] public exchangeProposals;\n}\n",
  "sourcePath": "/Users/chungquantin/Desktop/Projects/DecentralizedOpenSource/smart-bay/contracts/features/dao/proposal/TreasureExchangeChest.sol",
  "compiler": {
    "name": "solc",
    "version": "0.8.9+commit.e5eed63a.Emscripten.clang"
  },
  "schemaVersion": "3.4.3",
  "updatedAt": "2021-11-16T03:48:32.081Z",
  "devdoc": {
    "kind": "dev",
    "methods": {},
    "version": 1
  },
  "userdoc": {
    "kind": "user",
    "methods": {},
    "version": 1
  }
}