{
  "contractName": "TreasureWoodyChest",
  "abi": [
    {
      "anonymous": false,
      "inputs": [
        {
          "indexed": false,
          "internalType": "string",
          "name": "_title",
          "type": "string"
        },
        {
          "indexed": false,
          "internalType": "address",
          "name": "_sourceAddress",
          "type": "address"
        }
      ],
      "name": "NewProposalAdded",
      "type": "event"
    },
    {
      "anonymous": false,
      "inputs": [
        {
          "indexed": true,
          "internalType": "address",
          "name": "previousOwner",
          "type": "address"
        },
        {
          "indexed": true,
          "internalType": "address",
          "name": "newOwner",
          "type": "address"
        }
      ],
      "name": "OwnershipTransferred",
      "type": "event"
    },
    {
      "inputs": [],
      "name": "owner",
      "outputs": [
        {
          "internalType": "address",
          "name": "",
          "type": "address"
        }
      ],
      "stateMutability": "view",
      "type": "function"
    },
    {
      "inputs": [],
      "name": "renounceOwnership",
      "outputs": [],
      "stateMutability": "nonpayable",
      "type": "function"
    },
    {
      "inputs": [
        {
          "internalType": "address",
          "name": "newOwner",
          "type": "address"
        }
      ],
      "name": "transferOwnership",
      "outputs": [],
      "stateMutability": "nonpayable",
      "type": "function"
    },
    {
      "inputs": [],
      "name": "getAllProposals",
      "outputs": [
        {
          "internalType": "contract Proposal[]",
          "name": "",
          "type": "address[]"
        }
      ],
      "stateMutability": "view",
      "type": "function"
    },
    {
      "inputs": [
        {
          "internalType": "address",
          "name": "_proposalAddress",
          "type": "address"
        }
      ],
      "name": "getProposal",
      "outputs": [
        {
          "internalType": "contract Proposal",
          "name": "",
          "type": "address"
        }
      ],
      "stateMutability": "view",
      "type": "function"
    }
  ],
  "bytecode": "0x608060405234801561001057600080fd5b50610033610025640100000000610038810204565b64010000000061003c810204565b61008c565b3390565b60008054600160a060020a03838116600160a060020a0319831681178455604051919092169283917f8be0079c531659141344cd1fd0a4f28419497f9722a3daafe3b4186f6b6457e09190a35050565b61037b8061009b6000396000f3fe608060405234801561001057600080fd5b506004361061005a5760e060020a6000350463715018a6811461005f5780638da5cb5b14610069578063cceb68f51461008e578063eb8b9811146100a3578063f2fde38b146100cf575b600080fd5b6100676100e2565b005b610071610129565b604051600160a060020a0390911681526020015b60405180910390f35b610096610138565b6040516100859190610293565b6100716100b13660046102e0565b600160a060020a039081166000908152600260205260409020541690565b6100676100dd3660046102e0565b61019a565b336100eb610129565b600160a060020a03161461011d5760405160e560020a62461bcd02815260040161011490610310565b60405180910390fd5b6101276000610243565b565b600054600160a060020a031690565b6060600180548060200260200160405190810160405280929190818152602001828054801561019057602002820191906000526020600020905b8154600160a060020a03168152600190910190602001808311610172575b5050505050905090565b336101a3610129565b600160a060020a0316146101cc5760405160e560020a62461bcd02815260040161011490610310565b600160a060020a0381166102375760405160e560020a62461bcd02815260206004820152602660248201527f4f776e61626c653a206e6577206f776e657220697320746865207a65726f2061604482015260d060020a65646472657373026064820152608401610114565b61024081610243565b50565b60008054600160a060020a03838116600160a060020a0319831681178455604051919092169283917f8be0079c531659141344cd1fd0a4f28419497f9722a3daafe3b4186f6b6457e09190a35050565b6020808252825182820181905260009190848201906040850190845b818110156102d4578351600160a060020a0316835292840192918401916001016102af565b50909695505050505050565b6000602082840312156102f257600080fd5b8135600160a060020a038116811461030957600080fd5b9392505050565b6020808252818101527f4f776e61626c653a2063616c6c6572206973206e6f7420746865206f776e657260408201526060019056fea264697066735822122068634fc618139a566492011b18492793f7cd481d1fb4b82839311fb182ac0f4464736f6c63430008090033",
  "immutableReferences": {},
  "source": "// SPDX-License-Identifier: MIT\npragma solidity >=0.4.0;\n\nimport \"./Proposal.sol\";\nimport \"@openzeppelin/contracts/access/Ownable.sol\";\n\ncontract TreasureWoodyChest is Ownable {\n  Proposal[] private _listOfProposals;\n  mapping(address => Proposal) proposals;\n\n  event NewProposalAdded(string _title, address _sourceAddress);\n\n  function _newProposal(\n    string memory _title,\n    string memory _description,\n    uint256 _debatingPeriod\n  ) internal returns (uint256 proposalId) {\n    Proposal p = new Proposal(\n      _msgSender(),\n      _description,\n      _title,\n      _debatingPeriod\n    );\n    _listOfProposals.push(p);\n    proposals[address(p)] = p;\n\n    emit NewProposalAdded(_title, msg.sender);\n    return _listOfProposals.length;\n  }\n\n  function getAllProposals() external view returns (Proposal[] memory) {\n    return _listOfProposals;\n  }\n\n  function getProposal(address _proposalAddress)\n    external\n    view\n    returns (Proposal)\n  {\n    return proposals[_proposalAddress];\n  }\n}\n",
  "sourcePath": "/Users/chungquantin/Desktop/Projects/DecentralizedOpenSource/smart-bay/contracts/features/dao/proposal/TreasureWoodyChest.sol",
  "compiler": {
    "name": "solc",
    "version": "0.8.9+commit.e5eed63a.Emscripten.clang"
  },
  "schemaVersion": "3.4.3",
  "updatedAt": "2021-11-27T09:45:48.788Z",
  "devdoc": {
    "kind": "dev",
    "methods": {
      "owner()": {
        "details": "Returns the address of the current owner."
      },
      "renounceOwnership()": {
        "details": "Leaves the contract without owner. It will not be possible to call `onlyOwner` functions anymore. Can only be called by the current owner. NOTE: Renouncing ownership will leave the contract without an owner, thereby removing any functionality that is only available to the owner."
      },
      "transferOwnership(address)": {
        "details": "Transfers ownership of the contract to a new account (`newOwner`). Can only be called by the current owner."
      }
    },
    "version": 1
  },
  "userdoc": {
    "kind": "user",
    "methods": {},
    "version": 1
  }
}