{
  "contractName": "TreasureBay",
  "abi": [
    {
      "inputs": [
        {
          "internalType": "string",
          "name": "name_",
          "type": "string"
        },
        {
          "internalType": "uint64",
          "name": "limitNumberOfStakeholders_",
          "type": "uint64"
        },
        {
          "internalType": "uint64",
          "name": "limitNumberOfTreasureHunters_",
          "type": "uint64"
        }
      ],
      "stateMutability": "payable",
      "type": "constructor"
    },
    {
      "anonymous": false,
      "inputs": [
        {
          "indexed": false,
          "internalType": "address",
          "name": "owner",
          "type": "address"
        },
        {
          "indexed": false,
          "internalType": "uint256",
          "name": "lockedAmount",
          "type": "uint256"
        }
      ],
      "name": "NewPoolCreated",
      "type": "event"
    },
    {
      "anonymous": false,
      "inputs": [
        {
          "indexed": false,
          "internalType": "address",
          "name": "stakeholder",
          "type": "address"
        }
      ],
      "name": "NewStakeholder",
      "type": "event"
    },
    {
      "anonymous": false,
      "inputs": [
        {
          "indexed": false,
          "internalType": "string",
          "name": "_title",
          "type": "string"
        },
        {
          "indexed": false,
          "internalType": "address",
          "name": "_sourceAddress",
          "type": "address"
        },
        {
          "indexed": false,
          "internalType": "address",
          "name": "_destinationAddress",
          "type": "address"
        },
        {
          "indexed": false,
          "internalType": "uint256",
          "name": "_amount",
          "type": "uint256"
        }
      ],
      "name": "NewTransferProposalAdded",
      "type": "event"
    },
    {
      "anonymous": false,
      "inputs": [
        {
          "indexed": false,
          "internalType": "address",
          "name": "treasureHunter",
          "type": "address"
        },
        {
          "indexed": false,
          "internalType": "uint256",
          "name": "timestamp",
          "type": "uint256"
        }
      ],
      "name": "NewTreasureHunter",
      "type": "event"
    },
    {
      "anonymous": false,
      "inputs": [
        {
          "indexed": true,
          "internalType": "address",
          "name": "previousOwner",
          "type": "address"
        },
        {
          "indexed": true,
          "internalType": "address",
          "name": "newOwner",
          "type": "address"
        }
      ],
      "name": "OwnershipTransferred",
      "type": "event"
    },
    {
      "anonymous": false,
      "inputs": [
        {
          "indexed": true,
          "internalType": "uint256",
          "name": "proposalID",
          "type": "uint256"
        },
        {
          "indexed": false,
          "internalType": "address",
          "name": "recipient",
          "type": "address"
        },
        {
          "indexed": false,
          "internalType": "uint256",
          "name": "amount",
          "type": "uint256"
        },
        {
          "indexed": false,
          "internalType": "string",
          "name": "description",
          "type": "string"
        }
      ],
      "name": "ProposalAdded",
      "type": "event"
    },
    {
      "anonymous": false,
      "inputs": [
        {
          "indexed": false,
          "internalType": "address",
          "name": "stakeholder",
          "type": "address"
        }
      ],
      "name": "RemoveStakeholder",
      "type": "event"
    },
    {
      "anonymous": false,
      "inputs": [
        {
          "indexed": false,
          "internalType": "address",
          "name": "stakeholder",
          "type": "address"
        },
        {
          "indexed": false,
          "internalType": "uint256",
          "name": "amount",
          "type": "uint256"
        }
      ],
      "name": "Stake",
      "type": "event"
    },
    {
      "anonymous": false,
      "inputs": [
        {
          "indexed": false,
          "internalType": "address",
          "name": "stakeholder",
          "type": "address"
        },
        {
          "indexed": false,
          "internalType": "uint256",
          "name": "amount",
          "type": "uint256"
        }
      ],
      "name": "Unstake",
      "type": "event"
    },
    {
      "anonymous": false,
      "inputs": [
        {
          "indexed": true,
          "internalType": "uint256",
          "name": "proposalID",
          "type": "uint256"
        },
        {
          "indexed": false,
          "internalType": "bool",
          "name": "position",
          "type": "bool"
        },
        {
          "indexed": true,
          "internalType": "address",
          "name": "voter",
          "type": "address"
        }
      ],
      "name": "Voted",
      "type": "event"
    },
    {
      "inputs": [],
      "name": "admin",
      "outputs": [
        {
          "internalType": "address",
          "name": "",
          "type": "address"
        }
      ],
      "stateMutability": "view",
      "type": "function"
    },
    {
      "inputs": [
        {
          "internalType": "address",
          "name": "",
          "type": "address"
        }
      ],
      "name": "allowedRecipients",
      "outputs": [
        {
          "internalType": "bool",
          "name": "",
          "type": "bool"
        }
      ],
      "stateMutability": "view",
      "type": "function"
    },
    {
      "inputs": [],
      "name": "claim",
      "outputs": [],
      "stateMutability": "payable",
      "type": "function"
    },
    {
      "inputs": [],
      "name": "createStakeholder",
      "outputs": [
        {
          "components": [
            {
              "internalType": "uint256",
              "name": "balance",
              "type": "uint256"
            },
            {
              "internalType": "address",
              "name": "contractAddress",
              "type": "address"
            },
            {
              "internalType": "uint256",
              "name": "claimedInterval",
              "type": "uint256"
            },
            {
              "internalType": "uint256",
              "name": "joinedAt",
              "type": "uint256"
            }
          ],
          "internalType": "struct TreasurePool.Stakeholder",
          "name": "",
          "type": "tuple"
        }
      ],
      "stateMutability": "nonpayable",
      "type": "function"
    },
    {
      "inputs": [],
      "name": "daoAddress",
      "outputs": [
        {
          "internalType": "address",
          "name": "",
          "type": "address"
        }
      ],
      "stateMutability": "view",
      "type": "function"
    },
    {
      "inputs": [
        {
          "internalType": "uint256",
          "name": "",
          "type": "uint256"
        }
      ],
      "name": "exchangeProposals",
      "outputs": [
        {
          "internalType": "contract ExchangeProposal",
          "name": "",
          "type": "address"
        }
      ],
      "stateMutability": "view",
      "type": "function"
    },
    {
      "inputs": [],
      "name": "getAllTransferProposals",
      "outputs": [
        {
          "internalType": "contract TransferProposal[]",
          "name": "",
          "type": "address[]"
        }
      ],
      "stateMutability": "view",
      "type": "function"
    },
    {
      "inputs": [
        {
          "internalType": "address",
          "name": "_proposalAddress",
          "type": "address"
        }
      ],
      "name": "getTransferProposal",
      "outputs": [
        {
          "internalType": "contract TransferProposal",
          "name": "",
          "type": "address"
        }
      ],
      "stateMutability": "view",
      "type": "function"
    },
    {
      "inputs": [],
      "name": "limitNumberOfStakeholders",
      "outputs": [
        {
          "internalType": "uint64",
          "name": "",
          "type": "uint64"
        }
      ],
      "stateMutability": "view",
      "type": "function"
    },
    {
      "inputs": [],
      "name": "minimumStakedAmount",
      "outputs": [
        {
          "internalType": "uint64",
          "name": "",
          "type": "uint64"
        }
      ],
      "stateMutability": "view",
      "type": "function"
    },
    {
      "inputs": [],
      "name": "numberOfStakeholders",
      "outputs": [
        {
          "internalType": "uint64",
          "name": "",
          "type": "uint64"
        }
      ],
      "stateMutability": "view",
      "type": "function"
    },
    {
      "inputs": [],
      "name": "owner",
      "outputs": [
        {
          "internalType": "address",
          "name": "",
          "type": "address"
        }
      ],
      "stateMutability": "view",
      "type": "function"
    },
    {
      "inputs": [],
      "name": "renounceOwnership",
      "outputs": [],
      "stateMutability": "nonpayable",
      "type": "function"
    },
    {
      "inputs": [],
      "name": "stake",
      "outputs": [],
      "stateMutability": "payable",
      "type": "function"
    },
    {
      "inputs": [
        {
          "internalType": "address",
          "name": "",
          "type": "address"
        }
      ],
      "name": "stakeholders",
      "outputs": [
        {
          "internalType": "uint256",
          "name": "balance",
          "type": "uint256"
        },
        {
          "internalType": "address",
          "name": "contractAddress",
          "type": "address"
        },
        {
          "internalType": "uint256",
          "name": "claimedInterval",
          "type": "uint256"
        },
        {
          "internalType": "uint256",
          "name": "joinedAt",
          "type": "uint256"
        }
      ],
      "stateMutability": "view",
      "type": "function"
    },
    {
      "inputs": [],
      "name": "totalNumberOfStakeholders",
      "outputs": [
        {
          "internalType": "uint64",
          "name": "",
          "type": "uint64"
        }
      ],
      "stateMutability": "view",
      "type": "function"
    },
    {
      "inputs": [],
      "name": "totalStakedAmount",
      "outputs": [
        {
          "internalType": "uint256",
          "name": "",
          "type": "uint256"
        }
      ],
      "stateMutability": "view",
      "type": "function"
    },
    {
      "inputs": [
        {
          "internalType": "address",
          "name": "newOwner",
          "type": "address"
        }
      ],
      "name": "transferOwnership",
      "outputs": [],
      "stateMutability": "nonpayable",
      "type": "function"
    },
    {
      "inputs": [
        {
          "internalType": "address",
          "name": "",
          "type": "address"
        }
      ],
      "name": "treasureHunters",
      "outputs": [
        {
          "internalType": "address",
          "name": "contractAddress",
          "type": "address"
        },
        {
          "internalType": "uint256",
          "name": "joinedAt",
          "type": "uint256"
        }
      ],
      "stateMutability": "view",
      "type": "function"
    },
    {
      "inputs": [],
      "name": "unstake",
      "outputs": [],
      "stateMutability": "payable",
      "type": "function"
    },
    {
      "inputs": [],
      "name": "name",
      "outputs": [
        {
          "internalType": "string",
          "name": "",
          "type": "string"
        }
      ],
      "stateMutability": "view",
      "type": "function"
    },
    {
      "inputs": [],
      "name": "creator",
      "outputs": [
        {
          "internalType": "address",
          "name": "",
          "type": "address"
        }
      ],
      "stateMutability": "view",
      "type": "function"
    },
    {
      "inputs": [],
      "name": "limitNumberOfTreasureHunters",
      "outputs": [
        {
          "internalType": "uint64",
          "name": "",
          "type": "uint64"
        }
      ],
      "stateMutability": "view",
      "type": "function"
    },
    {
      "inputs": [],
      "name": "listOfTreasureHunters",
      "outputs": [
        {
          "components": [
            {
              "internalType": "address",
              "name": "contractAddress",
              "type": "address"
            },
            {
              "internalType": "uint256",
              "name": "joinedAt",
              "type": "uint256"
            }
          ],
          "internalType": "struct TreasureBay.TreasureHunter[]",
          "name": "",
          "type": "tuple[]"
        }
      ],
      "stateMutability": "view",
      "type": "function"
    },
    {
      "inputs": [],
      "name": "createTreasureHunter",
      "outputs": [
        {
          "components": [
            {
              "internalType": "address",
              "name": "contractAddress",
              "type": "address"
            },
            {
              "internalType": "uint256",
              "name": "joinedAt",
              "type": "uint256"
            }
          ],
          "internalType": "struct TreasureBay.TreasureHunter",
          "name": "",
          "type": "tuple"
        }
      ],
      "stateMutability": "nonpayable",
      "type": "function"
    },
    {
      "inputs": [
        {
          "internalType": "bool",
          "name": "isActivated_",
          "type": "bool"
        }
      ],
      "name": "toggleIsActivated",
      "outputs": [
        {
          "internalType": "bool",
          "name": "_success",
          "type": "bool"
        }
      ],
      "stateMutability": "nonpayable",
      "type": "function"
    },
    {
      "inputs": [
        {
          "internalType": "string",
          "name": "_title",
          "type": "string"
        },
        {
          "internalType": "string",
          "name": "_description",
          "type": "string"
        },
        {
          "internalType": "uint64",
          "name": "_debatingPeriod",
          "type": "uint64"
        },
        {
          "internalType": "address",
          "name": "_recipient",
          "type": "address"
        },
        {
          "internalType": "uint256",
          "name": "_amount",
          "type": "uint256"
        }
      ],
      "name": "createNewTransferProposal",
      "outputs": [
        {
          "internalType": "uint256",
          "name": "",
          "type": "uint256"
        }
      ],
      "stateMutability": "nonpayable",
      "type": "function"
    }
  ],
  "bytecode": "0x608060405262093a80600460106101000a81548167ffffffffffffffff021916908367ffffffffffffffff1602179055506203f480600460186101000a81548167ffffffffffffffff021916908367ffffffffffffffff1602179055506000600d60006101000a81548160ff021916908315150217905550604051620054583803806200545883398181016040528101906200009c919062000530565b620000ac620001d060201b60201c565b600160086101000a81548173ffffffffffffffffffffffffffffffffffffffff021916908373ffffffffffffffffffffffffffffffffffffffff1602179055506200010c62000100620001d060201b60201c565b620001d860201b60201c565b81600460006101000a81548167ffffffffffffffff021916908367ffffffffffffffff16021790555080600a60146101000a81548167ffffffffffffffff021916908367ffffffffffffffff1602179055508260099080519060200190620001769291906200029e565b5062000187620001d060201b60201c565b600a60006101000a81548173ffffffffffffffffffffffffffffffffffffffff021916908373ffffffffffffffffffffffffffffffffffffffff16021790555050505062000610565b600033905090565b6000600560089054906101000a900473ffffffffffffffffffffffffffffffffffffffff16905081600560086101000a81548173ffffffffffffffffffffffffffffffffffffffff021916908373ffffffffffffffffffffffffffffffffffffffff1602179055508173ffffffffffffffffffffffffffffffffffffffff168173ffffffffffffffffffffffffffffffffffffffff167f8be0079c531659141344cd1fd0a4f28419497f9722a3daafe3b4186f6b6457e060405160405180910390a35050565b828054620002ac90620005da565b90600052602060002090601f016020900481019282620002d057600085556200031c565b82601f10620002eb57805160ff19168380011785556200031c565b828001600101855582156200031c579182015b828111156200031b578251825591602001919060010190620002fe565b5b5090506200032b91906200032f565b5090565b5b808211156200034a57600081600090555060010162000330565b5090565b6000604051905090565b600080fd5b600080fd5b600080fd5b600080fd5b6000601f19601f8301169050919050565b7f4e487b7100000000000000000000000000000000000000000000000000000000600052604160045260246000fd5b620003b7826200036c565b810181811067ffffffffffffffff82111715620003d957620003d86200037d565b5b80604052505050565b6000620003ee6200034e565b9050620003fc8282620003ac565b919050565b600067ffffffffffffffff8211156200041f576200041e6200037d565b5b6200042a826200036c565b9050602081019050919050565b60005b83811015620004575780820151818401526020810190506200043a565b8381111562000467576000848401525b50505050565b6000620004846200047e8462000401565b620003e2565b905082815260208101848484011115620004a357620004a262000367565b5b620004b084828562000437565b509392505050565b600082601f830112620004d057620004cf62000362565b5b8151620004e28482602086016200046d565b91505092915050565b600067ffffffffffffffff82169050919050565b6200050a81620004eb565b81146200051657600080fd5b50565b6000815190506200052a81620004ff565b92915050565b6000806000606084860312156200054c576200054b62000358565b5b600084015167ffffffffffffffff8111156200056d576200056c6200035d565b5b6200057b86828701620004b8565b93505060206200058e8682870162000519565b9250506040620005a18682870162000519565b9150509250925092565b7f4e487b7100000000000000000000000000000000000000000000000000000000600052602260045260246000fd5b60006002820490506001821680620005f357607f821691505b602082108114156200060a5762000609620005ab565b5b50919050565b614e3880620006206000396000f3fe608060405260043610620001c45760003560e01c80635f9fed5511620001035780638da5cb5b1162000097578063cd555bf1116200006d578063cd555bf11462000627578063f2fde38b1462000657578063f851a4401462000685578063f8d41b9614620006b557620001c4565b80638da5cb5b1462000580578063b898e60114620005b0578063c07cfca914620005e057620001c4565b8063715018a611620000d9578063715018a614620004d65780637ddf5c0414620004f05780637f6f4e9c146200052057806384780fd2146200055057620001c4565b80635f9fed55146200041e57806362c48ae71462000462578063665e3d83146200049257620001c4565b80632def6620116200017b5780634df6d6cc11620001515780634df6d6cc146200035a5780634e71d92d146200039e57806352d4aedc14620003aa578063567e98f914620003ee57620001c4565b80632def662014620002fe5780633a4b66f1146200030a5780633b5b4f2c146200031657620001c4565b806302d05d3f14620001c957806306fdde0314620001f95780631e3ab98314620002295780632131c68c1462000259578063246d59af146200028957806328cd149414620002ce575b600080fd5b348015620001d657600080fd5b50620001e1620006e5565b604051620001f0919062001f7f565b60405180910390f35b3480156200020657600080fd5b50620002116200070f565b60405162000220919062002040565b60405180910390f35b3480156200023657600080fd5b5062000241620007a9565b60405162000250919062002089565b60405180910390f35b3480156200026657600080fd5b5062000271620007c3565b60405162000280919062001f7f565b60405180910390f35b3480156200029657600080fd5b50620002b56004803603810190620002af9190620020eb565b620007e9565b604051620002c592919062002138565b60405180910390f35b348015620002db57600080fd5b50620002e66200082d565b604051620002f5919062002089565b60405180910390f35b6200030862000847565b005b6200031462000ca5565b005b3480156200032357600080fd5b506200034260048036038101906200033c919062002196565b62000e74565b60405162000351919062002233565b60405180910390f35b3480156200036757600080fd5b50620003866004803603810190620003809190620020eb565b62000eb4565b6040516200039591906200226d565b60405180910390f35b620003a862000ed4565b005b348015620003b757600080fd5b50620003d66004803603810190620003d091906200240c565b62001047565b604051620003e59190620024d2565b60405180910390f35b348015620003fb57600080fd5b5062000406620010f3565b604051620004159190620024d2565b60405180910390f35b3480156200042b57600080fd5b506200044a6004803603810190620004449190620020eb565b620010f9565b60405162000459919062002514565b60405180910390f35b3480156200046f57600080fd5b506200047a62001162565b60405162000489919062002586565b60405180910390f35b3480156200049f57600080fd5b50620004be6004803603810190620004b89190620025d4565b62001508565b604051620004cd91906200226d565b60405180910390f35b348015620004e357600080fd5b50620004ee6200152d565b005b348015620004fd57600080fd5b5062000508620015be565b604051620005179190620026d4565b60405180910390f35b3480156200052d57600080fd5b50620005386200164e565b604051620005479190620027e8565b60405180910390f35b3480156200055d57600080fd5b50620005686200170f565b60405162000577919062002089565b60405180910390f35b3480156200058d57600080fd5b506200059862001729565b604051620005a7919062001f7f565b60405180910390f35b348015620005bd57600080fd5b50620005c862001753565b604051620005d7919062002089565b60405180910390f35b348015620005ed57600080fd5b506200060c6004803603810190620006069190620020eb565b6200176d565b6040516200061e94939291906200280c565b60405180910390f35b3480156200063457600080fd5b506200063f620017bd565b6040516200064e919062002089565b60405180910390f35b3480156200066457600080fd5b506200068360048036038101906200067d9190620020eb565b620017db565b005b3480156200069257600080fd5b506200069d620018df565b604051620006ac919062001f7f565b60405180910390f35b348015620006c257600080fd5b50620006cd62001905565b604051620006dc9190620028b6565b60405180910390f35b6000600a60009054906101000a900473ffffffffffffffffffffffffffffffffffffffff16905090565b606060098054620007209062002902565b80601f01602080910402602001604051908101604052809291908181526020018280546200074e9062002902565b80156200079f5780601f1062000773576101008083540402835291602001916200079f565b820191906000526020600020905b8154815290600101906020018083116200078157829003601f168201915b5050505050905090565b600160009054906101000a900467ffffffffffffffff1681565b600260009054906101000a900473ffffffffffffffffffffffffffffffffffffffff1681565b600c6020528060005260406000206000915090508060000160009054906101000a900473ffffffffffffffffffffffffffffffffffffffff16908060010154905082565b600460009054906101000a900467ffffffffffffffff1681565b60008060006200085662001c6d565b73ffffffffffffffffffffffffffffffffffffffff1673ffffffffffffffffffffffffffffffffffffffff1681526020019081526020016000206000015411620008d7576040517f08c379a0000000000000000000000000000000000000000000000000000000008152600401620008ce9062002988565b60405180910390fd5b600460109054906101000a900467ffffffffffffffff1667ffffffffffffffff166000806200090562001c6d565b73ffffffffffffffffffffffffffffffffffffffff1673ffffffffffffffffffffffffffffffffffffffff168152602001908152602001600020600301546200094f9190620029d9565b421162000993576040517f08c379a00000000000000000000000000000000000000000000000000000000081526004016200098a9062002aac565b60405180910390fd5b600080620009a062001c6d565b73ffffffffffffffffffffffffffffffffffffffff1673ffffffffffffffffffffffffffffffffffffffff1681526020019081526020016000206000015434111562000a23576040517f08c379a000000000000000000000000000000000000000000000000000000000815260040162000a1a9062002b1e565b60405180910390fd5b62000a2d62001c6d565b73ffffffffffffffffffffffffffffffffffffffff166108fc349081150290604051600060405180830381858888f1935050505015801562000a73573d6000803e3d6000fd5b503460008062000a8262001c6d565b73ffffffffffffffffffffffffffffffffffffffff1673ffffffffffffffffffffffffffffffffffffffff168152602001908152602001600020600001600082825462000ad09190620029d9565b92505081905550600080600062000ae662001c6d565b73ffffffffffffffffffffffffffffffffffffffff1673ffffffffffffffffffffffffffffffffffffffff16815260200190815260200160002060000154141562000c445760008062000b3862001c6d565b73ffffffffffffffffffffffffffffffffffffffff1673ffffffffffffffffffffffffffffffffffffffff1681526020019081526020016000206000808201600090556001820160006101000a81549073ffffffffffffffffffffffffffffffffffffffff021916905560028201600090556003820160009055505060018060008282829054906101000a900467ffffffffffffffff1662000bdb919062002b40565b92506101000a81548167ffffffffffffffff021916908367ffffffffffffffff1602179055507f6f1eb9379ef97a9fc8efe5b92a387d1291f5c65d0929df551aea69371e05403c62000c2c62001c6d565b60405162000c3b919062001f7f565b60405180910390a15b346003600082825462000c58919062002b7b565b925050819055507f85082129d87b2fe11527cb1b3b7a520aeb5aa6913f88a3d8757fe40d1db02fdd62000c8a62001c6d565b3460405162000c9b92919062002138565b60405180910390a1565b6000341162000ceb576040517f08c379a000000000000000000000000000000000000000000000000000000000815260040162000ce29062002c06565b60405180910390fd5b600560009054906101000a900467ffffffffffffffff1667ffffffffffffffff16341162000d50576040517f08c379a000000000000000000000000000000000000000000000000000000000815260040162000d479062002c06565b60405180910390fd5b600080600062000d5f62001c6d565b73ffffffffffffffffffffffffffffffffffffffff1673ffffffffffffffffffffffffffffffffffffffff16815260200190815260200160002060000154141562000db05762000dae62001905565b505b3460008062000dbe62001c6d565b73ffffffffffffffffffffffffffffffffffffffff1673ffffffffffffffffffffffffffffffffffffffff168152602001908152602001600020600001600082825462000e0c9190620029d9565b92505081905550346003600082825462000e279190620029d9565b925050819055507febedb8b3c678666e7f36970bc8f57abf6d8fa2e828c0da91ea5b75bf68ed101a62000e5962001c6d565b3460405162000e6a92919062002138565b60405180910390a1565b6008818154811062000e8557600080fd5b906000526020600020016000915054906101000a900473ffffffffffffffffffffffffffffffffffffffff1681565b600e6020528060005260406000206000915054906101000a900460ff1681565b600080600062000ee362001c6d565b73ffffffffffffffffffffffffffffffffffffffff1673ffffffffffffffffffffffffffffffffffffffff168152602001908152602001600020600001541162000f64576040517f08c379a000000000000000000000000000000000000000000000000000000000815260040162000f5b9062002988565b60405180910390fd5b60008062000f7162001c6d565b73ffffffffffffffffffffffffffffffffffffffff1673ffffffffffffffffffffffffffffffffffffffff16815260200190815260200160002060020154421162000ff3576040517f08c379a000000000000000000000000000000000000000000000000000000000815260040162000fea9062002c78565b60405180910390fd5b6203f4806000806200100462001c6d565b73ffffffffffffffffffffffffffffffffffffffff1673ffffffffffffffffffffffffffffffffffffffff16815260200190815260200160002060020181905550565b6000806000803373ffffffffffffffffffffffffffffffffffffffff1673ffffffffffffffffffffffffffffffffffffffff1681526020019081526020016000206000015411620010cf576040517f08c379a0000000000000000000000000000000000000000000000000000000008152600401620010c69062002cea565b60405180910390fd5b620010e886868667ffffffffffffffff16868662001c75565b905095945050505050565b60035481565b6000600760008373ffffffffffffffffffffffffffffffffffffffff1673ffffffffffffffffffffffffffffffffffffffff16815260200190815260200160002060009054906101000a900473ffffffffffffffffffffffffffffffffffffffff169050919050565b6200116c62001ebe565b600a60149054906101000a900467ffffffffffffffff1667ffffffffffffffff16600b805490501115620011d7576040517f08c379a0000000000000000000000000000000000000000000000000000000008152600401620011ce9062002d82565b60405180910390fd5b6040518060400160405280620011ec62001c6d565b73ffffffffffffffffffffffffffffffffffffffff16815260200142815250600c60006200121962001c6d565b73ffffffffffffffffffffffffffffffffffffffff1673ffffffffffffffffffffffffffffffffffffffff16815260200190815260200160002060008201518160000160006101000a81548173ffffffffffffffffffffffffffffffffffffffff021916908373ffffffffffffffffffffffffffffffffffffffff16021790555060208201518160010155905050600b600c6000620012b762001c6d565b73ffffffffffffffffffffffffffffffffffffffff1673ffffffffffffffffffffffffffffffffffffffff16815260200190815260200160002090806001815401808255809150506001900390600052602060002090600202016000909190919091506000820160009054906101000a900473ffffffffffffffffffffffffffffffffffffffff168160000160006101000a81548173ffffffffffffffffffffffffffffffffffffffff021916908373ffffffffffffffffffffffffffffffffffffffff1602179055506001820154816001015550506005600b805490501115620013aa57620013a8600162001508565b505b7fef7dd88fd6e07a1960a539671612f14f6e19471ee795cade675fb83c94267415600c6000620013d962001c6d565b73ffffffffffffffffffffffffffffffffffffffff1673ffffffffffffffffffffffffffffffffffffffff16815260200190815260200160002060000160009054906101000a900473ffffffffffffffffffffffffffffffffffffffff16426040516200144892919062002138565b60405180910390a1600c60006200145e62001c6d565b73ffffffffffffffffffffffffffffffffffffffff1673ffffffffffffffffffffffffffffffffffffffff1681526020019081526020016000206040518060400160405290816000820160009054906101000a900473ffffffffffffffffffffffffffffffffffffffff1673ffffffffffffffffffffffffffffffffffffffff1673ffffffffffffffffffffffffffffffffffffffff168152602001600182015481525050905090565b600081600d60006101000a81548160ff02191690831515021790555060019050919050565b6200153762001c6d565b73ffffffffffffffffffffffffffffffffffffffff166200155762001729565b73ffffffffffffffffffffffffffffffffffffffff1614620015b0576040517f08c379a0000000000000000000000000000000000000000000000000000000008152600401620015a79062002df4565b60405180910390fd5b620015bc600062001df8565b565b606060068054806020026020016040519081016040528092919081815260200182805480156200164457602002820191906000526020600020905b8160009054906101000a900473ffffffffffffffffffffffffffffffffffffffff1673ffffffffffffffffffffffffffffffffffffffff1681526020019060010190808311620015f9575b5050505050905090565b6060600b805480602002602001604051908101604052809291908181526020016000905b828210156200170657838290600052602060002090600202016040518060400160405290816000820160009054906101000a900473ffffffffffffffffffffffffffffffffffffffff1673ffffffffffffffffffffffffffffffffffffffff1673ffffffffffffffffffffffffffffffffffffffff1681526020016001820154815250508152602001906001019062001672565b50505050905090565b600460089054906101000a900467ffffffffffffffff1681565b6000600560089054906101000a900473ffffffffffffffffffffffffffffffffffffffff16905090565b600560009054906101000a900467ffffffffffffffff1681565b60006020528060005260406000206000915090508060000154908060010160009054906101000a900473ffffffffffffffffffffffffffffffffffffffff16908060020154908060030154905084565b6000600a60149054906101000a900467ffffffffffffffff16905090565b620017e562001c6d565b73ffffffffffffffffffffffffffffffffffffffff166200180562001729565b73ffffffffffffffffffffffffffffffffffffffff16146200185e576040517f08c379a0000000000000000000000000000000000000000000000000000000008152600401620018559062002df4565b60405180910390fd5b600073ffffffffffffffffffffffffffffffffffffffff168173ffffffffffffffffffffffffffffffffffffffff161415620018d1576040517f08c379a0000000000000000000000000000000000000000000000000000000008152600401620018c89062002e8c565b60405180910390fd5b620018dc8162001df8565b50565b600160089054906101000a900473ffffffffffffffffffffffffffffffffffffffff1681565b6200190f62001eee565b600460009054906101000a900467ffffffffffffffff1667ffffffffffffffff16600160009054906101000a900467ffffffffffffffff1667ffffffffffffffff16111562001995576040517f08c379a00000000000000000000000000000000000000000000000000000000081526004016200198c9062002f24565b60405180910390fd5b604051806080016040528060008152602001620019b162001c6d565b73ffffffffffffffffffffffffffffffffffffffff168152602001600460189054906101000a900467ffffffffffffffff1667ffffffffffffffff1642620019fa9190620029d9565b81526020014281525060008062001a1062001c6d565b73ffffffffffffffffffffffffffffffffffffffff1673ffffffffffffffffffffffffffffffffffffffff1681526020019081526020016000206000820151816000015560208201518160010160006101000a81548173ffffffffffffffffffffffffffffffffffffffff021916908373ffffffffffffffffffffffffffffffffffffffff160217905550604082015181600201556060820151816003015590505060018060008282829054906101000a900467ffffffffffffffff1662001ad9919062002f46565b92506101000a81548167ffffffffffffffff021916908367ffffffffffffffff1602179055507f45353ebbf1c4a0468ba13a94bc212a3b8fc4b624385aa0e9c3fa07045d7d827d60008062001b2d62001c6d565b73ffffffffffffffffffffffffffffffffffffffff1673ffffffffffffffffffffffffffffffffffffffff16815260200190815260200160002060010160009054906101000a900473ffffffffffffffffffffffffffffffffffffffff1660405162001b9a919062001f7f565b60405180910390a160008062001baf62001c6d565b73ffffffffffffffffffffffffffffffffffffffff1673ffffffffffffffffffffffffffffffffffffffff168152602001908152602001600020604051806080016040529081600082015481526020016001820160009054906101000a900473ffffffffffffffffffffffffffffffffffffffff1673ffffffffffffffffffffffffffffffffffffffff1673ffffffffffffffffffffffffffffffffffffffff16815260200160028201548152602001600382015481525050905090565b600033905090565b60008062001c8262001c6d565b868887878760405162001c959062001f2c565b62001ca69695949392919062002f8b565b604051809103906000f08015801562001cc3573d6000803e3d6000fd5b5090506006819080600181540180825580915050600190039060005260206000200160009091909190916101000a81548173ffffffffffffffffffffffffffffffffffffffff021916908373ffffffffffffffffffffffffffffffffffffffff16021790555080600760008373ffffffffffffffffffffffffffffffffffffffff1673ffffffffffffffffffffffffffffffffffffffff16815260200190815260200160002060006101000a81548173ffffffffffffffffffffffffffffffffffffffff021916908373ffffffffffffffffffffffffffffffffffffffff1602179055507fa9a62b7c28d7da43010d6fdf373b4026f4156bc0402ee1b0bdf2acf13a7414218733868660405162001dde949392919062003006565b60405180910390a160068054905091505095945050505050565b6000600560089054906101000a900473ffffffffffffffffffffffffffffffffffffffff16905081600560086101000a81548173ffffffffffffffffffffffffffffffffffffffff021916908373ffffffffffffffffffffffffffffffffffffffff1602179055508173ffffffffffffffffffffffffffffffffffffffff168173ffffffffffffffffffffffffffffffffffffffff167f8be0079c531659141344cd1fd0a4f28419497f9722a3daafe3b4186f6b6457e060405160405180910390a35050565b6040518060400160405280600073ffffffffffffffffffffffffffffffffffffffff168152602001600081525090565b604051806080016040528060008152602001600073ffffffffffffffffffffffffffffffffffffffff16815260200160008152602001600081525090565b611da8806200305b83390190565b600073ffffffffffffffffffffffffffffffffffffffff82169050919050565b600062001f678262001f3a565b9050919050565b62001f798162001f5a565b82525050565b600060208201905062001f96600083018462001f6e565b92915050565b600081519050919050565b600082825260208201905092915050565b60005b8381101562001fd857808201518184015260208101905062001fbb565b8381111562001fe8576000848401525b50505050565b6000601f19601f8301169050919050565b60006200200c8262001f9c565b62002018818562001fa7565b93506200202a81856020860162001fb8565b620020358162001fee565b840191505092915050565b600060208201905081810360008301526200205c818462001fff565b905092915050565b600067ffffffffffffffff82169050919050565b620020838162002064565b82525050565b6000602082019050620020a0600083018462002078565b92915050565b6000604051905090565b600080fd5b600080fd5b620020c58162001f5a565b8114620020d157600080fd5b50565b600081359050620020e581620020ba565b92915050565b600060208284031215620021045762002103620020b0565b5b60006200211484828501620020d4565b91505092915050565b6000819050919050565b62002132816200211d565b82525050565b60006040820190506200214f600083018562001f6e565b6200215e602083018462002127565b9392505050565b62002170816200211d565b81146200217c57600080fd5b50565b600081359050620021908162002165565b92915050565b600060208284031215620021af57620021ae620020b0565b5b6000620021bf848285016200217f565b91505092915050565b6000819050919050565b6000620021f3620021ed620021e78462001f3a565b620021c8565b62001f3a565b9050919050565b60006200220782620021d2565b9050919050565b60006200221b82620021fa565b9050919050565b6200222d816200220e565b82525050565b60006020820190506200224a600083018462002222565b92915050565b60008115159050919050565b620022678162002250565b82525050565b60006020820190506200228460008301846200225c565b92915050565b600080fd5b600080fd5b7f4e487b7100000000000000000000000000000000000000000000000000000000600052604160045260246000fd5b620022ce8262001fee565b810181811067ffffffffffffffff82111715620022f057620022ef62002294565b5b80604052505050565b600062002305620020a6565b9050620023138282620022c3565b919050565b600067ffffffffffffffff82111562002336576200233562002294565b5b620023418262001fee565b9050602081019050919050565b82818337600083830152505050565b6000620023746200236e8462002318565b620022f9565b9050828152602081018484840111156200239357620023926200228f565b5b620023a08482856200234e565b509392505050565b600082601f830112620023c057620023bf6200228a565b5b8135620023d28482602086016200235d565b91505092915050565b620023e68162002064565b8114620023f257600080fd5b50565b6000813590506200240681620023db565b92915050565b600080600080600060a086880312156200242b576200242a620020b0565b5b600086013567ffffffffffffffff8111156200244c576200244b620020b5565b5b6200245a88828901620023a8565b955050602086013567ffffffffffffffff8111156200247e576200247d620020b5565b5b6200248c88828901620023a8565b94505060406200249f88828901620023f5565b9350506060620024b288828901620020d4565b9250506080620024c5888289016200217f565b9150509295509295909350565b6000602082019050620024e9600083018462002127565b92915050565b6000620024fc82620021fa565b9050919050565b6200250e81620024ef565b82525050565b60006020820190506200252b600083018462002503565b92915050565b6200253c8162001f5a565b82525050565b6200254d816200211d565b82525050565b6040820160008201516200256b600085018262002531565b50602082015162002580602085018262002542565b50505050565b60006040820190506200259d600083018462002553565b92915050565b620025ae8162002250565b8114620025ba57600080fd5b50565b600081359050620025ce81620025a3565b92915050565b600060208284031215620025ed57620025ec620020b0565b5b6000620025fd84828501620025bd565b91505092915050565b600081519050919050565b600082825260208201905092915050565b6000819050602082019050919050565b6200263d81620024ef565b82525050565b600062002651838362002632565b60208301905092915050565b6000602082019050919050565b6000620026778262002606565b62002683818562002611565b9350620026908362002622565b8060005b83811015620026c7578151620026ab888262002643565b9750620026b8836200265d565b92505060018101905062002694565b5085935050505092915050565b60006020820190508181036000830152620026f081846200266a565b905092915050565b600081519050919050565b600082825260208201905092915050565b6000819050602082019050919050565b6040820160008201516200273c600085018262002531565b50602082015162002751602085018262002542565b50505050565b600062002765838362002724565b60408301905092915050565b6000602082019050919050565b60006200278b82620026f8565b62002797818562002703565b9350620027a48362002714565b8060005b83811015620027db578151620027bf888262002757565b9750620027cc8362002771565b925050600181019050620027a8565b5085935050505092915050565b600060208201905081810360008301526200280481846200277e565b905092915050565b600060808201905062002823600083018762002127565b62002832602083018662001f6e565b62002841604083018562002127565b62002850606083018462002127565b95945050505050565b60808201600082015162002871600085018262002542565b50602082015162002886602085018262002531565b5060408201516200289b604085018262002542565b506060820151620028b0606085018262002542565b50505050565b6000608082019050620028cd600083018462002859565b92915050565b7f4e487b7100000000000000000000000000000000000000000000000000000000600052602260045260246000fd5b600060028204905060018216806200291b57607f821691505b60208210811415620029325762002931620028d3565b5b50919050565b7f4e6f742061207374616b65686f6c646572000000000000000000000000000000600082015250565b60006200297060118362001fa7565b91506200297d8262002938565b602082019050919050565b60006020820190508181036000830152620029a38162002961565b9050919050565b7f4e487b7100000000000000000000000000000000000000000000000000000000600052601160045260246000fd5b6000620029e6826200211d565b9150620029f3836200211d565b9250827fffffffffffffffffffffffffffffffffffffffffffffffffffffffffffffffff0382111562002a2b5762002a2a620029aa565b5b828201905092915050565b7f4d757374207374616b656420666f7220372064617973206265666f726520756e60008201527f7374616b696e6700000000000000000000000000000000000000000000000000602082015250565b600062002a9460278362001fa7565b915062002aa18262002a36565b604082019050919050565b6000602082019050818103600083015262002ac78162002a85565b9050919050565b7f496e73756666696369656e74207374616b656420616d6f756e74000000000000600082015250565b600062002b06601a8362001fa7565b915062002b138262002ace565b602082019050919050565b6000602082019050818103600083015262002b398162002af7565b9050919050565b600062002b4d8262002064565b915062002b5a8362002064565b92508282101562002b705762002b6f620029aa565b5b828203905092915050565b600062002b88826200211d565b915062002b95836200211d565b92508282101562002bab5762002baa620029aa565b5b828203905092915050565b7f696e76616c6964207374616b656420616d6f756e740000000000000000000000600082015250565b600062002bee60158362001fa7565b915062002bfb8262002bb6565b602082019050919050565b6000602082019050818103600083015262002c218162002bdf565b9050919050565b7f546f6f206561726c790000000000000000000000000000000000000000000000600082015250565b600062002c6060098362001fa7565b915062002c6d8262002c28565b602082019050919050565b6000602082019050818103600083015262002c938162002c51565b9050919050565b7f6d7573742062652061207374616b65686f6c6465720000000000000000000000600082015250565b600062002cd260158362001fa7565b915062002cdf8262002c9a565b602082019050919050565b6000602082019050818103600083015262002d058162002cc3565b9050919050565b7f73757270617373206c696d6974206e756d626572206f6620747265617375726560008201527f48756e7465727300000000000000000000000000000000000000000000000000602082015250565b600062002d6a60278362001fa7565b915062002d778262002d0c565b604082019050919050565b6000602082019050818103600083015262002d9d8162002d5b565b9050919050565b7f4f776e61626c653a2063616c6c6572206973206e6f7420746865206f776e6572600082015250565b600062002ddc60208362001fa7565b915062002de98262002da4565b602082019050919050565b6000602082019050818103600083015262002e0f8162002dcd565b9050919050565b7f4f776e61626c653a206e6577206f776e657220697320746865207a65726f206160008201527f6464726573730000000000000000000000000000000000000000000000000000602082015250565b600062002e7460268362001fa7565b915062002e818262002e16565b604082019050919050565b6000602082019050818103600083015262002ea78162002e65565b9050919050565b7f73757270617373206c696d6974206e756d626572206f66207374616b65686f6c60008201527f6465727300000000000000000000000000000000000000000000000000000000602082015250565b600062002f0c60248362001fa7565b915062002f198262002eae565b604082019050919050565b6000602082019050818103600083015262002f3f8162002efd565b9050919050565b600062002f538262002064565b915062002f608362002064565b92508267ffffffffffffffff0382111562002f805762002f7f620029aa565b5b828201905092915050565b600060c08201905062002fa2600083018962001f6e565b818103602083015262002fb6818862001fff565b9050818103604083015262002fcc818762001fff565b905062002fdd606083018662002127565b62002fec608083018562001f6e565b62002ffb60a083018462002127565b979650505050505050565b6000608082019050818103600083015262003022818762001fff565b905062003033602083018662001f6e565b62003042604083018562001f6e565b62003051606083018462002127565b9594505050505056fe60806040523480156200001157600080fd5b5060405162001da838038062001da883398181016040528101906200003791906200052f565b858585856200005b6200004f6200017660201b60201c565b6200017e60201b60201c565b83600160006101000a81548173ffffffffffffffffffffffffffffffffffffffff021916908373ffffffffffffffffffffffffffffffffffffffff1602179055508260029080519060200190620000b492919062000242565b508160039080519060200190620000cd92919062000242565b50806004819055506000600560006101000a81548160ff02191690836001811115620000fe57620000fd62000609565b5b02179055506000600560016101000a81548160ff0219169083151502179055505050505081600960086101000a81548173ffffffffffffffffffffffffffffffffffffffff021916908373ffffffffffffffffffffffffffffffffffffffff16021790555080600a819055505050505050506200069d565b600033905090565b60008060009054906101000a900473ffffffffffffffffffffffffffffffffffffffff169050816000806101000a81548173ffffffffffffffffffffffffffffffffffffffff021916908373ffffffffffffffffffffffffffffffffffffffff1602179055508173ffffffffffffffffffffffffffffffffffffffff168173ffffffffffffffffffffffffffffffffffffffff167f8be0079c531659141344cd1fd0a4f28419497f9722a3daafe3b4186f6b6457e060405160405180910390a35050565b828054620002509062000667565b90600052602060002090601f016020900481019282620002745760008555620002c0565b82601f106200028f57805160ff1916838001178555620002c0565b82800160010185558215620002c0579182015b82811115620002bf578251825591602001919060010190620002a2565b5b509050620002cf9190620002d3565b5090565b5b80821115620002ee576000816000905550600101620002d4565b5090565b6000604051905090565b600080fd5b600080fd5b600073ffffffffffffffffffffffffffffffffffffffff82169050919050565b6000620003338262000306565b9050919050565b620003458162000326565b81146200035157600080fd5b50565b60008151905062000365816200033a565b92915050565b600080fd5b600080fd5b6000601f19601f8301169050919050565b7f4e487b7100000000000000000000000000000000000000000000000000000000600052604160045260246000fd5b620003c08262000375565b810181811067ffffffffffffffff82111715620003e257620003e162000386565b5b80604052505050565b6000620003f7620002f2565b9050620004058282620003b5565b919050565b600067ffffffffffffffff82111562000428576200042762000386565b5b620004338262000375565b9050602081019050919050565b60005b838110156200046057808201518184015260208101905062000443565b8381111562000470576000848401525b50505050565b60006200048d62000487846200040a565b620003eb565b905082815260208101848484011115620004ac57620004ab62000370565b5b620004b984828562000440565b509392505050565b600082601f830112620004d957620004d86200036b565b5b8151620004eb84826020860162000476565b91505092915050565b6000819050919050565b6200050981620004f4565b81146200051557600080fd5b50565b6000815190506200052981620004fe565b92915050565b60008060008060008060c087890312156200054f576200054e620002fc565b5b60006200055f89828a0162000354565b965050602087015167ffffffffffffffff81111562000583576200058262000301565b5b6200059189828a01620004c1565b955050604087015167ffffffffffffffff811115620005b557620005b462000301565b5b620005c389828a01620004c1565b9450506060620005d689828a0162000518565b9350506080620005e989828a0162000354565b92505060a0620005fc89828a0162000518565b9150509295509295509295565b7f4e487b7100000000000000000000000000000000000000000000000000000000600052602160045260246000fd5b7f4e487b7100000000000000000000000000000000000000000000000000000000600052602260045260246000fd5b600060028204905060018216806200068057607f821691505b6020821081141562000697576200069662000638565b5b50919050565b6116fb80620006ad6000396000f3fe608060405234801561001057600080fd5b506004361061012c5760003560e01c8063655b737f116100ad57806390cf581c1161007157806390cf581c146102c7578063aa8c217c146102d1578063e2c3b122146102ef578063f2fde38b1461030d578063fcfff16f146103295761012c565b8063655b737f1461023357806366d003ac14610263578063715018a6146102815780637284e4161461028b5780638da5cb5b146102a95761012c565b80633174b689116100f45780633174b689146101c757806341c12a70146101d157806343d726d6146101db5780634a79d50c146101e55780635351a3c8146102035761012c565b806302d05d3f14610131578063036ee8501461014f5780631626fe641461016d578063227326b11461018b57806324033674146101a9575b600080fd5b610139610347565b6040516101469190611071565b60405180910390f35b61015761036d565b60405161016491906110a5565b60405180910390f35b610175610373565b60405161018291906110e3565b60405180910390f35b6101936103df565b6040516101a09190611119565b60405180910390f35b6101b16103f2565b6040516101be91906110e3565b60405180910390f35b6101cf61040c565b005b6101d96106b5565b005b6101e361080f565b005b6101ed610921565b6040516101fa91906111cd565b60405180910390f35b61021d60048036038101906102189190611220565b6109af565b60405161022a9190611119565b60405180910390f35b61024d60048036038101906102489190611220565b6109cf565b60405161025a9190611119565b60405180910390f35b61026b6109ef565b6040516102789190611071565b60405180910390f35b610289610a15565b005b610293610a9d565b6040516102a091906111cd565b60405180910390f35b6102b1610b2b565b6040516102be9190611071565b60405180910390f35b6102cf610b54565b005b6102d9610cae565b6040516102e691906110a5565b60405180910390f35b6102f7610cb4565b60405161030491906110e3565b60405180910390f35b61032760048036038101906103229190611220565b610cce565b005b610331610dc6565b60405161033e91906112c4565b60405180910390f35b600160009054906101000a900473ffffffffffffffffffffffffffffffffffffffff1681565b60045481565b6000600960009054906101000a900467ffffffffffffffff16600760009054906101000a900467ffffffffffffffff166103ad919061130e565b6064600760009054906101000a900467ffffffffffffffff166103d0919061134c565b6103da91906113bd565b905090565b600560019054906101000a900460ff1681565b600760009054906101000a900467ffffffffffffffff1681565b610414610dd9565b610453576040517f08c379a000000000000000000000000000000000000000000000000000000000815260040161044a9061143a565b60405180910390fd5b6001151560066000610463610e9d565b73ffffffffffffffffffffffffffffffffffffffff1673ffffffffffffffffffffffffffffffffffffffff16815260200190815260200160002060009054906101000a900460ff161515141561055657600660006104bf610e9d565b73ffffffffffffffffffffffffffffffffffffffff1673ffffffffffffffffffffffffffffffffffffffff16815260200190815260200160002060006101000a81549060ff02191690556001600760008282829054906101000a900467ffffffffffffffff1661052f919061145a565b92506101000a81548167ffffffffffffffff021916908367ffffffffffffffff1602179055505b6001151560086000610566610e9d565b73ffffffffffffffffffffffffffffffffffffffff1673ffffffffffffffffffffffffffffffffffffffff16815260200190815260200160002060009054906101000a900460ff161515141561065957600860006105c2610e9d565b73ffffffffffffffffffffffffffffffffffffffff1673ffffffffffffffffffffffffffffffffffffffff16815260200190815260200160002060006101000a81549060ff02191690556001600960008282829054906101000a900467ffffffffffffffff16610632919061145a565b92506101000a81548167ffffffffffffffff021916908367ffffffffffffffff1602179055505b3373ffffffffffffffffffffffffffffffffffffffff163073ffffffffffffffffffffffffffffffffffffffff167f2817372c62bc3cdb73b84b6412d5ce40c6e73c30ef5fac6558d0c4cb3da410b760405160405180910390a3565b6106bd610ea5565b6106fc576040517f08c379a00000000000000000000000000000000000000000000000000000000081526004016106f3906114da565b60405180910390fd5b60016008600061070a610e9d565b73ffffffffffffffffffffffffffffffffffffffff1673ffffffffffffffffffffffffffffffffffffffff16815260200190815260200160002060006101000a81548160ff0219169083151502179055506001600960008282829054906101000a900467ffffffffffffffff16610781919061130e565b92506101000a81548167ffffffffffffffff021916908367ffffffffffffffff1602179055503373ffffffffffffffffffffffffffffffffffffffff163073ffffffffffffffffffffffffffffffffffffffff167fbbcca6f8778ffd7765644921c17ed2de4add7a9b4ca1a29614a6295edd4a208960016040516108059190611119565b60405180910390a3565b610817610e9d565b73ffffffffffffffffffffffffffffffffffffffff16600160009054906101000a900473ffffffffffffffffffffffffffffffffffffffff1673ffffffffffffffffffffffffffffffffffffffff16146108a6576040517f08c379a000000000000000000000000000000000000000000000000000000000815260040161089d90611546565b60405180910390fd5b6001600560006101000a81548160ff021916908360018111156108cc576108cb61124d565b5b02179055503073ffffffffffffffffffffffffffffffffffffffff167f6944894ba716aadf69fcd57834d5d2cc2e808f6a144c75d956068efa727e2a7e4260405161091791906110a5565b60405180910390a2565b6003805461092e90611595565b80601f016020809104026020016040519081016040528092919081815260200182805461095a90611595565b80156109a75780601f1061097c576101008083540402835291602001916109a7565b820191906000526020600020905b81548152906001019060200180831161098a57829003601f168201915b505050505081565b60086020528060005260406000206000915054906101000a900460ff1681565b60066020528060005260406000206000915054906101000a900460ff1681565b600960089054906101000a900473ffffffffffffffffffffffffffffffffffffffff1681565b610a1d610e9d565b73ffffffffffffffffffffffffffffffffffffffff16610a3b610b2b565b73ffffffffffffffffffffffffffffffffffffffff1614610a91576040517f08c379a0000000000000000000000000000000000000000000000000000000008152600401610a8890611613565b60405180910390fd5b610a9b6000610f6c565b565b60028054610aaa90611595565b80601f0160208091040260200160405190810160405280929190818152602001828054610ad690611595565b8015610b235780601f10610af857610100808354040283529160200191610b23565b820191906000526020600020905b815481529060010190602001808311610b0657829003601f168201915b505050505081565b60008060009054906101000a900473ffffffffffffffffffffffffffffffffffffffff16905090565b610b5c610ea5565b610b9b576040517f08c379a0000000000000000000000000000000000000000000000000000000008152600401610b92906114da565b60405180910390fd5b600160066000610ba9610e9d565b73ffffffffffffffffffffffffffffffffffffffff1673ffffffffffffffffffffffffffffffffffffffff16815260200190815260200160002060006101000a81548160ff0219169083151502179055506001600760008282829054906101000a900467ffffffffffffffff16610c20919061130e565b92506101000a81548167ffffffffffffffff021916908367ffffffffffffffff1602179055503373ffffffffffffffffffffffffffffffffffffffff163073ffffffffffffffffffffffffffffffffffffffff167fbbcca6f8778ffd7765644921c17ed2de4add7a9b4ca1a29614a6295edd4a20896001604051610ca49190611119565b60405180910390a3565b600a5481565b600960009054906101000a900467ffffffffffffffff1681565b610cd6610e9d565b73ffffffffffffffffffffffffffffffffffffffff16610cf4610b2b565b73ffffffffffffffffffffffffffffffffffffffff1614610d4a576040517f08c379a0000000000000000000000000000000000000000000000000000000008152600401610d4190611613565b60405180910390fd5b600073ffffffffffffffffffffffffffffffffffffffff168173ffffffffffffffffffffffffffffffffffffffff161415610dba576040517f08c379a0000000000000000000000000000000000000000000000000000000008152600401610db1906116a5565b60405180910390fd5b610dc381610f6c565b50565b600560009054906101000a900460ff1681565b60006001151560066000610deb610e9d565b73ffffffffffffffffffffffffffffffffffffffff1673ffffffffffffffffffffffffffffffffffffffff16815260200190815260200160002060009054906101000a900460ff1615151480610e9857506001151560086000610e4c610e9d565b73ffffffffffffffffffffffffffffffffffffffff1673ffffffffffffffffffffffffffffffffffffffff16815260200190815260200160002060009054906101000a900460ff161515145b905090565b600033905090565b60006001151560066000610eb7610e9d565b73ffffffffffffffffffffffffffffffffffffffff1673ffffffffffffffffffffffffffffffffffffffff16815260200190815260200160002060009054906101000a900460ff16151514158015610f6757506001151560086000610f1a610e9d565b73ffffffffffffffffffffffffffffffffffffffff1673ffffffffffffffffffffffffffffffffffffffff16815260200190815260200160002060009054906101000a900460ff16151514155b905090565b60008060009054906101000a900473ffffffffffffffffffffffffffffffffffffffff169050816000806101000a81548173ffffffffffffffffffffffffffffffffffffffff021916908373ffffffffffffffffffffffffffffffffffffffff1602179055508173ffffffffffffffffffffffffffffffffffffffff168173ffffffffffffffffffffffffffffffffffffffff167f8be0079c531659141344cd1fd0a4f28419497f9722a3daafe3b4186f6b6457e060405160405180910390a35050565b600073ffffffffffffffffffffffffffffffffffffffff82169050919050565b600061105b82611030565b9050919050565b61106b81611050565b82525050565b60006020820190506110866000830184611062565b92915050565b6000819050919050565b61109f8161108c565b82525050565b60006020820190506110ba6000830184611096565b92915050565b600067ffffffffffffffff82169050919050565b6110dd816110c0565b82525050565b60006020820190506110f860008301846110d4565b92915050565b60008115159050919050565b611113816110fe565b82525050565b600060208201905061112e600083018461110a565b92915050565b600081519050919050565b600082825260208201905092915050565b60005b8381101561116e578082015181840152602081019050611153565b8381111561117d576000848401525b50505050565b6000601f19601f8301169050919050565b600061119f82611134565b6111a9818561113f565b93506111b9818560208601611150565b6111c281611183565b840191505092915050565b600060208201905081810360008301526111e78184611194565b905092915050565b600080fd5b6111fd81611050565b811461120857600080fd5b50565b60008135905061121a816111f4565b92915050565b600060208284031215611236576112356111ef565b5b60006112448482850161120b565b91505092915050565b7f4e487b7100000000000000000000000000000000000000000000000000000000600052602160045260246000fd5b6002811061128d5761128c61124d565b5b50565b600081905061129e8261127c565b919050565b60006112ae82611290565b9050919050565b6112be816112a3565b82525050565b60006020820190506112d960008301846112b5565b92915050565b7f4e487b7100000000000000000000000000000000000000000000000000000000600052601160045260246000fd5b6000611319826110c0565b9150611324836110c0565b92508267ffffffffffffffff03821115611341576113406112df565b5b828201905092915050565b6000611357826110c0565b9150611362836110c0565b92508167ffffffffffffffff0483118215151615611383576113826112df565b5b828202905092915050565b7f4e487b7100000000000000000000000000000000000000000000000000000000600052601260045260246000fd5b60006113c8826110c0565b91506113d3836110c0565b9250826113e3576113e261138e565b5b828204905092915050565b7f746865206164647265737320646964206e6f7420766f74652079657400000000600082015250565b6000611424601c8361113f565b915061142f826113ee565b602082019050919050565b6000602082019050818103600083015261145381611417565b9050919050565b6000611465826110c0565b9150611470836110c0565b925082821015611483576114826112df565b5b828203905092915050565b7f74686520616464726573732068617320766f74656420616c7265616479000000600082015250565b60006114c4601d8361113f565b91506114cf8261148e565b602082019050919050565b600060208201905081810360008301526114f3816114b7565b9050919050565b7f6e6f7420616e206f776e65720000000000000000000000000000000000000000600082015250565b6000611530600c8361113f565b915061153b826114fa565b602082019050919050565b6000602082019050818103600083015261155f81611523565b9050919050565b7f4e487b7100000000000000000000000000000000000000000000000000000000600052602260045260246000fd5b600060028204905060018216806115ad57607f821691505b602082108114156115c1576115c0611566565b5b50919050565b7f4f776e61626c653a2063616c6c6572206973206e6f7420746865206f776e6572600082015250565b60006115fd60208361113f565b9150611608826115c7565b602082019050919050565b6000602082019050818103600083015261162c816115f0565b9050919050565b7f4f776e61626c653a206e6577206f776e657220697320746865207a65726f206160008201527f6464726573730000000000000000000000000000000000000000000000000000602082015250565b600061168f60268361113f565b915061169a82611633565b604082019050919050565b600060208201905081810360008301526116be81611682565b905091905056fea264697066735822122064af8d86b46b752a36d2f1c056bdea7691043014e313bfba31061d586d31f07764736f6c63430008090033a2646970667358221220dcdde362b7ee1b613b62de66f08da0a4376bef411d88f470fcfeef11b532526364736f6c63430008090033",
  "immutableReferences": {},
  "source": "// SPDX-License-Identifier: MIT\npragma solidity >=0.8.0;\n\nimport \"./ITreasureBay.sol\";\nimport \"./TreasurePool.sol\";\nimport \"./proposal/ExchangeProposal.sol\";\nimport \"./proposal/TransferProposal.sol\";\nimport \"./proposal/TreasureExchangeChest.sol\";\nimport \"./proposal/TreasureTransferChest.sol\";\nimport \"@openzeppelin/contracts/token/ERC20/IERC20.sol\";\nimport \"@openzeppelin/contracts/token/ERC20/ERC20.sol\";\n\ncontract TreasureBay is\n  ITreasureBay,\n  TreasurePool,\n  TreasureTransferChest,\n  TreasureExchangeChest\n{\n  struct TreasureHunter {\n    address contractAddress;\n    uint256 joinedAt;\n  }\n  string private _name;\n  address private _creator;\n  uint64 private _limitNumberOfTreasureHunters;\n  TreasureHunter[] private _listOfTreasureHunters;\n  mapping(address => TreasureHunter) public treasureHunters;\n  bool private _isActivated = false; // If there are more than 3 members, activated\n  mapping(address => bool) public allowedRecipients;\n\n  event NewTreasureHunter(address treasureHunter, uint256 timestamp);\n\n  modifier onlyStakeholder() {\n    require(stakeholders[msg.sender].balance > 0, \"must be a stakeholder\");\n    _;\n  }\n\n  modifier onlyTreasureHunter() {\n    require(\n      treasureHunters[msg.sender].contractAddress != address(0x0),\n      \"must be a treasureHunter\"\n    );\n    _;\n  }\n\n  constructor(\n    string memory name_,\n    uint64 limitNumberOfStakeholders_,\n    uint64 limitNumberOfTreasureHunters_\n  ) payable ITreasureBay() {\n    limitNumberOfStakeholders = limitNumberOfStakeholders_;\n    _limitNumberOfTreasureHunters = limitNumberOfTreasureHunters_;\n    _name = name_;\n    _creator = _msgSender();\n  }\n\n  function name() public view virtual returns (string memory) {\n    return _name;\n  }\n\n  function creator() public view virtual returns (address) {\n    return _creator;\n  }\n\n  function limitNumberOfTreasureHunters() public view virtual returns (uint64) {\n    return _limitNumberOfTreasureHunters;\n  }\n\n  function listOfTreasureHunters()\n    public\n    view\n    virtual\n    returns (TreasureHunter[] memory)\n  {\n    return _listOfTreasureHunters;\n  }\n\n  function createTreasureHunter() public returns (TreasureHunter memory) {\n    require(\n      _listOfTreasureHunters.length <= _limitNumberOfTreasureHunters,\n      \"surpass limit number of treasureHunters\"\n    );\n    treasureHunters[_msgSender()] = TreasureHunter(\n      _msgSender(),\n      block.timestamp\n    );\n    _listOfTreasureHunters.push(treasureHunters[_msgSender()]);\n    if (_listOfTreasureHunters.length > 5) {\n      toggleIsActivated(true);\n    }\n    emit NewTreasureHunter(\n      treasureHunters[_msgSender()].contractAddress,\n      block.timestamp\n    );\n    return treasureHunters[_msgSender()];\n  }\n\n  function toggleIsActivated(bool isActivated_) public returns (bool _success) {\n    _isActivated = isActivated_;\n    return true;\n  }\n\n  function createNewTransferProposal(\n    string memory _title,\n    string memory _description,\n    uint64 _debatingPeriod,\n    address _recipient,\n    uint256 _amount\n  ) public onlyStakeholder returns (uint256) {\n    return\n      _newTransferProposal(\n        _title,\n        _description,\n        _debatingPeriod,\n        _recipient,\n        _amount\n      );\n  }\n\n  // function executeProposal(uint256 _proposalID, bytes memory _transactionData)\n  //   external\n  //   override\n  //   returns (bool _success)\n  // {}\n\n  // function changeAllowedRecipients(address _recipient, bool _allowed)\n  //   external\n  //   override\n  //   returns (bool _success)\n  // {}\n}\n",
  "sourcePath": "/Users/chungquantin/Desktop/Projects/DecentralizedOpenSource/smart-bay/contracts/features/dao/TreasureBay.sol",
  "compiler": {
    "name": "solc",
    "version": "0.8.9+commit.e5eed63a.Emscripten.clang"
  },
  "schemaVersion": "3.4.3",
  "updatedAt": "2021-11-14T12:36:39.897Z",
  "devdoc": {
    "kind": "dev",
    "methods": {
      "owner()": {
        "details": "Returns the address of the current owner."
      },
      "renounceOwnership()": {
        "details": "Leaves the contract without owner. It will not be possible to call `onlyOwner` functions anymore. Can only be called by the current owner. NOTE: Renouncing ownership will leave the contract without an owner, thereby removing any functionality that is only available to the owner."
      },
      "transferOwnership(address)": {
        "details": "Transfers ownership of the contract to a new account (`newOwner`). Can only be called by the current owner."
      }
    },
    "version": 1
  },
  "userdoc": {
    "kind": "user",
    "methods": {},
    "version": 1
  }
}