{
  "contractName": "TreasureBayFactory",
  "abi": [
    {
      "anonymous": false,
      "inputs": [
        {
          "indexed": true,
          "internalType": "string",
          "name": "name",
          "type": "string"
        },
        {
          "indexed": true,
          "internalType": "address",
          "name": "creator",
          "type": "address"
        },
        {
          "indexed": true,
          "internalType": "address",
          "name": "bayAddress",
          "type": "address"
        }
      ],
      "name": "NewBayCreated",
      "type": "event"
    },
    {
      "anonymous": false,
      "inputs": [
        {
          "indexed": true,
          "internalType": "address",
          "name": "previousOwner",
          "type": "address"
        },
        {
          "indexed": true,
          "internalType": "address",
          "name": "newOwner",
          "type": "address"
        }
      ],
      "name": "OwnershipTransferred",
      "type": "event"
    },
    {
      "inputs": [],
      "name": "owner",
      "outputs": [
        {
          "internalType": "address",
          "name": "",
          "type": "address"
        }
      ],
      "stateMutability": "view",
      "type": "function"
    },
    {
      "inputs": [],
      "name": "renounceOwnership",
      "outputs": [],
      "stateMutability": "nonpayable",
      "type": "function"
    },
    {
      "inputs": [
        {
          "internalType": "address",
          "name": "newOwner",
          "type": "address"
        }
      ],
      "name": "transferOwnership",
      "outputs": [],
      "stateMutability": "nonpayable",
      "type": "function"
    },
    {
      "inputs": [
        {
          "internalType": "string",
          "name": "name_",
          "type": "string"
        },
        {
          "internalType": "uint64",
          "name": "limitNumberOfMembers_",
          "type": "uint64"
        },
        {
          "internalType": "uint64",
          "name": "limitNumberOfTreasureHunters_",
          "type": "uint64"
        }
      ],
      "name": "createNewBay",
      "outputs": [
        {
          "internalType": "bool",
          "name": "",
          "type": "bool"
        }
      ],
      "stateMutability": "nonpayable",
      "type": "function"
    },
    {
      "inputs": [
        {
          "internalType": "address",
          "name": "bayAddress",
          "type": "address"
        }
      ],
      "name": "deleteBay",
      "outputs": [],
      "stateMutability": "nonpayable",
      "type": "function"
    },
    {
      "inputs": [],
      "name": "getAllBays",
      "outputs": [
        {
          "internalType": "contract ITreasureBay[]",
          "name": "",
          "type": "address[]"
        }
      ],
      "stateMutability": "view",
      "type": "function"
    },
    {
      "inputs": [
        {
          "internalType": "address",
          "name": "bayAddress",
          "type": "address"
        }
      ],
      "name": "getBay",
      "outputs": [
        {
          "internalType": "contract ITreasureBay",
          "name": "",
          "type": "address"
        }
      ],
      "stateMutability": "view",
      "type": "function"
    }
  ],
  "bytecode": "0x608060405234801561001057600080fd5b50610033610025640100000000610038810204565b64010000000061003c810204565b61008c565b3390565b60008054600160a060020a03838116600160a060020a0319831681178455604051919092169283917f8be0079c531659141344cd1fd0a4f28419497f9722a3daafe3b4186f6b6457e09190a35050565b613c5d8061009b6000396000f3fe60806040523480156200001157600080fd5b5060043610620000795760e060020a60003504630579e25b81146200007e57806349c2644014620000aa57806361002e1014620000c3578063715018a614620000dc5780638da5cb5b14620000e65780639a41e3ef1462000109578063f2fde38b1462000138575b600080fd5b620000956200008f36600462000592565b6200014f565b60405190151581526020015b60405180910390f35b620000b46200024e565b604051620000a1919062000671565b620000da620000d4366004620006c0565b620002b2565b005b620000da620003ee565b620000f06200043c565b604051600160a060020a039091168152602001620000a1565b620000f06200011a366004620006c0565b600160a060020a039081166000908152600260205260409020541690565b620000da62000149366004620006c0565b6200044b565b60008084848460405162000163906200054d565b620001719392919062000725565b604051809103906000f0801580156200018e573d6000803e3d6000fd5b50600180548082019091557fb10e2d527612073b26eecdfd717e6a320cf44b4afac2b0732d9fcbe2b7fa0cf6018054600160a060020a038316600160a060020a031991821681179092556000828152600260205260409020805490911682179055909150620001fa3390565b600160a060020a03168660405162000213919062000772565b604051908190038120907f31e76f752b66dd3322b05ee2c750c9cdd43aa32797450f4e05f8f0f6a62eb28e90600090a4506001949350505050565b60606001805480602002602001604051908101604052809291908181526020018280548015620002a857602002820191906000526020600020905b8154600160a060020a0316815260019091019060200180831162000289575b5050505050905090565b60005b600154811015620003c65781600160a060020a031660018281548110620002e057620002e062000790565b600091825260209091200154600160a060020a03161415620003b15760016200030a8282620007c4565b815481106200031d576200031d62000790565b60009182526020909120015460018054600160a060020a0390921691839081106200034c576200034c62000790565b9060005260206000200160006101000a815481600160a060020a030219169083600160a060020a0316021790555060018054806200038e576200038e620007df565b60008281526020902081016000199081018054600160a060020a03191690550190555b80620003bd81620007f9565b915050620002b5565b50600160a060020a031660009081526002602052604090208054600160a060020a0319169055565b33620003f96200043c565b600160a060020a0316146200042e5760405160e560020a62461bcd028152600401620004259062000817565b60405180910390fd5b6200043a6000620004fd565b565b600054600160a060020a031690565b33620004566200043c565b600160a060020a031614620004825760405160e560020a62461bcd028152600401620004259062000817565b600160a060020a038116620004ef5760405160e560020a62461bcd02815260206004820152602660248201527f4f776e61626c653a206e6577206f776e657220697320746865207a65726f2061604482015260d060020a6564647265737302606482015260840162000425565b620004fa81620004fd565b50565b60008054600160a060020a03838116600160a060020a0319831681178455604051919092169283917f8be0079c531659141344cd1fd0a4f28419497f9722a3daafe3b4186f6b6457e09190a35050565b6133db806200084d83390190565b60e060020a634e487b710260009081526041600452602490fd5b80356001604060020a03811681146200058d57600080fd5b919050565b600080600060608486031215620005a857600080fd5b83356001604060020a0380821115620005c057600080fd5b818601915086601f830112620005d557600080fd5b813581811115620005ea57620005ea6200055b565b604051601f8201601f19908116603f011681019083821181831017156200061557620006156200055b565b816040528281528960208487010111156200062f57600080fd5b826020860160208301376000602084830101528097505050505050620006586020850162000575565b9150620006686040850162000575565b90509250925092565b6020808252825182820181905260009190848201906040850190845b81811015620006b4578351600160a060020a0316835292840192918401916001016200068d565b50909695505050505050565b600060208284031215620006d357600080fd5b8135600160a060020a0381168114620006eb57600080fd5b9392505050565b60005b838110156200070f578181015183820152602001620006f5565b838111156200071f576000848401525b50505050565b606081526000845180606084015262000746816080850160208901620006f2565b6001604060020a0394851660208401529290931660408201526080601f909201601f1916010192915050565b6000825162000786818460208701620006f2565b9190910192915050565b60e060020a634e487b710260009081526032600452602490fd5b60e060020a634e487b710260009081526011600452602490fd5b60008219821115620007da57620007da620007aa565b500190565b60e060020a634e487b710260009081526031600452602490fd5b6000600019821415620008105762000810620007aa565b5060010190565b6020808252818101527f4f776e61626c653a2063616c6c6572206973206e6f7420746865206f776e657260408201526060019056fe60806040819052600480546001608060020a03167a03f4800000000000093a8000000000000000000000000000000000179055600f805460ff19169055620033db388190039081908339810160408190526200005b91620002c8565b6200006e6401000000006200016f810204565b60028054600160a060020a03929092166801000000000000000002604060020a60e060020a0319909216919091179055620000c4620000b56401000000006200016f810204565b64010000000062000173810204565b6004805467ffffffffffffffff19166001604060020a0384811691909117909155600c805460a060020a60e060020a031916740100000000000000000000000000000000000000009284169290920291909117905582516200012e90600b906020860190620001d6565b50620001426401000000006200016f810204565b600c8054600160a060020a031916600160a060020a03929092169190911790555050426011555062000421565b3390565b60058054600160a060020a0383811668010000000000000000818102604060020a60e060020a031985161790945560405193909204169182907f8be0079c531659141344cd1fd0a4f28419497f9722a3daafe3b4186f6b6457e090600090a35050565b828054620001e490620003cb565b90600052602060002090601f01602090048101928262000208576000855562000253565b82601f106200022357805160ff191683800117855562000253565b8280016001018555821562000253579182015b828111156200025357825182559160200191906001019062000236565b506200026192915062000265565b5090565b5b8082111562000261576000815560010162000266565b7f4e487b7100000000000000000000000000000000000000000000000000000000600052604160045260246000fd5b80516001604060020a0381168114620002c357600080fd5b919050565b600080600060608486031215620002de57600080fd5b83516001604060020a0380821115620002f657600080fd5b818601915086601f8301126200030b57600080fd5b8151818111156200032057620003206200027c565b604051601f8201601f19908116603f011681019083821181831017156200034b576200034b6200027c565b816040528281526020935089848487010111156200036857600080fd5b600091505b828210156200038c57848201840151818301850152908301906200036d565b828211156200039e5760008484830101525b9650620003b0915050868201620002ab565b93505050620003c260408501620002ab565b90509250925092565b600281046001821680620003e057607f821691505b602082108114156200041b577f4e487b7100000000000000000000000000000000000000000000000000000000600052602260045260246000fd5b50919050565b612faa80620004316000396000f3fe6080604052600436106200018b5760e060020a600035046302d05d3f81146200019057806306fdde0314620001ca5780631e3ab98314620001f1578063246d59af146200022c57806328cd149414620002805780632def662014620002a25780633a4b66f114620002ae5780633b5b4f2c14620002b85780634653f1d114620002dd5780634df6d6cc14620003045780634e71d92d146200034957806352d4aedc1462000353578063567e98f914620003875780635f9fed55146200039f57806362c48ae714620003dc578063715018a614620004035780637ddf5c04146200041b5780637f6f4e9c146200044257806384780fd214620004695780638b59ca1d14620004925780638da5cb5b14620004aa578063b898e60114620004c2578063bcb0c2d714620004e4578063c07cfca91462000509578063cceb68f51462000583578063cd555bf1146200059b578063cf09e0d014620005c4578063eb8b981114620005dc578063f2fde38b1462000619578063f851a440146200063e578063f8d41b961462000667575b600080fd5b3480156200019d57600080fd5b50600c54620001b290600160a060020a031681565b604051620001c1919062001827565b60405180910390f35b348015620001d757600080fd5b50620001e26200068e565b604051620001c191906200188b565b348015620001fe57600080fd5b5060025462000213906001604060020a031681565b6040516001604060020a039091168152602001620001c1565b3480156200023957600080fd5b50620002706200024b366004620018c4565b600e6020526000908152604090208054600190910154600160a060020a039091169082565b604051620001c1929190620018e2565b3480156200028d57600080fd5b5060045462000213906001604060020a031681565b620002ac62000724565b005b620002ac62000927565b348015620002c557600080fd5b50620001b2620002d7366004620018fb565b62000a08565b348015620002ea57600080fd5b50620002f562000a33565b604051620001c1919062001941565b3480156200031157600080fd5b506200033862000323366004620018c4565b60106020526000908152604090205460ff1681565b6040519015158152602001620001c1565b620002ac62000abf565b3480156200036057600080fd5b50620003786200037236600462001a41565b62000b61565b604051908152602001620001c1565b3480156200039457600080fd5b506200037860035481565b348015620003ac57600080fd5b50620001b2620003be366004620018c4565b600160a060020a039081166000908152600760205260409020541690565b348015620003e957600080fd5b50620003f462000bdf565b604051620001c1919062001af7565b3480156200041057600080fd5b50620002ac62000dda565b3480156200042857600080fd5b506200043362000e1f565b604051620001c1919062001b0d565b3480156200044f57600080fd5b506200045a62000e83565b604051620001c1919062001b50565b3480156200047657600080fd5b506004546200021390604060020a90046001604060020a031681565b3480156200049f57600080fd5b50620002ac62000ef1565b348015620004b757600080fd5b50620001b26200109d565b348015620004cf57600080fd5b5060055462000213906001604060020a031681565b348015620004f157600080fd5b50620002ac62000503366004620018c4565b620010b3565b3480156200051657600080fd5b506200055a62000528366004620018c4565b60016020819052600091825260409091208054918101546002820154600390920154600160a060020a03909116919084565b60408051948552600160a060020a039093166020850152918301526060820152608001620001c1565b3480156200059057600080fd5b5062000433620012b5565b348015620005a857600080fd5b50600c54620002139060a060020a90046001604060020a031681565b348015620005d157600080fd5b506200037860115481565b348015620005e957600080fd5b50620001b2620005fb366004620018c4565b600160a060020a039081166000908152600a60205260409020541690565b3480156200062657600080fd5b50620002ac62000638366004620018c4565b62001317565b3480156200064b57600080fd5b50600254620001b290604060020a9004600160a060020a031681565b3480156200067457600080fd5b506200067f620013c9565b604051620001c1919062001ba1565b600b80546200069d9062001bb1565b80601f0160208091040260200160405190810160405280929190818152602001828054620006cb9062001bb1565b80156200071c5780601f10620006f0576101008083540402835291602001916200071c565b820191906000526020600020905b815481529060010190602001808311620006fe57829003601f168201915b505050505081565b336000908152600160205260409020546200075f5760405160e560020a62461bcd028152600401620007569062001bf2565b60405180910390fd5b600454336000908152600160205260409020600301546200079191608060020a90046001604060020a03169062001c3a565b4211620007f75760405160e560020a62461bcd02815260206004820152602760248201527f4d757374207374616b656420666f7220372064617973206265666f726520756e604482015260c860020a667374616b696e6702606482015260840162000756565b336000908152600160205260409020543411156200085b5760405160e560020a62461bcd02815260206004820152601a60248201527f496e73756666696369656e74207374616b656420616d6f756e74000000000000604482015260640162000756565b60405133903480156108fc02916000818181858888f1935050505015801562000888573d6000803e3d6000fd5b503360009081526001602052604081208054349290620008aa90849062001c3a565b909155505033600090815260016020526040902054620008cf57620008cf33620010b3565b3460036000828254620008e3919062001c55565b909155507f85082129d87b2fe11527cb1b3b7a520aeb5aa6913f88a3d8757fe40d1db02fdd9050335b346040516200091d929190620018e2565b60405180910390a1565b600034116200094d5760405160e560020a62461bcd028152600401620007569062001c6f565b6005546001604060020a031634116200097d5760405160e560020a62461bcd028152600401620007569062001c6f565b336000908152600160205260409020546200099e576200099c620013c9565b505b3360009081526001602052604081208054349290620009bf90849062001c3a565b925050819055503460036000828254620009da919062001c3a565b909155507febedb8b3c678666e7f36970bc8f57abf6d8fa2e828c0da91ea5b75bf68ed101a9050336200090c565b6008818154811062000a1957600080fd5b600091825260209091200154600160a060020a0316905081565b60606000805480602002602001604051908101604052809291908181526020016000905b8282101562000ab6576000848152602090819020604080516080810182526004860290920180548352600180820154600160a060020a031684860152600282015492840192909252600301546060830152908352909201910162000a57565b50505050905090565b3360009081526001602052604090205462000af15760405160e560020a62461bcd028152600401620007569062001bf2565b33600090815260016020526040902060020154421162000b465760405160e560020a62461bcd028152602060048201526009602482015260b860020a68546f6f206561726c7902604482015260640162000756565b3360009081526001602052604090206203f480600290910155565b3360009081526001602052604081205462000bbd5760405160e560020a62461bcd0281526020600482015260156024820152605960020a7436bab9ba10313290309039ba30b5b2b437b63232b902604482015260640162000756565b62000bd58686866001604060020a03168686620016c2565b9695505050505050565b6040805180820190915260008082526020820152600c54600d5460a060020a9091046001604060020a0316101562000c705760405160e560020a62461bcd02815260206004820152602760248201527f73757270617373206c696d6974206e756d626572206f66207472656173757265604482015260c860020a6648756e7465727302606482015260840162000756565b604051806040016040528062000c833390565b600160a060020a03908116825242602092830152336000908152600e83526040812084518154600160a060020a031990811691851691909117825594909301516001808501918255600d805491820181559283905293547fd7b6990105719101dabeb77144f2a3385c8033acd3af97e9423a695e81ad1eb560029095029485018054909616931692909217909355547fd7b6990105719101dabeb77144f2a3385c8033acd3af97e9423a695e81ad1eb690910155546005101562000d4f57600f805460ff191660011790555b336000908152600e6020526040908190205490517fef7dd88fd6e07a1960a539671612f14f6e19471ee795cade675fb83c942674159162000d9e91600160a060020a03909116904290620018e2565b60405180910390a150336000908152600e602090815260409182902082518084019093528054600160a060020a03168352600101549082015290565b3362000de56200109d565b600160a060020a03161462000e115760405160e560020a62461bcd028152600401620007569062001ca1565b62000e1d6000620017bb565b565b6060600680548060200260200160405190810160405280929190818152602001828054801562000e7957602002820191906000526020600020905b8154600160a060020a0316815260019091019060200180831162000e5a575b5050505050905090565b6060600d805480602002602001604051908101604052809291908181526020016000905b8282101562000ab657600084815260209081902060408051808201909152600285029091018054600160a060020a0316825260019081015482840152908352909201910162000ea7565b336000908152600e6020526040902054600160a060020a031662000f595760405160e560020a62461bcd0281526020600482015260186024820152604160020a7736bab9ba1031329030903a3932b0b9bab932a43ab73a32b902604482015260640162000756565b60005b600d54811015620010795733600160a060020a0316600d828154811062000f875762000f8762001cd6565b6000918252602090912060029091020154600160a060020a031614156200106457600d62000fb782600162001c3a565b8154811062000fca5762000fca62001cd6565b9060005260206000209060020201600d828154811062000fee5762000fee62001cd6565b6000918252602090912082546002909202018054600160a060020a031916600160a060020a03909216919091178155600191820154910155600d8054806200103a576200103a62001cf0565b6000828152602081206002600019909301928302018054600160a060020a03191681556001015590555b80620010708162001d0a565b91505062000f5c565b50336000908152600e602052604081208054600160a060020a031916815560010155565b600554604060020a9004600160a060020a031690565b60005b600054811015620011fa5733600160a060020a031660008281548110620010e157620010e162001cd6565b6000918252602090912060016004909202010154600160a060020a03161415620011e55760006200111482600162001c3a565b8154811062001127576200112762001cd6565b9060005260206000209060040201600082815481106200114b576200114b62001cd6565b60009182526020822083546004909202019081556001808401549082018054600160a060020a031916600160a060020a0390921691909117905560028084015490820155600392830154920191909155805480620011ad57620011ad62001cf0565b600082815260208120600460001990930192830201818155600181018054600160a060020a0319169055600281018290556003015590555b80620011f18162001d0a565b915050620010b6565b50600160a060020a038116600090815260016020819052604082208281558082018054600160a060020a031916905560028082018490556003909101839055805491929091620012559084906001604060020a031662001d28565b92506101000a8154816001604060020a0302191690836001604060020a031602179055507f6f1eb9379ef97a9fc8efe5b92a387d1291f5c65d0929df551aea69371e05403c81604051620012aa919062001827565b60405180910390a150565b6060600980548060200260200160405190810160405280929190818152602001828054801562000e7957602002820191906000526020600020908154600160a060020a0316815260019091019060200180831162000e5a575050505050905090565b33620013226200109d565b600160a060020a0316146200134e5760405160e560020a62461bcd028152600401620007569062001ca1565b600160a060020a038116620013bb5760405160e560020a62461bcd02815260206004820152602660248201527f4f776e61626c653a206e6577206f776e657220697320746865207a65726f2061604482015260d060020a6564647265737302606482015260840162000756565b620013c681620017bb565b50565b620013fe6040518060800160405280600081526020016000600160a060020a0316815260200160008152602001600081525090565b6004546002546001604060020a0391821691161115620014735760405160e560020a62461bcd028152602060048201526024808201527f73757270617373206c696d6974206e756d626572206f66207374616b65686f6c604482015260e060020a636465727302606482015260840162000756565b6040518060800160405280600081526020016200148d3390565b600160a060020a03168152600454602090910190620014bd9060c060020a90046001604060020a03164262001c3a565b8152426020918201523360009081526001808352604080832085518155938501518483018054600160a060020a0319908116600160a060020a03938416178255928701516002808801918255606090980151600388019081558654808701885587805297547f290decd9548b62a8d60345a988386fc84ba6bc95484008f6362f93160ef3e56360049099029889015591547f290decd9548b62a8d60345a988386fc84ba6bc95484008f6362f93160ef3e56488018054909516931692909217909255547f290decd9548b62a8d60345a988386fc84ba6bc95484008f6362f93160ef3e565850155547f290decd9548b62a8d60345a988386fc84ba6bc95484008f6362f93160ef3e566909301929092558254919291620015e89084906001604060020a031662001d53565b92506101000a8154816001604060020a0302191690836001604060020a031602179055507f45353ebbf1c4a0468ba13a94bc212a3b8fc4b624385aa0e9c3fa07045d7d827d60016000620016393390565b600160a060020a039081168252602082019290925260409081016000206001015490516200166c92919091169062001827565b60405180910390a1503360009081526001602081815260409283902083516080810185528154815292810154600160a060020a031691830191909152600281015492820192909252600390910154606082015290565b600080338688878787604051620016d99062001819565b620016ea9695949392919062001d81565b604051809103906000f08015801562001707573d6000803e3d6000fd5b5060068054600181019091557ff652222313e28459528d920b65115c16c04f3efc82aaedc97be59f3f377c0d3f018054600160a060020a038316600160a060020a031991821681179092556000828152600760205260409081902080549092169092179055519091507fa9a62b7c28d7da43010d6fdf373b4026f4156bc0402ee1b0bdf2acf13a74142190620017a590899033908890889062001dd8565b60405180910390a1505060065495945050505050565b60058054600160a060020a03838116604060020a818102604060020a60e060020a031985161790945560405193909204169182907f8be0079c531659141344cd1fd0a4f28419497f9722a3daafe3b4186f6b6457e090600090a35050565b6111648062001e1183390190565b600160a060020a0391909116815260200190565b6000815180845260005b81811015620018635760208185018101518683018201520162001845565b8181111562001876576000602083870101525b50601f01601f19169290920160200192915050565b602081526000620018a060208301846200183b565b9392505050565b8035600160a060020a0381168114620018bf57600080fd5b919050565b600060208284031215620018d757600080fd5b620018a082620018a7565b600160a060020a03929092168252602082015260400190565b6000602082840312156200190e57600080fd5b5035919050565b80518252602080820151600160a060020a03169083015260408082015190830152606090810151910152565b6020808252825182820181905260009190848201906040850190845b8181101562001987576200197383855162001915565b92840192608092909201916001016200195d565b50909695505050505050565b60e060020a634e487b710260009081526041600452602490fd5b600082601f830112620019bf57600080fd5b81356001604060020a0380821115620019dc57620019dc62001993565b604051601f8301601f19908116603f0116810190828211818310171562001a075762001a0762001993565b8160405283815286602085880101111562001a2157600080fd5b836020870160208301376000602085830101528094505050505092915050565b600080600080600060a0868803121562001a5a57600080fd5b85356001604060020a038082111562001a7257600080fd5b62001a8089838a01620019ad565b9650602088013591508082111562001a9757600080fd5b62001aa589838a01620019ad565b955060408801359150808216821462001abd57600080fd5b50925062001ace60608701620018a7565b949793965091946080013592915050565b8051600160a060020a03168252602090810151910152565b6040810162001b07828462001adf565b92915050565b6020808252825182820181905260009190848201906040850190845b8181101562001987578351600160a060020a03168352928401929184019160010162001b29565b602080825282518282018190526000919060409081850190868401855b8281101562001b945762001b8384835162001adf565b928401929085019060010162001b6d565b5091979650505050505050565b6080810162001b07828462001915565b60028104600182168062001bc657607f821691505b6020821081141562001bec5760e060020a634e487b710260009081526022600452602490fd5b50919050565b6020808252601190820152607960020a702737ba10309039ba30b5b2b437b63232b902604082015260600190565b60e060020a634e487b710260009081526011600452602490fd5b6000821982111562001c505762001c5062001c20565b500190565b60008282101562001c6a5762001c6a62001c20565b500390565b6020808252601590820152605a60020a741a5b9d985b1a59081cdd185ad95908185b5bdd5b9d02604082015260600190565b6020808252818101527f4f776e61626c653a2063616c6c6572206973206e6f7420746865206f776e6572604082015260600190565b60e060020a634e487b710260009081526032600452602490fd5b60e060020a634e487b710260009081526031600452602490fd5b600060001982141562001d215762001d2162001c20565b5060010190565b60006001604060020a038381169083168181101562001d4b5762001d4b62001c20565b039392505050565b60006001604060020a0382811684821680830382111562001d785762001d7862001c20565b01949350505050565b6000600160a060020a03808916835260c0602084015262001da660c08401896200183b565b838103604085015262001dba81896200183b565b60608501979097525093909316608082015260a00152509392505050565b60808152600062001ded60808301876200183b565b600160a060020a039586166020840152939094166040820152606001529291505056fe60806040523480156200001157600080fd5b5060405162001164380380620011648339810160408190526200003491620002e6565b858585856200005e6200004f640100000000620000e9810204565b640100000000620000ed810204565b60028054600160a060020a031916600160a060020a03861617905582516200008e9060039060208601906200013d565b508151620000a49060049060208501906200013d565b5060055550506006805461ffff191690555042600b55600c8054600160a060020a031916600160a060020a039390931692909217909155600d5550620003dd92505050565b3390565b60008054600160a060020a03838116600160a060020a0319831681178455604051919092169283917f8be0079c531659141344cd1fd0a4f28419497f9722a3daafe3b4186f6b6457e09190a35050565b8280546200014b9062000387565b90600052602060002090601f0160209004810192826200016f5760008555620001ba565b82601f106200018a57805160ff1916838001178555620001ba565b82800160010185558215620001ba579182015b82811115620001ba5782518255916020019190600101906200019d565b50620001c8929150620001cc565b5090565b5b80821115620001c85760008155600101620001cd565b8051600160a060020a0381168114620001fb57600080fd5b919050565b7f4e487b7100000000000000000000000000000000000000000000000000000000600052604160045260246000fd5b600082601f8301126200024157600080fd5b81516001604060020a03808211156200025e576200025e62000200565b604051601f8301601f19908116603f0116810190828211818310171562000289576200028962000200565b81604052838152602092508683858801011115620002a657600080fd5b600091505b83821015620002ca5785820183015181830184015290820190620002ab565b83821115620002dc5760008385830101525b9695505050505050565b60008060008060008060c087890312156200030057600080fd5b6200030b87620001e3565b955060208701516001604060020a03808211156200032857600080fd5b620003368a838b016200022f565b965060408901519150808211156200034d57600080fd5b506200035c89828a016200022f565b945050606087015192506200037460808801620001e3565b915060a087015190509295509295509295565b6002810460018216806200039c57607f821691505b60208210811415620003d7577f4e487b7100000000000000000000000000000000000000000000000000000000600052602260045260246000fd5b50919050565b610d7780620003ed6000396000f3fe608060405234801561001057600080fd5b50600436106101155760e060020a600035046302d05d3f811461011a578063036ee8501461014a5780631626fe6414610161578063227326b11461018157806324033674146101a35780633174b689146101b657806341c12a70146101c057806343d726d6146101c85780634a79d50c146101d05780635351a3c8146101e5578063655b737f1461020857806366d003ac1461022b578063715018a61461023e5780637284e416146102465780638da5cb5b1461024e57806390cf581c14610256578063aa8c217c1461025e578063cdd7225314610267578063cf09e0d01461027c578063e2c3b12214610285578063f2fde38b14610298578063fcfff16f146102ab575b600080fd5b60025461012d90600160a060020a031681565b604051600160a060020a0390911681526020015b60405180910390f35b61015360055481565b604051908152602001610141565b6101696102c5565b6040516001604060020a039091168152602001610141565b60065461019390610100900460ff1681565b6040519015158152602001610141565b600854610169906001604060020a031681565b6101be61030a565b005b6101be61047f565b6101be6105e8565b6101d861067b565b6040516101419190610a4d565b6101936101f3366004610aa2565b60096020526000908152604090205460ff1681565b610193610216366004610aa2565b60076020526000908152604090205460ff1681565b600c5461012d90600160a060020a031681565b6101be610709565b6101d8610747565b61012d610754565b6101be610763565b610153600d5481565b61026f610856565b6040516101419190610ad2565b610153600b5481565b600a54610169906001604060020a031681565b6101be6102a6366004610aa2565b6108dd565b6006546102b89060ff1681565b6040516101419190610b36565b600a546008546000916102e4916001604060020a039182169116610b7c565b6008546102fb906001604060020a03166064610ba7565b6103059190610bd6565b905090565b610312610986565b6103665760405160e560020a62461bcd02815260206004820152601c60248201527f746865206164647265737320646964206e6f7420766f7465207965740000000060448201526064015b60405180910390fd5b3360009081526007602052604090205460ff161515600114156103db57336000908152600760205260408120805460ff1916905560088054600192906103b69084906001604060020a0316610c0e565b92506101000a8154816001604060020a0302191690836001604060020a031602179055505b3360009081526009602052604090205460ff1615156001141561045057336000908152600960205260408120805460ff19169055600a80546001929061042b9084906001604060020a0316610c0e565b92506101000a8154816001604060020a0302191690836001604060020a031602179055505b604051339030907f2817372c62bc3cdb73b84b6412d5ce40c6e73c30ef5fac6558d0c4cb3da410b790600090a3565b6104876109c0565b6104a65760405160e560020a62461bcd02815260040161035d90610c36565b336000818152600960209081526040808320805460ff199081166001908117909255825160608101845295865242938601938452918501848152815480830183558286529551600080516020610d0283398151915260039097029687018054600160a060020a031916600160a060020a039092169190911790559251600080516020610d228339815191528601559151600080516020610ce2833981519152909401805490911693151593909317909255600a80549091906105729084906001604060020a0316610b7c565b92506101000a8154816001604060020a0302191690836001604060020a0316021790555033600160a060020a031630600160a060020a03167fbbcca6f8778ffd7765644921c17ed2de4add7a9b4ca1a29614a6295edd4a208960016040516105de911515815260200190565b60405180910390a3565b600254600160a060020a031633146106375760405160e560020a62461bcd02815260206004820152600c602482015260a160020a6b3737ba1030b71037bbb732b902604482015260640161035d565b6006805460ff1916600117905560405142815230907f6944894ba716aadf69fcd57834d5d2cc2e808f6a144c75d956068efa727e2a7e9060200160405180910390a2565b6004805461068890610c6d565b80601f01602080910402602001604051908101604052809291908181526020018280546106b490610c6d565b80156107015780601f106106d657610100808354040283529160200191610701565b820191906000526020600020905b8154815290600101906020018083116106e457829003601f168201915b505050505081565b33610712610754565b600160a060020a03161461073b5760405160e560020a62461bcd02815260040161035d90610cac565b61074560006109fd565b565b6003805461068890610c6d565b600054600160a060020a031690565b61076b6109c0565b61078a5760405160e560020a62461bcd02815260040161035d90610c36565b336000818152600760209081526040808320805460ff199081166001908117909255825160608101845295865242938601938452918501818152815480830183558286529551600080516020610d0283398151915260039097029687018054600160a060020a031916600160a060020a039092169190911790559251600080516020610d228339815191528601559151600080516020610ce2833981519152909401805490911693151593909317909255600880549091906105729084906001604060020a0316610b7c565b60606001805480602002602001604051908101604052809291908181526020016000905b828210156108d457600084815260209081902060408051606081018252600386029092018054600160a060020a031683526001808201548486015260029091015460ff16151591830191909152908352909201910161087a565b50505050905090565b336108e6610754565b600160a060020a03161461090f5760405160e560020a62461bcd02815260040161035d90610cac565b600160a060020a03811661097a5760405160e560020a62461bcd02815260206004820152602660248201527f4f776e61626c653a206e6577206f776e657220697320746865207a65726f2061604482015260d060020a6564647265737302606482015260840161035d565b610983816109fd565b50565b3360009081526007602052604081205460ff161515600114806103055750503360009081526009602052604090205460ff16151560011490565b3360009081526007602052604081205460ff1615156001148015906103055750503360009081526009602052604090205460ff1615156001141590565b60008054600160a060020a03838116600160a060020a0319831681178455604051919092169283917f8be0079c531659141344cd1fd0a4f28419497f9722a3daafe3b4186f6b6457e09190a35050565b600060208083528351808285015260005b81811015610a7a57858101830151858201604001528201610a5e565b81811115610a8c576000604083870101525b50601f01601f1916929092016040019392505050565b600060208284031215610ab457600080fd5b8135600160a060020a0381168114610acb57600080fd5b9392505050565b602080825282518282018190526000919060409081850190868401855b82811015610b295781518051600160a060020a03168552868101518786015285015115158585015260609093019290850190600101610aef565b5091979650505050505050565b6020810160028310610b5c5760e060020a634e487b710260009081526021600452602490fd5b91905290565b60e060020a634e487b710260009081526011600452602490fd5b60006001604060020a03828116848216808303821115610b9e57610b9e610b62565b01949350505050565b60006001604060020a0382811684821681151582840482111615610bcd57610bcd610b62565b02949350505050565b60006001604060020a0383811680610c025760e060020a634e487b710260009081526012600452602490fd5b92169190910492915050565b60006001604060020a0383811690831681811015610c2e57610c2e610b62565b039392505050565b6020808252601d908201527f74686520616464726573732068617320766f74656420616c7265616479000000604082015260600190565b600281046001821680610c8157607f821691505b60208210811415610ca65760e060020a634e487b710260009081526022600452602490fd5b50919050565b6020808252818101527f4f776e61626c653a2063616c6c6572206973206e6f7420746865206f776e657260408201526060019056feb10e2d527612073b26eecdfd717e6a320cf44b4afac2b0732d9fcbe2b7fa0cf8b10e2d527612073b26eecdfd717e6a320cf44b4afac2b0732d9fcbe2b7fa0cf6b10e2d527612073b26eecdfd717e6a320cf44b4afac2b0732d9fcbe2b7fa0cf7a264697066735822122064f0ffd31e83a68c116630ff7b0ebc1b8d436034d055ee128c36cdcb70dd083a64736f6c63430008090033a2646970667358221220011cb83cf474d88763a1beb0652c3f9d60c87996cb077bc87efcdecd7701fba864736f6c63430008090033a2646970667358221220c5688a66dcad13862963a1dd3bec0bf825505bd08fdaddaac25dfd95e349a56a64736f6c63430008090033",
  "immutableReferences": {},
  "source": "// SPDX-License-Identifier: MIT\npragma solidity >=0.8.0;\n\nimport \"./ITreasureBayFactory.sol\";\nimport \"./TreasureBay.sol\";\nimport \"@openzeppelin/contracts/access/Ownable.sol\";\n\ncontract TreasureBayFactory is ITreasureBayFactory, Ownable {\n  ITreasureBay[] private _listOfBays;\n  mapping(address => ITreasureBay) _mapOfBays;\n\n  function createNewBay(\n    string memory name_,\n    uint64 limitNumberOfMembers_,\n    uint64 limitNumberOfTreasureHunters_\n  ) external override returns (bool) {\n    TreasureBay bay = new TreasureBay(\n      name_,\n      limitNumberOfMembers_,\n      limitNumberOfTreasureHunters_\n    );\n    _listOfBays.push(bay);\n    _mapOfBays[address(bay)] = bay;\n\n    emit NewBayCreated(name_, _msgSender(), address(bay));\n    return true;\n  }\n\n  function deleteBay(address bayAddress) external {\n    for (uint256 index = 0; index < _listOfBays.length; index++) {\n      if (address(_listOfBays[index]) == bayAddress) {\n        _listOfBays[index] = _listOfBays[index + 1];\n        _listOfBays.pop();\n      }\n    }\n    delete _mapOfBays[bayAddress];\n  }\n\n  function getAllBays() external view override returns (ITreasureBay[] memory) {\n    return _listOfBays;\n  }\n\n  function getBay(address bayAddress)\n    external\n    view\n    override\n    returns (ITreasureBay)\n  {\n    return _mapOfBays[address(bayAddress)];\n  }\n}\n",
  "sourcePath": "/Users/chungquantin/Desktop/Projects/DecentralizedOpenSource/smart-bay/contracts/features/dao/TreasureBayFactory.sol",
  "compiler": {
    "name": "solc",
    "version": "0.8.9+commit.e5eed63a.Emscripten.clang"
  },
  "schemaVersion": "3.4.3",
  "updatedAt": "2021-11-27T09:45:48.758Z",
  "devdoc": {
    "kind": "dev",
    "methods": {
      "owner()": {
        "details": "Returns the address of the current owner."
      },
      "renounceOwnership()": {
        "details": "Leaves the contract without owner. It will not be possible to call `onlyOwner` functions anymore. Can only be called by the current owner. NOTE: Renouncing ownership will leave the contract without an owner, thereby removing any functionality that is only available to the owner."
      },
      "transferOwnership(address)": {
        "details": "Transfers ownership of the contract to a new account (`newOwner`). Can only be called by the current owner."
      }
    },
    "version": 1
  },
  "userdoc": {
    "kind": "user",
    "methods": {},
    "version": 1
  }
}