{
  "contractName": "TreasureBay",
  "abi": [
    {
      "inputs": [
        {
          "internalType": "string",
          "name": "name_",
          "type": "string"
        },
        {
          "internalType": "uint64",
          "name": "limitNumberOfStakeholders_",
          "type": "uint64"
        },
        {
          "internalType": "uint64",
          "name": "limitNumberOfTreasureHunters_",
          "type": "uint64"
        }
      ],
      "stateMutability": "payable",
      "type": "constructor"
    },
    {
      "anonymous": false,
      "inputs": [
        {
          "indexed": false,
          "internalType": "address",
          "name": "owner",
          "type": "address"
        },
        {
          "indexed": false,
          "internalType": "uint256",
          "name": "lockedAmount",
          "type": "uint256"
        }
      ],
      "name": "NewPoolCreated",
      "type": "event"
    },
    {
      "anonymous": false,
      "inputs": [
        {
          "indexed": false,
          "internalType": "address",
          "name": "stakeholder",
          "type": "address"
        }
      ],
      "name": "NewStakeholder",
      "type": "event"
    },
    {
      "anonymous": false,
      "inputs": [
        {
          "indexed": false,
          "internalType": "string",
          "name": "_title",
          "type": "string"
        },
        {
          "indexed": false,
          "internalType": "address",
          "name": "_sourceAddress",
          "type": "address"
        },
        {
          "indexed": false,
          "internalType": "address",
          "name": "_destinationAddress",
          "type": "address"
        },
        {
          "indexed": false,
          "internalType": "uint256",
          "name": "_amount",
          "type": "uint256"
        }
      ],
      "name": "NewTransferProposalAdded",
      "type": "event"
    },
    {
      "anonymous": false,
      "inputs": [
        {
          "indexed": false,
          "internalType": "address",
          "name": "treasureHunter",
          "type": "address"
        },
        {
          "indexed": false,
          "internalType": "uint256",
          "name": "timestamp",
          "type": "uint256"
        }
      ],
      "name": "NewTreasureHunter",
      "type": "event"
    },
    {
      "anonymous": false,
      "inputs": [
        {
          "indexed": true,
          "internalType": "address",
          "name": "previousOwner",
          "type": "address"
        },
        {
          "indexed": true,
          "internalType": "address",
          "name": "newOwner",
          "type": "address"
        }
      ],
      "name": "OwnershipTransferred",
      "type": "event"
    },
    {
      "anonymous": false,
      "inputs": [
        {
          "indexed": true,
          "internalType": "uint256",
          "name": "proposalID",
          "type": "uint256"
        },
        {
          "indexed": false,
          "internalType": "address",
          "name": "recipient",
          "type": "address"
        },
        {
          "indexed": false,
          "internalType": "uint256",
          "name": "amount",
          "type": "uint256"
        },
        {
          "indexed": false,
          "internalType": "string",
          "name": "description",
          "type": "string"
        }
      ],
      "name": "ProposalAdded",
      "type": "event"
    },
    {
      "anonymous": false,
      "inputs": [
        {
          "indexed": false,
          "internalType": "address",
          "name": "stakeholder",
          "type": "address"
        }
      ],
      "name": "RemoveStakeholder",
      "type": "event"
    },
    {
      "anonymous": false,
      "inputs": [
        {
          "indexed": false,
          "internalType": "address",
          "name": "stakeholder",
          "type": "address"
        },
        {
          "indexed": false,
          "internalType": "uint256",
          "name": "amount",
          "type": "uint256"
        }
      ],
      "name": "Stake",
      "type": "event"
    },
    {
      "anonymous": false,
      "inputs": [
        {
          "indexed": false,
          "internalType": "address",
          "name": "stakeholder",
          "type": "address"
        },
        {
          "indexed": false,
          "internalType": "uint256",
          "name": "amount",
          "type": "uint256"
        }
      ],
      "name": "Unstake",
      "type": "event"
    },
    {
      "anonymous": false,
      "inputs": [
        {
          "indexed": true,
          "internalType": "uint256",
          "name": "proposalID",
          "type": "uint256"
        },
        {
          "indexed": false,
          "internalType": "bool",
          "name": "position",
          "type": "bool"
        },
        {
          "indexed": true,
          "internalType": "address",
          "name": "voter",
          "type": "address"
        }
      ],
      "name": "Voted",
      "type": "event"
    },
    {
      "inputs": [],
      "name": "admin",
      "outputs": [
        {
          "internalType": "address",
          "name": "",
          "type": "address"
        }
      ],
      "stateMutability": "view",
      "type": "function"
    },
    {
      "inputs": [
        {
          "internalType": "address",
          "name": "",
          "type": "address"
        }
      ],
      "name": "allowedRecipients",
      "outputs": [
        {
          "internalType": "bool",
          "name": "",
          "type": "bool"
        }
      ],
      "stateMutability": "view",
      "type": "function"
    },
    {
      "inputs": [],
      "name": "claim",
      "outputs": [],
      "stateMutability": "payable",
      "type": "function"
    },
    {
      "inputs": [],
      "name": "createStakeholder",
      "outputs": [
        {
          "components": [
            {
              "internalType": "uint256",
              "name": "balance",
              "type": "uint256"
            },
            {
              "internalType": "address",
              "name": "contractAddress",
              "type": "address"
            },
            {
              "internalType": "uint256",
              "name": "claimedInterval",
              "type": "uint256"
            },
            {
              "internalType": "uint256",
              "name": "joinedAt",
              "type": "uint256"
            }
          ],
          "internalType": "struct TreasurePool.Stakeholder",
          "name": "",
          "type": "tuple"
        }
      ],
      "stateMutability": "nonpayable",
      "type": "function"
    },
    {
      "inputs": [],
      "name": "daoAddress",
      "outputs": [
        {
          "internalType": "address",
          "name": "",
          "type": "address"
        }
      ],
      "stateMutability": "view",
      "type": "function"
    },
    {
      "inputs": [
        {
          "internalType": "uint256",
          "name": "",
          "type": "uint256"
        }
      ],
      "name": "exchangeProposals",
      "outputs": [
        {
          "internalType": "contract ExchangeProposal",
          "name": "",
          "type": "address"
        }
      ],
      "stateMutability": "view",
      "type": "function"
    },
    {
      "inputs": [],
      "name": "getAllTransferProposals",
      "outputs": [
        {
          "internalType": "contract TransferProposal[]",
          "name": "",
          "type": "address[]"
        }
      ],
      "stateMutability": "view",
      "type": "function"
    },
    {
      "inputs": [
        {
          "internalType": "address",
          "name": "_proposalAddress",
          "type": "address"
        }
      ],
      "name": "getTransferProposal",
      "outputs": [
        {
          "internalType": "contract TransferProposal",
          "name": "",
          "type": "address"
        }
      ],
      "stateMutability": "view",
      "type": "function"
    },
    {
      "inputs": [],
      "name": "limitNumberOfStakeholders",
      "outputs": [
        {
          "internalType": "uint64",
          "name": "",
          "type": "uint64"
        }
      ],
      "stateMutability": "view",
      "type": "function"
    },
    {
      "inputs": [
        {
          "internalType": "uint256",
          "name": "",
          "type": "uint256"
        }
      ],
      "name": "listOfStakeholders",
      "outputs": [
        {
          "internalType": "uint256",
          "name": "balance",
          "type": "uint256"
        },
        {
          "internalType": "address",
          "name": "contractAddress",
          "type": "address"
        },
        {
          "internalType": "uint256",
          "name": "claimedInterval",
          "type": "uint256"
        },
        {
          "internalType": "uint256",
          "name": "joinedAt",
          "type": "uint256"
        }
      ],
      "stateMutability": "view",
      "type": "function"
    },
    {
      "inputs": [],
      "name": "minimumStakedAmount",
      "outputs": [
        {
          "internalType": "uint64",
          "name": "",
          "type": "uint64"
        }
      ],
      "stateMutability": "view",
      "type": "function"
    },
    {
      "inputs": [],
      "name": "numberOfStakeholders",
      "outputs": [
        {
          "internalType": "uint64",
          "name": "",
          "type": "uint64"
        }
      ],
      "stateMutability": "view",
      "type": "function"
    },
    {
      "inputs": [],
      "name": "owner",
      "outputs": [
        {
          "internalType": "address",
          "name": "",
          "type": "address"
        }
      ],
      "stateMutability": "view",
      "type": "function"
    },
    {
      "inputs": [],
      "name": "renounceOwnership",
      "outputs": [],
      "stateMutability": "nonpayable",
      "type": "function"
    },
    {
      "inputs": [],
      "name": "stake",
      "outputs": [],
      "stateMutability": "payable",
      "type": "function"
    },
    {
      "inputs": [
        {
          "internalType": "address",
          "name": "",
          "type": "address"
        }
      ],
      "name": "stakeholders",
      "outputs": [
        {
          "internalType": "uint256",
          "name": "balance",
          "type": "uint256"
        },
        {
          "internalType": "address",
          "name": "contractAddress",
          "type": "address"
        },
        {
          "internalType": "uint256",
          "name": "claimedInterval",
          "type": "uint256"
        },
        {
          "internalType": "uint256",
          "name": "joinedAt",
          "type": "uint256"
        }
      ],
      "stateMutability": "view",
      "type": "function"
    },
    {
      "inputs": [],
      "name": "totalNumberOfStakeholders",
      "outputs": [
        {
          "internalType": "uint64",
          "name": "",
          "type": "uint64"
        }
      ],
      "stateMutability": "view",
      "type": "function"
    },
    {
      "inputs": [],
      "name": "totalStakedAmount",
      "outputs": [
        {
          "internalType": "uint256",
          "name": "",
          "type": "uint256"
        }
      ],
      "stateMutability": "view",
      "type": "function"
    },
    {
      "inputs": [
        {
          "internalType": "address",
          "name": "newOwner",
          "type": "address"
        }
      ],
      "name": "transferOwnership",
      "outputs": [],
      "stateMutability": "nonpayable",
      "type": "function"
    },
    {
      "inputs": [
        {
          "internalType": "address",
          "name": "",
          "type": "address"
        }
      ],
      "name": "treasureHunters",
      "outputs": [
        {
          "internalType": "address",
          "name": "contractAddress",
          "type": "address"
        },
        {
          "internalType": "uint256",
          "name": "joinedAt",
          "type": "uint256"
        }
      ],
      "stateMutability": "view",
      "type": "function"
    },
    {
      "inputs": [],
      "name": "unstake",
      "outputs": [],
      "stateMutability": "payable",
      "type": "function"
    },
    {
      "inputs": [],
      "name": "name",
      "outputs": [
        {
          "internalType": "string",
          "name": "",
          "type": "string"
        }
      ],
      "stateMutability": "view",
      "type": "function"
    },
    {
      "inputs": [],
      "name": "creator",
      "outputs": [
        {
          "internalType": "address",
          "name": "",
          "type": "address"
        }
      ],
      "stateMutability": "view",
      "type": "function"
    },
    {
      "inputs": [],
      "name": "limitNumberOfTreasureHunters",
      "outputs": [
        {
          "internalType": "uint64",
          "name": "",
          "type": "uint64"
        }
      ],
      "stateMutability": "view",
      "type": "function"
    },
    {
      "inputs": [],
      "name": "listOfTreasureHunters",
      "outputs": [
        {
          "components": [
            {
              "internalType": "address",
              "name": "contractAddress",
              "type": "address"
            },
            {
              "internalType": "uint256",
              "name": "joinedAt",
              "type": "uint256"
            }
          ],
          "internalType": "struct TreasureBay.TreasureHunter[]",
          "name": "",
          "type": "tuple[]"
        }
      ],
      "stateMutability": "view",
      "type": "function"
    },
    {
      "inputs": [],
      "name": "createTreasureHunter",
      "outputs": [
        {
          "components": [
            {
              "internalType": "address",
              "name": "contractAddress",
              "type": "address"
            },
            {
              "internalType": "uint256",
              "name": "joinedAt",
              "type": "uint256"
            }
          ],
          "internalType": "struct TreasureBay.TreasureHunter",
          "name": "",
          "type": "tuple"
        }
      ],
      "stateMutability": "nonpayable",
      "type": "function"
    },
    {
      "inputs": [
        {
          "internalType": "bool",
          "name": "isActivated_",
          "type": "bool"
        }
      ],
      "name": "toggleIsActivated",
      "outputs": [
        {
          "internalType": "bool",
          "name": "_success",
          "type": "bool"
        }
      ],
      "stateMutability": "nonpayable",
      "type": "function"
    },
    {
      "inputs": [
        {
          "internalType": "string",
          "name": "_title",
          "type": "string"
        },
        {
          "internalType": "string",
          "name": "_description",
          "type": "string"
        },
        {
          "internalType": "uint64",
          "name": "_debatingPeriod",
          "type": "uint64"
        },
        {
          "internalType": "address",
          "name": "_recipient",
          "type": "address"
        },
        {
          "internalType": "uint256",
          "name": "_amount",
          "type": "uint256"
        }
      ],
      "name": "createNewTransferProposal",
      "outputs": [
        {
          "internalType": "uint256",
          "name": "",
          "type": "uint256"
        }
      ],
      "stateMutability": "nonpayable",
      "type": "function"
    }
  ],
  "bytecode": "0x608060405262093a80600560106101000a81548167ffffffffffffffff021916908367ffffffffffffffff1602179055506203f480600560186101000a81548167ffffffffffffffff021916908367ffffffffffffffff1602179055506000600e60006101000a81548160ff021916908315150217905550604051620056193803806200561983398181016040528101906200009c919062000530565b620000ac620001d060201b60201c565b600260086101000a81548173ffffffffffffffffffffffffffffffffffffffff021916908373ffffffffffffffffffffffffffffffffffffffff1602179055506200010c62000100620001d060201b60201c565b620001d860201b60201c565b81600560006101000a81548167ffffffffffffffff021916908367ffffffffffffffff16021790555080600b60146101000a81548167ffffffffffffffff021916908367ffffffffffffffff16021790555082600a9080519060200190620001769291906200029e565b5062000187620001d060201b60201c565b600b60006101000a81548173ffffffffffffffffffffffffffffffffffffffff021916908373ffffffffffffffffffffffffffffffffffffffff16021790555050505062000610565b600033905090565b6000600660089054906101000a900473ffffffffffffffffffffffffffffffffffffffff16905081600660086101000a81548173ffffffffffffffffffffffffffffffffffffffff021916908373ffffffffffffffffffffffffffffffffffffffff1602179055508173ffffffffffffffffffffffffffffffffffffffff168173ffffffffffffffffffffffffffffffffffffffff167f8be0079c531659141344cd1fd0a4f28419497f9722a3daafe3b4186f6b6457e060405160405180910390a35050565b828054620002ac90620005da565b90600052602060002090601f016020900481019282620002d057600085556200031c565b82601f10620002eb57805160ff19168380011785556200031c565b828001600101855582156200031c579182015b828111156200031b578251825591602001919060010190620002fe565b5b5090506200032b91906200032f565b5090565b5b808211156200034a57600081600090555060010162000330565b5090565b6000604051905090565b600080fd5b600080fd5b600080fd5b600080fd5b6000601f19601f8301169050919050565b7f4e487b7100000000000000000000000000000000000000000000000000000000600052604160045260246000fd5b620003b7826200036c565b810181811067ffffffffffffffff82111715620003d957620003d86200037d565b5b80604052505050565b6000620003ee6200034e565b9050620003fc8282620003ac565b919050565b600067ffffffffffffffff8211156200041f576200041e6200037d565b5b6200042a826200036c565b9050602081019050919050565b60005b83811015620004575780820151818401526020810190506200043a565b8381111562000467576000848401525b50505050565b6000620004846200047e8462000401565b620003e2565b905082815260208101848484011115620004a357620004a262000367565b5b620004b084828562000437565b509392505050565b600082601f830112620004d057620004cf62000362565b5b8151620004e28482602086016200046d565b91505092915050565b600067ffffffffffffffff82169050919050565b6200050a81620004eb565b81146200051657600080fd5b50565b6000815190506200052a81620004ff565b92915050565b6000806000606084860312156200054c576200054b62000358565b5b600084015167ffffffffffffffff8111156200056d576200056c6200035d565b5b6200057b86828701620004b8565b93505060206200058e8682870162000519565b9250506040620005a18682870162000519565b9150509250925092565b7f4e487b7100000000000000000000000000000000000000000000000000000000600052602260045260246000fd5b60006002820490506001821680620005f357607f821691505b602082108114156200060a5762000609620005ab565b5b50919050565b614ff980620006206000396000f3fe608060405260043610620001e25760003560e01c80635f9fed5511620001035780638da5cb5b1162000097578063cd555bf1116200006d578063cd555bf1146200068c578063f2fde38b14620006bc578063f851a44014620006ea578063f8d41b96146200071a57620001e2565b80638da5cb5b14620005e5578063b898e6011462000615578063c07cfca9146200064557620001e2565b8063715018a611620000d9578063715018a6146200053b5780637ddf5c0414620005555780637f6f4e9c146200058557806384780fd214620005b557620001e2565b80635f9fed55146200048357806362c48ae714620004c7578063665e3d8314620004f757620001e2565b80633a4b66f1116200017b5780634e71d92d11620001515780634e71d92d14620003bc5780634f9ca70914620003c857806352d4aedc146200040f578063567e98f9146200045357620001e2565b80633a4b66f114620003285780633b5b4f2c14620003345780634df6d6cc146200037857620001e2565b80632131c68c11620001bd5780632131c68c1462000277578063246d59af14620002a757806328cd149414620002ec5780632def6620146200031c57620001e2565b806302d05d3f14620001e757806306fdde0314620002175780631e3ab9831462000247575b600080fd5b348015620001f457600080fd5b50620001ff6200074a565b6040516200020e919062002140565b60405180910390f35b3480156200022457600080fd5b506200022f62000774565b6040516200023e919062002201565b60405180910390f35b3480156200025457600080fd5b506200025f6200080e565b6040516200026e91906200224a565b60405180910390f35b3480156200028457600080fd5b506200028f62000828565b6040516200029e919062002140565b60405180910390f35b348015620002b457600080fd5b50620002d36004803603810190620002cd9190620022ac565b6200084e565b604051620002e3929190620022f9565b60405180910390f35b348015620002f957600080fd5b506200030462000892565b6040516200031391906200224a565b60405180910390f35b62000326620008ac565b005b6200033262000d0b565b005b3480156200034157600080fd5b506200036060048036038101906200035a919062002357565b62000eda565b6040516200036f9190620023f4565b60405180910390f35b3480156200038557600080fd5b50620003a460048036038101906200039e9190620022ac565b62000f1a565b604051620003b391906200242e565b60405180910390f35b620003c662000f3a565b005b348015620003d557600080fd5b50620003f46004803603810190620003ee919062002357565b620010ad565b6040516200040694939291906200244b565b60405180910390f35b3480156200041c57600080fd5b506200043b60048036038101906200043591906200261a565b6200110e565b6040516200044a9190620026e0565b60405180910390f35b3480156200046057600080fd5b506200046b620011ba565b6040516200047a9190620026e0565b60405180910390f35b3480156200049057600080fd5b50620004af6004803603810190620004a99190620022ac565b620011c0565b604051620004be919062002722565b60405180910390f35b348015620004d457600080fd5b50620004df62001229565b604051620004ee919062002794565b60405180910390f35b3480156200050457600080fd5b506200052360048036038101906200051d9190620027e2565b620015cf565b6040516200053291906200242e565b60405180910390f35b3480156200054857600080fd5b5062000553620015f4565b005b3480156200056257600080fd5b506200056d62001685565b6040516200057c9190620028e2565b60405180910390f35b3480156200059257600080fd5b506200059d62001715565b604051620005ac9190620029f6565b60405180910390f35b348015620005c257600080fd5b50620005cd620017d6565b604051620005dc91906200224a565b60405180910390f35b348015620005f257600080fd5b50620005fd620017f0565b6040516200060c919062002140565b60405180910390f35b3480156200062257600080fd5b506200062d6200181a565b6040516200063c91906200224a565b60405180910390f35b3480156200065257600080fd5b506200067160048036038101906200066b9190620022ac565b62001834565b6040516200068394939291906200244b565b60405180910390f35b3480156200069957600080fd5b50620006a462001884565b604051620006b391906200224a565b60405180910390f35b348015620006c957600080fd5b50620006e86004803603810190620006e29190620022ac565b620018a2565b005b348015620006f757600080fd5b5062000702620019a6565b60405162000711919062002140565b60405180910390f35b3480156200072757600080fd5b5062000732620019cc565b60405162000741919062002a77565b60405180910390f35b6000600b60009054906101000a900473ffffffffffffffffffffffffffffffffffffffff16905090565b6060600a8054620007859062002ac3565b80601f0160208091040260200160405190810160405280929190818152602001828054620007b39062002ac3565b8015620008045780601f10620007d85761010080835404028352916020019162000804565b820191906000526020600020905b815481529060010190602001808311620007e657829003601f168201915b5050505050905090565b600260009054906101000a900467ffffffffffffffff1681565b600360009054906101000a900473ffffffffffffffffffffffffffffffffffffffff1681565b600d6020528060005260406000206000915090508060000160009054906101000a900473ffffffffffffffffffffffffffffffffffffffff16908060010154905082565b600560009054906101000a900467ffffffffffffffff1681565b6000806000620008bb62001e2e565b73ffffffffffffffffffffffffffffffffffffffff1673ffffffffffffffffffffffffffffffffffffffff16815260200190815260200160002060000154116200093c576040517f08c379a0000000000000000000000000000000000000000000000000000000008152600401620009339062002b49565b60405180910390fd5b600560109054906101000a900467ffffffffffffffff1667ffffffffffffffff166000806200096a62001e2e565b73ffffffffffffffffffffffffffffffffffffffff1673ffffffffffffffffffffffffffffffffffffffff16815260200190815260200160002060030154620009b4919062002b9a565b4211620009f8576040517f08c379a0000000000000000000000000000000000000000000000000000000008152600401620009ef9062002c6d565b60405180910390fd5b60008062000a0562001e2e565b73ffffffffffffffffffffffffffffffffffffffff1673ffffffffffffffffffffffffffffffffffffffff1681526020019081526020016000206000015434111562000a88576040517f08c379a000000000000000000000000000000000000000000000000000000000815260040162000a7f9062002cdf565b60405180910390fd5b62000a9262001e2e565b73ffffffffffffffffffffffffffffffffffffffff166108fc349081150290604051600060405180830381858888f1935050505015801562000ad8573d6000803e3d6000fd5b503460008062000ae762001e2e565b73ffffffffffffffffffffffffffffffffffffffff1673ffffffffffffffffffffffffffffffffffffffff168152602001908152602001600020600001600082825462000b35919062002b9a565b92505081905550600080600062000b4b62001e2e565b73ffffffffffffffffffffffffffffffffffffffff1673ffffffffffffffffffffffffffffffffffffffff16815260200190815260200160002060000154141562000caa5760008062000b9d62001e2e565b73ffffffffffffffffffffffffffffffffffffffff1673ffffffffffffffffffffffffffffffffffffffff1681526020019081526020016000206000808201600090556001820160006101000a81549073ffffffffffffffffffffffffffffffffffffffff02191690556002820160009055600382016000905550506001600260008282829054906101000a900467ffffffffffffffff1662000c41919062002d01565b92506101000a81548167ffffffffffffffff021916908367ffffffffffffffff1602179055507f6f1eb9379ef97a9fc8efe5b92a387d1291f5c65d0929df551aea69371e05403c62000c9262001e2e565b60405162000ca1919062002140565b60405180910390a15b346004600082825462000cbe919062002d3c565b925050819055507f85082129d87b2fe11527cb1b3b7a520aeb5aa6913f88a3d8757fe40d1db02fdd62000cf062001e2e565b3460405162000d01929190620022f9565b60405180910390a1565b6000341162000d51576040517f08c379a000000000000000000000000000000000000000000000000000000000815260040162000d489062002dc7565b60405180910390fd5b600660009054906101000a900467ffffffffffffffff1667ffffffffffffffff16341162000db6576040517f08c379a000000000000000000000000000000000000000000000000000000000815260040162000dad9062002dc7565b60405180910390fd5b600080600062000dc562001e2e565b73ffffffffffffffffffffffffffffffffffffffff1673ffffffffffffffffffffffffffffffffffffffff16815260200190815260200160002060000154141562000e165762000e14620019cc565b505b3460008062000e2462001e2e565b73ffffffffffffffffffffffffffffffffffffffff1673ffffffffffffffffffffffffffffffffffffffff168152602001908152602001600020600001600082825462000e72919062002b9a565b92505081905550346004600082825462000e8d919062002b9a565b925050819055507febedb8b3c678666e7f36970bc8f57abf6d8fa2e828c0da91ea5b75bf68ed101a62000ebf62001e2e565b3460405162000ed0929190620022f9565b60405180910390a1565b6009818154811062000eeb57600080fd5b906000526020600020016000915054906101000a900473ffffffffffffffffffffffffffffffffffffffff1681565b600f6020528060005260406000206000915054906101000a900460ff1681565b600080600062000f4962001e2e565b73ffffffffffffffffffffffffffffffffffffffff1673ffffffffffffffffffffffffffffffffffffffff168152602001908152602001600020600001541162000fca576040517f08c379a000000000000000000000000000000000000000000000000000000000815260040162000fc19062002b49565b60405180910390fd5b60008062000fd762001e2e565b73ffffffffffffffffffffffffffffffffffffffff1673ffffffffffffffffffffffffffffffffffffffff16815260200190815260200160002060020154421162001059576040517f08c379a0000000000000000000000000000000000000000000000000000000008152600401620010509062002e39565b60405180910390fd5b6203f4806000806200106a62001e2e565b73ffffffffffffffffffffffffffffffffffffffff1673ffffffffffffffffffffffffffffffffffffffff16815260200190815260200160002060020181905550565b60018181548110620010be57600080fd5b90600052602060002090600402016000915090508060000154908060010160009054906101000a900473ffffffffffffffffffffffffffffffffffffffff16908060020154908060030154905084565b6000806000803373ffffffffffffffffffffffffffffffffffffffff1673ffffffffffffffffffffffffffffffffffffffff168152602001908152602001600020600001541162001196576040517f08c379a00000000000000000000000000000000000000000000000000000000081526004016200118d9062002eab565b60405180910390fd5b620011af86868667ffffffffffffffff16868662001e36565b905095945050505050565b60045481565b6000600860008373ffffffffffffffffffffffffffffffffffffffff1673ffffffffffffffffffffffffffffffffffffffff16815260200190815260200160002060009054906101000a900473ffffffffffffffffffffffffffffffffffffffff169050919050565b620012336200207f565b600b60149054906101000a900467ffffffffffffffff1667ffffffffffffffff16600c8054905011156200129e576040517f08c379a0000000000000000000000000000000000000000000000000000000008152600401620012959062002f43565b60405180910390fd5b6040518060400160405280620012b362001e2e565b73ffffffffffffffffffffffffffffffffffffffff16815260200142815250600d6000620012e062001e2e565b73ffffffffffffffffffffffffffffffffffffffff1673ffffffffffffffffffffffffffffffffffffffff16815260200190815260200160002060008201518160000160006101000a81548173ffffffffffffffffffffffffffffffffffffffff021916908373ffffffffffffffffffffffffffffffffffffffff16021790555060208201518160010155905050600c600d60006200137e62001e2e565b73ffffffffffffffffffffffffffffffffffffffff1673ffffffffffffffffffffffffffffffffffffffff16815260200190815260200160002090806001815401808255809150506001900390600052602060002090600202016000909190919091506000820160009054906101000a900473ffffffffffffffffffffffffffffffffffffffff168160000160006101000a81548173ffffffffffffffffffffffffffffffffffffffff021916908373ffffffffffffffffffffffffffffffffffffffff1602179055506001820154816001015550506005600c80549050111562001471576200146f6001620015cf565b505b7fef7dd88fd6e07a1960a539671612f14f6e19471ee795cade675fb83c94267415600d6000620014a062001e2e565b73ffffffffffffffffffffffffffffffffffffffff1673ffffffffffffffffffffffffffffffffffffffff16815260200190815260200160002060000160009054906101000a900473ffffffffffffffffffffffffffffffffffffffff16426040516200150f929190620022f9565b60405180910390a1600d60006200152562001e2e565b73ffffffffffffffffffffffffffffffffffffffff1673ffffffffffffffffffffffffffffffffffffffff1681526020019081526020016000206040518060400160405290816000820160009054906101000a900473ffffffffffffffffffffffffffffffffffffffff1673ffffffffffffffffffffffffffffffffffffffff1673ffffffffffffffffffffffffffffffffffffffff168152602001600182015481525050905090565b600081600e60006101000a81548160ff02191690831515021790555060019050919050565b620015fe62001e2e565b73ffffffffffffffffffffffffffffffffffffffff166200161e620017f0565b73ffffffffffffffffffffffffffffffffffffffff161462001677576040517f08c379a00000000000000000000000000000000000000000000000000000000081526004016200166e9062002fb5565b60405180910390fd5b62001683600062001fb9565b565b606060078054806020026020016040519081016040528092919081815260200182805480156200170b57602002820191906000526020600020905b8160009054906101000a900473ffffffffffffffffffffffffffffffffffffffff1673ffffffffffffffffffffffffffffffffffffffff1681526020019060010190808311620016c0575b5050505050905090565b6060600c805480602002602001604051908101604052809291908181526020016000905b82821015620017cd57838290600052602060002090600202016040518060400160405290816000820160009054906101000a900473ffffffffffffffffffffffffffffffffffffffff1673ffffffffffffffffffffffffffffffffffffffff1673ffffffffffffffffffffffffffffffffffffffff1681526020016001820154815250508152602001906001019062001739565b50505050905090565b600560089054906101000a900467ffffffffffffffff1681565b6000600660089054906101000a900473ffffffffffffffffffffffffffffffffffffffff16905090565b600660009054906101000a900467ffffffffffffffff1681565b60006020528060005260406000206000915090508060000154908060010160009054906101000a900473ffffffffffffffffffffffffffffffffffffffff16908060020154908060030154905084565b6000600b60149054906101000a900467ffffffffffffffff16905090565b620018ac62001e2e565b73ffffffffffffffffffffffffffffffffffffffff16620018cc620017f0565b73ffffffffffffffffffffffffffffffffffffffff161462001925576040517f08c379a00000000000000000000000000000000000000000000000000000000081526004016200191c9062002fb5565b60405180910390fd5b600073ffffffffffffffffffffffffffffffffffffffff168173ffffffffffffffffffffffffffffffffffffffff16141562001998576040517f08c379a00000000000000000000000000000000000000000000000000000000081526004016200198f906200304d565b60405180910390fd5b620019a38162001fb9565b50565b600260089054906101000a900473ffffffffffffffffffffffffffffffffffffffff1681565b620019d6620020af565b600560009054906101000a900467ffffffffffffffff1667ffffffffffffffff16600260009054906101000a900467ffffffffffffffff1667ffffffffffffffff16111562001a5c576040517f08c379a000000000000000000000000000000000000000000000000000000000815260040162001a5390620030e5565b60405180910390fd5b60405180608001604052806000815260200162001a7862001e2e565b73ffffffffffffffffffffffffffffffffffffffff168152602001600560189054906101000a900467ffffffffffffffff1667ffffffffffffffff164262001ac1919062002b9a565b81526020014281525060008062001ad762001e2e565b73ffffffffffffffffffffffffffffffffffffffff1673ffffffffffffffffffffffffffffffffffffffff1681526020019081526020016000206000820151816000015560208201518160010160006101000a81548173ffffffffffffffffffffffffffffffffffffffff021916908373ffffffffffffffffffffffffffffffffffffffff1602179055506040820151816002015560608201518160030155905050600160008062001b8862001e2e565b73ffffffffffffffffffffffffffffffffffffffff1673ffffffffffffffffffffffffffffffffffffffff1681526020019081526020016000209080600181540180825580915050600190039060005260206000209060040201600090919091909150600082015481600001556001820160009054906101000a900473ffffffffffffffffffffffffffffffffffffffff168160010160006101000a81548173ffffffffffffffffffffffffffffffffffffffff021916908373ffffffffffffffffffffffffffffffffffffffff160217905550600282015481600201556003820154816003015550506001600260008282829054906101000a900467ffffffffffffffff1662001c9a919062003107565b92506101000a81548167ffffffffffffffff021916908367ffffffffffffffff1602179055507f45353ebbf1c4a0468ba13a94bc212a3b8fc4b624385aa0e9c3fa07045d7d827d60008062001cee62001e2e565b73ffffffffffffffffffffffffffffffffffffffff1673ffffffffffffffffffffffffffffffffffffffff16815260200190815260200160002060010160009054906101000a900473ffffffffffffffffffffffffffffffffffffffff1660405162001d5b919062002140565b60405180910390a160008062001d7062001e2e565b73ffffffffffffffffffffffffffffffffffffffff1673ffffffffffffffffffffffffffffffffffffffff168152602001908152602001600020604051806080016040529081600082015481526020016001820160009054906101000a900473ffffffffffffffffffffffffffffffffffffffff1673ffffffffffffffffffffffffffffffffffffffff1673ffffffffffffffffffffffffffffffffffffffff16815260200160028201548152602001600382015481525050905090565b600033905090565b60008062001e4362001e2e565b868887878760405162001e5690620020ed565b62001e67969594939291906200314c565b604051809103906000f08015801562001e84573d6000803e3d6000fd5b5090506007819080600181540180825580915050600190039060005260206000200160009091909190916101000a81548173ffffffffffffffffffffffffffffffffffffffff021916908373ffffffffffffffffffffffffffffffffffffffff16021790555080600860008373ffffffffffffffffffffffffffffffffffffffff1673ffffffffffffffffffffffffffffffffffffffff16815260200190815260200160002060006101000a81548173ffffffffffffffffffffffffffffffffffffffff021916908373ffffffffffffffffffffffffffffffffffffffff1602179055507fa9a62b7c28d7da43010d6fdf373b4026f4156bc0402ee1b0bdf2acf13a7414218733868660405162001f9f9493929190620031c7565b60405180910390a160078054905091505095945050505050565b6000600660089054906101000a900473ffffffffffffffffffffffffffffffffffffffff16905081600660086101000a81548173ffffffffffffffffffffffffffffffffffffffff021916908373ffffffffffffffffffffffffffffffffffffffff1602179055508173ffffffffffffffffffffffffffffffffffffffff168173ffffffffffffffffffffffffffffffffffffffff167f8be0079c531659141344cd1fd0a4f28419497f9722a3daafe3b4186f6b6457e060405160405180910390a35050565b6040518060400160405280600073ffffffffffffffffffffffffffffffffffffffff168152602001600081525090565b604051806080016040528060008152602001600073ffffffffffffffffffffffffffffffffffffffff16815260200160008152602001600081525090565b611da8806200321c83390190565b600073ffffffffffffffffffffffffffffffffffffffff82169050919050565b60006200212882620020fb565b9050919050565b6200213a816200211b565b82525050565b60006020820190506200215760008301846200212f565b92915050565b600081519050919050565b600082825260208201905092915050565b60005b83811015620021995780820151818401526020810190506200217c565b83811115620021a9576000848401525b50505050565b6000601f19601f8301169050919050565b6000620021cd826200215d565b620021d9818562002168565b9350620021eb81856020860162002179565b620021f681620021af565b840191505092915050565b600060208201905081810360008301526200221d8184620021c0565b905092915050565b600067ffffffffffffffff82169050919050565b620022448162002225565b82525050565b600060208201905062002261600083018462002239565b92915050565b6000604051905090565b600080fd5b600080fd5b62002286816200211b565b81146200229257600080fd5b50565b600081359050620022a6816200227b565b92915050565b600060208284031215620022c557620022c462002271565b5b6000620022d58482850162002295565b91505092915050565b6000819050919050565b620022f381620022de565b82525050565b60006040820190506200231060008301856200212f565b6200231f6020830184620022e8565b9392505050565b6200233181620022de565b81146200233d57600080fd5b50565b600081359050620023518162002326565b92915050565b60006020828403121562002370576200236f62002271565b5b6000620023808482850162002340565b91505092915050565b6000819050919050565b6000620023b4620023ae620023a884620020fb565b62002389565b620020fb565b9050919050565b6000620023c88262002393565b9050919050565b6000620023dc82620023bb565b9050919050565b620023ee81620023cf565b82525050565b60006020820190506200240b6000830184620023e3565b92915050565b60008115159050919050565b620024288162002411565b82525050565b60006020820190506200244560008301846200241d565b92915050565b6000608082019050620024626000830187620022e8565b6200247160208301866200212f565b620024806040830185620022e8565b6200248f6060830184620022e8565b95945050505050565b600080fd5b600080fd5b7f4e487b7100000000000000000000000000000000000000000000000000000000600052604160045260246000fd5b620024dc82620021af565b810181811067ffffffffffffffff82111715620024fe57620024fd620024a2565b5b80604052505050565b60006200251362002267565b9050620025218282620024d1565b919050565b600067ffffffffffffffff821115620025445762002543620024a2565b5b6200254f82620021af565b9050602081019050919050565b82818337600083830152505050565b6000620025826200257c8462002526565b62002507565b905082815260208101848484011115620025a157620025a06200249d565b5b620025ae8482856200255c565b509392505050565b600082601f830112620025ce57620025cd62002498565b5b8135620025e08482602086016200256b565b91505092915050565b620025f48162002225565b81146200260057600080fd5b50565b6000813590506200261481620025e9565b92915050565b600080600080600060a0868803121562002639576200263862002271565b5b600086013567ffffffffffffffff8111156200265a576200265962002276565b5b6200266888828901620025b6565b955050602086013567ffffffffffffffff8111156200268c576200268b62002276565b5b6200269a88828901620025b6565b9450506040620026ad8882890162002603565b9350506060620026c08882890162002295565b9250506080620026d38882890162002340565b9150509295509295909350565b6000602082019050620026f76000830184620022e8565b92915050565b60006200270a82620023bb565b9050919050565b6200271c81620026fd565b82525050565b600060208201905062002739600083018462002711565b92915050565b6200274a816200211b565b82525050565b6200275b81620022de565b82525050565b6040820160008201516200277960008501826200273f565b5060208201516200278e602085018262002750565b50505050565b6000604082019050620027ab600083018462002761565b92915050565b620027bc8162002411565b8114620027c857600080fd5b50565b600081359050620027dc81620027b1565b92915050565b600060208284031215620027fb57620027fa62002271565b5b60006200280b84828501620027cb565b91505092915050565b600081519050919050565b600082825260208201905092915050565b6000819050602082019050919050565b6200284b81620026fd565b82525050565b60006200285f838362002840565b60208301905092915050565b6000602082019050919050565b6000620028858262002814565b6200289181856200281f565b93506200289e8362002830565b8060005b83811015620028d5578151620028b9888262002851565b9750620028c6836200286b565b925050600181019050620028a2565b5085935050505092915050565b60006020820190508181036000830152620028fe818462002878565b905092915050565b600081519050919050565b600082825260208201905092915050565b6000819050602082019050919050565b6040820160008201516200294a60008501826200273f565b5060208201516200295f602085018262002750565b50505050565b600062002973838362002932565b60408301905092915050565b6000602082019050919050565b6000620029998262002906565b620029a5818562002911565b9350620029b28362002922565b8060005b83811015620029e9578151620029cd888262002965565b9750620029da836200297f565b925050600181019050620029b6565b5085935050505092915050565b6000602082019050818103600083015262002a1281846200298c565b905092915050565b60808201600082015162002a32600085018262002750565b50602082015162002a4760208501826200273f565b50604082015162002a5c604085018262002750565b50606082015162002a71606085018262002750565b50505050565b600060808201905062002a8e600083018462002a1a565b92915050565b7f4e487b7100000000000000000000000000000000000000000000000000000000600052602260045260246000fd5b6000600282049050600182168062002adc57607f821691505b6020821081141562002af35762002af262002a94565b5b50919050565b7f4e6f742061207374616b65686f6c646572000000000000000000000000000000600082015250565b600062002b3160118362002168565b915062002b3e8262002af9565b602082019050919050565b6000602082019050818103600083015262002b648162002b22565b9050919050565b7f4e487b7100000000000000000000000000000000000000000000000000000000600052601160045260246000fd5b600062002ba782620022de565b915062002bb483620022de565b9250827fffffffffffffffffffffffffffffffffffffffffffffffffffffffffffffffff0382111562002bec5762002beb62002b6b565b5b828201905092915050565b7f4d757374207374616b656420666f7220372064617973206265666f726520756e60008201527f7374616b696e6700000000000000000000000000000000000000000000000000602082015250565b600062002c5560278362002168565b915062002c628262002bf7565b604082019050919050565b6000602082019050818103600083015262002c888162002c46565b9050919050565b7f496e73756666696369656e74207374616b656420616d6f756e74000000000000600082015250565b600062002cc7601a8362002168565b915062002cd48262002c8f565b602082019050919050565b6000602082019050818103600083015262002cfa8162002cb8565b9050919050565b600062002d0e8262002225565b915062002d1b8362002225565b92508282101562002d315762002d3062002b6b565b5b828203905092915050565b600062002d4982620022de565b915062002d5683620022de565b92508282101562002d6c5762002d6b62002b6b565b5b828203905092915050565b7f696e76616c6964207374616b656420616d6f756e740000000000000000000000600082015250565b600062002daf60158362002168565b915062002dbc8262002d77565b602082019050919050565b6000602082019050818103600083015262002de28162002da0565b9050919050565b7f546f6f206561726c790000000000000000000000000000000000000000000000600082015250565b600062002e2160098362002168565b915062002e2e8262002de9565b602082019050919050565b6000602082019050818103600083015262002e548162002e12565b9050919050565b7f6d7573742062652061207374616b65686f6c6465720000000000000000000000600082015250565b600062002e9360158362002168565b915062002ea08262002e5b565b602082019050919050565b6000602082019050818103600083015262002ec68162002e84565b9050919050565b7f73757270617373206c696d6974206e756d626572206f6620747265617375726560008201527f48756e7465727300000000000000000000000000000000000000000000000000602082015250565b600062002f2b60278362002168565b915062002f388262002ecd565b604082019050919050565b6000602082019050818103600083015262002f5e8162002f1c565b9050919050565b7f4f776e61626c653a2063616c6c6572206973206e6f7420746865206f776e6572600082015250565b600062002f9d60208362002168565b915062002faa8262002f65565b602082019050919050565b6000602082019050818103600083015262002fd08162002f8e565b9050919050565b7f4f776e61626c653a206e6577206f776e657220697320746865207a65726f206160008201527f6464726573730000000000000000000000000000000000000000000000000000602082015250565b60006200303560268362002168565b9150620030428262002fd7565b604082019050919050565b60006020820190508181036000830152620030688162003026565b9050919050565b7f73757270617373206c696d6974206e756d626572206f66207374616b65686f6c60008201527f6465727300000000000000000000000000000000000000000000000000000000602082015250565b6000620030cd60248362002168565b9150620030da826200306f565b604082019050919050565b600060208201905081810360008301526200310081620030be565b9050919050565b6000620031148262002225565b9150620031218362002225565b92508267ffffffffffffffff0382111562003141576200314062002b6b565b5b828201905092915050565b600060c0820190506200316360008301896200212f565b8181036020830152620031778188620021c0565b905081810360408301526200318d8187620021c0565b90506200319e6060830186620022e8565b620031ad60808301856200212f565b620031bc60a0830184620022e8565b979650505050505050565b60006080820190508181036000830152620031e38187620021c0565b9050620031f460208301866200212f565b6200320360408301856200212f565b620032126060830184620022e8565b9594505050505056fe60806040523480156200001157600080fd5b5060405162001da838038062001da883398181016040528101906200003791906200052f565b858585856200005b6200004f6200017660201b60201c565b6200017e60201b60201c565b83600160006101000a81548173ffffffffffffffffffffffffffffffffffffffff021916908373ffffffffffffffffffffffffffffffffffffffff1602179055508260029080519060200190620000b492919062000242565b508160039080519060200190620000cd92919062000242565b50806004819055506000600560006101000a81548160ff02191690836001811115620000fe57620000fd62000609565b5b02179055506000600560016101000a81548160ff0219169083151502179055505050505081600960086101000a81548173ffffffffffffffffffffffffffffffffffffffff021916908373ffffffffffffffffffffffffffffffffffffffff16021790555080600a819055505050505050506200069d565b600033905090565b60008060009054906101000a900473ffffffffffffffffffffffffffffffffffffffff169050816000806101000a81548173ffffffffffffffffffffffffffffffffffffffff021916908373ffffffffffffffffffffffffffffffffffffffff1602179055508173ffffffffffffffffffffffffffffffffffffffff168173ffffffffffffffffffffffffffffffffffffffff167f8be0079c531659141344cd1fd0a4f28419497f9722a3daafe3b4186f6b6457e060405160405180910390a35050565b828054620002509062000667565b90600052602060002090601f016020900481019282620002745760008555620002c0565b82601f106200028f57805160ff1916838001178555620002c0565b82800160010185558215620002c0579182015b82811115620002bf578251825591602001919060010190620002a2565b5b509050620002cf9190620002d3565b5090565b5b80821115620002ee576000816000905550600101620002d4565b5090565b6000604051905090565b600080fd5b600080fd5b600073ffffffffffffffffffffffffffffffffffffffff82169050919050565b6000620003338262000306565b9050919050565b620003458162000326565b81146200035157600080fd5b50565b60008151905062000365816200033a565b92915050565b600080fd5b600080fd5b6000601f19601f8301169050919050565b7f4e487b7100000000000000000000000000000000000000000000000000000000600052604160045260246000fd5b620003c08262000375565b810181811067ffffffffffffffff82111715620003e257620003e162000386565b5b80604052505050565b6000620003f7620002f2565b9050620004058282620003b5565b919050565b600067ffffffffffffffff82111562000428576200042762000386565b5b620004338262000375565b9050602081019050919050565b60005b838110156200046057808201518184015260208101905062000443565b8381111562000470576000848401525b50505050565b60006200048d62000487846200040a565b620003eb565b905082815260208101848484011115620004ac57620004ab62000370565b5b620004b984828562000440565b509392505050565b600082601f830112620004d957620004d86200036b565b5b8151620004eb84826020860162000476565b91505092915050565b6000819050919050565b6200050981620004f4565b81146200051557600080fd5b50565b6000815190506200052981620004fe565b92915050565b60008060008060008060c087890312156200054f576200054e620002fc565b5b60006200055f89828a0162000354565b965050602087015167ffffffffffffffff81111562000583576200058262000301565b5b6200059189828a01620004c1565b955050604087015167ffffffffffffffff811115620005b557620005b462000301565b5b620005c389828a01620004c1565b9450506060620005d689828a0162000518565b9350506080620005e989828a0162000354565b92505060a0620005fc89828a0162000518565b9150509295509295509295565b7f4e487b7100000000000000000000000000000000000000000000000000000000600052602160045260246000fd5b7f4e487b7100000000000000000000000000000000000000000000000000000000600052602260045260246000fd5b600060028204905060018216806200068057607f821691505b6020821081141562000697576200069662000638565b5b50919050565b6116fb80620006ad6000396000f3fe608060405234801561001057600080fd5b506004361061012c5760003560e01c8063655b737f116100ad57806390cf581c1161007157806390cf581c146102c7578063aa8c217c146102d1578063e2c3b122146102ef578063f2fde38b1461030d578063fcfff16f146103295761012c565b8063655b737f1461023357806366d003ac14610263578063715018a6146102815780637284e4161461028b5780638da5cb5b146102a95761012c565b80633174b689116100f45780633174b689146101c757806341c12a70146101d157806343d726d6146101db5780634a79d50c146101e55780635351a3c8146102035761012c565b806302d05d3f14610131578063036ee8501461014f5780631626fe641461016d578063227326b11461018b57806324033674146101a9575b600080fd5b610139610347565b6040516101469190611071565b60405180910390f35b61015761036d565b60405161016491906110a5565b60405180910390f35b610175610373565b60405161018291906110e3565b60405180910390f35b6101936103df565b6040516101a09190611119565b60405180910390f35b6101b16103f2565b6040516101be91906110e3565b60405180910390f35b6101cf61040c565b005b6101d96106b5565b005b6101e361080f565b005b6101ed610921565b6040516101fa91906111cd565b60405180910390f35b61021d60048036038101906102189190611220565b6109af565b60405161022a9190611119565b60405180910390f35b61024d60048036038101906102489190611220565b6109cf565b60405161025a9190611119565b60405180910390f35b61026b6109ef565b6040516102789190611071565b60405180910390f35b610289610a15565b005b610293610a9d565b6040516102a091906111cd565b60405180910390f35b6102b1610b2b565b6040516102be9190611071565b60405180910390f35b6102cf610b54565b005b6102d9610cae565b6040516102e691906110a5565b60405180910390f35b6102f7610cb4565b60405161030491906110e3565b60405180910390f35b61032760048036038101906103229190611220565b610cce565b005b610331610dc6565b60405161033e91906112c4565b60405180910390f35b600160009054906101000a900473ffffffffffffffffffffffffffffffffffffffff1681565b60045481565b6000600960009054906101000a900467ffffffffffffffff16600760009054906101000a900467ffffffffffffffff166103ad919061130e565b6064600760009054906101000a900467ffffffffffffffff166103d0919061134c565b6103da91906113bd565b905090565b600560019054906101000a900460ff1681565b600760009054906101000a900467ffffffffffffffff1681565b610414610dd9565b610453576040517f08c379a000000000000000000000000000000000000000000000000000000000815260040161044a9061143a565b60405180910390fd5b6001151560066000610463610e9d565b73ffffffffffffffffffffffffffffffffffffffff1673ffffffffffffffffffffffffffffffffffffffff16815260200190815260200160002060009054906101000a900460ff161515141561055657600660006104bf610e9d565b73ffffffffffffffffffffffffffffffffffffffff1673ffffffffffffffffffffffffffffffffffffffff16815260200190815260200160002060006101000a81549060ff02191690556001600760008282829054906101000a900467ffffffffffffffff1661052f919061145a565b92506101000a81548167ffffffffffffffff021916908367ffffffffffffffff1602179055505b6001151560086000610566610e9d565b73ffffffffffffffffffffffffffffffffffffffff1673ffffffffffffffffffffffffffffffffffffffff16815260200190815260200160002060009054906101000a900460ff161515141561065957600860006105c2610e9d565b73ffffffffffffffffffffffffffffffffffffffff1673ffffffffffffffffffffffffffffffffffffffff16815260200190815260200160002060006101000a81549060ff02191690556001600960008282829054906101000a900467ffffffffffffffff16610632919061145a565b92506101000a81548167ffffffffffffffff021916908367ffffffffffffffff1602179055505b3373ffffffffffffffffffffffffffffffffffffffff163073ffffffffffffffffffffffffffffffffffffffff167f2817372c62bc3cdb73b84b6412d5ce40c6e73c30ef5fac6558d0c4cb3da410b760405160405180910390a3565b6106bd610ea5565b6106fc576040517f08c379a00000000000000000000000000000000000000000000000000000000081526004016106f3906114da565b60405180910390fd5b60016008600061070a610e9d565b73ffffffffffffffffffffffffffffffffffffffff1673ffffffffffffffffffffffffffffffffffffffff16815260200190815260200160002060006101000a81548160ff0219169083151502179055506001600960008282829054906101000a900467ffffffffffffffff16610781919061130e565b92506101000a81548167ffffffffffffffff021916908367ffffffffffffffff1602179055503373ffffffffffffffffffffffffffffffffffffffff163073ffffffffffffffffffffffffffffffffffffffff167fbbcca6f8778ffd7765644921c17ed2de4add7a9b4ca1a29614a6295edd4a208960016040516108059190611119565b60405180910390a3565b610817610e9d565b73ffffffffffffffffffffffffffffffffffffffff16600160009054906101000a900473ffffffffffffffffffffffffffffffffffffffff1673ffffffffffffffffffffffffffffffffffffffff16146108a6576040517f08c379a000000000000000000000000000000000000000000000000000000000815260040161089d90611546565b60405180910390fd5b6001600560006101000a81548160ff021916908360018111156108cc576108cb61124d565b5b02179055503073ffffffffffffffffffffffffffffffffffffffff167f6944894ba716aadf69fcd57834d5d2cc2e808f6a144c75d956068efa727e2a7e4260405161091791906110a5565b60405180910390a2565b6003805461092e90611595565b80601f016020809104026020016040519081016040528092919081815260200182805461095a90611595565b80156109a75780601f1061097c576101008083540402835291602001916109a7565b820191906000526020600020905b81548152906001019060200180831161098a57829003601f168201915b505050505081565b60086020528060005260406000206000915054906101000a900460ff1681565b60066020528060005260406000206000915054906101000a900460ff1681565b600960089054906101000a900473ffffffffffffffffffffffffffffffffffffffff1681565b610a1d610e9d565b73ffffffffffffffffffffffffffffffffffffffff16610a3b610b2b565b73ffffffffffffffffffffffffffffffffffffffff1614610a91576040517f08c379a0000000000000000000000000000000000000000000000000000000008152600401610a8890611613565b60405180910390fd5b610a9b6000610f6c565b565b60028054610aaa90611595565b80601f0160208091040260200160405190810160405280929190818152602001828054610ad690611595565b8015610b235780601f10610af857610100808354040283529160200191610b23565b820191906000526020600020905b815481529060010190602001808311610b0657829003601f168201915b505050505081565b60008060009054906101000a900473ffffffffffffffffffffffffffffffffffffffff16905090565b610b5c610ea5565b610b9b576040517f08c379a0000000000000000000000000000000000000000000000000000000008152600401610b92906114da565b60405180910390fd5b600160066000610ba9610e9d565b73ffffffffffffffffffffffffffffffffffffffff1673ffffffffffffffffffffffffffffffffffffffff16815260200190815260200160002060006101000a81548160ff0219169083151502179055506001600760008282829054906101000a900467ffffffffffffffff16610c20919061130e565b92506101000a81548167ffffffffffffffff021916908367ffffffffffffffff1602179055503373ffffffffffffffffffffffffffffffffffffffff163073ffffffffffffffffffffffffffffffffffffffff167fbbcca6f8778ffd7765644921c17ed2de4add7a9b4ca1a29614a6295edd4a20896001604051610ca49190611119565b60405180910390a3565b600a5481565b600960009054906101000a900467ffffffffffffffff1681565b610cd6610e9d565b73ffffffffffffffffffffffffffffffffffffffff16610cf4610b2b565b73ffffffffffffffffffffffffffffffffffffffff1614610d4a576040517f08c379a0000000000000000000000000000000000000000000000000000000008152600401610d4190611613565b60405180910390fd5b600073ffffffffffffffffffffffffffffffffffffffff168173ffffffffffffffffffffffffffffffffffffffff161415610dba576040517f08c379a0000000000000000000000000000000000000000000000000000000008152600401610db1906116a5565b60405180910390fd5b610dc381610f6c565b50565b600560009054906101000a900460ff1681565b60006001151560066000610deb610e9d565b73ffffffffffffffffffffffffffffffffffffffff1673ffffffffffffffffffffffffffffffffffffffff16815260200190815260200160002060009054906101000a900460ff1615151480610e9857506001151560086000610e4c610e9d565b73ffffffffffffffffffffffffffffffffffffffff1673ffffffffffffffffffffffffffffffffffffffff16815260200190815260200160002060009054906101000a900460ff161515145b905090565b600033905090565b60006001151560066000610eb7610e9d565b73ffffffffffffffffffffffffffffffffffffffff1673ffffffffffffffffffffffffffffffffffffffff16815260200190815260200160002060009054906101000a900460ff16151514158015610f6757506001151560086000610f1a610e9d565b73ffffffffffffffffffffffffffffffffffffffff1673ffffffffffffffffffffffffffffffffffffffff16815260200190815260200160002060009054906101000a900460ff16151514155b905090565b60008060009054906101000a900473ffffffffffffffffffffffffffffffffffffffff169050816000806101000a81548173ffffffffffffffffffffffffffffffffffffffff021916908373ffffffffffffffffffffffffffffffffffffffff1602179055508173ffffffffffffffffffffffffffffffffffffffff168173ffffffffffffffffffffffffffffffffffffffff167f8be0079c531659141344cd1fd0a4f28419497f9722a3daafe3b4186f6b6457e060405160405180910390a35050565b600073ffffffffffffffffffffffffffffffffffffffff82169050919050565b600061105b82611030565b9050919050565b61106b81611050565b82525050565b60006020820190506110866000830184611062565b92915050565b6000819050919050565b61109f8161108c565b82525050565b60006020820190506110ba6000830184611096565b92915050565b600067ffffffffffffffff82169050919050565b6110dd816110c0565b82525050565b60006020820190506110f860008301846110d4565b92915050565b60008115159050919050565b611113816110fe565b82525050565b600060208201905061112e600083018461110a565b92915050565b600081519050919050565b600082825260208201905092915050565b60005b8381101561116e578082015181840152602081019050611153565b8381111561117d576000848401525b50505050565b6000601f19601f8301169050919050565b600061119f82611134565b6111a9818561113f565b93506111b9818560208601611150565b6111c281611183565b840191505092915050565b600060208201905081810360008301526111e78184611194565b905092915050565b600080fd5b6111fd81611050565b811461120857600080fd5b50565b60008135905061121a816111f4565b92915050565b600060208284031215611236576112356111ef565b5b60006112448482850161120b565b91505092915050565b7f4e487b7100000000000000000000000000000000000000000000000000000000600052602160045260246000fd5b6002811061128d5761128c61124d565b5b50565b600081905061129e8261127c565b919050565b60006112ae82611290565b9050919050565b6112be816112a3565b82525050565b60006020820190506112d960008301846112b5565b92915050565b7f4e487b7100000000000000000000000000000000000000000000000000000000600052601160045260246000fd5b6000611319826110c0565b9150611324836110c0565b92508267ffffffffffffffff03821115611341576113406112df565b5b828201905092915050565b6000611357826110c0565b9150611362836110c0565b92508167ffffffffffffffff0483118215151615611383576113826112df565b5b828202905092915050565b7f4e487b7100000000000000000000000000000000000000000000000000000000600052601260045260246000fd5b60006113c8826110c0565b91506113d3836110c0565b9250826113e3576113e261138e565b5b828204905092915050565b7f746865206164647265737320646964206e6f7420766f74652079657400000000600082015250565b6000611424601c8361113f565b915061142f826113ee565b602082019050919050565b6000602082019050818103600083015261145381611417565b9050919050565b6000611465826110c0565b9150611470836110c0565b925082821015611483576114826112df565b5b828203905092915050565b7f74686520616464726573732068617320766f74656420616c7265616479000000600082015250565b60006114c4601d8361113f565b91506114cf8261148e565b602082019050919050565b600060208201905081810360008301526114f3816114b7565b9050919050565b7f6e6f7420616e206f776e65720000000000000000000000000000000000000000600082015250565b6000611530600c8361113f565b915061153b826114fa565b602082019050919050565b6000602082019050818103600083015261155f81611523565b9050919050565b7f4e487b7100000000000000000000000000000000000000000000000000000000600052602260045260246000fd5b600060028204905060018216806115ad57607f821691505b602082108114156115c1576115c0611566565b5b50919050565b7f4f776e61626c653a2063616c6c6572206973206e6f7420746865206f776e6572600082015250565b60006115fd60208361113f565b9150611608826115c7565b602082019050919050565b6000602082019050818103600083015261162c816115f0565b9050919050565b7f4f776e61626c653a206e6577206f776e657220697320746865207a65726f206160008201527f6464726573730000000000000000000000000000000000000000000000000000602082015250565b600061168f60268361113f565b915061169a82611633565b604082019050919050565b600060208201905081810360008301526116be81611682565b905091905056fea264697066735822122064af8d86b46b752a36d2f1c056bdea7691043014e313bfba31061d586d31f07764736f6c63430008090033a264697066735822122036c326c2f80116c8f0302c17743e2fbfd4209c1d02698255c720e7ed979f33d564736f6c63430008090033",
  "immutableReferences": {},
  "source": "// SPDX-License-Identifier: MIT\npragma solidity >=0.8.0;\n\nimport \"./ITreasureBay.sol\";\nimport \"./TreasurePool.sol\";\nimport \"./proposal/ExchangeProposal.sol\";\nimport \"./proposal/TransferProposal.sol\";\nimport \"./proposal/TreasureExchangeChest.sol\";\nimport \"./proposal/TreasureTransferChest.sol\";\nimport \"@openzeppelin/contracts/token/ERC20/IERC20.sol\";\nimport \"@openzeppelin/contracts/token/ERC20/ERC20.sol\";\n\ncontract TreasureBay is\n  ITreasureBay,\n  TreasurePool,\n  TreasureTransferChest,\n  TreasureExchangeChest\n{\n  struct TreasureHunter {\n    address contractAddress;\n    uint256 joinedAt;\n  }\n  string private _name;\n  address private _creator;\n  uint64 private _limitNumberOfTreasureHunters;\n  TreasureHunter[] private _listOfTreasureHunters;\n  mapping(address => TreasureHunter) public treasureHunters;\n  bool private _isActivated = false; // If there are more than 3 members, activated\n  mapping(address => bool) public allowedRecipients;\n\n  event NewTreasureHunter(address treasureHunter, uint256 timestamp);\n\n  modifier onlyStakeholder() {\n    require(stakeholders[msg.sender].balance > 0, \"must be a stakeholder\");\n    _;\n  }\n\n  modifier onlyTreasureHunter() {\n    require(\n      treasureHunters[msg.sender].contractAddress != address(0x0),\n      \"must be a treasureHunter\"\n    );\n    _;\n  }\n\n  constructor(\n    string memory name_,\n    uint64 limitNumberOfStakeholders_,\n    uint64 limitNumberOfTreasureHunters_\n  ) payable ITreasureBay() {\n    limitNumberOfStakeholders = limitNumberOfStakeholders_;\n    _limitNumberOfTreasureHunters = limitNumberOfTreasureHunters_;\n    _name = name_;\n    _creator = _msgSender();\n  }\n\n  function name() public view virtual returns (string memory) {\n    return _name;\n  }\n\n  function creator() public view virtual returns (address) {\n    return _creator;\n  }\n\n  function limitNumberOfTreasureHunters() public view virtual returns (uint64) {\n    return _limitNumberOfTreasureHunters;\n  }\n\n  function listOfTreasureHunters()\n    public\n    view\n    virtual\n    returns (TreasureHunter[] memory)\n  {\n    return _listOfTreasureHunters;\n  }\n\n  function createTreasureHunter() public returns (TreasureHunter memory) {\n    require(\n      _listOfTreasureHunters.length <= _limitNumberOfTreasureHunters,\n      \"surpass limit number of treasureHunters\"\n    );\n    treasureHunters[_msgSender()] = TreasureHunter(\n      _msgSender(),\n      block.timestamp\n    );\n    _listOfTreasureHunters.push(treasureHunters[_msgSender()]);\n    if (_listOfTreasureHunters.length > 5) {\n      toggleIsActivated(true);\n    }\n    emit NewTreasureHunter(\n      treasureHunters[_msgSender()].contractAddress,\n      block.timestamp\n    );\n    return treasureHunters[_msgSender()];\n  }\n\n  function toggleIsActivated(bool isActivated_) public returns (bool _success) {\n    _isActivated = isActivated_;\n    return true;\n  }\n\n  function createNewTransferProposal(\n    string memory _title,\n    string memory _description,\n    uint64 _debatingPeriod,\n    address _recipient,\n    uint256 _amount\n  ) public onlyStakeholder returns (uint256) {\n    return\n      _newTransferProposal(\n        _title,\n        _description,\n        _debatingPeriod,\n        _recipient,\n        _amount\n      );\n  }\n\n  // function executeProposal(uint256 _proposalID, bytes memory _transactionData)\n  //   external\n  //   override\n  //   returns (bool _success)\n  // {}\n\n  // function changeAllowedRecipients(address _recipient, bool _allowed)\n  //   external\n  //   override\n  //   returns (bool _success)\n  // {}\n}\n",
  "sourcePath": "/Users/chungquantin/Desktop/Projects/DecentralizedOpenSource/smart-bay/contracts/features/dao/TreasureBay.sol",
  "compiler": {
    "name": "solc",
    "version": "0.8.9+commit.e5eed63a.Emscripten.clang"
  },
  "schemaVersion": "3.4.3",
  "updatedAt": "2021-11-15T09:25:49.372Z",
  "devdoc": {
    "kind": "dev",
    "methods": {
      "owner()": {
        "details": "Returns the address of the current owner."
      },
      "renounceOwnership()": {
        "details": "Leaves the contract without owner. It will not be possible to call `onlyOwner` functions anymore. Can only be called by the current owner. NOTE: Renouncing ownership will leave the contract without an owner, thereby removing any functionality that is only available to the owner."
      },
      "transferOwnership(address)": {
        "details": "Transfers ownership of the contract to a new account (`newOwner`). Can only be called by the current owner."
      }
    },
    "version": 1
  },
  "userdoc": {
    "kind": "user",
    "methods": {},
    "version": 1
  }
}